{
  "address": "0xe7f1725E7734CE288F8367e1Bb143E90bb3F0512",
  "abi": [
    {
      "inputs": [],
      "stateMutability": "nonpayable",
      "type": "constructor"
    },
    {
      "anonymous": false,
      "inputs": [
        {
          "indexed": true,
          "internalType": "address",
          "name": "owner",
          "type": "address"
        },
        {
          "indexed": true,
          "internalType": "address",
          "name": "approved",
          "type": "address"
        },
        {
          "indexed": true,
          "internalType": "uint256",
          "name": "tokenId",
          "type": "uint256"
        }
      ],
      "name": "Approval",
      "type": "event"
    },
    {
      "anonymous": false,
      "inputs": [
        {
          "indexed": true,
          "internalType": "address",
          "name": "owner",
          "type": "address"
        },
        {
          "indexed": true,
          "internalType": "address",
          "name": "operator",
          "type": "address"
        },
        {
          "indexed": false,
          "internalType": "bool",
          "name": "approved",
          "type": "bool"
        }
      ],
      "name": "ApprovalForAll",
      "type": "event"
    },
    {
      "anonymous": false,
      "inputs": [
        {
          "indexed": true,
          "internalType": "bytes32",
          "name": "role",
          "type": "bytes32"
        },
        {
          "indexed": true,
          "internalType": "bytes32",
          "name": "previousAdminRole",
          "type": "bytes32"
        },
        {
          "indexed": true,
          "internalType": "bytes32",
          "name": "newAdminRole",
          "type": "bytes32"
        }
      ],
      "name": "RoleAdminChanged",
      "type": "event"
    },
    {
      "anonymous": false,
      "inputs": [
        {
          "indexed": true,
          "internalType": "bytes32",
          "name": "role",
          "type": "bytes32"
        },
        {
          "indexed": true,
          "internalType": "address",
          "name": "account",
          "type": "address"
        },
        {
          "indexed": true,
          "internalType": "address",
          "name": "sender",
          "type": "address"
        }
      ],
      "name": "RoleGranted",
      "type": "event"
    },
    {
      "anonymous": false,
      "inputs": [
        {
          "indexed": true,
          "internalType": "bytes32",
          "name": "role",
          "type": "bytes32"
        },
        {
          "indexed": true,
          "internalType": "address",
          "name": "account",
          "type": "address"
        },
        {
          "indexed": true,
          "internalType": "address",
          "name": "sender",
          "type": "address"
        }
      ],
      "name": "RoleRevoked",
      "type": "event"
    },
    {
      "anonymous": false,
      "inputs": [
        {
          "indexed": true,
          "internalType": "address",
          "name": "from",
          "type": "address"
        },
        {
          "indexed": true,
          "internalType": "address",
          "name": "to",
          "type": "address"
        },
        {
          "indexed": true,
          "internalType": "uint256",
          "name": "tokenId",
          "type": "uint256"
        }
      ],
      "name": "Transfer",
      "type": "event"
    },
    {
      "inputs": [],
      "name": "DEFAULT_ADMIN_ROLE",
      "outputs": [
        {
          "internalType": "bytes32",
          "name": "",
          "type": "bytes32"
        }
      ],
      "stateMutability": "view",
      "type": "function"
    },
    {
      "inputs": [],
      "name": "MINTER_ROLE",
      "outputs": [
        {
          "internalType": "bytes32",
          "name": "",
          "type": "bytes32"
        }
      ],
      "stateMutability": "view",
      "type": "function"
    },
    {
      "inputs": [
        {
          "internalType": "address",
          "name": "to",
          "type": "address"
        },
        {
          "internalType": "uint256",
          "name": "tokenId",
          "type": "uint256"
        }
      ],
      "name": "approve",
      "outputs": [],
      "stateMutability": "nonpayable",
      "type": "function"
    },
    {
      "inputs": [
        {
          "internalType": "address",
          "name": "owner",
          "type": "address"
        }
      ],
      "name": "balanceOf",
      "outputs": [
        {
          "internalType": "uint256",
          "name": "",
          "type": "uint256"
        }
      ],
      "stateMutability": "view",
      "type": "function"
    },
    {
      "inputs": [
        {
          "internalType": "uint256",
          "name": "tokenId",
          "type": "uint256"
        }
      ],
      "name": "burn",
      "outputs": [],
      "stateMutability": "nonpayable",
      "type": "function"
    },
    {
      "inputs": [
        {
          "internalType": "uint256",
          "name": "tokenId",
          "type": "uint256"
        }
      ],
      "name": "getApproved",
      "outputs": [
        {
          "internalType": "address",
          "name": "",
          "type": "address"
        }
      ],
      "stateMutability": "view",
      "type": "function"
    },
    {
      "inputs": [
        {
          "internalType": "bytes32",
          "name": "role",
          "type": "bytes32"
        }
      ],
      "name": "getRoleAdmin",
      "outputs": [
        {
          "internalType": "bytes32",
          "name": "",
          "type": "bytes32"
        }
      ],
      "stateMutability": "view",
      "type": "function"
    },
    {
      "inputs": [
        {
          "internalType": "bytes32",
          "name": "role",
          "type": "bytes32"
        },
        {
          "internalType": "address",
          "name": "account",
          "type": "address"
        }
      ],
      "name": "grantRole",
      "outputs": [],
      "stateMutability": "nonpayable",
      "type": "function"
    },
    {
      "inputs": [
        {
          "internalType": "bytes32",
          "name": "role",
          "type": "bytes32"
        },
        {
          "internalType": "address",
          "name": "account",
          "type": "address"
        }
      ],
      "name": "hasRole",
      "outputs": [
        {
          "internalType": "bool",
          "name": "",
          "type": "bool"
        }
      ],
      "stateMutability": "view",
      "type": "function"
    },
    {
      "inputs": [
        {
          "internalType": "address",
          "name": "owner",
          "type": "address"
        },
        {
          "internalType": "address",
          "name": "operator",
          "type": "address"
        }
      ],
      "name": "isApprovedForAll",
      "outputs": [
        {
          "internalType": "bool",
          "name": "",
          "type": "bool"
        }
      ],
      "stateMutability": "view",
      "type": "function"
    },
    {
      "inputs": [],
      "name": "name",
      "outputs": [
        {
          "internalType": "string",
          "name": "",
          "type": "string"
        }
      ],
      "stateMutability": "view",
      "type": "function"
    },
    {
      "inputs": [
        {
          "internalType": "address",
          "name": "from",
          "type": "address"
        },
        {
          "internalType": "address[]",
          "name": "toAddresses",
          "type": "address[]"
        },
        {
          "internalType": "uint256[]",
          "name": "tokenIds",
          "type": "uint256[]"
        }
      ],
      "name": "oneToManyTransfer",
      "outputs": [],
      "stateMutability": "nonpayable",
      "type": "function"
    },
    {
      "inputs": [
        {
          "internalType": "uint256",
          "name": "tokenId",
          "type": "uint256"
        }
      ],
      "name": "ownerOf",
      "outputs": [
        {
          "internalType": "address",
          "name": "",
          "type": "address"
        }
      ],
      "stateMutability": "view",
      "type": "function"
    },
    {
      "inputs": [
        {
          "internalType": "bytes32",
          "name": "role",
          "type": "bytes32"
        },
        {
          "internalType": "address",
          "name": "account",
          "type": "address"
        }
      ],
      "name": "renounceRole",
      "outputs": [],
      "stateMutability": "nonpayable",
      "type": "function"
    },
    {
      "inputs": [
        {
          "internalType": "bytes32",
          "name": "role",
          "type": "bytes32"
        },
        {
          "internalType": "address",
          "name": "account",
          "type": "address"
        }
      ],
      "name": "revokeRole",
      "outputs": [],
      "stateMutability": "nonpayable",
      "type": "function"
    },
    {
      "inputs": [
        {
          "internalType": "uint256",
          "name": "_tokenId",
          "type": "uint256"
        },
        {
          "internalType": "uint256",
          "name": "_salePrice",
          "type": "uint256"
        }
      ],
      "name": "royaltyInfo",
      "outputs": [
        {
          "internalType": "address",
          "name": "",
          "type": "address"
        },
        {
          "internalType": "uint256",
          "name": "",
          "type": "uint256"
        }
      ],
      "stateMutability": "view",
      "type": "function"
    },
    {
      "inputs": [
        {
          "internalType": "address",
          "name": "to",
          "type": "address"
        },
        {
          "internalType": "string",
          "name": "uri",
          "type": "string"
        },
        {
          "internalType": "address",
          "name": "royaltyRecipient",
          "type": "address"
        },
        {
          "internalType": "uint96",
          "name": "royaltyValue",
          "type": "uint96"
        }
      ],
      "name": "safeMint",
      "outputs": [
        {
          "internalType": "uint256",
          "name": "",
          "type": "uint256"
        }
      ],
      "stateMutability": "nonpayable",
      "type": "function"
    },
    {
      "inputs": [
        {
          "internalType": "address",
          "name": "from",
          "type": "address"
        },
        {
          "internalType": "address",
          "name": "to",
          "type": "address"
        },
        {
          "internalType": "uint256",
          "name": "tokenId",
          "type": "uint256"
        }
      ],
      "name": "safeTransferFrom",
      "outputs": [],
      "stateMutability": "nonpayable",
      "type": "function"
    },
    {
      "inputs": [
        {
          "internalType": "address",
          "name": "from",
          "type": "address"
        },
        {
          "internalType": "address",
          "name": "to",
          "type": "address"
        },
        {
          "internalType": "uint256",
          "name": "tokenId",
          "type": "uint256"
        },
        {
          "internalType": "bytes",
          "name": "data",
          "type": "bytes"
        }
      ],
      "name": "safeTransferFrom",
      "outputs": [],
      "stateMutability": "nonpayable",
      "type": "function"
    },
    {
      "inputs": [
        {
          "internalType": "address",
          "name": "operator",
          "type": "address"
        },
        {
          "internalType": "bool",
          "name": "approved",
          "type": "bool"
        }
      ],
      "name": "setApprovalForAll",
      "outputs": [],
      "stateMutability": "nonpayable",
      "type": "function"
    },
    {
      "inputs": [
        {
          "internalType": "bytes4",
          "name": "interfaceId",
          "type": "bytes4"
        }
      ],
      "name": "supportsInterface",
      "outputs": [
        {
          "internalType": "bool",
          "name": "",
          "type": "bool"
        }
      ],
      "stateMutability": "view",
      "type": "function"
    },
    {
      "inputs": [],
      "name": "symbol",
      "outputs": [
        {
          "internalType": "string",
          "name": "",
          "type": "string"
        }
      ],
      "stateMutability": "view",
      "type": "function"
    },
    {
      "inputs": [
        {
          "internalType": "uint256",
          "name": "index",
          "type": "uint256"
        }
      ],
      "name": "tokenByIndex",
      "outputs": [
        {
          "internalType": "uint256",
          "name": "",
          "type": "uint256"
        }
      ],
      "stateMutability": "view",
      "type": "function"
    },
    {
      "inputs": [
        {
          "internalType": "address",
          "name": "owner",
          "type": "address"
        },
        {
          "internalType": "uint256",
          "name": "index",
          "type": "uint256"
        }
      ],
      "name": "tokenOfOwnerByIndex",
      "outputs": [
        {
          "internalType": "uint256",
          "name": "",
          "type": "uint256"
        }
      ],
      "stateMutability": "view",
      "type": "function"
    },
    {
      "inputs": [
        {
          "internalType": "uint256",
          "name": "tokenId",
          "type": "uint256"
        }
      ],
      "name": "tokenURI",
      "outputs": [
        {
          "internalType": "string",
          "name": "",
          "type": "string"
        }
      ],
      "stateMutability": "view",
      "type": "function"
    },
    {
      "inputs": [],
      "name": "totalSupply",
      "outputs": [
        {
          "internalType": "uint256",
          "name": "",
          "type": "uint256"
        }
      ],
      "stateMutability": "view",
      "type": "function"
    },
    {
      "inputs": [
        {
          "internalType": "address",
          "name": "from",
          "type": "address"
        },
        {
          "internalType": "address",
          "name": "to",
          "type": "address"
        },
        {
          "internalType": "uint256",
          "name": "tokenId",
          "type": "uint256"
        }
      ],
      "name": "transferFrom",
      "outputs": [],
      "stateMutability": "nonpayable",
      "type": "function"
    }
  ],
  "transactionHash": "0x4321c035286c41d4340047717bbefe2ad69929f849e8648a9b27a15114ceac61",
  "args": [],
  "numDeployments": 1,
  "solcInputHash": "129a422f14c412eb193062598b0b323b",
  "bytecode": "0x6101406040523480156200001257600080fd5b506040518060400160405280600a81526020017f4d697373696f6e4e4654000000000000000000000000000000000000000000008152506040518060400160405280600181526020017f31000000000000000000000000000000000000000000000000000000000000008152506040518060400160405280600a81526020017f4d697373696f6e4e4654000000000000000000000000000000000000000000008152506040518060400160405280600481526020017f4d495353000000000000000000000000000000000000000000000000000000008152508160009081620000fc919062000658565b5080600190816200010e919062000658565b50505060008280519060200120905060008280519060200120905060007f8b73c3c69bb8fe3d512ecc4cf759cc79239f7b179b0ffacaa9a75d522b39400f90508260e081815250508161010081815250504660a081815250506200017a8184846200022760201b60201c565b608081815250503073ffffffffffffffffffffffffffffffffffffffff1660c08173ffffffffffffffffffffffffffffffffffffffff16815250508061012081815250505050505050620001d86000801b336200026360201b60201c565b6200020a7f9f2df0fed2c77648de5860a4cc508cd0818c85b8b8a1ab4ceeef8d981c8956a6336200026360201b60201c565b62000221600e6200035560201b6200113f1760201c565b6200080d565b6000838383463060405160200162000244959493929190620007b0565b6040516020818303038152906040528051906020012090509392505050565b6200027582826200036b60201b60201c565b62000351576001600d600084815260200190815260200160002060000160008373ffffffffffffffffffffffffffffffffffffffff1673ffffffffffffffffffffffffffffffffffffffff16815260200190815260200160002060006101000a81548160ff021916908315150217905550620002f6620003d660201b60201c565b73ffffffffffffffffffffffffffffffffffffffff168173ffffffffffffffffffffffffffffffffffffffff16837f2f8788117e7eff1d82e926ec794901d17c78024a50270940304540a733656f0d60405160405180910390a45b5050565b6001816000016000828254019250508190555050565b6000600d600084815260200190815260200160002060000160008373ffffffffffffffffffffffffffffffffffffffff1673ffffffffffffffffffffffffffffffffffffffff16815260200190815260200160002060009054906101000a900460ff16905092915050565b600033905090565b600081519050919050565b7f4e487b7100000000000000000000000000000000000000000000000000000000600052604160045260246000fd5b7f4e487b7100000000000000000000000000000000000000000000000000000000600052602260045260246000fd5b600060028204905060018216806200046057607f821691505b60208210810362000476576200047562000418565b5b50919050565b60008190508160005260206000209050919050565b60006020601f8301049050919050565b600082821b905092915050565b600060088302620004e07fffffffffffffffffffffffffffffffffffffffffffffffffffffffffffffffff82620004a1565b620004ec8683620004a1565b95508019841693508086168417925050509392505050565b6000819050919050565b6000819050919050565b600062000539620005336200052d8462000504565b6200050e565b62000504565b9050919050565b6000819050919050565b620005558362000518565b6200056d620005648262000540565b848454620004ae565b825550505050565b600090565b6200058462000575565b620005918184846200054a565b505050565b5b81811015620005b957620005ad6000826200057a565b60018101905062000597565b5050565b601f8211156200060857620005d2816200047c565b620005dd8462000491565b81016020851015620005ed578190505b62000605620005fc8562000491565b83018262000596565b50505b505050565b600082821c905092915050565b60006200062d600019846008026200060d565b1980831691505092915050565b60006200064883836200061a565b9150826002028217905092915050565b6200066382620003de565b67ffffffffffffffff8111156200067f576200067e620003e9565b5b6200068b825462000447565b62000698828285620005bd565b600060209050601f831160018114620006d05760008415620006bb578287015190505b620006c785826200063a565b86555062000737565b601f198416620006e0866200047c565b60005b828110156200070a57848901518255600182019150602085019450602081019050620006e3565b868310156200072a578489015162000726601f8916826200061a565b8355505b6001600288020188555050505b505050505050565b6000819050919050565b62000754816200073f565b82525050565b620007658162000504565b82525050565b600073ffffffffffffffffffffffffffffffffffffffff82169050919050565b600062000798826200076b565b9050919050565b620007aa816200078b565b82525050565b600060a082019050620007c7600083018862000749565b620007d6602083018762000749565b620007e5604083018662000749565b620007f460608301856200075a565b6200080360808301846200079f565b9695505050505050565b60805160a05160c05160e05161010051610120516149de6200084b6000396000505060005050600050506000505060005050600050506149de6000f3fe608060405234801561001057600080fd5b50600436106101a95760003560e01c80634f6ccce7116100f9578063a22cb46511610097578063c87b56dd11610071578063c87b56dd14610503578063d539139314610533578063d547741f14610551578063e985e9c51461056d576101a9565b8063a22cb465146104af578063b88d4fde146104cb578063c182178e146104e7576101a9565b806370a08231116100d357806370a082311461041357806391d148541461044357806395d89b4114610473578063a217fddf14610491576101a9565b80634f6ccce7146103835780635ff97ebf146103b35780636352211e146103e3576101a9565b8063248a9ca3116101665780632f745c59116101405780632f745c59146102ff57806336568abe1461032f57806342842e0e1461034b57806342966c6814610367576101a9565b8063248a9ca3146102825780632a55205a146102b25780632f2ff15d146102e3576101a9565b806301ffc9a7146101ae57806306fdde03146101de578063081812fc146101fc578063095ea7b31461022c57806318160ddd1461024857806323b872dd14610266575b600080fd5b6101c860048036038101906101c39190612f02565b61059d565b6040516101d59190612f4a565b60405180910390f35b6101e66105af565b6040516101f39190612ff5565b60405180910390f35b6102166004803603810190610211919061304d565b610641565b60405161022391906130bb565b60405180910390f35b61024660048036038101906102419190613102565b610687565b005b61025061079e565b60405161025d9190613151565b60405180910390f35b610280600480360381019061027b919061316c565b6107ab565b005b61029c600480360381019061029791906131f5565b61080b565b6040516102a99190613231565b60405180910390f35b6102cc60048036038101906102c7919061324c565b61082b565b6040516102da92919061328c565b60405180910390f35b6102fd60048036038101906102f891906132b5565b610a15565b005b61031960048036038101906103149190613102565b610a36565b6040516103269190613151565b60405180910390f35b610349600480360381019061034491906132b5565b610adb565b005b6103656004803603810190610360919061316c565b610b5e565b005b610381600480360381019061037c919061304d565b610b7e565b005b61039d6004803603810190610398919061304d565b610bda565b6040516103aa9190613151565b60405180910390f35b6103cd60048036038101906103c8919061346e565b610c4b565b6040516103da9190613151565b60405180910390f35b6103fd60048036038101906103f8919061304d565b610cd3565b60405161040a91906130bb565b60405180910390f35b61042d600480360381019061042891906134f1565b610d84565b60405161043a9190613151565b60405180910390f35b61045d600480360381019061045891906132b5565b610e3b565b60405161046a9190612f4a565b60405180910390f35b61047b610ea6565b6040516104889190612ff5565b60405180910390f35b610499610f38565b6040516104a69190613231565b60405180910390f35b6104c960048036038101906104c4919061354a565b610f3f565b005b6104e560048036038101906104e0919061362b565b610f55565b005b61050160048036038101906104fc9190613839565b610fb7565b005b61051d6004803603810190610518919061304d565b611054565b60405161052a9190612ff5565b60405180910390f35b61053b611066565b6040516105489190613231565b60405180910390f35b61056b600480360381019061056691906132b5565b61108a565b005b610587600480360381019061058291906138c4565b6110ab565b6040516105949190612f4a565b60405180910390f35b60006105a882611155565b9050919050565b6060600080546105be90613933565b80601f01602080910402602001604051908101604052809291908181526020018280546105ea90613933565b80156106375780601f1061060c57610100808354040283529160200191610637565b820191906000526020600020905b81548152906001019060200180831161061a57829003601f168201915b5050505050905090565b600061064c826111cf565b6004600083815260200190815260200160002060009054906101000a900473ffffffffffffffffffffffffffffffffffffffff169050919050565b600061069282610cd3565b90508073ffffffffffffffffffffffffffffffffffffffff168373ffffffffffffffffffffffffffffffffffffffff1603610702576040517f08c379a00000000000000000000000000000000000000000000000000000000081526004016106f9906139d6565b60405180910390fd5b8073ffffffffffffffffffffffffffffffffffffffff1661072161121a565b73ffffffffffffffffffffffffffffffffffffffff161480610750575061074f8161074a61121a565b6110ab565b5b61078f576040517f08c379a000000000000000000000000000000000000000000000000000000000815260040161078690613a68565b60405180910390fd5b6107998383611222565b505050565b6000600b80549050905090565b6107bc6107b661121a565b826112db565b6107fb576040517f08c379a00000000000000000000000000000000000000000000000000000000081526004016107f290613afa565b60405180910390fd5b610806838383611370565b505050565b6000600d6000838152602001908152602001600020600101549050919050565b6000806000600760008681526020019081526020016000206040518060400160405290816000820160009054906101000a900473ffffffffffffffffffffffffffffffffffffffff1673ffffffffffffffffffffffffffffffffffffffff1673ffffffffffffffffffffffffffffffffffffffff1681526020016000820160149054906101000a90046bffffffffffffffffffffffff166bffffffffffffffffffffffff166bffffffffffffffffffffffff16815250509050600073ffffffffffffffffffffffffffffffffffffffff16816000015173ffffffffffffffffffffffffffffffffffffffff16036109c05760066040518060400160405290816000820160009054906101000a900473ffffffffffffffffffffffffffffffffffffffff1673ffffffffffffffffffffffffffffffffffffffff1673ffffffffffffffffffffffffffffffffffffffff1681526020016000820160149054906101000a90046bffffffffffffffffffffffff166bffffffffffffffffffffffff166bffffffffffffffffffffffff168152505090505b60006109ca6115d6565b6bffffffffffffffffffffffff1682602001516bffffffffffffffffffffffff16866109f69190613b49565b610a009190613bd2565b90508160000151819350935050509250929050565b610a1e8261080b565b610a27816115e0565b610a3183836115f4565b505050565b6000610a4183610d84565b8210610a82576040517f08c379a0000000000000000000000000000000000000000000000000000000008152600401610a7990613c75565b60405180910390fd5b600960008473ffffffffffffffffffffffffffffffffffffffff1673ffffffffffffffffffffffffffffffffffffffff168152602001908152602001600020600083815260200190815260200160002054905092915050565b610ae361121a565b73ffffffffffffffffffffffffffffffffffffffff168173ffffffffffffffffffffffffffffffffffffffff1614610b50576040517f08c379a0000000000000000000000000000000000000000000000000000000008152600401610b4790613d07565b60405180910390fd5b610b5a82826116d5565b5050565b610b7983838360405180602001604052806000815250610f55565b505050565b610b8f610b8961121a565b826112db565b610bce576040517f08c379a0000000000000000000000000000000000000000000000000000000008152600401610bc590613afa565b60405180910390fd5b610bd7816117b7565b50565b6000610be461079e565b8210610c25576040517f08c379a0000000000000000000000000000000000000000000000000000000008152600401610c1c90613d99565b60405180910390fd5b600b8281548110610c3957610c38613db9565b5b90600052602060002001549050919050565b60007f9f2df0fed2c77648de5860a4cc508cd0818c85b8b8a1ab4ceeef8d981c8956a6610c77816115e0565b6000610c83600e6117cc565b9050610c8f600e61113f565b610c9987826117da565b610ca381876117f8565b6000846bffffffffffffffffffffffff161115610cc657610cc5818686611865565b5b8092505050949350505050565b6000806002600084815260200190815260200160002060009054906101000a900473ffffffffffffffffffffffffffffffffffffffff169050600073ffffffffffffffffffffffffffffffffffffffff168173ffffffffffffffffffffffffffffffffffffffff1603610d7b576040517f08c379a0000000000000000000000000000000000000000000000000000000008152600401610d7290613e34565b60405180910390fd5b80915050919050565b60008073ffffffffffffffffffffffffffffffffffffffff168273ffffffffffffffffffffffffffffffffffffffff1603610df4576040517f08c379a0000000000000000000000000000000000000000000000000000000008152600401610deb90613ec6565b60405180910390fd5b600360008373ffffffffffffffffffffffffffffffffffffffff1673ffffffffffffffffffffffffffffffffffffffff168152602001908152602001600020549050919050565b6000600d600084815260200190815260200160002060000160008373ffffffffffffffffffffffffffffffffffffffff1673ffffffffffffffffffffffffffffffffffffffff16815260200190815260200160002060009054906101000a900460ff16905092915050565b606060018054610eb590613933565b80601f0160208091040260200160405190810160405280929190818152602001828054610ee190613933565b8015610f2e5780601f10610f0357610100808354040283529160200191610f2e565b820191906000526020600020905b815481529060010190602001808311610f1157829003601f168201915b5050505050905090565b6000801b81565b610f51610f4a61121a565b8383611a0c565b5050565b610f66610f6061121a565b836112db565b610fa5576040517f08c379a0000000000000000000000000000000000000000000000000000000008152600401610f9c90613afa565b60405180910390fd5b610fb184848484611b78565b50505050565b7f9f2df0fed2c77648de5860a4cc508cd0818c85b8b8a1ab4ceeef8d981c8956a6610fe1816115e0565b60005b835181101561104d5761103c8585838151811061100457611003613db9565b5b602002602001015185848151811061101f5761101e613db9565b5b602002602001015160405180602001604052806000815250611b78565b8061104690613ee6565b9050610fe4565b5050505050565b606061105f82611bd4565b9050919050565b7f9f2df0fed2c77648de5860a4cc508cd0818c85b8b8a1ab4ceeef8d981c8956a681565b6110938261080b565b61109c816115e0565b6110a683836116d5565b505050565b6000600560008473ffffffffffffffffffffffffffffffffffffffff1673ffffffffffffffffffffffffffffffffffffffff16815260200190815260200160002060008373ffffffffffffffffffffffffffffffffffffffff1673ffffffffffffffffffffffffffffffffffffffff16815260200190815260200160002060009054906101000a900460ff16905092915050565b6001816000016000828254019250508190555050565b60007f7965db0b000000000000000000000000000000000000000000000000000000007bffffffffffffffffffffffffffffffffffffffffffffffffffffffff1916827bffffffffffffffffffffffffffffffffffffffffffffffffffffffff191614806111c857506111c782611ce6565b5b9050919050565b6111d881611d60565b611217576040517f08c379a000000000000000000000000000000000000000000000000000000000815260040161120e90613e34565b60405180910390fd5b50565b600033905090565b816004600083815260200190815260200160002060006101000a81548173ffffffffffffffffffffffffffffffffffffffff021916908373ffffffffffffffffffffffffffffffffffffffff160217905550808273ffffffffffffffffffffffffffffffffffffffff1661129583610cd3565b73ffffffffffffffffffffffffffffffffffffffff167f8c5be1e5ebec7d5bd14f71427d1e84f3dd0314c0f7b2291e5b200ac8c7c3b92560405160405180910390a45050565b6000806112e783610cd3565b90508073ffffffffffffffffffffffffffffffffffffffff168473ffffffffffffffffffffffffffffffffffffffff161480611329575061132881856110ab565b5b8061136757508373ffffffffffffffffffffffffffffffffffffffff1661134f84610641565b73ffffffffffffffffffffffffffffffffffffffff16145b91505092915050565b8273ffffffffffffffffffffffffffffffffffffffff1661139082610cd3565b73ffffffffffffffffffffffffffffffffffffffff16146113e6576040517f08c379a00000000000000000000000000000000000000000000000000000000081526004016113dd90613fa0565b60405180910390fd5b600073ffffffffffffffffffffffffffffffffffffffff168273ffffffffffffffffffffffffffffffffffffffff1603611455576040517f08c379a000000000000000000000000000000000000000000000000000000000815260040161144c90614032565b60405180910390fd5b611460838383611dcc565b61146b600082611222565b6001600360008573ffffffffffffffffffffffffffffffffffffffff1673ffffffffffffffffffffffffffffffffffffffff16815260200190815260200160002060008282546114bb9190614052565b925050819055506001600360008473ffffffffffffffffffffffffffffffffffffffff1673ffffffffffffffffffffffffffffffffffffffff16815260200190815260200160002060008282546115129190614086565b92505081905550816002600083815260200190815260200160002060006101000a81548173ffffffffffffffffffffffffffffffffffffffff021916908373ffffffffffffffffffffffffffffffffffffffff160217905550808273ffffffffffffffffffffffffffffffffffffffff168473ffffffffffffffffffffffffffffffffffffffff167fddf252ad1be2c89b69c2b068fc378daa952ba7f163c4a11628f55a4df523b3ef60405160405180910390a46115d1838383611ddc565b505050565b6000612710905090565b6115f1816115ec61121a565b611dec565b50565b6115fe8282610e3b565b6116d1576001600d600084815260200190815260200160002060000160008373ffffffffffffffffffffffffffffffffffffffff1673ffffffffffffffffffffffffffffffffffffffff16815260200190815260200160002060006101000a81548160ff02191690831515021790555061167661121a565b73ffffffffffffffffffffffffffffffffffffffff168173ffffffffffffffffffffffffffffffffffffffff16837f2f8788117e7eff1d82e926ec794901d17c78024a50270940304540a733656f0d60405160405180910390a45b5050565b6116df8282610e3b565b156117b3576000600d600084815260200190815260200160002060000160008373ffffffffffffffffffffffffffffffffffffffff1673ffffffffffffffffffffffffffffffffffffffff16815260200190815260200160002060006101000a81548160ff02191690831515021790555061175861121a565b73ffffffffffffffffffffffffffffffffffffffff168173ffffffffffffffffffffffffffffffffffffffff16837ff6391f5c32d9c69d2a47ea670b442974b53935d1edc7fd64eb21e047a839171b60405160405180910390a45b5050565b6117c081611e89565b6117c981611edc565b50565b600081600001549050919050565b6117f4828260405180602001604052806000815250611f3b565b5050565b61180182611d60565b611840576040517f08c379a00000000000000000000000000000000000000000000000000000000081526004016118379061412c565b60405180910390fd5b8060086000848152602001908152602001600020908161186091906142f8565b505050565b61186d6115d6565b6bffffffffffffffffffffffff16816bffffffffffffffffffffffff1611156118cb576040517f08c379a00000000000000000000000000000000000000000000000000000000081526004016118c29061443c565b60405180910390fd5b600073ffffffffffffffffffffffffffffffffffffffff168273ffffffffffffffffffffffffffffffffffffffff160361193a576040517f08c379a0000000000000000000000000000000000000000000000000000000008152600401611931906144a8565b60405180910390fd5b60405180604001604052808373ffffffffffffffffffffffffffffffffffffffff168152602001826bffffffffffffffffffffffff168152506007600085815260200190815260200160002060008201518160000160006101000a81548173ffffffffffffffffffffffffffffffffffffffff021916908373ffffffffffffffffffffffffffffffffffffffff16021790555060208201518160000160146101000a8154816bffffffffffffffffffffffff02191690836bffffffffffffffffffffffff160217905550905050505050565b8173ffffffffffffffffffffffffffffffffffffffff168373ffffffffffffffffffffffffffffffffffffffff1603611a7a576040517f08c379a0000000000000000000000000000000000000000000000000000000008152600401611a7190614514565b60405180910390fd5b80600560008573ffffffffffffffffffffffffffffffffffffffff1673ffffffffffffffffffffffffffffffffffffffff16815260200190815260200160002060008473ffffffffffffffffffffffffffffffffffffffff1673ffffffffffffffffffffffffffffffffffffffff16815260200190815260200160002060006101000a81548160ff0219169083151502179055508173ffffffffffffffffffffffffffffffffffffffff168373ffffffffffffffffffffffffffffffffffffffff167f17307eab39ab6107e8899845ad3d59bd9653f200f220920489ca2b5937696c3183604051611b6b9190612f4a565b60405180910390a3505050565b611b83848484611370565b611b8f84848484611f96565b611bce576040517f08c379a0000000000000000000000000000000000000000000000000000000008152600401611bc5906145a6565b60405180910390fd5b50505050565b6060611bdf826111cf565b6000600860008481526020019081526020016000208054611bff90613933565b80601f0160208091040260200160405190810160405280929190818152602001828054611c2b90613933565b8015611c785780601f10611c4d57610100808354040283529160200191611c78565b820191906000526020600020905b815481529060010190602001808311611c5b57829003601f168201915b505050505090506000611c8961211d565b90506000815103611c9e578192505050611ce1565b600082511115611cd3578082604051602001611cbb929190614602565b60405160208183030381529060405292505050611ce1565b611cdc84612134565b925050505b919050565b60007f780e9d63000000000000000000000000000000000000000000000000000000007bffffffffffffffffffffffffffffffffffffffffffffffffffffffff1916827bffffffffffffffffffffffffffffffffffffffffffffffffffffffff19161480611d595750611d588261219c565b5b9050919050565b60008073ffffffffffffffffffffffffffffffffffffffff166002600084815260200190815260200160002060009054906101000a900473ffffffffffffffffffffffffffffffffffffffff1673ffffffffffffffffffffffffffffffffffffffff1614159050919050565b611dd7838383612216565b505050565b611de7838383612328565b505050565b611df68282610e3b565b611e8557611e1b8173ffffffffffffffffffffffffffffffffffffffff16601461232d565b611e298360001c602061232d565b604051602001611e3a9291906146be565b6040516020818303038152906040526040517f08c379a0000000000000000000000000000000000000000000000000000000008152600401611e7c9190612ff5565b60405180910390fd5b5050565b611e9281612569565b6000600860008381526020019081526020016000208054611eb290613933565b905014611ed957600860008281526020019081526020016000206000611ed89190612e39565b5b50565b60076000828152602001908152602001600020600080820160006101000a81549073ffffffffffffffffffffffffffffffffffffffff02191690556000820160146101000a8154906bffffffffffffffffffffffff0219169055505050565b611f458383612686565b611f526000848484611f96565b611f91576040517f08c379a0000000000000000000000000000000000000000000000000000000008152600401611f88906145a6565b60405180910390fd5b505050565b6000611fb78473ffffffffffffffffffffffffffffffffffffffff1661285f565b15612110578373ffffffffffffffffffffffffffffffffffffffff1663150b7a02611fe061121a565b8786866040518563ffffffff1660e01b8152600401612002949392919061474d565b6020604051808303816000875af192505050801561203e57506040513d601f19601f8201168201806040525081019061203b91906147ae565b60015b6120c0573d806000811461206e576040519150601f19603f3d011682016040523d82523d6000602084013e612073565b606091505b5060008151036120b8576040517f08c379a00000000000000000000000000000000000000000000000000000000081526004016120af906145a6565b60405180910390fd5b805181602001fd5b63150b7a0260e01b7bffffffffffffffffffffffffffffffffffffffffffffffffffffffff1916817bffffffffffffffffffffffffffffffffffffffffffffffffffffffff191614915050612115565b600190505b949350505050565b606060405180602001604052806000815250905090565b606061213f826111cf565b600061214961211d565b905060008151116121695760405180602001604052806000815250612194565b8061217384612882565b604051602001612184929190614602565b6040516020818303038152906040525b915050919050565b60007f2a55205a000000000000000000000000000000000000000000000000000000007bffffffffffffffffffffffffffffffffffffffffffffffffffffffff1916827bffffffffffffffffffffffffffffffffffffffffffffffffffffffff1916148061220f575061220e826129e2565b5b9050919050565b612221838383612ac4565b600073ffffffffffffffffffffffffffffffffffffffff168373ffffffffffffffffffffffffffffffffffffffff16036122635761225e81612ac9565b6122a2565b8173ffffffffffffffffffffffffffffffffffffffff168373ffffffffffffffffffffffffffffffffffffffff16146122a1576122a08382612b12565b5b5b600073ffffffffffffffffffffffffffffffffffffffff168273ffffffffffffffffffffffffffffffffffffffff16036122e4576122df81612c7f565b612323565b8273ffffffffffffffffffffffffffffffffffffffff168273ffffffffffffffffffffffffffffffffffffffff1614612322576123218282612d50565b5b5b505050565b505050565b6060600060028360026123409190613b49565b61234a9190614086565b67ffffffffffffffff811115612363576123626132ff565b5b6040519080825280601f01601f1916602001820160405280156123955781602001600182028036833780820191505090505b5090507f3000000000000000000000000000000000000000000000000000000000000000816000815181106123cd576123cc613db9565b5b60200101907effffffffffffffffffffffffffffffffffffffffffffffffffffffffffffff1916908160001a9053507f78000000000000000000000000000000000000000000000000000000000000008160018151811061243157612430613db9565b5b60200101907effffffffffffffffffffffffffffffffffffffffffffffffffffffffffffff1916908160001a905350600060018460026124719190613b49565b61247b9190614086565b90505b600181111561251b577f3031323334353637383961626364656600000000000000000000000000000000600f8616601081106124bd576124bc613db9565b5b1a60f81b8282815181106124d4576124d3613db9565b5b60200101907effffffffffffffffffffffffffffffffffffffffffffffffffffffffffffff1916908160001a905350600485901c945080612514906147db565b905061247e565b506000841461255f576040517f08c379a000000000000000000000000000000000000000000000000000000000815260040161255690614850565b60405180910390fd5b8091505092915050565b600061257482610cd3565b905061258281600084611dcc565b61258d600083611222565b6001600360008373ffffffffffffffffffffffffffffffffffffffff1673ffffffffffffffffffffffffffffffffffffffff16815260200190815260200160002060008282546125dd9190614052565b925050819055506002600083815260200190815260200160002060006101000a81549073ffffffffffffffffffffffffffffffffffffffff021916905581600073ffffffffffffffffffffffffffffffffffffffff168273ffffffffffffffffffffffffffffffffffffffff167fddf252ad1be2c89b69c2b068fc378daa952ba7f163c4a11628f55a4df523b3ef60405160405180910390a461268281600084611ddc565b5050565b600073ffffffffffffffffffffffffffffffffffffffff168273ffffffffffffffffffffffffffffffffffffffff16036126f5576040517f08c379a00000000000000000000000000000000000000000000000000000000081526004016126ec906148bc565b60405180910390fd5b6126fe81611d60565b1561273e576040517f08c379a000000000000000000000000000000000000000000000000000000000815260040161273590614928565b60405180910390fd5b61274a60008383611dcc565b6001600360008473ffffffffffffffffffffffffffffffffffffffff1673ffffffffffffffffffffffffffffffffffffffff168152602001908152602001600020600082825461279a9190614086565b92505081905550816002600083815260200190815260200160002060006101000a81548173ffffffffffffffffffffffffffffffffffffffff021916908373ffffffffffffffffffffffffffffffffffffffff160217905550808273ffffffffffffffffffffffffffffffffffffffff16600073ffffffffffffffffffffffffffffffffffffffff167fddf252ad1be2c89b69c2b068fc378daa952ba7f163c4a11628f55a4df523b3ef60405160405180910390a461285b60008383611ddc565b5050565b6000808273ffffffffffffffffffffffffffffffffffffffff163b119050919050565b6060600082036128c9576040518060400160405280600181526020017f300000000000000000000000000000000000000000000000000000000000000081525090506129dd565b600082905060005b600082146128fb5780806128e490613ee6565b915050600a826128f49190613bd2565b91506128d1565b60008167ffffffffffffffff811115612917576129166132ff565b5b6040519080825280601f01601f1916602001820160405280156129495781602001600182028036833780820191505090505b5090505b600085146129d6576001826129629190614052565b9150600a856129719190614948565b603061297d9190614086565b60f81b81838151811061299357612992613db9565b5b60200101907effffffffffffffffffffffffffffffffffffffffffffffffffffffffffffff1916908160001a905350600a856129cf9190613bd2565b945061294d565b8093505050505b919050565b60007f80ac58cd000000000000000000000000000000000000000000000000000000007bffffffffffffffffffffffffffffffffffffffffffffffffffffffff1916827bffffffffffffffffffffffffffffffffffffffffffffffffffffffff19161480612aad57507f5b5e139f000000000000000000000000000000000000000000000000000000007bffffffffffffffffffffffffffffffffffffffffffffffffffffffff1916827bffffffffffffffffffffffffffffffffffffffffffffffffffffffff1916145b80612abd5750612abc82612dcf565b5b9050919050565b505050565b600b80549050600c600083815260200190815260200160002081905550600b81908060018154018082558091505060019003906000526020600020016000909190919091505550565b60006001612b1f84610d84565b612b299190614052565b90506000600a6000848152602001908152602001600020549050818114612c0e576000600960008673ffffffffffffffffffffffffffffffffffffffff1673ffffffffffffffffffffffffffffffffffffffff168152602001908152602001600020600084815260200190815260200160002054905080600960008773ffffffffffffffffffffffffffffffffffffffff1673ffffffffffffffffffffffffffffffffffffffff16815260200190815260200160002060008481526020019081526020016000208190555081600a600083815260200190815260200160002081905550505b600a600084815260200190815260200160002060009055600960008573ffffffffffffffffffffffffffffffffffffffff1673ffffffffffffffffffffffffffffffffffffffff16815260200190815260200160002060008381526020019081526020016000206000905550505050565b60006001600b80549050612c939190614052565b90506000600c60008481526020019081526020016000205490506000600b8381548110612cc357612cc2613db9565b5b9060005260206000200154905080600b8381548110612ce557612ce4613db9565b5b906000526020600020018190555081600c600083815260200190815260200160002081905550600c600085815260200190815260200160002060009055600b805480612d3457612d33614979565b5b6001900381819060005260206000200160009055905550505050565b6000612d5b83610d84565b905081600960008573ffffffffffffffffffffffffffffffffffffffff1673ffffffffffffffffffffffffffffffffffffffff16815260200190815260200160002060008381526020019081526020016000208190555080600a600084815260200190815260200160002081905550505050565b60007f01ffc9a7000000000000000000000000000000000000000000000000000000007bffffffffffffffffffffffffffffffffffffffffffffffffffffffff1916827bffffffffffffffffffffffffffffffffffffffffffffffffffffffff1916149050919050565b508054612e4590613933565b6000825580601f10612e575750612e76565b601f016020900490600052602060002090810190612e759190612e79565b5b50565b5b80821115612e92576000816000905550600101612e7a565b5090565b6000604051905090565b600080fd5b600080fd5b60007fffffffff0000000000000000000000000000000000000000000000000000000082169050919050565b612edf81612eaa565b8114612eea57600080fd5b50565b600081359050612efc81612ed6565b92915050565b600060208284031215612f1857612f17612ea0565b5b6000612f2684828501612eed565b91505092915050565b60008115159050919050565b612f4481612f2f565b82525050565b6000602082019050612f5f6000830184612f3b565b92915050565b600081519050919050565b600082825260208201905092915050565b60005b83811015612f9f578082015181840152602081019050612f84565b60008484015250505050565b6000601f19601f8301169050919050565b6000612fc782612f65565b612fd18185612f70565b9350612fe1818560208601612f81565b612fea81612fab565b840191505092915050565b6000602082019050818103600083015261300f8184612fbc565b905092915050565b6000819050919050565b61302a81613017565b811461303557600080fd5b50565b60008135905061304781613021565b92915050565b60006020828403121561306357613062612ea0565b5b600061307184828501613038565b91505092915050565b600073ffffffffffffffffffffffffffffffffffffffff82169050919050565b60006130a58261307a565b9050919050565b6130b58161309a565b82525050565b60006020820190506130d060008301846130ac565b92915050565b6130df8161309a565b81146130ea57600080fd5b50565b6000813590506130fc816130d6565b92915050565b6000806040838503121561311957613118612ea0565b5b6000613127858286016130ed565b925050602061313885828601613038565b9150509250929050565b61314b81613017565b82525050565b60006020820190506131666000830184613142565b92915050565b60008060006060848603121561318557613184612ea0565b5b6000613193868287016130ed565b93505060206131a4868287016130ed565b92505060406131b586828701613038565b9150509250925092565b6000819050919050565b6131d2816131bf565b81146131dd57600080fd5b50565b6000813590506131ef816131c9565b92915050565b60006020828403121561320b5761320a612ea0565b5b6000613219848285016131e0565b91505092915050565b61322b816131bf565b82525050565b60006020820190506132466000830184613222565b92915050565b6000806040838503121561326357613262612ea0565b5b600061327185828601613038565b925050602061328285828601613038565b9150509250929050565b60006040820190506132a160008301856130ac565b6132ae6020830184613142565b9392505050565b600080604083850312156132cc576132cb612ea0565b5b60006132da858286016131e0565b92505060206132eb858286016130ed565b9150509250929050565b600080fd5b600080fd5b7f4e487b7100000000000000000000000000000000000000000000000000000000600052604160045260246000fd5b61333782612fab565b810181811067ffffffffffffffff82111715613356576133556132ff565b5b80604052505050565b6000613369612e96565b9050613375828261332e565b919050565b600067ffffffffffffffff821115613395576133946132ff565b5b61339e82612fab565b9050602081019050919050565b82818337600083830152505050565b60006133cd6133c88461337a565b61335f565b9050828152602081018484840111156133e9576133e86132fa565b5b6133f48482856133ab565b509392505050565b600082601f830112613411576134106132f5565b5b81356134218482602086016133ba565b91505092915050565b60006bffffffffffffffffffffffff82169050919050565b61344b8161342a565b811461345657600080fd5b50565b60008135905061346881613442565b92915050565b6000806000806080858703121561348857613487612ea0565b5b6000613496878288016130ed565b945050602085013567ffffffffffffffff8111156134b7576134b6612ea5565b5b6134c3878288016133fc565b93505060406134d4878288016130ed565b92505060606134e587828801613459565b91505092959194509250565b60006020828403121561350757613506612ea0565b5b6000613515848285016130ed565b91505092915050565b61352781612f2f565b811461353257600080fd5b50565b6000813590506135448161351e565b92915050565b6000806040838503121561356157613560612ea0565b5b600061356f858286016130ed565b925050602061358085828601613535565b9150509250929050565b600067ffffffffffffffff8211156135a5576135a46132ff565b5b6135ae82612fab565b9050602081019050919050565b60006135ce6135c98461358a565b61335f565b9050828152602081018484840111156135ea576135e96132fa565b5b6135f58482856133ab565b509392505050565b600082601f830112613612576136116132f5565b5b81356136228482602086016135bb565b91505092915050565b6000806000806080858703121561364557613644612ea0565b5b6000613653878288016130ed565b9450506020613664878288016130ed565b935050604061367587828801613038565b925050606085013567ffffffffffffffff81111561369657613695612ea5565b5b6136a2878288016135fd565b91505092959194509250565b600067ffffffffffffffff8211156136c9576136c86132ff565b5b602082029050602081019050919050565b600080fd5b60006136f26136ed846136ae565b61335f565b90508083825260208201905060208402830185811115613715576137146136da565b5b835b8181101561373e578061372a88826130ed565b845260208401935050602081019050613717565b5050509392505050565b600082601f83011261375d5761375c6132f5565b5b813561376d8482602086016136df565b91505092915050565b600067ffffffffffffffff821115613791576137906132ff565b5b602082029050602081019050919050565b60006137b56137b084613776565b61335f565b905080838252602082019050602084028301858111156137d8576137d76136da565b5b835b8181101561380157806137ed8882613038565b8452602084019350506020810190506137da565b5050509392505050565b600082601f8301126138205761381f6132f5565b5b81356138308482602086016137a2565b91505092915050565b60008060006060848603121561385257613851612ea0565b5b6000613860868287016130ed565b935050602084013567ffffffffffffffff81111561388157613880612ea5565b5b61388d86828701613748565b925050604084013567ffffffffffffffff8111156138ae576138ad612ea5565b5b6138ba8682870161380b565b9150509250925092565b600080604083850312156138db576138da612ea0565b5b60006138e9858286016130ed565b92505060206138fa858286016130ed565b9150509250929050565b7f4e487b7100000000000000000000000000000000000000000000000000000000600052602260045260246000fd5b6000600282049050600182168061394b57607f821691505b60208210810361395e5761395d613904565b5b50919050565b7f4552433732313a20617070726f76616c20746f2063757272656e74206f776e6560008201527f7200000000000000000000000000000000000000000000000000000000000000602082015250565b60006139c0602183612f70565b91506139cb82613964565b604082019050919050565b600060208201905081810360008301526139ef816139b3565b9050919050565b7f4552433732313a20617070726f76652063616c6c6572206973206e6f7420746f60008201527f6b656e206f776e6572206e6f7220617070726f76656420666f7220616c6c0000602082015250565b6000613a52603e83612f70565b9150613a5d826139f6565b604082019050919050565b60006020820190508181036000830152613a8181613a45565b9050919050565b7f4552433732313a2063616c6c6572206973206e6f7420746f6b656e206f776e6560008201527f72206e6f7220617070726f766564000000000000000000000000000000000000602082015250565b6000613ae4602e83612f70565b9150613aef82613a88565b604082019050919050565b60006020820190508181036000830152613b1381613ad7565b9050919050565b7f4e487b7100000000000000000000000000000000000000000000000000000000600052601160045260246000fd5b6000613b5482613017565b9150613b5f83613017565b9250817fffffffffffffffffffffffffffffffffffffffffffffffffffffffffffffffff0483118215151615613b9857613b97613b1a565b5b828202905092915050565b7f4e487b7100000000000000000000000000000000000000000000000000000000600052601260045260246000fd5b6000613bdd82613017565b9150613be883613017565b925082613bf857613bf7613ba3565b5b828204905092915050565b7f455243373231456e756d657261626c653a206f776e657220696e646578206f7560008201527f74206f6620626f756e6473000000000000000000000000000000000000000000602082015250565b6000613c5f602b83612f70565b9150613c6a82613c03565b604082019050919050565b60006020820190508181036000830152613c8e81613c52565b9050919050565b7f416363657373436f6e74726f6c3a2063616e206f6e6c792072656e6f756e636560008201527f20726f6c657320666f722073656c660000000000000000000000000000000000602082015250565b6000613cf1602f83612f70565b9150613cfc82613c95565b604082019050919050565b60006020820190508181036000830152613d2081613ce4565b9050919050565b7f455243373231456e756d657261626c653a20676c6f62616c20696e646578206f60008201527f7574206f6620626f756e64730000000000000000000000000000000000000000602082015250565b6000613d83602c83612f70565b9150613d8e82613d27565b604082019050919050565b60006020820190508181036000830152613db281613d76565b9050919050565b7f4e487b7100000000000000000000000000000000000000000000000000000000600052603260045260246000fd5b7f4552433732313a20696e76616c696420746f6b656e2049440000000000000000600082015250565b6000613e1e601883612f70565b9150613e2982613de8565b602082019050919050565b60006020820190508181036000830152613e4d81613e11565b9050919050565b7f4552433732313a2061646472657373207a65726f206973206e6f74206120766160008201527f6c6964206f776e65720000000000000000000000000000000000000000000000602082015250565b6000613eb0602983612f70565b9150613ebb82613e54565b604082019050919050565b60006020820190508181036000830152613edf81613ea3565b9050919050565b6000613ef182613017565b91507fffffffffffffffffffffffffffffffffffffffffffffffffffffffffffffffff8203613f2357613f22613b1a565b5b600182019050919050565b7f4552433732313a207472616e736665722066726f6d20696e636f72726563742060008201527f6f776e6572000000000000000000000000000000000000000000000000000000602082015250565b6000613f8a602583612f70565b9150613f9582613f2e565b604082019050919050565b60006020820190508181036000830152613fb981613f7d565b9050919050565b7f4552433732313a207472616e7366657220746f20746865207a65726f2061646460008201527f7265737300000000000000000000000000000000000000000000000000000000602082015250565b600061401c602483612f70565b915061402782613fc0565b604082019050919050565b6000602082019050818103600083015261404b8161400f565b9050919050565b600061405d82613017565b915061406883613017565b92508282039050818111156140805761407f613b1a565b5b92915050565b600061409182613017565b915061409c83613017565b92508282019050808211156140b4576140b3613b1a565b5b92915050565b7f45524337323155524953746f726167653a2055524920736574206f66206e6f6e60008201527f6578697374656e7420746f6b656e000000000000000000000000000000000000602082015250565b6000614116602e83612f70565b9150614121826140ba565b604082019050919050565b6000602082019050818103600083015261414581614109565b9050919050565b60008190508160005260206000209050919050565b60006020601f8301049050919050565b600082821b905092915050565b6000600883026141ae7fffffffffffffffffffffffffffffffffffffffffffffffffffffffffffffffff82614171565b6141b88683614171565b95508019841693508086168417925050509392505050565b6000819050919050565b60006141f56141f06141eb84613017565b6141d0565b613017565b9050919050565b6000819050919050565b61420f836141da565b61422361421b826141fc565b84845461417e565b825550505050565b600090565b61423861422b565b614243818484614206565b505050565b5b818110156142675761425c600082614230565b600181019050614249565b5050565b601f8211156142ac5761427d8161414c565b61428684614161565b81016020851015614295578190505b6142a96142a185614161565b830182614248565b50505b505050565b600082821c905092915050565b60006142cf600019846008026142b1565b1980831691505092915050565b60006142e883836142be565b9150826002028217905092915050565b61430182612f65565b67ffffffffffffffff81111561431a576143196132ff565b5b6143248254613933565b61432f82828561426b565b600060209050601f8311600181146143625760008415614350578287015190505b61435a85826142dc565b8655506143c2565b601f1984166143708661414c565b60005b8281101561439857848901518255600182019150602085019450602081019050614373565b868310156143b557848901516143b1601f8916826142be565b8355505b6001600288020188555050505b505050505050565b7f455243323938313a20726f79616c7479206665652077696c6c2065786365656460008201527f2073616c65507269636500000000000000000000000000000000000000000000602082015250565b6000614426602a83612f70565b9150614431826143ca565b604082019050919050565b6000602082019050818103600083015261445581614419565b9050919050565b7f455243323938313a20496e76616c696420706172616d65746572730000000000600082015250565b6000614492601b83612f70565b915061449d8261445c565b602082019050919050565b600060208201905081810360008301526144c181614485565b9050919050565b7f4552433732313a20617070726f766520746f2063616c6c657200000000000000600082015250565b60006144fe601983612f70565b9150614509826144c8565b602082019050919050565b6000602082019050818103600083015261452d816144f1565b9050919050565b7f4552433732313a207472616e7366657220746f206e6f6e20455243373231526560008201527f63656976657220696d706c656d656e7465720000000000000000000000000000602082015250565b6000614590603283612f70565b915061459b82614534565b604082019050919050565b600060208201905081810360008301526145bf81614583565b9050919050565b600081905092915050565b60006145dc82612f65565b6145e681856145c6565b93506145f6818560208601612f81565b80840191505092915050565b600061460e82856145d1565b915061461a82846145d1565b91508190509392505050565b7f416363657373436f6e74726f6c3a206163636f756e7420000000000000000000600082015250565b600061465c6017836145c6565b915061466782614626565b601782019050919050565b7f206973206d697373696e6720726f6c6520000000000000000000000000000000600082015250565b60006146a86011836145c6565b91506146b382614672565b601182019050919050565b60006146c98261464f565b91506146d582856145d1565b91506146e08261469b565b91506146ec82846145d1565b91508190509392505050565b600081519050919050565b600082825260208201905092915050565b600061471f826146f8565b6147298185614703565b9350614739818560208601612f81565b61474281612fab565b840191505092915050565b600060808201905061476260008301876130ac565b61476f60208301866130ac565b61477c6040830185613142565b818103606083015261478e8184614714565b905095945050505050565b6000815190506147a881612ed6565b92915050565b6000602082840312156147c4576147c3612ea0565b5b60006147d284828501614799565b91505092915050565b60006147e682613017565b9150600082036147f9576147f8613b1a565b5b600182039050919050565b7f537472696e67733a20686578206c656e67746820696e73756666696369656e74600082015250565b600061483a602083612f70565b915061484582614804565b602082019050919050565b600060208201905081810360008301526148698161482d565b9050919050565b7f4552433732313a206d696e7420746f20746865207a65726f2061646472657373600082015250565b60006148a6602083612f70565b91506148b182614870565b602082019050919050565b600060208201905081810360008301526148d581614899565b9050919050565b7f4552433732313a20746f6b656e20616c7265616479206d696e74656400000000600082015250565b6000614912601c83612f70565b915061491d826148dc565b602082019050919050565b6000602082019050818103600083015261494181614905565b9050919050565b600061495382613017565b915061495e83613017565b92508261496e5761496d613ba3565b5b828206905092915050565b7f4e487b7100000000000000000000000000000000000000000000000000000000600052603160045260246000fdfea2646970667358221220334c52f8c339c8149494e8e146de7cfc6f7d37fe52404719cea33e7a4f0fb12464736f6c63430008100033",
  "devdoc": {
    "kind": "dev",
    "methods": {
      "approve(address,uint256)": {
        "details": "See {IERC721-approve}."
      },
      "balanceOf(address)": {
        "details": "See {IERC721-balanceOf}."
      },
      "getApproved(uint256)": {
        "details": "See {IERC721-getApproved}."
      },
      "getRoleAdmin(bytes32)": {
        "details": "Returns the admin role that controls `role`. See {grantRole} and {revokeRole}. To change a role's admin, use {_setRoleAdmin}."
      },
      "grantRole(bytes32,address)": {
        "details": "Grants `role` to `account`. If `account` had not been already granted `role`, emits a {RoleGranted} event. Requirements: - the caller must have ``role``'s admin role. May emit a {RoleGranted} event."
      },
      "hasRole(bytes32,address)": {
        "details": "Returns `true` if `account` has been granted `role`."
      },
      "isApprovedForAll(address,address)": {
        "details": "See {IERC721-isApprovedForAll}."
      },
      "name()": {
        "details": "See {IERC721Metadata-name}."
      },
      "ownerOf(uint256)": {
        "details": "See {IERC721-ownerOf}."
      },
      "renounceRole(bytes32,address)": {
        "details": "Revokes `role` from the calling account. Roles are often managed via {grantRole} and {revokeRole}: this function's purpose is to provide a mechanism for accounts to lose their privileges if they are compromised (such as when a trusted device is misplaced). If the calling account had been revoked `role`, emits a {RoleRevoked} event. Requirements: - the caller must be `account`. May emit a {RoleRevoked} event."
      },
      "revokeRole(bytes32,address)": {
        "details": "Revokes `role` from `account`. If `account` had been granted `role`, emits a {RoleRevoked} event. Requirements: - the caller must have ``role``'s admin role. May emit a {RoleRevoked} event."
      },
      "royaltyInfo(uint256,uint256)": {
        "details": "Returns how much royalty is owed and to whom, based on a sale price that may be denominated in any unit of exchange. The royalty amount is denominated and should be paid in that same unit of exchange."
      },
      "safeTransferFrom(address,address,uint256)": {
        "details": "See {IERC721-safeTransferFrom}."
      },
      "safeTransferFrom(address,address,uint256,bytes)": {
        "details": "See {IERC721-safeTransferFrom}."
      },
      "setApprovalForAll(address,bool)": {
        "details": "See {IERC721-setApprovalForAll}."
      },
      "symbol()": {
        "details": "See {IERC721Metadata-symbol}."
      },
      "tokenByIndex(uint256)": {
        "details": "See {IERC721Enumerable-tokenByIndex}."
      },
      "tokenOfOwnerByIndex(address,uint256)": {
        "details": "See {IERC721Enumerable-tokenOfOwnerByIndex}."
      },
      "totalSupply()": {
        "details": "See {IERC721Enumerable-totalSupply}."
      },
      "transferFrom(address,address,uint256)": {
        "details": "See {IERC721-transferFrom}."
      }
    },
    "version": 1
  },
  "userdoc": {
    "kind": "user",
    "methods": {},
    "version": 1
  },
  "storageLayout": {
    "storage": [
      {
        "astId": 3862,
        "contract": "contracts/MissionNFT.sol:MissionNFT",
        "label": "_name",
        "offset": 0,
        "slot": "0",
        "type": "t_string_storage"
      },
      {
        "astId": 3864,
        "contract": "contracts/MissionNFT.sol:MissionNFT",
        "label": "_symbol",
        "offset": 0,
        "slot": "1",
        "type": "t_string_storage"
      },
      {
        "astId": 3868,
        "contract": "contracts/MissionNFT.sol:MissionNFT",
        "label": "_owners",
        "offset": 0,
        "slot": "2",
        "type": "t_mapping(t_uint256,t_address)"
      },
      {
        "astId": 3872,
        "contract": "contracts/MissionNFT.sol:MissionNFT",
        "label": "_balances",
        "offset": 0,
        "slot": "3",
        "type": "t_mapping(t_address,t_uint256)"
      },
      {
        "astId": 3876,
        "contract": "contracts/MissionNFT.sol:MissionNFT",
        "label": "_tokenApprovals",
        "offset": 0,
        "slot": "4",
        "type": "t_mapping(t_uint256,t_address)"
      },
      {
        "astId": 3882,
        "contract": "contracts/MissionNFT.sol:MissionNFT",
        "label": "_operatorApprovals",
        "offset": 0,
        "slot": "5",
        "type": "t_mapping(t_address,t_mapping(t_address,t_bool))"
      },
      {
        "astId": 5402,
        "contract": "contracts/MissionNFT.sol:MissionNFT",
        "label": "_defaultRoyaltyInfo",
        "offset": 0,
        "slot": "6",
        "type": "t_struct(RoyaltyInfo)5399_storage"
      },
      {
        "astId": 5407,
        "contract": "contracts/MissionNFT.sol:MissionNFT",
        "label": "_tokenRoyaltyInfo",
        "offset": 0,
        "slot": "7",
        "type": "t_mapping(t_uint256,t_struct(RoyaltyInfo)5399_storage)"
      },
      {
        "astId": 5188,
        "contract": "contracts/MissionNFT.sol:MissionNFT",
        "label": "_tokenURIs",
        "offset": 0,
        "slot": "8",
        "type": "t_mapping(t_uint256,t_string_storage)"
      },
      {
        "astId": 4852,
        "contract": "contracts/MissionNFT.sol:MissionNFT",
        "label": "_ownedTokens",
        "offset": 0,
        "slot": "9",
        "type": "t_mapping(t_address,t_mapping(t_uint256,t_uint256))"
      },
      {
        "astId": 4856,
        "contract": "contracts/MissionNFT.sol:MissionNFT",
        "label": "_ownedTokensIndex",
        "offset": 0,
        "slot": "10",
        "type": "t_mapping(t_uint256,t_uint256)"
      },
      {
        "astId": 4859,
        "contract": "contracts/MissionNFT.sol:MissionNFT",
        "label": "_allTokens",
        "offset": 0,
        "slot": "11",
        "type": "t_array(t_uint256)dyn_storage"
      },
      {
        "astId": 4863,
        "contract": "contracts/MissionNFT.sol:MissionNFT",
        "label": "_allTokensIndex",
        "offset": 0,
        "slot": "12",
        "type": "t_mapping(t_uint256,t_uint256)"
      },
      {
        "astId": 3435,
        "contract": "contracts/MissionNFT.sol:MissionNFT",
        "label": "_roles",
        "offset": 0,
        "slot": "13",
        "type": "t_mapping(t_bytes32,t_struct(RoleData)3430_storage)"
      },
      {
        "astId": 8427,
        "contract": "contracts/MissionNFT.sol:MissionNFT",
        "label": "_tokenIdCounter",
        "offset": 0,
        "slot": "14",
        "type": "t_struct(Counter)5906_storage"
      }
    ],
    "types": {
      "t_address": {
        "encoding": "inplace",
        "label": "address",
        "numberOfBytes": "20"
      },
      "t_array(t_uint256)dyn_storage": {
        "base": "t_uint256",
        "encoding": "dynamic_array",
        "label": "uint256[]",
        "numberOfBytes": "32"
      },
      "t_bool": {
        "encoding": "inplace",
        "label": "bool",
        "numberOfBytes": "1"
      },
      "t_bytes32": {
        "encoding": "inplace",
        "label": "bytes32",
        "numberOfBytes": "32"
      },
      "t_mapping(t_address,t_bool)": {
        "encoding": "mapping",
        "key": "t_address",
        "label": "mapping(address => bool)",
        "numberOfBytes": "32",
        "value": "t_bool"
      },
      "t_mapping(t_address,t_mapping(t_address,t_bool))": {
        "encoding": "mapping",
        "key": "t_address",
        "label": "mapping(address => mapping(address => bool))",
        "numberOfBytes": "32",
        "value": "t_mapping(t_address,t_bool)"
      },
      "t_mapping(t_address,t_mapping(t_uint256,t_uint256))": {
        "encoding": "mapping",
        "key": "t_address",
        "label": "mapping(address => mapping(uint256 => uint256))",
        "numberOfBytes": "32",
        "value": "t_mapping(t_uint256,t_uint256)"
      },
      "t_mapping(t_address,t_uint256)": {
        "encoding": "mapping",
        "key": "t_address",
        "label": "mapping(address => uint256)",
        "numberOfBytes": "32",
        "value": "t_uint256"
      },
      "t_mapping(t_bytes32,t_struct(RoleData)3430_storage)": {
        "encoding": "mapping",
        "key": "t_bytes32",
        "label": "mapping(bytes32 => struct AccessControl.RoleData)",
        "numberOfBytes": "32",
        "value": "t_struct(RoleData)3430_storage"
      },
      "t_mapping(t_uint256,t_address)": {
        "encoding": "mapping",
        "key": "t_uint256",
        "label": "mapping(uint256 => address)",
        "numberOfBytes": "32",
        "value": "t_address"
      },
      "t_mapping(t_uint256,t_string_storage)": {
        "encoding": "mapping",
        "key": "t_uint256",
        "label": "mapping(uint256 => string)",
        "numberOfBytes": "32",
        "value": "t_string_storage"
      },
      "t_mapping(t_uint256,t_struct(RoyaltyInfo)5399_storage)": {
        "encoding": "mapping",
        "key": "t_uint256",
        "label": "mapping(uint256 => struct ERC2981.RoyaltyInfo)",
        "numberOfBytes": "32",
        "value": "t_struct(RoyaltyInfo)5399_storage"
      },
      "t_mapping(t_uint256,t_uint256)": {
        "encoding": "mapping",
        "key": "t_uint256",
        "label": "mapping(uint256 => uint256)",
        "numberOfBytes": "32",
        "value": "t_uint256"
      },
      "t_string_storage": {
        "encoding": "bytes",
        "label": "string",
        "numberOfBytes": "32"
      },
      "t_struct(Counter)5906_storage": {
        "encoding": "inplace",
        "label": "struct Counters.Counter",
        "members": [
          {
            "astId": 5905,
            "contract": "contracts/MissionNFT.sol:MissionNFT",
            "label": "_value",
            "offset": 0,
            "slot": "0",
            "type": "t_uint256"
          }
        ],
        "numberOfBytes": "32"
      },
      "t_struct(RoleData)3430_storage": {
        "encoding": "inplace",
        "label": "struct AccessControl.RoleData",
        "members": [
          {
            "astId": 3427,
            "contract": "contracts/MissionNFT.sol:MissionNFT",
            "label": "members",
            "offset": 0,
            "slot": "0",
            "type": "t_mapping(t_address,t_bool)"
          },
          {
            "astId": 3429,
            "contract": "contracts/MissionNFT.sol:MissionNFT",
            "label": "adminRole",
            "offset": 0,
            "slot": "1",
            "type": "t_bytes32"
          }
        ],
        "numberOfBytes": "64"
      },
      "t_struct(RoyaltyInfo)5399_storage": {
        "encoding": "inplace",
        "label": "struct ERC2981.RoyaltyInfo",
        "members": [
          {
            "astId": 5396,
            "contract": "contracts/MissionNFT.sol:MissionNFT",
            "label": "receiver",
            "offset": 0,
            "slot": "0",
            "type": "t_address"
          },
          {
            "astId": 5398,
            "contract": "contracts/MissionNFT.sol:MissionNFT",
            "label": "royaltyFraction",
            "offset": 20,
            "slot": "0",
            "type": "t_uint96"
          }
        ],
        "numberOfBytes": "32"
      },
      "t_uint256": {
        "encoding": "inplace",
        "label": "uint256",
        "numberOfBytes": "32"
      },
      "t_uint96": {
        "encoding": "inplace",
        "label": "uint96",
        "numberOfBytes": "12"
      }
    }
  }
}