{
  "address": "0x9fE46736679d2D9a65F0992F2272dE9f3c7fa6e0",
  "abi": [
    {
      "inputs": [
        {
          "internalType": "address",
          "name": "_pompHub",
          "type": "address"
        },
        {
          "internalType": "bytes32",
          "name": "_root",
          "type": "bytes32"
        }
      ],
      "stateMutability": "nonpayable",
      "type": "constructor"
    },
    {
      "anonymous": false,
      "inputs": [
        {
          "indexed": true,
          "internalType": "uint256",
          "name": "profileId",
          "type": "uint256"
        },
        {
          "indexed": true,
          "internalType": "address",
          "name": "creator",
          "type": "address"
        },
        {
          "indexed": false,
          "internalType": "string",
          "name": "handle",
          "type": "string"
        },
        {
          "indexed": false,
          "internalType": "uint256",
          "name": "timestamp",
          "type": "uint256"
        }
      ],
      "name": "ProfileCreated",
      "type": "event"
    },
    {
      "anonymous": false,
      "inputs": [
        {
          "indexed": true,
          "internalType": "bytes32",
          "name": "role",
          "type": "bytes32"
        },
        {
          "indexed": true,
          "internalType": "bytes32",
          "name": "previousAdminRole",
          "type": "bytes32"
        },
        {
          "indexed": true,
          "internalType": "bytes32",
          "name": "newAdminRole",
          "type": "bytes32"
        }
      ],
      "name": "RoleAdminChanged",
      "type": "event"
    },
    {
      "anonymous": false,
      "inputs": [
        {
          "indexed": true,
          "internalType": "bytes32",
          "name": "role",
          "type": "bytes32"
        },
        {
          "indexed": true,
          "internalType": "address",
          "name": "account",
          "type": "address"
        },
        {
          "indexed": true,
          "internalType": "address",
          "name": "sender",
          "type": "address"
        }
      ],
      "name": "RoleGranted",
      "type": "event"
    },
    {
      "anonymous": false,
      "inputs": [
        {
          "indexed": true,
          "internalType": "bytes32",
          "name": "role",
          "type": "bytes32"
        },
        {
          "indexed": true,
          "internalType": "address",
          "name": "account",
          "type": "address"
        },
        {
          "indexed": true,
          "internalType": "address",
          "name": "sender",
          "type": "address"
        }
      ],
      "name": "RoleRevoked",
      "type": "event"
    },
    {
      "inputs": [],
      "name": "DEFAULT_ADMIN_ROLE",
      "outputs": [
        {
          "internalType": "bytes32",
          "name": "",
          "type": "bytes32"
        }
      ],
      "stateMutability": "view",
      "type": "function"
    },
    {
      "inputs": [],
      "name": "HUB_ROLE",
      "outputs": [
        {
          "internalType": "bytes32",
          "name": "",
          "type": "bytes32"
        }
      ],
      "stateMutability": "view",
      "type": "function"
    },
    {
      "inputs": [
        {
          "internalType": "address",
          "name": "claimer",
          "type": "address"
        },
        {
          "internalType": "string",
          "name": "handle",
          "type": "string"
        },
        {
          "internalType": "bytes32[]",
          "name": "proof",
          "type": "bytes32[]"
        }
      ],
      "name": "canClaim",
      "outputs": [
        {
          "internalType": "bool",
          "name": "",
          "type": "bool"
        }
      ],
      "stateMutability": "view",
      "type": "function"
    },
    {
      "inputs": [
        {
          "internalType": "address",
          "name": "",
          "type": "address"
        }
      ],
      "name": "claimed",
      "outputs": [
        {
          "internalType": "bool",
          "name": "",
          "type": "bool"
        }
      ],
      "stateMutability": "view",
      "type": "function"
    },
    {
      "inputs": [
        {
          "internalType": "string",
          "name": "handle",
          "type": "string"
        },
        {
          "internalType": "address",
          "name": "claimer",
          "type": "address"
        },
        {
          "internalType": "bytes32[]",
          "name": "proof",
          "type": "bytes32[]"
        }
      ],
      "name": "createProfile",
      "outputs": [
        {
          "internalType": "uint256",
          "name": "",
          "type": "uint256"
        }
      ],
      "stateMutability": "nonpayable",
      "type": "function"
    },
    {
      "inputs": [
        {
          "internalType": "uint256",
          "name": "profileId",
          "type": "uint256"
        }
      ],
      "name": "getCountAndIncrement",
      "outputs": [
        {
          "internalType": "uint256",
          "name": "",
          "type": "uint256"
        }
      ],
      "stateMutability": "nonpayable",
      "type": "function"
    },
    {
      "inputs": [
        {
          "internalType": "uint256",
          "name": "profileId",
          "type": "uint256"
        }
      ],
      "name": "getHandle",
      "outputs": [
        {
          "internalType": "string",
          "name": "",
          "type": "string"
        }
      ],
      "stateMutability": "view",
      "type": "function"
    },
    {
      "inputs": [
        {
          "internalType": "uint256",
          "name": "profileId",
          "type": "uint256"
        }
      ],
      "name": "getOwner",
      "outputs": [
        {
          "internalType": "address",
          "name": "",
          "type": "address"
        }
      ],
      "stateMutability": "view",
      "type": "function"
    },
    {
      "inputs": [
        {
          "internalType": "bytes32",
          "name": "role",
          "type": "bytes32"
        }
      ],
      "name": "getRoleAdmin",
      "outputs": [
        {
          "internalType": "bytes32",
          "name": "",
          "type": "bytes32"
        }
      ],
      "stateMutability": "view",
      "type": "function"
    },
    {
      "inputs": [
        {
          "internalType": "bytes32",
          "name": "role",
          "type": "bytes32"
        },
        {
          "internalType": "address",
          "name": "account",
          "type": "address"
        }
      ],
      "name": "grantRole",
      "outputs": [],
      "stateMutability": "nonpayable",
      "type": "function"
    },
    {
      "inputs": [
        {
          "internalType": "bytes32",
          "name": "role",
          "type": "bytes32"
        },
        {
          "internalType": "address",
          "name": "account",
          "type": "address"
        }
      ],
      "name": "hasRole",
      "outputs": [
        {
          "internalType": "bool",
          "name": "",
          "type": "bool"
        }
      ],
      "stateMutability": "view",
      "type": "function"
    },
    {
      "inputs": [],
      "name": "merkleroot",
      "outputs": [
        {
          "internalType": "bytes32",
          "name": "",
          "type": "bytes32"
        }
      ],
      "stateMutability": "view",
      "type": "function"
    },
    {
      "inputs": [],
      "name": "pompHub",
      "outputs": [
        {
          "internalType": "address",
          "name": "",
          "type": "address"
        }
      ],
      "stateMutability": "view",
      "type": "function"
    },
    {
      "inputs": [
        {
          "internalType": "address",
          "name": "wallet",
          "type": "address"
        }
      ],
      "name": "profileByAddress",
      "outputs": [
        {
          "internalType": "uint256",
          "name": "",
          "type": "uint256"
        },
        {
          "components": [
            {
              "internalType": "uint256",
              "name": "missionCount",
              "type": "uint256"
            },
            {
              "internalType": "string",
              "name": "handle",
              "type": "string"
            },
            {
              "internalType": "address",
              "name": "owner",
              "type": "address"
            }
          ],
          "internalType": "struct DataTypes.ProfileStruct",
          "name": "",
          "type": "tuple"
        }
      ],
      "stateMutability": "view",
      "type": "function"
    },
    {
      "inputs": [
        {
          "internalType": "string",
          "name": "handle",
          "type": "string"
        }
      ],
      "name": "profileByHandle",
      "outputs": [
        {
          "components": [
            {
              "internalType": "uint256",
              "name": "missionCount",
              "type": "uint256"
            },
            {
              "internalType": "string",
              "name": "handle",
              "type": "string"
            },
            {
              "internalType": "address",
              "name": "owner",
              "type": "address"
            }
          ],
          "internalType": "struct DataTypes.ProfileStruct",
          "name": "",
          "type": "tuple"
        }
      ],
      "stateMutability": "view",
      "type": "function"
    },
    {
      "inputs": [
        {
          "internalType": "uint256",
          "name": "profileId",
          "type": "uint256"
        }
      ],
      "name": "profileById",
      "outputs": [
        {
          "components": [
            {
              "internalType": "uint256",
              "name": "missionCount",
              "type": "uint256"
            },
            {
              "internalType": "string",
              "name": "handle",
              "type": "string"
            },
            {
              "internalType": "address",
              "name": "owner",
              "type": "address"
            }
          ],
          "internalType": "struct DataTypes.ProfileStruct",
          "name": "",
          "type": "tuple"
        }
      ],
      "stateMutability": "view",
      "type": "function"
    },
    {
      "inputs": [
        {
          "internalType": "address",
          "name": "wallet",
          "type": "address"
        }
      ],
      "name": "profileIdByAddress",
      "outputs": [
        {
          "internalType": "uint256",
          "name": "",
          "type": "uint256"
        }
      ],
      "stateMutability": "view",
      "type": "function"
    },
    {
      "inputs": [
        {
          "internalType": "string",
          "name": "handle",
          "type": "string"
        }
      ],
      "name": "profileIdByHandle",
      "outputs": [
        {
          "internalType": "uint256",
          "name": "",
          "type": "uint256"
        }
      ],
      "stateMutability": "view",
      "type": "function"
    },
    {
      "inputs": [],
      "name": "profileIdCounter",
      "outputs": [
        {
          "internalType": "uint256",
          "name": "_value",
          "type": "uint256"
        }
      ],
      "stateMutability": "view",
      "type": "function"
    },
    {
      "inputs": [
        {
          "internalType": "bytes32",
          "name": "role",
          "type": "bytes32"
        },
        {
          "internalType": "address",
          "name": "account",
          "type": "address"
        }
      ],
      "name": "renounceRole",
      "outputs": [],
      "stateMutability": "nonpayable",
      "type": "function"
    },
    {
      "inputs": [
        {
          "internalType": "bytes32",
          "name": "role",
          "type": "bytes32"
        },
        {
          "internalType": "address",
          "name": "account",
          "type": "address"
        }
      ],
      "name": "revokeRole",
      "outputs": [],
      "stateMutability": "nonpayable",
      "type": "function"
    },
    {
      "inputs": [
        {
          "internalType": "bytes32",
          "name": "root",
          "type": "bytes32"
        }
      ],
      "name": "setMerklerootForProfiles",
      "outputs": [],
      "stateMutability": "nonpayable",
      "type": "function"
    },
    {
      "inputs": [
        {
          "internalType": "bytes4",
          "name": "interfaceId",
          "type": "bytes4"
        }
      ],
      "name": "supportsInterface",
      "outputs": [
        {
          "internalType": "bool",
          "name": "",
          "type": "bool"
        }
      ],
      "stateMutability": "view",
      "type": "function"
    }
  ],
  "transactionHash": "0xe2ac1542d5826f5cce917379e6f51cedcbecf2fcec24c22f4fc948d4d058b8ed",
  "args": [
    "0x0165878a594ca255338adfa4d48449f69242eb8f",
    "0xfafb88ed6846a0c4529b0bbc4ece3c1a2c48221dbc31e3823c3a2cf12efcf745"
  ],
  "numDeployments": 1,
  "solcInputHash": "cf4892b3a0b757c5fd911126c4da5888",
  "bytecode": "0x60a06040523480156200001157600080fd5b5060405162002751380380620027518339818101604052810190620000379190620002f6565b6200004c6000801b33620000d860201b60201c565b6200007e7f4761169e40d0efb53bf684d47e54c803c1511483244b1a2fca6dbbd91b4508d583620000d860201b60201c565b8173ffffffffffffffffffffffffffffffffffffffff1660808173ffffffffffffffffffffffffffffffffffffffff168152505080600281905550620000d06001620001c960201b62000faa1760201c565b50506200033d565b620000ea8282620001df60201b60201c565b620001c557600160008084815260200190815260200160002060000160008373ffffffffffffffffffffffffffffffffffffffff1673ffffffffffffffffffffffffffffffffffffffff16815260200190815260200160002060006101000a81548160ff0219169083151502179055506200016a6200024960201b60201c565b73ffffffffffffffffffffffffffffffffffffffff168173ffffffffffffffffffffffffffffffffffffffff16837f2f8788117e7eff1d82e926ec794901d17c78024a50270940304540a733656f0d60405160405180910390a45b5050565b6001816000016000828254019250508190555050565b600080600084815260200190815260200160002060000160008373ffffffffffffffffffffffffffffffffffffffff1673ffffffffffffffffffffffffffffffffffffffff16815260200190815260200160002060009054906101000a900460ff16905092915050565b600033905090565b600080fd5b600073ffffffffffffffffffffffffffffffffffffffff82169050919050565b6000620002838262000256565b9050919050565b620002958162000276565b8114620002a157600080fd5b50565b600081519050620002b5816200028a565b92915050565b6000819050919050565b620002d081620002bb565b8114620002dc57600080fd5b50565b600081519050620002f081620002c5565b92915050565b6000806040838503121562000310576200030f62000251565b5b60006200032085828601620002a4565b92505060206200033385828601620002df565b9150509250929050565b6080516123f8620003596000396000610d1901526123f86000f3fe608060405234801561001057600080fd5b506004361061014d5760003560e01c806399dac981116100c3578063d547741f1161007c578063d547741f14610413578063e5d9ce0b1461042f578063eaae07361461044d578063ec81d19414610469578063f2d1dde314610499578063fae6ba4b146104c95761014d565b806399dac98114610328578063a217fddf14610346578063ad97daf314610364578063b6c7ecf514610395578063c41a360a146103b3578063c884ef83146103e35761014d565b8063576c8beb11610115578063576c8beb1461021a5780635b7991241461023857806387b6b83c1461026857806389a9132b146102985780638e24ad37146102c857806391d14854146102f85761014d565b806301ffc9a71461015257806316cd4c3a14610182578063248a9ca3146101b25780632f2ff15d146101e257806336568abe146101fe575b600080fd5b61016c60048036038101906101679190611601565b6104f9565b6040516101799190611649565b60405180910390f35b61019c6004803603810190610197919061169a565b61050b565b6040516101a991906116d6565b60405180910390f35b6101cc60048036038101906101c79190611727565b6105c1565b6040516101d99190611763565b60405180910390f35b6101fc60048036038101906101f791906117dc565b6105e0565b005b610218600480360381019061021391906117dc565b610601565b005b610222610684565b60405161022f91906116d6565b60405180910390f35b610252600480360381019061024d9190611881565b610690565b60405161025f91906119cc565b60405180910390f35b610282600480360381019061027d9190611a44565b6107da565b60405161028f91906116d6565b60405180910390f35b6102b260048036038101906102ad9190611ad9565b6109af565b6040516102bf91906116d6565b60405180910390f35b6102e260048036038101906102dd9190611b06565b6109f8565b6040516102ef9190611649565b60405180910390f35b610312600480360381019061030d91906117dc565b610a8f565b60405161031f9190611649565b60405180910390f35b610330610af9565b60405161033d9190611763565b60405180910390f35b61034e610b1d565b60405161035b9190611763565b60405180910390f35b61037e60048036038101906103799190611ad9565b610b24565b60405161038c929190611b9b565b60405180910390f35b61039d610c90565b6040516103aa9190611763565b60405180910390f35b6103cd60048036038101906103c8919061169a565b610c96565b6040516103da9190611bda565b60405180910390f35b6103fd60048036038101906103f89190611ad9565b610cd6565b60405161040a9190611649565b60405180910390f35b61042d600480360381019061042891906117dc565b610cf6565b005b610437610d17565b6040516104449190611bda565b60405180910390f35b61046760048036038101906104629190611727565b610d3b565b005b610483600480360381019061047e919061169a565b610dae565b6040516104909190611c3f565b60405180910390f35b6104b360048036038101906104ae919061169a565b610e56565b6040516104c091906119cc565b60405180910390f35b6104e360048036038101906104de9190611881565b610f75565b6040516104f091906116d6565b60405180910390f35b600061050482610fc0565b9050919050565b60006105377f4761169e40d0efb53bf684d47e54c803c1511483244b1a2fca6dbbd91b4508d533610a8f565b610576576040517f08c379a000000000000000000000000000000000000000000000000000000000815260040161056d90611cad565b60405180910390fd5b6000600660008481526020019081526020016000206000015490508061059b90611cfc565b905080600660008581526020019081526020016000206000018190555080915050919050565b6000806000838152602001908152602001600020600101549050919050565b6105e9826105c1565b6105f28161103a565b6105fc838361104e565b505050565b61060961112e565b73ffffffffffffffffffffffffffffffffffffffff168173ffffffffffffffffffffffffffffffffffffffff1614610676576040517f08c379a000000000000000000000000000000000000000000000000000000000815260040161066d90611db6565b60405180910390fd5b6106808282611136565b5050565b60018060000154905081565b610698611568565b600660006004600086866040516106b0929190611e15565b60405180910390208152602001908152602001600020548152602001908152602001600020604051806060016040529081600082015481526020016001820180546106fa90611e5d565b80601f016020809104026020016040519081016040528092919081815260200182805461072690611e5d565b80156107735780601f1061074857610100808354040283529160200191610773565b820191906000526020600020905b81548152906001019060200180831161075657829003601f168201915b505050505081526020016002820160009054906101000a900473ffffffffffffffffffffffffffffffffffffffff1673ffffffffffffffffffffffffffffffffffffffff1673ffffffffffffffffffffffffffffffffffffffff1681525050905092915050565b60006108067f4761169e40d0efb53bf684d47e54c803c1511483244b1a2fca6dbbd91b4508d533610a8f565b610845576040517f08c379a000000000000000000000000000000000000000000000000000000000815260040161083c90611cad565b60405180910390fd5b735FbDB2315678afecb367f032d93F642f64180aa363abd9aa9560038686868b8b60025460046040518963ffffffff1660e01b815260040161088e989796959493929190611f73565b60006040518083038186803b1580156108a657600080fd5b505af41580156108ba573d6000803e3d6000fd5b5050505060006108ca6001611217565b90506108d66001610faa565b735FbDB2315678afecb367f032d93F642f64180aa363065c8e976003878a8a866004600660056040518963ffffffff1660e01b815260040161091f989796959493929190612003565b60006040518083038186803b15801561093757600080fd5b505af415801561094b573d6000803e3d6000fd5b505050508473ffffffffffffffffffffffffffffffffffffffff16817f2037719db34f16834a5a6a5ab0becf4fc514c4f4980b21ab7518afb4e47784f289894260405161099a939291906120a8565b60405180910390a38091505095945050505050565b6000600560008373ffffffffffffffffffffffffffffffffffffffff1673ffffffffffffffffffffffffffffffffffffffff168152602001908152602001600020549050919050565b6000735FbDB2315678afecb367f032d93F642f64180aa36336c4f02e60038886868a8a60025460046040518963ffffffff1660e01b8152600401610a43989796959493929190611f73565b602060405180830381865af4158015610a60573d6000803e3d6000fd5b505050506040513d601f19601f82011682018060405250810190610a849190612106565b905095945050505050565b600080600084815260200190815260200160002060000160008373ffffffffffffffffffffffffffffffffffffffff1673ffffffffffffffffffffffffffffffffffffffff16815260200190815260200160002060009054906101000a900460ff16905092915050565b7f4761169e40d0efb53bf684d47e54c803c1511483244b1a2fca6dbbd91b4508d581565b6000801b81565b6000610b2e611568565b6000600560008573ffffffffffffffffffffffffffffffffffffffff1673ffffffffffffffffffffffffffffffffffffffff16815260200190815260200160002054905080600660008381526020019081526020016000208060405180606001604052908160008201548152602001600182018054610bac90611e5d565b80601f0160208091040260200160405190810160405280929190818152602001828054610bd890611e5d565b8015610c255780601f10610bfa57610100808354040283529160200191610c25565b820191906000526020600020905b815481529060010190602001808311610c0857829003601f168201915b505050505081526020016002820160009054906101000a900473ffffffffffffffffffffffffffffffffffffffff1673ffffffffffffffffffffffffffffffffffffffff1673ffffffffffffffffffffffffffffffffffffffff168152505090509250925050915091565b60025481565b60006006600083815260200190815260200160002060020160009054906101000a900473ffffffffffffffffffffffffffffffffffffffff169050919050565b60036020528060005260406000206000915054906101000a900460ff1681565b610cff826105c1565b610d088161103a565b610d128383611136565b505050565b7f000000000000000000000000000000000000000000000000000000000000000081565b610d657f4761169e40d0efb53bf684d47e54c803c1511483244b1a2fca6dbbd91b4508d533610a8f565b610da4576040517f08c379a0000000000000000000000000000000000000000000000000000000008152600401610d9b90611cad565b60405180910390fd5b8060028190555050565b6060600660008381526020019081526020016000206001018054610dd190611e5d565b80601f0160208091040260200160405190810160405280929190818152602001828054610dfd90611e5d565b8015610e4a5780601f10610e1f57610100808354040283529160200191610e4a565b820191906000526020600020905b815481529060010190602001808311610e2d57829003601f168201915b50505050509050919050565b610e5e611568565b6006600083815260200190815260200160002060405180606001604052908160008201548152602001600182018054610e9690611e5d565b80601f0160208091040260200160405190810160405280929190818152602001828054610ec290611e5d565b8015610f0f5780601f10610ee457610100808354040283529160200191610f0f565b820191906000526020600020905b815481529060010190602001808311610ef257829003601f168201915b505050505081526020016002820160009054906101000a900473ffffffffffffffffffffffffffffffffffffffff1673ffffffffffffffffffffffffffffffffffffffff1673ffffffffffffffffffffffffffffffffffffffff16815250509050919050565b6000600460008484604051610f8b929190611e15565b6040518091039020815260200190815260200160002054905092915050565b6001816000016000828254019250508190555050565b60007f7965db0b000000000000000000000000000000000000000000000000000000007bffffffffffffffffffffffffffffffffffffffffffffffffffffffff1916827bffffffffffffffffffffffffffffffffffffffffffffffffffffffff19161480611033575061103282611225565b5b9050919050565b61104b8161104661112e565b61128f565b50565b6110588282610a8f565b61112a57600160008084815260200190815260200160002060000160008373ffffffffffffffffffffffffffffffffffffffff1673ffffffffffffffffffffffffffffffffffffffff16815260200190815260200160002060006101000a81548160ff0219169083151502179055506110cf61112e565b73ffffffffffffffffffffffffffffffffffffffff168173ffffffffffffffffffffffffffffffffffffffff16837f2f8788117e7eff1d82e926ec794901d17c78024a50270940304540a733656f0d60405160405180910390a45b5050565b600033905090565b6111408282610a8f565b1561121357600080600084815260200190815260200160002060000160008373ffffffffffffffffffffffffffffffffffffffff1673ffffffffffffffffffffffffffffffffffffffff16815260200190815260200160002060006101000a81548160ff0219169083151502179055506111b861112e565b73ffffffffffffffffffffffffffffffffffffffff168173ffffffffffffffffffffffffffffffffffffffff16837ff6391f5c32d9c69d2a47ea670b442974b53935d1edc7fd64eb21e047a839171b60405160405180910390a45b5050565b600081600001549050919050565b60007f01ffc9a7000000000000000000000000000000000000000000000000000000007bffffffffffffffffffffffffffffffffffffffffffffffffffffffff1916827bffffffffffffffffffffffffffffffffffffffffffffffffffffffff1916149050919050565b6112998282610a8f565b611328576112be8173ffffffffffffffffffffffffffffffffffffffff16601461132c565b6112cc8360001c602061132c565b6040516020016112dd929190612207565b6040516020818303038152906040526040517f08c379a000000000000000000000000000000000000000000000000000000000815260040161131f9190611c3f565b60405180910390fd5b5050565b60606000600283600261133f9190612241565b611349919061229b565b67ffffffffffffffff811115611362576113616122cf565b5b6040519080825280601f01601f1916602001820160405280156113945781602001600182028036833780820191505090505b5090507f3000000000000000000000000000000000000000000000000000000000000000816000815181106113cc576113cb6122fe565b5b60200101907effffffffffffffffffffffffffffffffffffffffffffffffffffffffffffff1916908160001a9053507f7800000000000000000000000000000000000000000000000000000000000000816001815181106114305761142f6122fe565b5b60200101907effffffffffffffffffffffffffffffffffffffffffffffffffffffffffffff1916908160001a905350600060018460026114709190612241565b61147a919061229b565b90505b600181111561151a577f3031323334353637383961626364656600000000000000000000000000000000600f8616601081106114bc576114bb6122fe565b5b1a60f81b8282815181106114d3576114d26122fe565b5b60200101907effffffffffffffffffffffffffffffffffffffffffffffffffffffffffffff1916908160001a905350600485901c9450806115139061232d565b905061147d565b506000841461155e576040517f08c379a0000000000000000000000000000000000000000000000000000000008152600401611555906123a2565b60405180910390fd5b8091505092915050565b60405180606001604052806000815260200160608152602001600073ffffffffffffffffffffffffffffffffffffffff1681525090565b600080fd5b600080fd5b60007fffffffff0000000000000000000000000000000000000000000000000000000082169050919050565b6115de816115a9565b81146115e957600080fd5b50565b6000813590506115fb816115d5565b92915050565b6000602082840312156116175761161661159f565b5b6000611625848285016115ec565b91505092915050565b60008115159050919050565b6116438161162e565b82525050565b600060208201905061165e600083018461163a565b92915050565b6000819050919050565b61167781611664565b811461168257600080fd5b50565b6000813590506116948161166e565b92915050565b6000602082840312156116b0576116af61159f565b5b60006116be84828501611685565b91505092915050565b6116d081611664565b82525050565b60006020820190506116eb60008301846116c7565b92915050565b6000819050919050565b611704816116f1565b811461170f57600080fd5b50565b600081359050611721816116fb565b92915050565b60006020828403121561173d5761173c61159f565b5b600061174b84828501611712565b91505092915050565b61175d816116f1565b82525050565b60006020820190506117786000830184611754565b92915050565b600073ffffffffffffffffffffffffffffffffffffffff82169050919050565b60006117a98261177e565b9050919050565b6117b98161179e565b81146117c457600080fd5b50565b6000813590506117d6816117b0565b92915050565b600080604083850312156117f3576117f261159f565b5b600061180185828601611712565b9250506020611812858286016117c7565b9150509250929050565b600080fd5b600080fd5b600080fd5b60008083601f8401126118415761184061181c565b5b8235905067ffffffffffffffff81111561185e5761185d611821565b5b60208301915083600182028301111561187a57611879611826565b5b9250929050565b600080602083850312156118985761189761159f565b5b600083013567ffffffffffffffff8111156118b6576118b56115a4565b5b6118c28582860161182b565b92509250509250929050565b6118d781611664565b82525050565b600081519050919050565b600082825260208201905092915050565b60005b838110156119175780820151818401526020810190506118fc565b60008484015250505050565b6000601f19601f8301169050919050565b600061193f826118dd565b61194981856118e8565b93506119598185602086016118f9565b61196281611923565b840191505092915050565b6119768161179e565b82525050565b600060608301600083015161199460008601826118ce565b50602083015184820360208601526119ac8282611934565b91505060408301516119c1604086018261196d565b508091505092915050565b600060208201905081810360008301526119e6818461197c565b905092915050565b60008083601f840112611a0457611a0361181c565b5b8235905067ffffffffffffffff811115611a2157611a20611821565b5b602083019150836020820283011115611a3d57611a3c611826565b5b9250929050565b600080600080600060608688031215611a6057611a5f61159f565b5b600086013567ffffffffffffffff811115611a7e57611a7d6115a4565b5b611a8a8882890161182b565b95509550506020611a9d888289016117c7565b935050604086013567ffffffffffffffff811115611abe57611abd6115a4565b5b611aca888289016119ee565b92509250509295509295909350565b600060208284031215611aef57611aee61159f565b5b6000611afd848285016117c7565b91505092915050565b600080600080600060608688031215611b2257611b2161159f565b5b6000611b30888289016117c7565b955050602086013567ffffffffffffffff811115611b5157611b506115a4565b5b611b5d8882890161182b565b9450945050604086013567ffffffffffffffff811115611b8057611b7f6115a4565b5b611b8c888289016119ee565b92509250509295509295909350565b6000604082019050611bb060008301856116c7565b8181036020830152611bc2818461197c565b90509392505050565b611bd48161179e565b82525050565b6000602082019050611bef6000830184611bcb565b92915050565b600082825260208201905092915050565b6000611c11826118dd565b611c1b8185611bf5565b9350611c2b8185602086016118f9565b611c3481611923565b840191505092915050565b60006020820190508181036000830152611c598184611c06565b905092915050565b7f4e6f744875620000000000000000000000000000000000000000000000000000600082015250565b6000611c97600683611bf5565b9150611ca282611c61565b602082019050919050565b60006020820190508181036000830152611cc681611c8a565b9050919050565b7f4e487b7100000000000000000000000000000000000000000000000000000000600052601160045260246000fd5b6000611d0782611664565b91507fffffffffffffffffffffffffffffffffffffffffffffffffffffffffffffffff8203611d3957611d38611ccd565b5b600182019050919050565b7f416363657373436f6e74726f6c3a2063616e206f6e6c792072656e6f756e636560008201527f20726f6c657320666f722073656c660000000000000000000000000000000000602082015250565b6000611da0602f83611bf5565b9150611dab82611d44565b604082019050919050565b60006020820190508181036000830152611dcf81611d93565b9050919050565b600081905092915050565b82818337600083830152505050565b6000611dfc8385611dd6565b9350611e09838584611de1565b82840190509392505050565b6000611e22828486611df0565b91508190509392505050565b7f4e487b7100000000000000000000000000000000000000000000000000000000600052602260045260246000fd5b60006002820490506001821680611e7557607f821691505b602082108103611e8857611e87611e2e565b5b50919050565b8082525050565b611e9e8161179e565b82525050565b600082825260208201905092915050565b600080fd5b82818337505050565b6000611ecf8385611ea4565b93507f07ffffffffffffffffffffffffffffffffffffffffffffffffffffffffffffff831115611f0257611f01611eb5565b5b602083029250611f13838584611eba565b82840190509392505050565b600082825260208201905092915050565b6000611f3c8385611f1f565b9350611f49838584611de1565b611f5283611923565b840190509392505050565b611f66816116f1565b82525050565b8082525050565b600060c082019050611f88600083018b611e8e565b611f95602083018a611e95565b8181036040830152611fa881888a611ec3565b90508181036060830152611fbd818688611f30565b9050611fcc6080830185611f5d565b611fd960a0830184611f6c565b9998505050505050505050565b611fef81611664565b82525050565b8082525050565b8082525050565b600060e082019050612018600083018b611e8e565b612025602083018a611e95565b818103604083015261203881888a611f30565b90506120476060830187611fe6565b6120546080830186611f6c565b61206160a0830185611ff5565b61206e60c0830184611ffc565b9998505050505050505050565b60006120878385611bf5565b9350612094838584611de1565b61209d83611923565b840190509392505050565b600060408201905081810360008301526120c381858761207b565b90506120d260208301846116c7565b949350505050565b6120e38161162e565b81146120ee57600080fd5b50565b600081519050612100816120da565b92915050565b60006020828403121561211c5761211b61159f565b5b600061212a848285016120f1565b91505092915050565b600081905092915050565b7f416363657373436f6e74726f6c3a206163636f756e7420000000000000000000600082015250565b6000612174601783612133565b915061217f8261213e565b601782019050919050565b6000612195826118dd565b61219f8185612133565b93506121af8185602086016118f9565b80840191505092915050565b7f206973206d697373696e6720726f6c6520000000000000000000000000000000600082015250565b60006121f1601183612133565b91506121fc826121bb565b601182019050919050565b600061221282612167565b915061221e828561218a565b9150612229826121e4565b9150612235828461218a565b91508190509392505050565b600061224c82611664565b915061225783611664565b9250817fffffffffffffffffffffffffffffffffffffffffffffffffffffffffffffffff04831182151516156122905761228f611ccd565b5b828202905092915050565b60006122a682611664565b91506122b183611664565b92508282019050808211156122c9576122c8611ccd565b5b92915050565b7f4e487b7100000000000000000000000000000000000000000000000000000000600052604160045260246000fd5b7f4e487b7100000000000000000000000000000000000000000000000000000000600052603260045260246000fd5b600061233882611664565b91506000820361234b5761234a611ccd565b5b600182039050919050565b7f537472696e67733a20686578206c656e67746820696e73756666696369656e74600082015250565b600061238c602083611bf5565b915061239782612356565b602082019050919050565b600060208201905081810360008301526123bb8161237f565b905091905056fea2646970667358221220ea3bc8d9c80b71fb40282a86f3b4d39aa2b40527ebba8deb24efa979a5e0bd9564736f6c63430008100033",
  "deployedBytecode": "0x608060405234801561001057600080fd5b506004361061014d5760003560e01c806399dac981116100c3578063d547741f1161007c578063d547741f14610413578063e5d9ce0b1461042f578063eaae07361461044d578063ec81d19414610469578063f2d1dde314610499578063fae6ba4b146104c95761014d565b806399dac98114610328578063a217fddf14610346578063ad97daf314610364578063b6c7ecf514610395578063c41a360a146103b3578063c884ef83146103e35761014d565b8063576c8beb11610115578063576c8beb1461021a5780635b7991241461023857806387b6b83c1461026857806389a9132b146102985780638e24ad37146102c857806391d14854146102f85761014d565b806301ffc9a71461015257806316cd4c3a14610182578063248a9ca3146101b25780632f2ff15d146101e257806336568abe146101fe575b600080fd5b61016c60048036038101906101679190611601565b6104f9565b6040516101799190611649565b60405180910390f35b61019c6004803603810190610197919061169a565b61050b565b6040516101a991906116d6565b60405180910390f35b6101cc60048036038101906101c79190611727565b6105c1565b6040516101d99190611763565b60405180910390f35b6101fc60048036038101906101f791906117dc565b6105e0565b005b610218600480360381019061021391906117dc565b610601565b005b610222610684565b60405161022f91906116d6565b60405180910390f35b610252600480360381019061024d9190611881565b610690565b60405161025f91906119cc565b60405180910390f35b610282600480360381019061027d9190611a44565b6107da565b60405161028f91906116d6565b60405180910390f35b6102b260048036038101906102ad9190611ad9565b6109af565b6040516102bf91906116d6565b60405180910390f35b6102e260048036038101906102dd9190611b06565b6109f8565b6040516102ef9190611649565b60405180910390f35b610312600480360381019061030d91906117dc565b610a8f565b60405161031f9190611649565b60405180910390f35b610330610af9565b60405161033d9190611763565b60405180910390f35b61034e610b1d565b60405161035b9190611763565b60405180910390f35b61037e60048036038101906103799190611ad9565b610b24565b60405161038c929190611b9b565b60405180910390f35b61039d610c90565b6040516103aa9190611763565b60405180910390f35b6103cd60048036038101906103c8919061169a565b610c96565b6040516103da9190611bda565b60405180910390f35b6103fd60048036038101906103f89190611ad9565b610cd6565b60405161040a9190611649565b60405180910390f35b61042d600480360381019061042891906117dc565b610cf6565b005b610437610d17565b6040516104449190611bda565b60405180910390f35b61046760048036038101906104629190611727565b610d3b565b005b610483600480360381019061047e919061169a565b610dae565b6040516104909190611c3f565b60405180910390f35b6104b360048036038101906104ae919061169a565b610e56565b6040516104c091906119cc565b60405180910390f35b6104e360048036038101906104de9190611881565b610f75565b6040516104f091906116d6565b60405180910390f35b600061050482610fc0565b9050919050565b60006105377f4761169e40d0efb53bf684d47e54c803c1511483244b1a2fca6dbbd91b4508d533610a8f565b610576576040517f08c379a000000000000000000000000000000000000000000000000000000000815260040161056d90611cad565b60405180910390fd5b6000600660008481526020019081526020016000206000015490508061059b90611cfc565b905080600660008581526020019081526020016000206000018190555080915050919050565b6000806000838152602001908152602001600020600101549050919050565b6105e9826105c1565b6105f28161103a565b6105fc838361104e565b505050565b61060961112e565b73ffffffffffffffffffffffffffffffffffffffff168173ffffffffffffffffffffffffffffffffffffffff1614610676576040517f08c379a000000000000000000000000000000000000000000000000000000000815260040161066d90611db6565b60405180910390fd5b6106808282611136565b5050565b60018060000154905081565b610698611568565b600660006004600086866040516106b0929190611e15565b60405180910390208152602001908152602001600020548152602001908152602001600020604051806060016040529081600082015481526020016001820180546106fa90611e5d565b80601f016020809104026020016040519081016040528092919081815260200182805461072690611e5d565b80156107735780601f1061074857610100808354040283529160200191610773565b820191906000526020600020905b81548152906001019060200180831161075657829003601f168201915b505050505081526020016002820160009054906101000a900473ffffffffffffffffffffffffffffffffffffffff1673ffffffffffffffffffffffffffffffffffffffff1673ffffffffffffffffffffffffffffffffffffffff1681525050905092915050565b60006108067f4761169e40d0efb53bf684d47e54c803c1511483244b1a2fca6dbbd91b4508d533610a8f565b610845576040517f08c379a000000000000000000000000000000000000000000000000000000000815260040161083c90611cad565b60405180910390fd5b73__$9842325bb1826b70c2ef476a1c714a02a7$__63abd9aa9560038686868b8b60025460046040518963ffffffff1660e01b815260040161088e989796959493929190611f73565b60006040518083038186803b1580156108a657600080fd5b505af41580156108ba573d6000803e3d6000fd5b5050505060006108ca6001611217565b90506108d66001610faa565b73__$9842325bb1826b70c2ef476a1c714a02a7$__63065c8e976003878a8a866004600660056040518963ffffffff1660e01b815260040161091f989796959493929190612003565b60006040518083038186803b15801561093757600080fd5b505af415801561094b573d6000803e3d6000fd5b505050508473ffffffffffffffffffffffffffffffffffffffff16817f2037719db34f16834a5a6a5ab0becf4fc514c4f4980b21ab7518afb4e47784f289894260405161099a939291906120a8565b60405180910390a38091505095945050505050565b6000600560008373ffffffffffffffffffffffffffffffffffffffff1673ffffffffffffffffffffffffffffffffffffffff168152602001908152602001600020549050919050565b600073__$9842325bb1826b70c2ef476a1c714a02a7$__6336c4f02e60038886868a8a60025460046040518963ffffffff1660e01b8152600401610a43989796959493929190611f73565b602060405180830381865af4158015610a60573d6000803e3d6000fd5b505050506040513d601f19601f82011682018060405250810190610a849190612106565b905095945050505050565b600080600084815260200190815260200160002060000160008373ffffffffffffffffffffffffffffffffffffffff1673ffffffffffffffffffffffffffffffffffffffff16815260200190815260200160002060009054906101000a900460ff16905092915050565b7f4761169e40d0efb53bf684d47e54c803c1511483244b1a2fca6dbbd91b4508d581565b6000801b81565b6000610b2e611568565b6000600560008573ffffffffffffffffffffffffffffffffffffffff1673ffffffffffffffffffffffffffffffffffffffff16815260200190815260200160002054905080600660008381526020019081526020016000208060405180606001604052908160008201548152602001600182018054610bac90611e5d565b80601f0160208091040260200160405190810160405280929190818152602001828054610bd890611e5d565b8015610c255780601f10610bfa57610100808354040283529160200191610c25565b820191906000526020600020905b815481529060010190602001808311610c0857829003601f168201915b505050505081526020016002820160009054906101000a900473ffffffffffffffffffffffffffffffffffffffff1673ffffffffffffffffffffffffffffffffffffffff1673ffffffffffffffffffffffffffffffffffffffff168152505090509250925050915091565b60025481565b60006006600083815260200190815260200160002060020160009054906101000a900473ffffffffffffffffffffffffffffffffffffffff169050919050565b60036020528060005260406000206000915054906101000a900460ff1681565b610cff826105c1565b610d088161103a565b610d128383611136565b505050565b7f000000000000000000000000000000000000000000000000000000000000000081565b610d657f4761169e40d0efb53bf684d47e54c803c1511483244b1a2fca6dbbd91b4508d533610a8f565b610da4576040517f08c379a0000000000000000000000000000000000000000000000000000000008152600401610d9b90611cad565b60405180910390fd5b8060028190555050565b6060600660008381526020019081526020016000206001018054610dd190611e5d565b80601f0160208091040260200160405190810160405280929190818152602001828054610dfd90611e5d565b8015610e4a5780601f10610e1f57610100808354040283529160200191610e4a565b820191906000526020600020905b815481529060010190602001808311610e2d57829003601f168201915b50505050509050919050565b610e5e611568565b6006600083815260200190815260200160002060405180606001604052908160008201548152602001600182018054610e9690611e5d565b80601f0160208091040260200160405190810160405280929190818152602001828054610ec290611e5d565b8015610f0f5780601f10610ee457610100808354040283529160200191610f0f565b820191906000526020600020905b815481529060010190602001808311610ef257829003601f168201915b505050505081526020016002820160009054906101000a900473ffffffffffffffffffffffffffffffffffffffff1673ffffffffffffffffffffffffffffffffffffffff1673ffffffffffffffffffffffffffffffffffffffff16815250509050919050565b6000600460008484604051610f8b929190611e15565b6040518091039020815260200190815260200160002054905092915050565b6001816000016000828254019250508190555050565b60007f7965db0b000000000000000000000000000000000000000000000000000000007bffffffffffffffffffffffffffffffffffffffffffffffffffffffff1916827bffffffffffffffffffffffffffffffffffffffffffffffffffffffff19161480611033575061103282611225565b5b9050919050565b61104b8161104661112e565b61128f565b50565b6110588282610a8f565b61112a57600160008084815260200190815260200160002060000160008373ffffffffffffffffffffffffffffffffffffffff1673ffffffffffffffffffffffffffffffffffffffff16815260200190815260200160002060006101000a81548160ff0219169083151502179055506110cf61112e565b73ffffffffffffffffffffffffffffffffffffffff168173ffffffffffffffffffffffffffffffffffffffff16837f2f8788117e7eff1d82e926ec794901d17c78024a50270940304540a733656f0d60405160405180910390a45b5050565b600033905090565b6111408282610a8f565b1561121357600080600084815260200190815260200160002060000160008373ffffffffffffffffffffffffffffffffffffffff1673ffffffffffffffffffffffffffffffffffffffff16815260200190815260200160002060006101000a81548160ff0219169083151502179055506111b861112e565b73ffffffffffffffffffffffffffffffffffffffff168173ffffffffffffffffffffffffffffffffffffffff16837ff6391f5c32d9c69d2a47ea670b442974b53935d1edc7fd64eb21e047a839171b60405160405180910390a45b5050565b600081600001549050919050565b60007f01ffc9a7000000000000000000000000000000000000000000000000000000007bffffffffffffffffffffffffffffffffffffffffffffffffffffffff1916827bffffffffffffffffffffffffffffffffffffffffffffffffffffffff1916149050919050565b6112998282610a8f565b611328576112be8173ffffffffffffffffffffffffffffffffffffffff16601461132c565b6112cc8360001c602061132c565b6040516020016112dd929190612207565b6040516020818303038152906040526040517f08c379a000000000000000000000000000000000000000000000000000000000815260040161131f9190611c3f565b60405180910390fd5b5050565b60606000600283600261133f9190612241565b611349919061229b565b67ffffffffffffffff811115611362576113616122cf565b5b6040519080825280601f01601f1916602001820160405280156113945781602001600182028036833780820191505090505b5090507f3000000000000000000000000000000000000000000000000000000000000000816000815181106113cc576113cb6122fe565b5b60200101907effffffffffffffffffffffffffffffffffffffffffffffffffffffffffffff1916908160001a9053507f7800000000000000000000000000000000000000000000000000000000000000816001815181106114305761142f6122fe565b5b60200101907effffffffffffffffffffffffffffffffffffffffffffffffffffffffffffff1916908160001a905350600060018460026114709190612241565b61147a919061229b565b90505b600181111561151a577f3031323334353637383961626364656600000000000000000000000000000000600f8616601081106114bc576114bb6122fe565b5b1a60f81b8282815181106114d3576114d26122fe565b5b60200101907effffffffffffffffffffffffffffffffffffffffffffffffffffffffffffff1916908160001a905350600485901c9450806115139061232d565b905061147d565b506000841461155e576040517f08c379a0000000000000000000000000000000000000000000000000000000008152600401611555906123a2565b60405180910390fd5b8091505092915050565b60405180606001604052806000815260200160608152602001600073ffffffffffffffffffffffffffffffffffffffff1681525090565b600080fd5b600080fd5b60007fffffffff0000000000000000000000000000000000000000000000000000000082169050919050565b6115de816115a9565b81146115e957600080fd5b50565b6000813590506115fb816115d5565b92915050565b6000602082840312156116175761161661159f565b5b6000611625848285016115ec565b91505092915050565b60008115159050919050565b6116438161162e565b82525050565b600060208201905061165e600083018461163a565b92915050565b6000819050919050565b61167781611664565b811461168257600080fd5b50565b6000813590506116948161166e565b92915050565b6000602082840312156116b0576116af61159f565b5b60006116be84828501611685565b91505092915050565b6116d081611664565b82525050565b60006020820190506116eb60008301846116c7565b92915050565b6000819050919050565b611704816116f1565b811461170f57600080fd5b50565b600081359050611721816116fb565b92915050565b60006020828403121561173d5761173c61159f565b5b600061174b84828501611712565b91505092915050565b61175d816116f1565b82525050565b60006020820190506117786000830184611754565b92915050565b600073ffffffffffffffffffffffffffffffffffffffff82169050919050565b60006117a98261177e565b9050919050565b6117b98161179e565b81146117c457600080fd5b50565b6000813590506117d6816117b0565b92915050565b600080604083850312156117f3576117f261159f565b5b600061180185828601611712565b9250506020611812858286016117c7565b9150509250929050565b600080fd5b600080fd5b600080fd5b60008083601f8401126118415761184061181c565b5b8235905067ffffffffffffffff81111561185e5761185d611821565b5b60208301915083600182028301111561187a57611879611826565b5b9250929050565b600080602083850312156118985761189761159f565b5b600083013567ffffffffffffffff8111156118b6576118b56115a4565b5b6118c28582860161182b565b92509250509250929050565b6118d781611664565b82525050565b600081519050919050565b600082825260208201905092915050565b60005b838110156119175780820151818401526020810190506118fc565b60008484015250505050565b6000601f19601f8301169050919050565b600061193f826118dd565b61194981856118e8565b93506119598185602086016118f9565b61196281611923565b840191505092915050565b6119768161179e565b82525050565b600060608301600083015161199460008601826118ce565b50602083015184820360208601526119ac8282611934565b91505060408301516119c1604086018261196d565b508091505092915050565b600060208201905081810360008301526119e6818461197c565b905092915050565b60008083601f840112611a0457611a0361181c565b5b8235905067ffffffffffffffff811115611a2157611a20611821565b5b602083019150836020820283011115611a3d57611a3c611826565b5b9250929050565b600080600080600060608688031215611a6057611a5f61159f565b5b600086013567ffffffffffffffff811115611a7e57611a7d6115a4565b5b611a8a8882890161182b565b95509550506020611a9d888289016117c7565b935050604086013567ffffffffffffffff811115611abe57611abd6115a4565b5b611aca888289016119ee565b92509250509295509295909350565b600060208284031215611aef57611aee61159f565b5b6000611afd848285016117c7565b91505092915050565b600080600080600060608688031215611b2257611b2161159f565b5b6000611b30888289016117c7565b955050602086013567ffffffffffffffff811115611b5157611b506115a4565b5b611b5d8882890161182b565b9450945050604086013567ffffffffffffffff811115611b8057611b7f6115a4565b5b611b8c888289016119ee565b92509250509295509295909350565b6000604082019050611bb060008301856116c7565b8181036020830152611bc2818461197c565b90509392505050565b611bd48161179e565b82525050565b6000602082019050611bef6000830184611bcb565b92915050565b600082825260208201905092915050565b6000611c11826118dd565b611c1b8185611bf5565b9350611c2b8185602086016118f9565b611c3481611923565b840191505092915050565b60006020820190508181036000830152611c598184611c06565b905092915050565b7f4e6f744875620000000000000000000000000000000000000000000000000000600082015250565b6000611c97600683611bf5565b9150611ca282611c61565b602082019050919050565b60006020820190508181036000830152611cc681611c8a565b9050919050565b7f4e487b7100000000000000000000000000000000000000000000000000000000600052601160045260246000fd5b6000611d0782611664565b91507fffffffffffffffffffffffffffffffffffffffffffffffffffffffffffffffff8203611d3957611d38611ccd565b5b600182019050919050565b7f416363657373436f6e74726f6c3a2063616e206f6e6c792072656e6f756e636560008201527f20726f6c657320666f722073656c660000000000000000000000000000000000602082015250565b6000611da0602f83611bf5565b9150611dab82611d44565b604082019050919050565b60006020820190508181036000830152611dcf81611d93565b9050919050565b600081905092915050565b82818337600083830152505050565b6000611dfc8385611dd6565b9350611e09838584611de1565b82840190509392505050565b6000611e22828486611df0565b91508190509392505050565b7f4e487b7100000000000000000000000000000000000000000000000000000000600052602260045260246000fd5b60006002820490506001821680611e7557607f821691505b602082108103611e8857611e87611e2e565b5b50919050565b8082525050565b611e9e8161179e565b82525050565b600082825260208201905092915050565b600080fd5b82818337505050565b6000611ecf8385611ea4565b93507f07ffffffffffffffffffffffffffffffffffffffffffffffffffffffffffffff831115611f0257611f01611eb5565b5b602083029250611f13838584611eba565b82840190509392505050565b600082825260208201905092915050565b6000611f3c8385611f1f565b9350611f49838584611de1565b611f5283611923565b840190509392505050565b611f66816116f1565b82525050565b8082525050565b600060c082019050611f88600083018b611e8e565b611f95602083018a611e95565b8181036040830152611fa881888a611ec3565b90508181036060830152611fbd818688611f30565b9050611fcc6080830185611f5d565b611fd960a0830184611f6c565b9998505050505050505050565b611fef81611664565b82525050565b8082525050565b8082525050565b600060e082019050612018600083018b611e8e565b612025602083018a611e95565b818103604083015261203881888a611f30565b90506120476060830187611fe6565b6120546080830186611f6c565b61206160a0830185611ff5565b61206e60c0830184611ffc565b9998505050505050505050565b60006120878385611bf5565b9350612094838584611de1565b61209d83611923565b840190509392505050565b600060408201905081810360008301526120c381858761207b565b90506120d260208301846116c7565b949350505050565b6120e38161162e565b81146120ee57600080fd5b50565b600081519050612100816120da565b92915050565b60006020828403121561211c5761211b61159f565b5b600061212a848285016120f1565b91505092915050565b600081905092915050565b7f416363657373436f6e74726f6c3a206163636f756e7420000000000000000000600082015250565b6000612174601783612133565b915061217f8261213e565b601782019050919050565b6000612195826118dd565b61219f8185612133565b93506121af8185602086016118f9565b80840191505092915050565b7f206973206d697373696e6720726f6c6520000000000000000000000000000000600082015250565b60006121f1601183612133565b91506121fc826121bb565b601182019050919050565b600061221282612167565b915061221e828561218a565b9150612229826121e4565b9150612235828461218a565b91508190509392505050565b600061224c82611664565b915061225783611664565b9250817fffffffffffffffffffffffffffffffffffffffffffffffffffffffffffffffff04831182151516156122905761228f611ccd565b5b828202905092915050565b60006122a682611664565b91506122b183611664565b92508282019050808211156122c9576122c8611ccd565b5b92915050565b7f4e487b7100000000000000000000000000000000000000000000000000000000600052604160045260246000fd5b7f4e487b7100000000000000000000000000000000000000000000000000000000600052603260045260246000fd5b600061233882611664565b91506000820361234b5761234a611ccd565b5b600182039050919050565b7f537472696e67733a20686578206c656e67746820696e73756666696369656e74600082015250565b600061238c602083611bf5565b915061239782612356565b602082019050919050565b600060208201905081810360008301526123bb8161237f565b905091905056fea2646970667358221220ea3bc8d9c80b71fb40282a86f3b4d39aa2b40527ebba8deb24efa979a5e0bd9564736f6c63430008100033",
  "libraries": {
    "Logic": "0x5FbDB2315678afecb367f032d93F642f64180aa3"
  },
  "devdoc": {
    "kind": "dev",
    "methods": {
      "getRoleAdmin(bytes32)": {
        "details": "Returns the admin role that controls `role`. See {grantRole} and {revokeRole}. To change a role's admin, use {_setRoleAdmin}."
      },
      "grantRole(bytes32,address)": {
        "details": "Grants `role` to `account`. If `account` had not been already granted `role`, emits a {RoleGranted} event. Requirements: - the caller must have ``role``'s admin role. May emit a {RoleGranted} event."
      },
      "hasRole(bytes32,address)": {
        "details": "Returns `true` if `account` has been granted `role`."
      },
      "renounceRole(bytes32,address)": {
        "details": "Revokes `role` from the calling account. Roles are often managed via {grantRole} and {revokeRole}: this function's purpose is to provide a mechanism for accounts to lose their privileges if they are compromised (such as when a trusted device is misplaced). If the calling account had been revoked `role`, emits a {RoleRevoked} event. Requirements: - the caller must be `account`. May emit a {RoleRevoked} event."
      },
      "revokeRole(bytes32,address)": {
        "details": "Revokes `role` from `account`. If `account` had been granted `role`, emits a {RoleRevoked} event. Requirements: - the caller must have ``role``'s admin role. May emit a {RoleRevoked} event."
      },
      "supportsInterface(bytes4)": {
        "details": "See {IERC165-supportsInterface}."
      }
    },
    "version": 1
  },
  "userdoc": {
    "kind": "user",
    "methods": {},
    "version": 1
  },
  "storageLayout": {
    "storage": [
      {
        "astId": 3435,
        "contract": "contracts/ProfileModule.sol:ProfileModule",
        "label": "_roles",
        "offset": 0,
        "slot": "0",
        "type": "t_mapping(t_bytes32,t_struct(RoleData)3430_storage)"
      },
      {
        "astId": 9438,
        "contract": "contracts/ProfileModule.sol:ProfileModule",
        "label": "profileIdCounter",
        "offset": 0,
        "slot": "1",
        "type": "t_struct(Counter)5906_storage"
      },
      {
        "astId": 9447,
        "contract": "contracts/ProfileModule.sol:ProfileModule",
        "label": "merkleroot",
        "offset": 0,
        "slot": "2",
        "type": "t_bytes32"
      },
      {
        "astId": 9451,
        "contract": "contracts/ProfileModule.sol:ProfileModule",
        "label": "claimed",
        "offset": 0,
        "slot": "3",
        "type": "t_mapping(t_address,t_bool)"
      },
      {
        "astId": 9455,
        "contract": "contracts/ProfileModule.sol:ProfileModule",
        "label": "_profileIdByHandleHash",
        "offset": 0,
        "slot": "4",
        "type": "t_mapping(t_bytes32,t_uint256)"
      },
      {
        "astId": 9459,
        "contract": "contracts/ProfileModule.sol:ProfileModule",
        "label": "_profileIdByAddress",
        "offset": 0,
        "slot": "5",
        "type": "t_mapping(t_address,t_uint256)"
      },
      {
        "astId": 9464,
        "contract": "contracts/ProfileModule.sol:ProfileModule",
        "label": "_profileById",
        "offset": 0,
        "slot": "6",
        "type": "t_mapping(t_uint256,t_struct(ProfileStruct)10347_storage)"
      }
    ],
    "types": {
      "t_address": {
        "encoding": "inplace",
        "label": "address",
        "numberOfBytes": "20"
      },
      "t_bool": {
        "encoding": "inplace",
        "label": "bool",
        "numberOfBytes": "1"
      },
      "t_bytes32": {
        "encoding": "inplace",
        "label": "bytes32",
        "numberOfBytes": "32"
      },
      "t_mapping(t_address,t_bool)": {
        "encoding": "mapping",
        "key": "t_address",
        "label": "mapping(address => bool)",
        "numberOfBytes": "32",
        "value": "t_bool"
      },
      "t_mapping(t_address,t_uint256)": {
        "encoding": "mapping",
        "key": "t_address",
        "label": "mapping(address => uint256)",
        "numberOfBytes": "32",
        "value": "t_uint256"
      },
      "t_mapping(t_bytes32,t_struct(RoleData)3430_storage)": {
        "encoding": "mapping",
        "key": "t_bytes32",
        "label": "mapping(bytes32 => struct AccessControl.RoleData)",
        "numberOfBytes": "32",
        "value": "t_struct(RoleData)3430_storage"
      },
      "t_mapping(t_bytes32,t_uint256)": {
        "encoding": "mapping",
        "key": "t_bytes32",
        "label": "mapping(bytes32 => uint256)",
        "numberOfBytes": "32",
        "value": "t_uint256"
      },
      "t_mapping(t_uint256,t_struct(ProfileStruct)10347_storage)": {
        "encoding": "mapping",
        "key": "t_uint256",
        "label": "mapping(uint256 => struct DataTypes.ProfileStruct)",
        "numberOfBytes": "32",
        "value": "t_struct(ProfileStruct)10347_storage"
      },
      "t_string_storage": {
        "encoding": "bytes",
        "label": "string",
        "numberOfBytes": "32"
      },
      "t_struct(Counter)5906_storage": {
        "encoding": "inplace",
        "label": "struct Counters.Counter",
        "members": [
          {
            "astId": 5905,
            "contract": "contracts/ProfileModule.sol:ProfileModule",
            "label": "_value",
            "offset": 0,
            "slot": "0",
            "type": "t_uint256"
          }
        ],
        "numberOfBytes": "32"
      },
      "t_struct(ProfileStruct)10347_storage": {
        "encoding": "inplace",
        "label": "struct DataTypes.ProfileStruct",
        "members": [
          {
            "astId": 10342,
            "contract": "contracts/ProfileModule.sol:ProfileModule",
            "label": "missionCount",
            "offset": 0,
            "slot": "0",
            "type": "t_uint256"
          },
          {
            "astId": 10344,
            "contract": "contracts/ProfileModule.sol:ProfileModule",
            "label": "handle",
            "offset": 0,
            "slot": "1",
            "type": "t_string_storage"
          },
          {
            "astId": 10346,
            "contract": "contracts/ProfileModule.sol:ProfileModule",
            "label": "owner",
            "offset": 0,
            "slot": "2",
            "type": "t_address"
          }
        ],
        "numberOfBytes": "96"
      },
      "t_struct(RoleData)3430_storage": {
        "encoding": "inplace",
        "label": "struct AccessControl.RoleData",
        "members": [
          {
            "astId": 3427,
            "contract": "contracts/ProfileModule.sol:ProfileModule",
            "label": "members",
            "offset": 0,
            "slot": "0",
            "type": "t_mapping(t_address,t_bool)"
          },
          {
            "astId": 3429,
            "contract": "contracts/ProfileModule.sol:ProfileModule",
            "label": "adminRole",
            "offset": 0,
            "slot": "1",
            "type": "t_bytes32"
          }
        ],
        "numberOfBytes": "64"
      },
      "t_uint256": {
        "encoding": "inplace",
        "label": "uint256",
        "numberOfBytes": "32"
      }
    }
  }
}