{
  "address": "0x025c3382BE9424668cA13245dE1D70Bdd2646318",
  "abi": [
    {
      "inputs": [
        {
          "internalType": "address",
          "name": "_pompHub",
          "type": "address"
        },
        {
          "internalType": "address",
          "name": "_missionNFT",
          "type": "address"
        }
      ],
      "stateMutability": "nonpayable",
      "type": "constructor"
    },
    {
      "anonymous": false,
      "inputs": [
        {
          "indexed": true,
          "internalType": "uint256",
          "name": "profileId",
          "type": "uint256"
        },
        {
          "indexed": true,
          "internalType": "uint256",
          "name": "missionId",
          "type": "uint256"
        },
        {
          "indexed": false,
          "internalType": "uint256",
          "name": "timestamp",
          "type": "uint256"
        }
      ],
      "name": "Aborted",
      "type": "event"
    },
    {
      "anonymous": false,
      "inputs": [
        {
          "indexed": true,
          "internalType": "address",
          "name": "verifier",
          "type": "address"
        },
        {
          "indexed": true,
          "internalType": "uint256",
          "name": "count",
          "type": "uint256"
        },
        {
          "indexed": false,
          "internalType": "uint256",
          "name": "timestamp",
          "type": "uint256"
        }
      ],
      "name": "BatchVerified",
      "type": "event"
    },
    {
      "anonymous": false,
      "inputs": [
        {
          "indexed": true,
          "internalType": "address",
          "name": "verifier",
          "type": "address"
        },
        {
          "indexed": true,
          "internalType": "uint256",
          "name": "profileId",
          "type": "uint256"
        },
        {
          "indexed": true,
          "internalType": "uint256",
          "name": "missionId",
          "type": "uint256"
        },
        {
          "indexed": false,
          "internalType": "bytes32",
          "name": "challenge",
          "type": "bytes32"
        },
        {
          "indexed": false,
          "internalType": "uint256",
          "name": "timestamp",
          "type": "uint256"
        }
      ],
      "name": "Completed",
      "type": "event"
    },
    {
      "anonymous": false,
      "inputs": [
        {
          "indexed": true,
          "internalType": "address",
          "name": "verifier",
          "type": "address"
        },
        {
          "indexed": true,
          "internalType": "uint256",
          "name": "profileId",
          "type": "uint256"
        },
        {
          "indexed": true,
          "internalType": "uint256",
          "name": "missionId",
          "type": "uint256"
        },
        {
          "indexed": false,
          "internalType": "bytes32",
          "name": "challenge",
          "type": "bytes32"
        },
        {
          "indexed": false,
          "internalType": "uint256",
          "name": "reason",
          "type": "uint256"
        },
        {
          "indexed": false,
          "internalType": "uint256",
          "name": "timestamp",
          "type": "uint256"
        }
      ],
      "name": "Failed",
      "type": "event"
    },
    {
      "anonymous": false,
      "inputs": [
        {
          "indexed": true,
          "internalType": "bytes32",
          "name": "role",
          "type": "bytes32"
        },
        {
          "indexed": true,
          "internalType": "bytes32",
          "name": "previousAdminRole",
          "type": "bytes32"
        },
        {
          "indexed": true,
          "internalType": "bytes32",
          "name": "newAdminRole",
          "type": "bytes32"
        }
      ],
      "name": "RoleAdminChanged",
      "type": "event"
    },
    {
      "anonymous": false,
      "inputs": [
        {
          "indexed": true,
          "internalType": "bytes32",
          "name": "role",
          "type": "bytes32"
        },
        {
          "indexed": true,
          "internalType": "address",
          "name": "account",
          "type": "address"
        },
        {
          "indexed": true,
          "internalType": "address",
          "name": "sender",
          "type": "address"
        }
      ],
      "name": "RoleGranted",
      "type": "event"
    },
    {
      "anonymous": false,
      "inputs": [
        {
          "indexed": true,
          "internalType": "bytes32",
          "name": "role",
          "type": "bytes32"
        },
        {
          "indexed": true,
          "internalType": "address",
          "name": "account",
          "type": "address"
        },
        {
          "indexed": true,
          "internalType": "address",
          "name": "sender",
          "type": "address"
        }
      ],
      "name": "RoleRevoked",
      "type": "event"
    },
    {
      "anonymous": false,
      "inputs": [
        {
          "indexed": true,
          "internalType": "address",
          "name": "creator",
          "type": "address"
        },
        {
          "indexed": true,
          "internalType": "uint256",
          "name": "profileId",
          "type": "uint256"
        },
        {
          "indexed": true,
          "internalType": "uint256",
          "name": "missionId",
          "type": "uint256"
        },
        {
          "indexed": false,
          "internalType": "uint256",
          "name": "endtime",
          "type": "uint256"
        },
        {
          "indexed": false,
          "internalType": "uint256",
          "name": "timestamp",
          "type": "uint256"
        }
      ],
      "name": "Started",
      "type": "event"
    },
    {
      "anonymous": false,
      "inputs": [
        {
          "indexed": true,
          "internalType": "address",
          "name": "verifier",
          "type": "address"
        },
        {
          "indexed": true,
          "internalType": "uint256",
          "name": "profileId",
          "type": "uint256"
        },
        {
          "indexed": true,
          "internalType": "uint256",
          "name": "missionId",
          "type": "uint256"
        },
        {
          "indexed": false,
          "internalType": "bytes32",
          "name": "challenge",
          "type": "bytes32"
        },
        {
          "indexed": false,
          "internalType": "uint256",
          "name": "timestamp",
          "type": "uint256"
        }
      ],
      "name": "Verified",
      "type": "event"
    },
    {
      "inputs": [],
      "name": "DEFAULT_ADMIN_ROLE",
      "outputs": [
        {
          "internalType": "bytes32",
          "name": "",
          "type": "bytes32"
        }
      ],
      "stateMutability": "view",
      "type": "function"
    },
    {
      "inputs": [],
      "name": "HUB_ROLE",
      "outputs": [
        {
          "internalType": "bytes32",
          "name": "",
          "type": "bytes32"
        }
      ],
      "stateMutability": "view",
      "type": "function"
    },
    {
      "inputs": [
        {
          "components": [
            {
              "internalType": "uint256",
              "name": "profileId",
              "type": "uint256"
            },
            {
              "internalType": "uint256",
              "name": "missionId",
              "type": "uint256"
            },
            {
              "internalType": "bytes",
              "name": "signature",
              "type": "bytes"
            },
            {
              "internalType": "uint256",
              "name": "deadline",
              "type": "uint256"
            }
          ],
          "internalType": "struct DataTypes.AbortWithSigData",
          "name": "vars",
          "type": "tuple"
        },
        {
          "internalType": "address",
          "name": "owner",
          "type": "address"
        }
      ],
      "name": "abortWithSig",
      "outputs": [],
      "stateMutability": "nonpayable",
      "type": "function"
    },
    {
      "inputs": [
        {
          "components": [
            {
              "internalType": "uint256[]",
              "name": "profileIds",
              "type": "uint256[]"
            },
            {
              "internalType": "string",
              "name": "challenges",
              "type": "string"
            },
            {
              "internalType": "bytes",
              "name": "signature",
              "type": "bytes"
            },
            {
              "internalType": "uint256",
              "name": "deadline",
              "type": "uint256"
            }
          ],
          "internalType": "struct DataTypes.BatchVerifyWithSigData",
          "name": "vars",
          "type": "tuple"
        },
        {
          "internalType": "address",
          "name": "sender",
          "type": "address"
        }
      ],
      "name": "batchVerifyWithSig",
      "outputs": [],
      "stateMutability": "nonpayable",
      "type": "function"
    },
    {
      "inputs": [
        {
          "components": [
            {
              "internalType": "uint256[]",
              "name": "profileIds",
              "type": "uint256[]"
            },
            {
              "internalType": "string",
              "name": "challenges",
              "type": "string"
            }
          ],
          "internalType": "struct DataTypes.CanBatchVerifyData",
          "name": "vars",
          "type": "tuple"
        },
        {
          "internalType": "address",
          "name": "sender",
          "type": "address"
        }
      ],
      "name": "canBatchVerify",
      "outputs": [
        {
          "internalType": "bool",
          "name": "",
          "type": "bool"
        }
      ],
      "stateMutability": "view",
      "type": "function"
    },
    {
      "inputs": [
        {
          "components": [
            {
              "internalType": "uint256",
              "name": "profileId",
              "type": "uint256"
            },
            {
              "internalType": "uint256",
              "name": "missionId",
              "type": "uint256"
            },
            {
              "internalType": "string",
              "name": "challenge",
              "type": "string"
            },
            {
              "internalType": "bytes",
              "name": "signature",
              "type": "bytes"
            },
            {
              "internalType": "uint256",
              "name": "deadline",
              "type": "uint256"
            }
          ],
          "internalType": "struct DataTypes.CompleteWithSigData",
          "name": "vars",
          "type": "tuple"
        },
        {
          "internalType": "address",
          "name": "owner",
          "type": "address"
        }
      ],
      "name": "completeWithSig",
      "outputs": [],
      "stateMutability": "nonpayable",
      "type": "function"
    },
    {
      "inputs": [
        {
          "components": [
            {
              "internalType": "uint256",
              "name": "profileId",
              "type": "uint256"
            },
            {
              "internalType": "string",
              "name": "challenge",
              "type": "string"
            },
            {
              "internalType": "uint256",
              "name": "reason",
              "type": "uint256"
            },
            {
              "internalType": "bytes",
              "name": "signature",
              "type": "bytes"
            },
            {
              "internalType": "uint256",
              "name": "deadline",
              "type": "uint256"
            }
          ],
          "internalType": "struct DataTypes.FailWithSigData",
          "name": "vars",
          "type": "tuple"
        },
        {
          "internalType": "address",
          "name": "sender",
          "type": "address"
        }
      ],
      "name": "failWithSig",
      "outputs": [],
      "stateMutability": "nonpayable",
      "type": "function"
    },
    {
      "inputs": [
        {
          "internalType": "bytes32",
          "name": "role",
          "type": "bytes32"
        }
      ],
      "name": "getRoleAdmin",
      "outputs": [
        {
          "internalType": "bytes32",
          "name": "",
          "type": "bytes32"
        }
      ],
      "stateMutability": "view",
      "type": "function"
    },
    {
      "inputs": [
        {
          "internalType": "bytes32",
          "name": "role",
          "type": "bytes32"
        },
        {
          "internalType": "address",
          "name": "account",
          "type": "address"
        }
      ],
      "name": "grantRole",
      "outputs": [],
      "stateMutability": "nonpayable",
      "type": "function"
    },
    {
      "inputs": [
        {
          "internalType": "bytes32",
          "name": "role",
          "type": "bytes32"
        },
        {
          "internalType": "address",
          "name": "account",
          "type": "address"
        }
      ],
      "name": "hasRole",
      "outputs": [
        {
          "internalType": "bool",
          "name": "",
          "type": "bool"
        }
      ],
      "stateMutability": "view",
      "type": "function"
    },
    {
      "inputs": [
        {
          "internalType": "string",
          "name": "challenge",
          "type": "string"
        }
      ],
      "name": "missionByChallenge",
      "outputs": [
        {
          "components": [
            {
              "internalType": "address",
              "name": "owner",
              "type": "address"
            },
            {
              "internalType": "uint256",
              "name": "profileId",
              "type": "uint256"
            },
            {
              "internalType": "uint256",
              "name": "tokenId",
              "type": "uint256"
            },
            {
              "internalType": "address",
              "name": "verifier",
              "type": "address"
            },
            {
              "internalType": "uint256",
              "name": "starttime",
              "type": "uint256"
            },
            {
              "internalType": "uint256",
              "name": "endtime",
              "type": "uint256"
            },
            {
              "internalType": "bytes32",
              "name": "challengeHash",
              "type": "bytes32"
            },
            {
              "internalType": "enum DataTypes.State",
              "name": "state",
              "type": "uint8"
            },
            {
              "internalType": "address",
              "name": "creator",
              "type": "address"
            }
          ],
          "internalType": "struct DataTypes.MissionStruct",
          "name": "",
          "type": "tuple"
        },
        {
          "internalType": "uint256",
          "name": "",
          "type": "uint256"
        },
        {
          "internalType": "string",
          "name": "",
          "type": "string"
        }
      ],
      "stateMutability": "view",
      "type": "function"
    },
    {
      "inputs": [
        {
          "internalType": "uint256",
          "name": "profileId",
          "type": "uint256"
        },
        {
          "internalType": "uint256",
          "name": "missionId",
          "type": "uint256"
        }
      ],
      "name": "missionById",
      "outputs": [
        {
          "components": [
            {
              "internalType": "address",
              "name": "owner",
              "type": "address"
            },
            {
              "internalType": "uint256",
              "name": "profileId",
              "type": "uint256"
            },
            {
              "internalType": "uint256",
              "name": "tokenId",
              "type": "uint256"
            },
            {
              "internalType": "address",
              "name": "verifier",
              "type": "address"
            },
            {
              "internalType": "uint256",
              "name": "starttime",
              "type": "uint256"
            },
            {
              "internalType": "uint256",
              "name": "endtime",
              "type": "uint256"
            },
            {
              "internalType": "bytes32",
              "name": "challengeHash",
              "type": "bytes32"
            },
            {
              "internalType": "enum DataTypes.State",
              "name": "state",
              "type": "uint8"
            },
            {
              "internalType": "address",
              "name": "creator",
              "type": "address"
            }
          ],
          "internalType": "struct DataTypes.MissionStruct",
          "name": "",
          "type": "tuple"
        },
        {
          "internalType": "uint256",
          "name": "",
          "type": "uint256"
        },
        {
          "internalType": "string",
          "name": "",
          "type": "string"
        }
      ],
      "stateMutability": "view",
      "type": "function"
    },
    {
      "inputs": [
        {
          "internalType": "uint256",
          "name": "profileId",
          "type": "uint256"
        },
        {
          "internalType": "string",
          "name": "slug",
          "type": "string"
        }
      ],
      "name": "missionBySlug",
      "outputs": [
        {
          "components": [
            {
              "internalType": "address",
              "name": "owner",
              "type": "address"
            },
            {
              "internalType": "uint256",
              "name": "profileId",
              "type": "uint256"
            },
            {
              "internalType": "uint256",
              "name": "tokenId",
              "type": "uint256"
            },
            {
              "internalType": "address",
              "name": "verifier",
              "type": "address"
            },
            {
              "internalType": "uint256",
              "name": "starttime",
              "type": "uint256"
            },
            {
              "internalType": "uint256",
              "name": "endtime",
              "type": "uint256"
            },
            {
              "internalType": "bytes32",
              "name": "challengeHash",
              "type": "bytes32"
            },
            {
              "internalType": "enum DataTypes.State",
              "name": "state",
              "type": "uint8"
            },
            {
              "internalType": "address",
              "name": "creator",
              "type": "address"
            }
          ],
          "internalType": "struct DataTypes.MissionStruct",
          "name": "",
          "type": "tuple"
        }
      ],
      "stateMutability": "view",
      "type": "function"
    },
    {
      "inputs": [
        {
          "internalType": "string",
          "name": "slug",
          "type": "string"
        }
      ],
      "name": "missionIdBySlug",
      "outputs": [
        {
          "internalType": "uint256",
          "name": "",
          "type": "uint256"
        }
      ],
      "stateMutability": "view",
      "type": "function"
    },
    {
      "inputs": [],
      "name": "missionNFT",
      "outputs": [
        {
          "internalType": "address",
          "name": "",
          "type": "address"
        }
      ],
      "stateMutability": "view",
      "type": "function"
    },
    {
      "inputs": [
        {
          "internalType": "address",
          "name": "",
          "type": "address"
        },
        {
          "internalType": "address",
          "name": "",
          "type": "address"
        },
        {
          "internalType": "uint256",
          "name": "",
          "type": "uint256"
        },
        {
          "internalType": "bytes",
          "name": "",
          "type": "bytes"
        }
      ],
      "name": "onERC721Received",
      "outputs": [
        {
          "internalType": "bytes4",
          "name": "",
          "type": "bytes4"
        }
      ],
      "stateMutability": "nonpayable",
      "type": "function"
    },
    {
      "inputs": [],
      "name": "pompHub",
      "outputs": [
        {
          "internalType": "address",
          "name": "",
          "type": "address"
        }
      ],
      "stateMutability": "view",
      "type": "function"
    },
    {
      "inputs": [
        {
          "internalType": "bytes32",
          "name": "role",
          "type": "bytes32"
        },
        {
          "internalType": "address",
          "name": "account",
          "type": "address"
        }
      ],
      "name": "renounceRole",
      "outputs": [],
      "stateMutability": "nonpayable",
      "type": "function"
    },
    {
      "inputs": [
        {
          "internalType": "bytes32",
          "name": "role",
          "type": "bytes32"
        },
        {
          "internalType": "address",
          "name": "account",
          "type": "address"
        }
      ],
      "name": "revokeRole",
      "outputs": [],
      "stateMutability": "nonpayable",
      "type": "function"
    },
    {
      "inputs": [
        {
          "internalType": "address",
          "name": "",
          "type": "address"
        }
      ],
      "name": "sigNonces",
      "outputs": [
        {
          "internalType": "uint256",
          "name": "",
          "type": "uint256"
        }
      ],
      "stateMutability": "view",
      "type": "function"
    },
    {
      "inputs": [
        {
          "components": [
            {
              "internalType": "uint256",
              "name": "profileId",
              "type": "uint256"
            },
            {
              "internalType": "string",
              "name": "slug",
              "type": "string"
            },
            {
              "internalType": "string",
              "name": "contentURI",
              "type": "string"
            },
            {
              "internalType": "uint256",
              "name": "minutesToExpire",
              "type": "uint256"
            },
            {
              "internalType": "address",
              "name": "creator",
              "type": "address"
            },
            {
              "internalType": "address",
              "name": "verifier",
              "type": "address"
            },
            {
              "internalType": "bytes",
              "name": "signature",
              "type": "bytes"
            },
            {
              "internalType": "uint256",
              "name": "deadline",
              "type": "uint256"
            }
          ],
          "internalType": "struct DataTypes.StartWithSigData",
          "name": "vars",
          "type": "tuple"
        },
        {
          "internalType": "address",
          "name": "owner",
          "type": "address"
        }
      ],
      "name": "startWithSig",
      "outputs": [
        {
          "internalType": "uint256",
          "name": "",
          "type": "uint256"
        }
      ],
      "stateMutability": "nonpayable",
      "type": "function"
    },
    {
      "inputs": [
        {
          "internalType": "bytes4",
          "name": "interfaceId",
          "type": "bytes4"
        }
      ],
      "name": "supportsInterface",
      "outputs": [
        {
          "internalType": "bool",
          "name": "",
          "type": "bool"
        }
      ],
      "stateMutability": "view",
      "type": "function"
    },
    {
      "inputs": [
        {
          "components": [
            {
              "internalType": "uint256",
              "name": "profileId",
              "type": "uint256"
            },
            {
              "internalType": "string",
              "name": "challenge",
              "type": "string"
            },
            {
              "internalType": "bytes",
              "name": "signature",
              "type": "bytes"
            },
            {
              "internalType": "uint256",
              "name": "deadline",
              "type": "uint256"
            }
          ],
          "internalType": "struct DataTypes.VerifyWithSigData",
          "name": "vars",
          "type": "tuple"
        },
        {
          "internalType": "address",
          "name": "sender",
          "type": "address"
        }
      ],
      "name": "verifyWithSig",
      "outputs": [],
      "stateMutability": "nonpayable",
      "type": "function"
    }
  ],
  "transactionHash": "0xf92b06bb9c199d8016b62c982fb83f909fe78fcde1317e1f4e9e9ec03809643b",
  "args": [
    "0x32c1c9547ebcd3c450bc73c88c1679f56db513fe",
    "0xffcb591E32524e48775751b6B73c1D88E6A043ea"
  ],
  "numDeployments": 1,
  "solcInputHash": "68f26ef6a2c02e5b39a421cee7a22681",
  "bytecode": "0x6101806040523480156200001257600080fd5b506040516200580838038062005808833981810160405281019062000038919062000418565b6040518060400160405280600481526020017f506f6d70000000000000000000000000000000000000000000000000000000008152506040518060400160405280600181526020017f310000000000000000000000000000000000000000000000000000000000000081525060008280519060200120905060008280519060200120905060007f8b73c3c69bb8fe3d512ecc4cf759cc79239f7b179b0ffacaa9a75d522b39400f90508260e081815250508161010081815250504660a081815250506200010d8184846200020f60201b60201c565b608081815250503073ffffffffffffffffffffffffffffffffffffffff1660c08173ffffffffffffffffffffffffffffffffffffffff168152505080610120818152505050505050506200016b6000801b336200024b60201b60201c565b6200019d7f4761169e40d0efb53bf684d47e54c803c1511483244b1a2fca6dbbd91b4508d5836200024b60201b60201c565b8173ffffffffffffffffffffffffffffffffffffffff166101408173ffffffffffffffffffffffffffffffffffffffff16815250508073ffffffffffffffffffffffffffffffffffffffff166101608173ffffffffffffffffffffffffffffffffffffffff1681525050505062000503565b600083838346306040516020016200022c959493929190620004a6565b6040516020818303038152906040528051906020012090509392505050565b6200025d82826200033c60201b60201c565b6200033857600160008084815260200190815260200160002060000160008373ffffffffffffffffffffffffffffffffffffffff1673ffffffffffffffffffffffffffffffffffffffff16815260200190815260200160002060006101000a81548160ff021916908315150217905550620002dd620003a660201b60201c565b73ffffffffffffffffffffffffffffffffffffffff168173ffffffffffffffffffffffffffffffffffffffff16837f2f8788117e7eff1d82e926ec794901d17c78024a50270940304540a733656f0d60405160405180910390a45b5050565b600080600084815260200190815260200160002060000160008373ffffffffffffffffffffffffffffffffffffffff1673ffffffffffffffffffffffffffffffffffffffff16815260200190815260200160002060009054906101000a900460ff16905092915050565b600033905090565b600080fd5b600073ffffffffffffffffffffffffffffffffffffffff82169050919050565b6000620003e082620003b3565b9050919050565b620003f281620003d3565b8114620003fe57600080fd5b50565b6000815190506200041281620003e7565b92915050565b60008060408385031215620004325762000431620003ae565b5b6000620004428582860162000401565b9250506020620004558582860162000401565b9150509250929050565b6000819050919050565b62000474816200045f565b82525050565b6000819050919050565b6200048f816200047a565b82525050565b620004a081620003d3565b82525050565b600060a082019050620004bd600083018862000469565b620004cc602083018762000469565b620004db604083018662000469565b620004ea606083018562000484565b620004f9608083018462000495565b9695505050505050565b60805160a05160c05160e05161010051610120516101405161016051615267620005a160003960008181610b8201528181611014015281816110af015281816113e0015281816118a201528181611d93015281816122c901526125bf015260008181611f940152612225015260006129db01526000612a1d015260006129fc0152600061293101526000612987015260006129b001526152676000f3fe608060405234801561001057600080fd5b506004361061014d5760003560e01c8063a217fddf116100c3578063cb3c0a1e1161007c578063cb3c0a1e146103d6578063d547741f146103f2578063e5d9ce0b1461040e578063ed23bab91461042c578063f990ccd71461045c578063f9ea0daa1461048c5761014d565b8063a217fddf14610300578063a61e4f761461031e578063b51de50e14610350578063c171e3891461036e578063c263beaa1461038a578063c483dc3e146103a65761014d565b80632a1d5955116101155780632a1d59551461022e5780632f2ff15d1461024a57806336568abe1461026657806347119c5f1461028257806391d14854146102b257806399dac981146102e25761014d565b806301ffc9a7146101525780630c426988146101825780630dd0a9961461019e578063150b7a02146101ce578063248a9ca3146101fe575b600080fd5b61016c60048036038101906101679190612e9c565b6104be565b6040516101799190612ee4565b60405180910390f35b61019c60048036038101906101979190612f81565b6104d0565b005b6101b860048036038101906101b39190612ffc565b61079c565b6040516101c59190612ee4565b60405180910390f35b6101e860048036038101906101e391906131d4565b6108e6565b6040516101f59190613266565b60405180910390f35b610218600480360381019061021391906132b7565b6108fa565b60405161022591906132f3565b60405180910390f35b6102486004803603810190610243919061332d565b610919565b005b610264600480360381019061025f9190613389565b610cd7565b005b610280600480360381019061027b9190613389565b610cf8565b005b61029c60048036038101906102979190613429565b610d7b565b6040516102a991906135e4565b60405180910390f35b6102cc60048036038101906102c79190613389565b610f55565b6040516102d99190612ee4565b60405180910390f35b6102ea610fbf565b6040516102f791906132f3565b60405180910390f35b610308610fe3565b60405161031591906132f3565b60405180910390f35b61033860048036038101906103339190613600565b610fea565b604051610347939291906136db565b60405180910390f35b6103586110ad565b604051610365919061372b565b60405180910390f35b61038860048036038101906103839190613765565b6110d1565b005b6103a4600480360381019061039f91906137e0565b611575565b005b6103c060048036038101906103bb9190613600565b611a45565b6040516103cd919061383c565b60405180910390f35b6103f060048036038101906103eb9190613876565b611a7a565b005b61040c60048036038101906104079190613389565b611f71565b005b610416611f92565b604051610423919061372b565b60405180910390f35b610446600480360381019061044191906138f2565b611fb6565b604051610453919061383c565b60405180910390f35b6104766004803603810190610471919061394e565b61257d565b604051610483919061383c565b60405180910390f35b6104a660048036038101906104a1919061397b565b612595565b6040516104b5939291906136db565b60405180910390f35b60006104c982612652565b9050919050565b6104fa7f4761169e40d0efb53bf684d47e54c803c1511483244b1a2fca6dbbd91b4508d533610f55565b610539576040517f08c379a000000000000000000000000000000000000000000000000000000000815260040161053090613a07565b60405180910390fd5b73AB44eA3d6fcdc99400620fbD30949A302361681B63a3cdda1361061c7fd4f619864f63edbc545c29cb83475e9806d540c2177352618fabef4fcac34e14856000013586602001358780604001906105919190613a36565b60405161059f929190613ac9565b6040518091039020600160008973ffffffffffffffffffffffffffffffffffffffff1673ffffffffffffffffffffffffffffffffffffffff16815260200190815260200160002054896080013560405160200161060196959493929190613ae2565b604051602081830303815290604052805190602001206126cc565b8385806060019061062d9190613b43565b87608001356040518663ffffffff1660e01b8152600401610652959493929190613c11565b602060405180830381865af415801561066f573d6000803e3d6000fd5b505050506040513d601f19601f820116820180604052508101906106939190613c8b565b5060008073AB44eA3d6fcdc99400620fbD30949A302361681B63b032ea0c856000013586602001358780604001906106cb9190613a36565b8860056003600460016040518a63ffffffff1660e01b81526004016106f899989796959493929190613d0b565b6040805180830381865af4158015610714573d6000803e3d6000fd5b505050506040513d601f19601f820116820180604052508101906107389190613dbc565b91509150836020013584600001358373ffffffffffffffffffffffffffffffffffffffff167fcca46c76156e4bf43e5edc1745b6c45eac7cfc0fda52475fa0f81cdcb42a5c62844260405161078e929190613dfc565b60405180910390a450505050565b600073AB44eA3d6fcdc99400620fbD30949A302361681B63952c277860405180606001604052808680600001906107d39190613e25565b80806020026020016040519081016040528093929190818152602001838360200280828437600081840152601f19601f8201169050808301925050505050505081526020018680602001906108289190613a36565b8080601f016020809104026020016040519081016040528093929190818152602001838380828437600081840152601f19601f8201169050808301925050505050505081526020018573ffffffffffffffffffffffffffffffffffffffff16815250600560036040518463ffffffff1660e01b81526004016108ac93929190613ff6565b60006040518083038186803b1580156108c457600080fd5b505af41580156108d8573d6000803e3d6000fd5b505050506001905092915050565b600063150b7a0260e01b9050949350505050565b6000806000838152602001908152602001600020600101549050919050565b6109437f4761169e40d0efb53bf684d47e54c803c1511483244b1a2fca6dbbd91b4508d533610f55565b610982576040517f08c379a000000000000000000000000000000000000000000000000000000000815260040161097990613a07565b60405180910390fd5b73AB44eA3d6fcdc99400620fbD30949A302361681B63a3cdda13610a3e7f76193c8d609e139a018adf57bae0c3c4c7a2d0eb05701223b06bd8c01adc48c885600001358660200135600160008873ffffffffffffffffffffffffffffffffffffffff1673ffffffffffffffffffffffffffffffffffffffff168152602001908152602001600020548860600135604051602001610a23959493929190614034565b604051602081830303815290604052805190602001206126cc565b83858060400190610a4f9190613b43565b87606001356040518663ffffffff1660e01b8152600401610a74959493929190613c11565b602060405180830381865af4158015610a91573d6000803e3d6000fd5b505050506040513d601f19601f82011682018060405250810190610ab59190613c8b565b5073AB44eA3d6fcdc99400620fbD30949A302361681B63ae4bd6d083600001358460200135600060056040518563ffffffff1660e01b8152600401610afd9493929190614096565b60006040518083038186803b158015610b1557600080fd5b505af4158015610b29573d6000803e3d6000fd5b50505050600160008273ffffffffffffffffffffffffffffffffffffffff1673ffffffffffffffffffffffffffffffffffffffff16815260200190815260200160002060008154610b799061410a565b919050819055507f000000000000000000000000000000000000000000000000000000000000000073ffffffffffffffffffffffffffffffffffffffff166342966c686005600085600001358152602001908152602001600020600085602001358152602001908152602001600020600201546040518263ffffffff1660e01b8152600401610c08919061383c565b600060405180830381600087803b158015610c2257600080fd5b505af1158015610c36573d6000803e3d6000fd5b505050506001600560008460000135815260200190815260200160002060008460200135815260200190815260200160002060070160006101000a81548160ff02191690836004811115610c8d57610c8c6134b6565b5b0217905550816020013582600001357fff3596231ab8e5bb37a9baf7f9355110d118c17f0c60731ec93eb199d37f745742604051610ccb919061383c565b60405180910390a35050565b610ce0826108fa565b610ce9816126e6565b610cf383836126fa565b505050565b610d006127da565b73ffffffffffffffffffffffffffffffffffffffff168173ffffffffffffffffffffffffffffffffffffffff1614610d6d576040517f08c379a0000000000000000000000000000000000000000000000000000000008152600401610d64906141c4565b60405180910390fd5b610d7782826127e2565b5050565b610d83612d8d565b600560008581526020019081526020016000206000600260008686604051610dac929190613ac9565b60405180910390208152602001908152602001600020548152602001908152602001600020604051806101200160405290816000820160009054906101000a900473ffffffffffffffffffffffffffffffffffffffff1673ffffffffffffffffffffffffffffffffffffffff1673ffffffffffffffffffffffffffffffffffffffff16815260200160018201548152602001600282015481526020016003820160009054906101000a900473ffffffffffffffffffffffffffffffffffffffff1673ffffffffffffffffffffffffffffffffffffffff1673ffffffffffffffffffffffffffffffffffffffff1681526020016004820154815260200160058201548152602001600682015481526020016007820160009054906101000a900460ff166004811115610ee057610edf6134b6565b5b6004811115610ef257610ef16134b6565b5b81526020016007820160019054906101000a900473ffffffffffffffffffffffffffffffffffffffff1673ffffffffffffffffffffffffffffffffffffffff1673ffffffffffffffffffffffffffffffffffffffff168152505090509392505050565b600080600084815260200190815260200160002060000160008373ffffffffffffffffffffffffffffffffffffffff1673ffffffffffffffffffffffffffffffffffffffff16815260200190815260200160002060009054906101000a900460ff16905092915050565b7f4761169e40d0efb53bf684d47e54c803c1511483244b1a2fca6dbbd91b4508d581565b6000801b81565b610ff2612d8d565b6000606073AB44eA3d6fcdc99400620fbD30949A302361681B63b4d61add86867f00000000000000000000000000000000000000000000000000000000000000006005600360046040518763ffffffff1660e01b815260040161105a969594939291906141e4565b600060405180830381865af4158015611077573d6000803e3d6000fd5b505050506040513d6000823e3d601f19601f820116820180604052508101906110a09190614400565b9250925092509250925092565b7f000000000000000000000000000000000000000000000000000000000000000081565b6110fb7f4761169e40d0efb53bf684d47e54c803c1511483244b1a2fca6dbbd91b4508d533610f55565b61113a576040517f08c379a000000000000000000000000000000000000000000000000000000000815260040161113190613a07565b60405180910390fd5b600082806020019061114c9190613a36565b60405161115a929190613ac9565b6040518091039020905073AB44eA3d6fcdc99400620fbD30949A302361681B63a3cdda136112227f9cc3774350162d9de873401b80ebde33ff0f4f4a6bc7ee58dda6ef202b2d860f8660000135858860400135600160008a73ffffffffffffffffffffffffffffffffffffffff1673ffffffffffffffffffffffffffffffffffffffff168152602001908152602001600020548a6080013560405160200161120796959493929190614472565b604051602081830303815290604052805190602001206126cc565b848680606001906112339190613b43565b88608001356040518663ffffffff1660e01b8152600401611258959493929190613c11565b602060405180830381865af4158015611275573d6000803e3d6000fd5b505050506040513d601f19601f820116820180604052508101906112999190613c8b565b50600073AB44eA3d6fcdc99400620fbD30949A302361681B63818a024c8360036040518363ffffffff1660e01b81526004016112d69291906144d3565b602060405180830381865af41580156112f3573d6000803e3d6000fd5b505050506040513d601f19601f8201168201806040525081019061131791906144fc565b905073AB44eA3d6fcdc99400620fbD30949A302361681B63735d8b2a8560000135838660056040518563ffffffff1660e01b815260040161135b9493929190614529565b60006040518083038186803b15801561137357600080fd5b505af4158015611387573d6000803e3d6000fd5b50505050600160008473ffffffffffffffffffffffffffffffffffffffff1673ffffffffffffffffffffffffffffffffffffffff168152602001908152602001600020600081546113d79061410a565b919050819055507f000000000000000000000000000000000000000000000000000000000000000073ffffffffffffffffffffffffffffffffffffffff166342966c6860056000876000013581526020019081526020016000206000848152602001908152602001600020600201546040518263ffffffff1660e01b8152600401611462919061383c565b600060405180830381600087803b15801561147c57600080fd5b505af1158015611490573d6000803e3d6000fd5b5050505060046005600086600001358152602001908152602001600020600083815260200190815260200160002060070160006101000a81548160ff021916908360048111156114e3576114e26134b6565b5b02179055508084600001358473ffffffffffffffffffffffffffffffffffffffff167f707b8ad08e58bc5a2367c8c45625ddb87d54731363b778f5722d10a345254dec60056000896000013581526020019081526020016000206000868152602001908152602001600020600601548860400135426040516115679392919061456e565b60405180910390a450505050565b61159f7f4761169e40d0efb53bf684d47e54c803c1511483244b1a2fca6dbbd91b4508d533610f55565b6115de576040517f08c379a00000000000000000000000000000000000000000000000000000000081526004016115d590613a07565b60405180910390fd5b600080600073AB44eA3d6fcdc99400620fbD30949A302361681B63d8a627106116f27f4ec37a5398d88f8f6568620d918107772e8b3aa8ee69e4329a3daeeb0a6a35728880600001906116319190613e25565b60405160200161164292919061461a565b604051602081830303815290604052805190602001208980602001906116689190613a36565b604051611676929190613ac9565b6040518091039020600160008b73ffffffffffffffffffffffffffffffffffffffff1673ffffffffffffffffffffffffffffffffffffffff168152602001908152602001600020548b606001356040516020016116d7959493929190614633565b604051602081830303815290604052805190602001206126cc565b868880604001906117039190613b43565b8a6060013560405180606001604052808d80600001906117239190613e25565b80806020026020016040519081016040528093929190818152602001838360200280828437600081840152601f19601f8201169050808301925050505050505081526020018d80602001906117789190613a36565b8080601f016020809104026020016040519081016040528093929190818152602001838380828437600081840152601f19601f8201169050808301925050505050505081526020018c73ffffffffffffffffffffffffffffffffffffffff16815250600560036040518963ffffffff1660e01b8152600401611801989796959493929190614686565b600060405180830381865af415801561181e573d6000803e3d6000fd5b505050506040513d6000823e3d601f19601f82011682018060405250810190611847919061488b565b925092509250600160008573ffffffffffffffffffffffffffffffffffffffff1673ffffffffffffffffffffffffffffffffffffffff168152602001908152602001600020600081546118999061410a565b919050819055507f000000000000000000000000000000000000000000000000000000000000000073ffffffffffffffffffffffffffffffffffffffff1663c182178e3085856040518463ffffffff1660e01b81526004016118fd93929190614a68565b600060405180830381600087803b15801561191757600080fd5b505af115801561192b573d6000803e3d6000fd5b5050505060005b8580600001906119429190613e25565b90508110156119ed576003600560008880600001906119619190613e25565b8581811061197257611971614aad565b5b905060200201358152602001908152602001600020600084848151811061199c5761199b614aad565b5b6020026020010151815260200190815260200160002060070160006101000a81548160ff021916908360048111156119d7576119d66134b6565b5b0217905550806119e69061410a565b9050611932565b5082518473ffffffffffffffffffffffffffffffffffffffff167f4f1c4c01ed0bb6c3c7eab533380dc1f5a1688f9dca14f664f51a8052002a882942604051611a36919061383c565b60405180910390a35050505050565b6000600260008484604051611a5b929190613ac9565b6040518091039020815260200190815260200160002054905092915050565b611aa47f4761169e40d0efb53bf684d47e54c803c1511483244b1a2fca6dbbd91b4508d533610f55565b611ae3576040517f08c379a0000000000000000000000000000000000000000000000000000000008152600401611ada90613a07565b60405180910390fd5b600073AB44eA3d6fcdc99400620fbD30949A302361681B637da7cda0611bc27fa40842dfb38adb5c9b877f026d498df2a82043c9a0f6e3f83bb60ac349e14b498660000135878060200190611b389190613a36565b604051611b46929190613ac9565b6040518091039020600160008973ffffffffffffffffffffffffffffffffffffffff1673ffffffffffffffffffffffffffffffffffffffff168152602001908152602001600020548960600135604051602001611ba7959493929190614adc565b604051602081830303815290604052805190602001206126cc565b84868060400190611bd39190613b43565b8860600135898060200190611be89190613a36565b6040518863ffffffff1660e01b8152600401611c0a9796959493929190614b2f565b602060405180830381865af4158015611c27573d6000803e3d6000fd5b505050506040513d601f19601f82011682018060405250810190611c4b9190614b94565b9050600073AB44eA3d6fcdc99400620fbD30949A302361681B63818a024c8360036040518363ffffffff1660e01b8152600401611c899291906144d3565b602060405180830381865af4158015611ca6573d6000803e3d6000fd5b505050506040513d601f19601f82011682018060405250810190611cca91906144fc565b905073AB44eA3d6fcdc99400620fbD30949A302361681B63735d8b2a8560000135838660056040518563ffffffff1660e01b8152600401611d0e9493929190614529565b60006040518083038186803b158015611d2657600080fd5b505af4158015611d3a573d6000803e3d6000fd5b50505050600160008473ffffffffffffffffffffffffffffffffffffffff1673ffffffffffffffffffffffffffffffffffffffff16815260200190815260200160002060008154611d8a9061410a565b919050819055507f000000000000000000000000000000000000000000000000000000000000000073ffffffffffffffffffffffffffffffffffffffff166342842e0e306005600088600001358152602001908152602001600020600085815260200190815260200160002060000160009054906101000a900473ffffffffffffffffffffffffffffffffffffffff1660056000896000013581526020019081526020016000206000868152602001908152602001600020600201546040518463ffffffff1660e01b8152600401611e6493929190614bc1565b600060405180830381600087803b158015611e7e57600080fd5b505af1158015611e92573d6000803e3d6000fd5b5050505060036005600086600001358152602001908152602001600020600083815260200190815260200160002060070160006101000a81548160ff02191690836004811115611ee557611ee46134b6565b5b02179055508084600001358473ffffffffffffffffffffffffffffffffffffffff167fd9cc7312aeed0c2fe657f2d0972f6fde1b32ff59c7abcf319942e84f507e738e600560008960000135815260200190815260200160002060008681526020019081526020016000206006015442604051611f63929190613dfc565b60405180910390a450505050565b611f7a826108fa565b611f83816126e6565b611f8d83836127e2565b505050565b7f000000000000000000000000000000000000000000000000000000000000000081565b6000611fe27f4761169e40d0efb53bf684d47e54c803c1511483244b1a2fca6dbbd91b4508d533610f55565b612021576040517f08c379a000000000000000000000000000000000000000000000000000000000815260040161201890613a07565b60405180910390fd5b73AB44eA3d6fcdc99400620fbD30949A302361681B634dd689186121537f29be98e70cea08d618dc7e253dea019af07adea87df664c2c3c55cb783cfd3bb86600001358780602001906120749190613a36565b604051612082929190613ac9565b604051809103902088806040019061209a9190613a36565b6040516120a8929190613ac9565b604051809103902089606001358a60800160208101906120c8919061394e565b8b60a00160208101906120db919061394e565b600160008d73ffffffffffffffffffffffffffffffffffffffff1673ffffffffffffffffffffffffffffffffffffffff168152602001908152602001600020548d60e0013560405160200161213899989796959493929190614bf8565b604051602081830303815290604052805190602001206126cc565b84868060c001906121649190613b43565b8860e001358980602001906121799190613a36565b60026040518963ffffffff1660e01b815260040161219e989796959493929190614c85565b60006040518083038186803b1580156121b657600080fd5b505af41580156121ca573d6000803e3d6000fd5b50505050600160008373ffffffffffffffffffffffffffffffffffffffff1673ffffffffffffffffffffffffffffffffffffffff1681526020019081526020016000206000815461221a9061410a565b9190508190555060007f000000000000000000000000000000000000000000000000000000000000000073ffffffffffffffffffffffffffffffffffffffff166316cd4c3a85600001356040518263ffffffff1660e01b8152600401612280919061383c565b6020604051808303816000875af115801561229f573d6000803e3d6000fd5b505050506040513d601f19601f820116820180604052508101906122c391906144fc565b905060007f000000000000000000000000000000000000000000000000000000000000000073ffffffffffffffffffffffffffffffffffffffff16635ff97ebf308780604001906123149190613a36565b896080016020810190612327919061394e565b60006040518663ffffffff1660e01b8152600401612349959493929190614d82565b6020604051808303816000875af1158015612368573d6000803e3d6000fd5b505050506040513d601f19601f8201168201806040525081019061238c91906144fc565b9050600073AB44eA3d6fcdc99400620fbD30949A302361681B6393e7ae64604051806101000160405280896000013581526020018581526020018980602001906123d69190613a36565b8080601f016020809104026020016040519081016040528093929190818152602001838380828437600081840152601f19601f8201169050808301925050505050505081526020018960600135815260200189608001602081019061243b919061394e565b73ffffffffffffffffffffffffffffffffffffffff1681526020018960a0016020810190612469919061394e565b73ffffffffffffffffffffffffffffffffffffffff1681526020018873ffffffffffffffffffffffffffffffffffffffff16815260200186815250600560026040518463ffffffff1660e01b81526004016124c693929190614e80565b602060405180830381865af41580156124e3573d6000803e3d6000fd5b505050506040513d601f19601f8201168201806040525081019061250791906144fc565b9050828660000135876080016020810190612522919061394e565b73ffffffffffffffffffffffffffffffffffffffff167f27bf9a004cd5f8eb61e6bd7610afc3aeeb4d046a608102a140f1508064d851658442604051612569929190614ebe565b60405180910390a481935050505092915050565b60016020528060005260406000206000915090505481565b61259d612d8d565b6000606073AB44eA3d6fcdc99400620fbD30949A302361681B633ba0f99186867f000000000000000000000000000000000000000000000000000000000000000060056040518563ffffffff1660e01b81526004016125ff9493929190614529565b600060405180830381865af415801561261c573d6000803e3d6000fd5b505050506040513d6000823e3d601f19601f820116820180604052508101906126459190614400565b9250925092509250925092565b60007f7965db0b000000000000000000000000000000000000000000000000000000007bffffffffffffffffffffffffffffffffffffffffffffffffffffffff1916827bffffffffffffffffffffffffffffffffffffffffffffffffffffffff191614806126c557506126c4826128c3565b5b9050919050565b60006126df6126d961292d565b83612a47565b9050919050565b6126f7816126f26127da565b612a7a565b50565b6127048282610f55565b6127d657600160008084815260200190815260200160002060000160008373ffffffffffffffffffffffffffffffffffffffff1673ffffffffffffffffffffffffffffffffffffffff16815260200190815260200160002060006101000a81548160ff02191690831515021790555061277b6127da565b73ffffffffffffffffffffffffffffffffffffffff168173ffffffffffffffffffffffffffffffffffffffff16837f2f8788117e7eff1d82e926ec794901d17c78024a50270940304540a733656f0d60405160405180910390a45b5050565b600033905090565b6127ec8282610f55565b156128bf57600080600084815260200190815260200160002060000160008373ffffffffffffffffffffffffffffffffffffffff1673ffffffffffffffffffffffffffffffffffffffff16815260200190815260200160002060006101000a81548160ff0219169083151502179055506128646127da565b73ffffffffffffffffffffffffffffffffffffffff168173ffffffffffffffffffffffffffffffffffffffff16837ff6391f5c32d9c69d2a47ea670b442974b53935d1edc7fd64eb21e047a839171b60405160405180910390a45b5050565b60007f01ffc9a7000000000000000000000000000000000000000000000000000000007bffffffffffffffffffffffffffffffffffffffffffffffffffffffff1916827bffffffffffffffffffffffffffffffffffffffffffffffffffffffff1916149050919050565b60007f000000000000000000000000000000000000000000000000000000000000000073ffffffffffffffffffffffffffffffffffffffff163073ffffffffffffffffffffffffffffffffffffffff161480156129a957507f000000000000000000000000000000000000000000000000000000000000000046145b156129d6577f00000000000000000000000000000000000000000000000000000000000000009050612a44565b612a417f00000000000000000000000000000000000000000000000000000000000000007f00000000000000000000000000000000000000000000000000000000000000007f0000000000000000000000000000000000000000000000000000000000000000612b17565b90505b90565b60008282604051602001612a5c929190614f5f565b60405160208183030381529060405280519060200120905092915050565b612a848282610f55565b612b1357612aa98173ffffffffffffffffffffffffffffffffffffffff166014612b51565b612ab78360001c6020612b51565b604051602001612ac892919061505f565b6040516020818303038152906040526040517f08c379a0000000000000000000000000000000000000000000000000000000008152600401612b0a9190615099565b60405180910390fd5b5050565b60008383834630604051602001612b329594939291906150bb565b6040516020818303038152906040528051906020012090509392505050565b606060006002836002612b64919061510e565b612b6e9190615168565b67ffffffffffffffff811115612b8757612b866130a9565b5b6040519080825280601f01601f191660200182016040528015612bb95781602001600182028036833780820191505090505b5090507f300000000000000000000000000000000000000000000000000000000000000081600081518110612bf157612bf0614aad565b5b60200101907effffffffffffffffffffffffffffffffffffffffffffffffffffffffffffff1916908160001a9053507f780000000000000000000000000000000000000000000000000000000000000081600181518110612c5557612c54614aad565b5b60200101907effffffffffffffffffffffffffffffffffffffffffffffffffffffffffffff1916908160001a90535060006001846002612c95919061510e565b612c9f9190615168565b90505b6001811115612d3f577f3031323334353637383961626364656600000000000000000000000000000000600f861660108110612ce157612ce0614aad565b5b1a60f81b828281518110612cf857612cf7614aad565b5b60200101907effffffffffffffffffffffffffffffffffffffffffffffffffffffffffffff1916908160001a905350600485901c945080612d389061519c565b9050612ca2565b5060008414612d83576040517f08c379a0000000000000000000000000000000000000000000000000000000008152600401612d7a90615211565b60405180910390fd5b8091505092915050565b604051806101200160405280600073ffffffffffffffffffffffffffffffffffffffff1681526020016000815260200160008152602001600073ffffffffffffffffffffffffffffffffffffffff16815260200160008152602001600081526020016000801916815260200160006004811115612e0d57612e0c6134b6565b5b8152602001600073ffffffffffffffffffffffffffffffffffffffff1681525090565b6000604051905090565b600080fd5b600080fd5b60007fffffffff0000000000000000000000000000000000000000000000000000000082169050919050565b612e7981612e44565b8114612e8457600080fd5b50565b600081359050612e9681612e70565b92915050565b600060208284031215612eb257612eb1612e3a565b5b6000612ec084828501612e87565b91505092915050565b60008115159050919050565b612ede81612ec9565b82525050565b6000602082019050612ef96000830184612ed5565b92915050565b600080fd5b600060a08284031215612f1a57612f19612eff565b5b81905092915050565b600073ffffffffffffffffffffffffffffffffffffffff82169050919050565b6000612f4e82612f23565b9050919050565b612f5e81612f43565b8114612f6957600080fd5b50565b600081359050612f7b81612f55565b92915050565b60008060408385031215612f9857612f97612e3a565b5b600083013567ffffffffffffffff811115612fb657612fb5612e3f565b5b612fc285828601612f04565b9250506020612fd385828601612f6c565b9150509250929050565b600060408284031215612ff357612ff2612eff565b5b81905092915050565b6000806040838503121561301357613012612e3a565b5b600083013567ffffffffffffffff81111561303157613030612e3f565b5b61303d85828601612fdd565b925050602061304e85828601612f6c565b9150509250929050565b6000819050919050565b61306b81613058565b811461307657600080fd5b50565b60008135905061308881613062565b92915050565b600080fd5b600080fd5b6000601f19601f8301169050919050565b7f4e487b7100000000000000000000000000000000000000000000000000000000600052604160045260246000fd5b6130e182613098565b810181811067ffffffffffffffff82111715613100576130ff6130a9565b5b80604052505050565b6000613113612e30565b905061311f82826130d8565b919050565b600067ffffffffffffffff82111561313f5761313e6130a9565b5b61314882613098565b9050602081019050919050565b82818337600083830152505050565b600061317761317284613124565b613109565b90508281526020810184848401111561319357613192613093565b5b61319e848285613155565b509392505050565b600082601f8301126131bb576131ba61308e565b5b81356131cb848260208601613164565b91505092915050565b600080600080608085870312156131ee576131ed612e3a565b5b60006131fc87828801612f6c565b945050602061320d87828801612f6c565b935050604061321e87828801613079565b925050606085013567ffffffffffffffff81111561323f5761323e612e3f565b5b61324b878288016131a6565b91505092959194509250565b61326081612e44565b82525050565b600060208201905061327b6000830184613257565b92915050565b6000819050919050565b61329481613281565b811461329f57600080fd5b50565b6000813590506132b18161328b565b92915050565b6000602082840312156132cd576132cc612e3a565b5b60006132db848285016132a2565b91505092915050565b6132ed81613281565b82525050565b600060208201905061330860008301846132e4565b92915050565b60006080828403121561332457613323612eff565b5b81905092915050565b6000806040838503121561334457613343612e3a565b5b600083013567ffffffffffffffff81111561336257613361612e3f565b5b61336e8582860161330e565b925050602061337f85828601612f6c565b9150509250929050565b600080604083850312156133a05761339f612e3a565b5b60006133ae858286016132a2565b92505060206133bf85828601612f6c565b9150509250929050565b600080fd5b600080fd5b60008083601f8401126133e9576133e861308e565b5b8235905067ffffffffffffffff811115613406576134056133c9565b5b602083019150836001820283011115613422576134216133ce565b5b9250929050565b60008060006040848603121561344257613441612e3a565b5b600061345086828701613079565b935050602084013567ffffffffffffffff81111561347157613470612e3f565b5b61347d868287016133d3565b92509250509250925092565b61349281612f43565b82525050565b6134a181613058565b82525050565b6134b081613281565b82525050565b7f4e487b7100000000000000000000000000000000000000000000000000000000600052602160045260246000fd5b600581106134f6576134f56134b6565b5b50565b6000819050613507826134e5565b919050565b6000613517826134f9565b9050919050565b6135278161350c565b82525050565b610120820160008201516135446000850182613489565b5060208201516135576020850182613498565b50604082015161356a6040850182613498565b50606082015161357d6060850182613489565b5060808201516135906080850182613498565b5060a08201516135a360a0850182613498565b5060c08201516135b660c08501826134a7565b5060e08201516135c960e085018261351e565b506101008201516135de610100850182613489565b50505050565b6000610120820190506135fa600083018461352d565b92915050565b6000806020838503121561361757613616612e3a565b5b600083013567ffffffffffffffff81111561363557613634612e3f565b5b613641858286016133d3565b92509250509250929050565b61365681613058565b82525050565b600081519050919050565b600082825260208201905092915050565b60005b8381101561369657808201518184015260208101905061367b565b60008484015250505050565b60006136ad8261365c565b6136b78185613667565b93506136c7818560208601613678565b6136d081613098565b840191505092915050565b6000610160820190506136f1600083018661352d565b6136ff61012083018561364d565b81810361014083015261371281846136a2565b9050949350505050565b61372581612f43565b82525050565b6000602082019050613740600083018461371c565b92915050565b600060a0828403121561375c5761375b612eff565b5b81905092915050565b6000806040838503121561377c5761377b612e3a565b5b600083013567ffffffffffffffff81111561379a57613799612e3f565b5b6137a685828601613746565b92505060206137b785828601612f6c565b9150509250929050565b6000608082840312156137d7576137d6612eff565b5b81905092915050565b600080604083850312156137f7576137f6612e3a565b5b600083013567ffffffffffffffff81111561381557613814612e3f565b5b613821858286016137c1565b925050602061383285828601612f6c565b9150509250929050565b6000602082019050613851600083018461364d565b92915050565b60006080828403121561386d5761386c612eff565b5b81905092915050565b6000806040838503121561388d5761388c612e3a565b5b600083013567ffffffffffffffff8111156138ab576138aa612e3f565b5b6138b785828601613857565b92505060206138c885828601612f6c565b9150509250929050565b600061010082840312156138e9576138e8612eff565b5b81905092915050565b6000806040838503121561390957613908612e3a565b5b600083013567ffffffffffffffff81111561392757613926612e3f565b5b613933858286016138d2565b925050602061394485828601612f6c565b9150509250929050565b60006020828403121561396457613963612e3a565b5b600061397284828501612f6c565b91505092915050565b6000806040838503121561399257613991612e3a565b5b60006139a085828601613079565b92505060206139b185828601613079565b9150509250929050565b7f4e6f744875620000000000000000000000000000000000000000000000000000600082015250565b60006139f1600683613667565b91506139fc826139bb565b602082019050919050565b60006020820190508181036000830152613a20816139e4565b9050919050565b600080fd5b600080fd5b600080fd5b60008083356001602003843603038112613a5357613a52613a27565b5b80840192508235915067ffffffffffffffff821115613a7557613a74613a2c565b5b602083019250600182023603831315613a9157613a90613a31565b5b509250929050565b600081905092915050565b6000613ab08385613a99565b9350613abd838584613155565b82840190509392505050565b6000613ad6828486613aa4565b91508190509392505050565b600060c082019050613af760008301896132e4565b613b04602083018861364d565b613b11604083018761364d565b613b1e60608301866132e4565b613b2b608083018561364d565b613b3860a083018461364d565b979650505050505050565b60008083356001602003843603038112613b6057613b5f613a27565b5b80840192508235915067ffffffffffffffff821115613b8257613b81613a2c565b5b602083019250600182023603831315613b9e57613b9d613a31565b5b509250929050565b613baf81613281565b82525050565b613bbe81612f43565b82525050565b600082825260208201905092915050565b6000613be18385613bc4565b9350613bee838584613155565b613bf783613098565b840190509392505050565b613c0b81613058565b82525050565b6000608082019050613c266000830188613ba6565b613c336020830187613bb5565b8181036040830152613c46818587613bd5565b9050613c556060830184613c02565b9695505050505050565b613c6881612ec9565b8114613c7357600080fd5b50565b600081519050613c8581613c5f565b92915050565b600060208284031215613ca157613ca0612e3a565b5b6000613caf84828501613c76565b91505092915050565b600082825260208201905092915050565b6000613cd58385613cb8565b9350613ce2838584613155565b613ceb83613098565b840190509392505050565b8082525050565b8082525050565b8082525050565b600061010082019050613d21600083018c613c02565b613d2e602083018b613c02565b8181036040830152613d4181898b613cc9565b9050613d506060830188613bb5565b613d5d6080830187613cf6565b613d6a60a0830186613cfd565b613d7760c0830185613cfd565b613d8460e0830184613d04565b9a9950505050505050505050565b600081519050613da181612f55565b92915050565b600081519050613db68161328b565b92915050565b60008060408385031215613dd357613dd2612e3a565b5b6000613de185828601613d92565b9250506020613df285828601613da7565b9150509250929050565b6000604082019050613e1160008301856132e4565b613e1e602083018461364d565b9392505050565b60008083356001602003843603038112613e4257613e41613a27565b5b80840192508235915067ffffffffffffffff821115613e6457613e63613a2c565b5b602083019250602082023603831315613e8057613e7f613a31565b5b509250929050565b600081519050919050565b600082825260208201905092915050565b6000819050602082019050919050565b613ebd81613058565b82525050565b6000613ecf8383613eb4565b60208301905092915050565b6000602082019050919050565b6000613ef382613e88565b613efd8185613e93565b9350613f0883613ea4565b8060005b83811015613f39578151613f208882613ec3565b9750613f2b83613edb565b925050600181019050613f0c565b5085935050505092915050565b600082825260208201905092915050565b6000613f628261365c565b613f6c8185613f46565b9350613f7c818560208601613678565b613f8581613098565b840191505092915050565b613f9981612f43565b82525050565b60006060830160008301518482036000860152613fbc8282613ee8565b91505060208301518482036020860152613fd68282613f57565b9150506040830151613feb6040860182613f90565b508091505092915050565b600060608201905081810360008301526140108186613f9f565b905061401f6020830185613cf6565b61402c6040830184613cfd565b949350505050565b600060a08201905061404960008301886132e4565b614056602083018761364d565b614063604083018661364d565b614070606083018561364d565b61407d608083018461364d565b9695505050505050565b61409081612ec9565b82525050565b60006080820190506140ab6000830187613c02565b6140b86020830186613c02565b6140c56040830185614087565b6140d26060830184613cf6565b95945050505050565b7f4e487b7100000000000000000000000000000000000000000000000000000000600052601160045260246000fd5b600061411582613058565b91507fffffffffffffffffffffffffffffffffffffffffffffffffffffffffffffffff8203614147576141466140db565b5b600182019050919050565b7f416363657373436f6e74726f6c3a2063616e206f6e6c792072656e6f756e636560008201527f20726f6c657320666f722073656c660000000000000000000000000000000000602082015250565b60006141ae602f83613667565b91506141b982614152565b604082019050919050565b600060208201905081810360008301526141dd816141a1565b9050919050565b600060a08201905081810360008301526141ff81888a613cc9565b905061420e6020830187613bb5565b61421b6040830186613cf6565b6142286060830185613cfd565b6142356080830184613cfd565b979650505050505050565b600080fd5b60008151905061425481613062565b92915050565b6005811061426757600080fd5b50565b6000815190506142798161425a565b92915050565b6000610120828403121561429657614295614240565b5b6142a1610120613109565b905060006142b184828501613d92565b60008301525060206142c584828501614245565b60208301525060406142d984828501614245565b60408301525060606142ed84828501613d92565b606083015250608061430184828501614245565b60808301525060a061431584828501614245565b60a08301525060c061432984828501613da7565b60c08301525060e061433d8482850161426a565b60e08301525061010061435284828501613d92565b6101008301525092915050565b600067ffffffffffffffff82111561437a576143796130a9565b5b61438382613098565b9050602081019050919050565b60006143a361439e8461435f565b613109565b9050828152602081018484840111156143bf576143be613093565b5b6143ca848285613678565b509392505050565b600082601f8301126143e7576143e661308e565b5b81516143f7848260208601614390565b91505092915050565b6000806000610160848603121561441a57614419612e3a565b5b60006144288682870161427f565b93505061012061443a86828701614245565b92505061014084015167ffffffffffffffff81111561445c5761445b612e3f565b5b614468868287016143d2565b9150509250925092565b600060c08201905061448760008301896132e4565b614494602083018861364d565b6144a160408301876132e4565b6144ae606083018661364d565b6144bb608083018561364d565b6144c860a083018461364d565b979650505050505050565b60006040820190506144e86000830185613ba6565b6144f56020830184613cfd565b9392505050565b60006020828403121561451257614511612e3a565b5b600061452084828501614245565b91505092915050565b600060808201905061453e6000830187613c02565b61454b6020830186613c02565b6145586040830185613bb5565b6145656060830184613cf6565b95945050505050565b600060608201905061458360008301866132e4565b614590602083018561364d565b61459d604083018461364d565b949350505050565b600081905092915050565b600080fd5b82818337505050565b60006145ca83856145a5565b93507f07ffffffffffffffffffffffffffffffffffffffffffffffffffffffffffffff8311156145fd576145fc6145b0565b5b60208302925061460e8385846145b5565b82840190509392505050565b60006146278284866145be565b91508190509392505050565b600060a08201905061464860008301886132e4565b61465560208301876132e4565b61466260408301866132e4565b61466f606083018561364d565b61467c608083018461364d565b9695505050505050565b600060e08201905061469b600083018b613ba6565b6146a8602083018a613bb5565b81810360408301526146bb81888a613bd5565b90506146ca6060830187613c02565b81810360808301526146dc8186613f9f565b90506146eb60a0830185613cf6565b6146f860c0830184613cfd565b9998505050505050505050565b600067ffffffffffffffff8211156147205761471f6130a9565b5b602082029050602081019050919050565b600061474461473f84614705565b613109565b90508083825260208201905060208402830185811115614767576147666133ce565b5b835b81811015614790578061477c8882613d92565b845260208401935050602081019050614769565b5050509392505050565b600082601f8301126147af576147ae61308e565b5b81516147bf848260208601614731565b91505092915050565b600067ffffffffffffffff8211156147e3576147e26130a9565b5b602082029050602081019050919050565b6000614807614802846147c8565b613109565b9050808382526020820190506020840283018581111561482a576148296133ce565b5b835b81811015614853578061483f8882614245565b84526020840193505060208101905061482c565b5050509392505050565b600082601f8301126148725761487161308e565b5b81516148828482602086016147f4565b91505092915050565b6000806000606084860312156148a4576148a3612e3a565b5b600084015167ffffffffffffffff8111156148c2576148c1612e3f565b5b6148ce8682870161479a565b935050602084015167ffffffffffffffff8111156148ef576148ee612e3f565b5b6148fb8682870161485d565b925050604084015167ffffffffffffffff81111561491c5761491b612e3f565b5b6149288682870161485d565b9150509250925092565b600081519050919050565b600082825260208201905092915050565b6000819050602082019050919050565b600061496a8383613489565b60208301905092915050565b6000602082019050919050565b600061498e82614932565b614998818561493d565b93506149a38361494e565b8060005b838110156149d45781516149bb888261495e565b97506149c683614976565b9250506001810190506149a7565b5085935050505092915050565b600082825260208201905092915050565b60006149fe8383613498565b60208301905092915050565b6000614a1582613e88565b614a1f81856149e1565b9350614a2a83613ea4565b8060005b83811015614a5b578151614a4288826149f2565b9750614a4d83613edb565b925050600181019050614a2e565b5085935050505092915050565b6000606082019050614a7d600083018661371c565b8181036020830152614a8f8185614983565b90508181036040830152614aa38184614a0a565b9050949350505050565b7f4e487b7100000000000000000000000000000000000000000000000000000000600052603260045260246000fd5b600060a082019050614af160008301886132e4565b614afe602083018761364d565b614b0b60408301866132e4565b614b18606083018561364d565b614b25608083018461364d565b9695505050505050565b600060a082019050614b44600083018a613ba6565b614b516020830189613bb5565b8181036040830152614b64818789613bd5565b9050614b736060830186613c02565b8181036080830152614b86818486613cc9565b905098975050505050505050565b600060208284031215614baa57614ba9612e3a565b5b6000614bb884828501613da7565b91505092915050565b6000606082019050614bd6600083018661371c565b614be3602083018561371c565b614bf0604083018461364d565b949350505050565b600061012082019050614c0e600083018c6132e4565b614c1b602083018b61364d565b614c28604083018a6132e4565b614c3560608301896132e4565b614c42608083018861364d565b614c4f60a083018761371c565b614c5c60c083018661371c565b614c6960e083018561364d565b614c7761010083018461364d565b9a9950505050505050505050565b600060c082019050614c9a600083018b613ba6565b614ca7602083018a613bb5565b8181036040830152614cba81888a613bd5565b9050614cc96060830187613c02565b8181036080830152614cdc818587613cc9565b9050614ceb60a0830184613cfd565b9998505050505050505050565b6000614d048385613667565b9350614d11838584613155565b614d1a83613098565b840190509392505050565b6000819050919050565b60006bffffffffffffffffffffffff82169050919050565b6000819050919050565b6000614d6c614d67614d6284614d25565b614d47565b614d2f565b9050919050565b614d7c81614d51565b82525050565b6000608082019050614d97600083018861371c565b8181036020830152614daa818688614cf8565b9050614db9604083018561371c565b614dc66060830184614d73565b9695505050505050565b600061010083016000830151614de96000860182613eb4565b506020830151614dfc6020860182613eb4565b5060408301518482036040860152614e148282613f57565b9150506060830151614e296060860182613eb4565b506080830151614e3c6080860182613f90565b5060a0830151614e4f60a0860182613f90565b5060c0830151614e6260c0860182613f90565b5060e0830151614e7560e0860182613eb4565b508091505092915050565b60006060820190508181036000830152614e9a8186614dd0565b9050614ea96020830185613cf6565b614eb66040830184613cfd565b949350505050565b6000604082019050614ed3600083018561364d565b614ee0602083018461364d565b9392505050565b600081905092915050565b7f1901000000000000000000000000000000000000000000000000000000000000600082015250565b6000614f28600283614ee7565b9150614f3382614ef2565b600282019050919050565b6000819050919050565b614f59614f5482613281565b614f3e565b82525050565b6000614f6a82614f1b565b9150614f768285614f48565b602082019150614f868284614f48565b6020820191508190509392505050565b7f416363657373436f6e74726f6c3a206163636f756e7420000000000000000000600082015250565b6000614fcc601783614ee7565b9150614fd782614f96565b601782019050919050565b6000614fed8261365c565b614ff78185614ee7565b9350615007818560208601613678565b80840191505092915050565b7f206973206d697373696e6720726f6c6520000000000000000000000000000000600082015250565b6000615049601183614ee7565b915061505482615013565b601182019050919050565b600061506a82614fbf565b91506150768285614fe2565b91506150818261503c565b915061508d8284614fe2565b91508190509392505050565b600060208201905081810360008301526150b381846136a2565b905092915050565b600060a0820190506150d060008301886132e4565b6150dd60208301876132e4565b6150ea60408301866132e4565b6150f7606083018561364d565b615104608083018461371c565b9695505050505050565b600061511982613058565b915061512483613058565b9250817fffffffffffffffffffffffffffffffffffffffffffffffffffffffffffffffff048311821515161561515d5761515c6140db565b5b828202905092915050565b600061517382613058565b915061517e83613058565b9250828201905080821115615196576151956140db565b5b92915050565b60006151a782613058565b9150600082036151ba576151b96140db565b5b600182039050919050565b7f537472696e67733a20686578206c656e67746820696e73756666696369656e74600082015250565b60006151fb602083613667565b9150615206826151c5565b602082019050919050565b6000602082019050818103600083015261522a816151ee565b905091905056fea26469706673582212204280e9492bccad0c33f8eb2d13c21f78eb66235be0cea6c9a8b627ce00aa088364736f6c63430008100033",
  "deployedBytecode": "0x608060405234801561001057600080fd5b506004361061014d5760003560e01c8063a217fddf116100c3578063cb3c0a1e1161007c578063cb3c0a1e146103d6578063d547741f146103f2578063e5d9ce0b1461040e578063ed23bab91461042c578063f990ccd71461045c578063f9ea0daa1461048c5761014d565b8063a217fddf14610300578063a61e4f761461031e578063b51de50e14610350578063c171e3891461036e578063c263beaa1461038a578063c483dc3e146103a65761014d565b80632a1d5955116101155780632a1d59551461022e5780632f2ff15d1461024a57806336568abe1461026657806347119c5f1461028257806391d14854146102b257806399dac981146102e25761014d565b806301ffc9a7146101525780630c426988146101825780630dd0a9961461019e578063150b7a02146101ce578063248a9ca3146101fe575b600080fd5b61016c60048036038101906101679190612e9c565b6104be565b6040516101799190612ee4565b60405180910390f35b61019c60048036038101906101979190612f81565b6104d0565b005b6101b860048036038101906101b39190612ffc565b61079c565b6040516101c59190612ee4565b60405180910390f35b6101e860048036038101906101e391906131d4565b6108e6565b6040516101f59190613266565b60405180910390f35b610218600480360381019061021391906132b7565b6108fa565b60405161022591906132f3565b60405180910390f35b6102486004803603810190610243919061332d565b610919565b005b610264600480360381019061025f9190613389565b610cd7565b005b610280600480360381019061027b9190613389565b610cf8565b005b61029c60048036038101906102979190613429565b610d7b565b6040516102a991906135e4565b60405180910390f35b6102cc60048036038101906102c79190613389565b610f55565b6040516102d99190612ee4565b60405180910390f35b6102ea610fbf565b6040516102f791906132f3565b60405180910390f35b610308610fe3565b60405161031591906132f3565b60405180910390f35b61033860048036038101906103339190613600565b610fea565b604051610347939291906136db565b60405180910390f35b6103586110ad565b604051610365919061372b565b60405180910390f35b61038860048036038101906103839190613765565b6110d1565b005b6103a4600480360381019061039f91906137e0565b611575565b005b6103c060048036038101906103bb9190613600565b611a45565b6040516103cd919061383c565b60405180910390f35b6103f060048036038101906103eb9190613876565b611a7a565b005b61040c60048036038101906104079190613389565b611f71565b005b610416611f92565b604051610423919061372b565b60405180910390f35b610446600480360381019061044191906138f2565b611fb6565b604051610453919061383c565b60405180910390f35b6104766004803603810190610471919061394e565b61257d565b604051610483919061383c565b60405180910390f35b6104a660048036038101906104a1919061397b565b612595565b6040516104b5939291906136db565b60405180910390f35b60006104c982612652565b9050919050565b6104fa7f4761169e40d0efb53bf684d47e54c803c1511483244b1a2fca6dbbd91b4508d533610f55565b610539576040517f08c379a000000000000000000000000000000000000000000000000000000000815260040161053090613a07565b60405180910390fd5b73__$9842325bb1826b70c2ef476a1c714a02a7$__63a3cdda1361061c7fd4f619864f63edbc545c29cb83475e9806d540c2177352618fabef4fcac34e14856000013586602001358780604001906105919190613a36565b60405161059f929190613ac9565b6040518091039020600160008973ffffffffffffffffffffffffffffffffffffffff1673ffffffffffffffffffffffffffffffffffffffff16815260200190815260200160002054896080013560405160200161060196959493929190613ae2565b604051602081830303815290604052805190602001206126cc565b8385806060019061062d9190613b43565b87608001356040518663ffffffff1660e01b8152600401610652959493929190613c11565b602060405180830381865af415801561066f573d6000803e3d6000fd5b505050506040513d601f19601f820116820180604052508101906106939190613c8b565b5060008073__$9842325bb1826b70c2ef476a1c714a02a7$__63b032ea0c856000013586602001358780604001906106cb9190613a36565b8860056003600460016040518a63ffffffff1660e01b81526004016106f899989796959493929190613d0b565b6040805180830381865af4158015610714573d6000803e3d6000fd5b505050506040513d601f19601f820116820180604052508101906107389190613dbc565b91509150836020013584600001358373ffffffffffffffffffffffffffffffffffffffff167fcca46c76156e4bf43e5edc1745b6c45eac7cfc0fda52475fa0f81cdcb42a5c62844260405161078e929190613dfc565b60405180910390a450505050565b600073__$9842325bb1826b70c2ef476a1c714a02a7$__63952c277860405180606001604052808680600001906107d39190613e25565b80806020026020016040519081016040528093929190818152602001838360200280828437600081840152601f19601f8201169050808301925050505050505081526020018680602001906108289190613a36565b8080601f016020809104026020016040519081016040528093929190818152602001838380828437600081840152601f19601f8201169050808301925050505050505081526020018573ffffffffffffffffffffffffffffffffffffffff16815250600560036040518463ffffffff1660e01b81526004016108ac93929190613ff6565b60006040518083038186803b1580156108c457600080fd5b505af41580156108d8573d6000803e3d6000fd5b505050506001905092915050565b600063150b7a0260e01b9050949350505050565b6000806000838152602001908152602001600020600101549050919050565b6109437f4761169e40d0efb53bf684d47e54c803c1511483244b1a2fca6dbbd91b4508d533610f55565b610982576040517f08c379a000000000000000000000000000000000000000000000000000000000815260040161097990613a07565b60405180910390fd5b73__$9842325bb1826b70c2ef476a1c714a02a7$__63a3cdda13610a3e7f76193c8d609e139a018adf57bae0c3c4c7a2d0eb05701223b06bd8c01adc48c885600001358660200135600160008873ffffffffffffffffffffffffffffffffffffffff1673ffffffffffffffffffffffffffffffffffffffff168152602001908152602001600020548860600135604051602001610a23959493929190614034565b604051602081830303815290604052805190602001206126cc565b83858060400190610a4f9190613b43565b87606001356040518663ffffffff1660e01b8152600401610a74959493929190613c11565b602060405180830381865af4158015610a91573d6000803e3d6000fd5b505050506040513d601f19601f82011682018060405250810190610ab59190613c8b565b5073__$9842325bb1826b70c2ef476a1c714a02a7$__63ae4bd6d083600001358460200135600060056040518563ffffffff1660e01b8152600401610afd9493929190614096565b60006040518083038186803b158015610b1557600080fd5b505af4158015610b29573d6000803e3d6000fd5b50505050600160008273ffffffffffffffffffffffffffffffffffffffff1673ffffffffffffffffffffffffffffffffffffffff16815260200190815260200160002060008154610b799061410a565b919050819055507f000000000000000000000000000000000000000000000000000000000000000073ffffffffffffffffffffffffffffffffffffffff166342966c686005600085600001358152602001908152602001600020600085602001358152602001908152602001600020600201546040518263ffffffff1660e01b8152600401610c08919061383c565b600060405180830381600087803b158015610c2257600080fd5b505af1158015610c36573d6000803e3d6000fd5b505050506001600560008460000135815260200190815260200160002060008460200135815260200190815260200160002060070160006101000a81548160ff02191690836004811115610c8d57610c8c6134b6565b5b0217905550816020013582600001357fff3596231ab8e5bb37a9baf7f9355110d118c17f0c60731ec93eb199d37f745742604051610ccb919061383c565b60405180910390a35050565b610ce0826108fa565b610ce9816126e6565b610cf383836126fa565b505050565b610d006127da565b73ffffffffffffffffffffffffffffffffffffffff168173ffffffffffffffffffffffffffffffffffffffff1614610d6d576040517f08c379a0000000000000000000000000000000000000000000000000000000008152600401610d64906141c4565b60405180910390fd5b610d7782826127e2565b5050565b610d83612d8d565b600560008581526020019081526020016000206000600260008686604051610dac929190613ac9565b60405180910390208152602001908152602001600020548152602001908152602001600020604051806101200160405290816000820160009054906101000a900473ffffffffffffffffffffffffffffffffffffffff1673ffffffffffffffffffffffffffffffffffffffff1673ffffffffffffffffffffffffffffffffffffffff16815260200160018201548152602001600282015481526020016003820160009054906101000a900473ffffffffffffffffffffffffffffffffffffffff1673ffffffffffffffffffffffffffffffffffffffff1673ffffffffffffffffffffffffffffffffffffffff1681526020016004820154815260200160058201548152602001600682015481526020016007820160009054906101000a900460ff166004811115610ee057610edf6134b6565b5b6004811115610ef257610ef16134b6565b5b81526020016007820160019054906101000a900473ffffffffffffffffffffffffffffffffffffffff1673ffffffffffffffffffffffffffffffffffffffff1673ffffffffffffffffffffffffffffffffffffffff168152505090509392505050565b600080600084815260200190815260200160002060000160008373ffffffffffffffffffffffffffffffffffffffff1673ffffffffffffffffffffffffffffffffffffffff16815260200190815260200160002060009054906101000a900460ff16905092915050565b7f4761169e40d0efb53bf684d47e54c803c1511483244b1a2fca6dbbd91b4508d581565b6000801b81565b610ff2612d8d565b6000606073__$9842325bb1826b70c2ef476a1c714a02a7$__63b4d61add86867f00000000000000000000000000000000000000000000000000000000000000006005600360046040518763ffffffff1660e01b815260040161105a969594939291906141e4565b600060405180830381865af4158015611077573d6000803e3d6000fd5b505050506040513d6000823e3d601f19601f820116820180604052508101906110a09190614400565b9250925092509250925092565b7f000000000000000000000000000000000000000000000000000000000000000081565b6110fb7f4761169e40d0efb53bf684d47e54c803c1511483244b1a2fca6dbbd91b4508d533610f55565b61113a576040517f08c379a000000000000000000000000000000000000000000000000000000000815260040161113190613a07565b60405180910390fd5b600082806020019061114c9190613a36565b60405161115a929190613ac9565b6040518091039020905073__$9842325bb1826b70c2ef476a1c714a02a7$__63a3cdda136112227f9cc3774350162d9de873401b80ebde33ff0f4f4a6bc7ee58dda6ef202b2d860f8660000135858860400135600160008a73ffffffffffffffffffffffffffffffffffffffff1673ffffffffffffffffffffffffffffffffffffffff168152602001908152602001600020548a6080013560405160200161120796959493929190614472565b604051602081830303815290604052805190602001206126cc565b848680606001906112339190613b43565b88608001356040518663ffffffff1660e01b8152600401611258959493929190613c11565b602060405180830381865af4158015611275573d6000803e3d6000fd5b505050506040513d601f19601f820116820180604052508101906112999190613c8b565b50600073__$9842325bb1826b70c2ef476a1c714a02a7$__63818a024c8360036040518363ffffffff1660e01b81526004016112d69291906144d3565b602060405180830381865af41580156112f3573d6000803e3d6000fd5b505050506040513d601f19601f8201168201806040525081019061131791906144fc565b905073__$9842325bb1826b70c2ef476a1c714a02a7$__63735d8b2a8560000135838660056040518563ffffffff1660e01b815260040161135b9493929190614529565b60006040518083038186803b15801561137357600080fd5b505af4158015611387573d6000803e3d6000fd5b50505050600160008473ffffffffffffffffffffffffffffffffffffffff1673ffffffffffffffffffffffffffffffffffffffff168152602001908152602001600020600081546113d79061410a565b919050819055507f000000000000000000000000000000000000000000000000000000000000000073ffffffffffffffffffffffffffffffffffffffff166342966c6860056000876000013581526020019081526020016000206000848152602001908152602001600020600201546040518263ffffffff1660e01b8152600401611462919061383c565b600060405180830381600087803b15801561147c57600080fd5b505af1158015611490573d6000803e3d6000fd5b5050505060046005600086600001358152602001908152602001600020600083815260200190815260200160002060070160006101000a81548160ff021916908360048111156114e3576114e26134b6565b5b02179055508084600001358473ffffffffffffffffffffffffffffffffffffffff167f707b8ad08e58bc5a2367c8c45625ddb87d54731363b778f5722d10a345254dec60056000896000013581526020019081526020016000206000868152602001908152602001600020600601548860400135426040516115679392919061456e565b60405180910390a450505050565b61159f7f4761169e40d0efb53bf684d47e54c803c1511483244b1a2fca6dbbd91b4508d533610f55565b6115de576040517f08c379a00000000000000000000000000000000000000000000000000000000081526004016115d590613a07565b60405180910390fd5b600080600073__$9842325bb1826b70c2ef476a1c714a02a7$__63d8a627106116f27f4ec37a5398d88f8f6568620d918107772e8b3aa8ee69e4329a3daeeb0a6a35728880600001906116319190613e25565b60405160200161164292919061461a565b604051602081830303815290604052805190602001208980602001906116689190613a36565b604051611676929190613ac9565b6040518091039020600160008b73ffffffffffffffffffffffffffffffffffffffff1673ffffffffffffffffffffffffffffffffffffffff168152602001908152602001600020548b606001356040516020016116d7959493929190614633565b604051602081830303815290604052805190602001206126cc565b868880604001906117039190613b43565b8a6060013560405180606001604052808d80600001906117239190613e25565b80806020026020016040519081016040528093929190818152602001838360200280828437600081840152601f19601f8201169050808301925050505050505081526020018d80602001906117789190613a36565b8080601f016020809104026020016040519081016040528093929190818152602001838380828437600081840152601f19601f8201169050808301925050505050505081526020018c73ffffffffffffffffffffffffffffffffffffffff16815250600560036040518963ffffffff1660e01b8152600401611801989796959493929190614686565b600060405180830381865af415801561181e573d6000803e3d6000fd5b505050506040513d6000823e3d601f19601f82011682018060405250810190611847919061488b565b925092509250600160008573ffffffffffffffffffffffffffffffffffffffff1673ffffffffffffffffffffffffffffffffffffffff168152602001908152602001600020600081546118999061410a565b919050819055507f000000000000000000000000000000000000000000000000000000000000000073ffffffffffffffffffffffffffffffffffffffff1663c182178e3085856040518463ffffffff1660e01b81526004016118fd93929190614a68565b600060405180830381600087803b15801561191757600080fd5b505af115801561192b573d6000803e3d6000fd5b5050505060005b8580600001906119429190613e25565b90508110156119ed576003600560008880600001906119619190613e25565b8581811061197257611971614aad565b5b905060200201358152602001908152602001600020600084848151811061199c5761199b614aad565b5b6020026020010151815260200190815260200160002060070160006101000a81548160ff021916908360048111156119d7576119d66134b6565b5b0217905550806119e69061410a565b9050611932565b5082518473ffffffffffffffffffffffffffffffffffffffff167f4f1c4c01ed0bb6c3c7eab533380dc1f5a1688f9dca14f664f51a8052002a882942604051611a36919061383c565b60405180910390a35050505050565b6000600260008484604051611a5b929190613ac9565b6040518091039020815260200190815260200160002054905092915050565b611aa47f4761169e40d0efb53bf684d47e54c803c1511483244b1a2fca6dbbd91b4508d533610f55565b611ae3576040517f08c379a0000000000000000000000000000000000000000000000000000000008152600401611ada90613a07565b60405180910390fd5b600073__$9842325bb1826b70c2ef476a1c714a02a7$__637da7cda0611bc27fa40842dfb38adb5c9b877f026d498df2a82043c9a0f6e3f83bb60ac349e14b498660000135878060200190611b389190613a36565b604051611b46929190613ac9565b6040518091039020600160008973ffffffffffffffffffffffffffffffffffffffff1673ffffffffffffffffffffffffffffffffffffffff168152602001908152602001600020548960600135604051602001611ba7959493929190614adc565b604051602081830303815290604052805190602001206126cc565b84868060400190611bd39190613b43565b8860600135898060200190611be89190613a36565b6040518863ffffffff1660e01b8152600401611c0a9796959493929190614b2f565b602060405180830381865af4158015611c27573d6000803e3d6000fd5b505050506040513d601f19601f82011682018060405250810190611c4b9190614b94565b9050600073__$9842325bb1826b70c2ef476a1c714a02a7$__63818a024c8360036040518363ffffffff1660e01b8152600401611c899291906144d3565b602060405180830381865af4158015611ca6573d6000803e3d6000fd5b505050506040513d601f19601f82011682018060405250810190611cca91906144fc565b905073__$9842325bb1826b70c2ef476a1c714a02a7$__63735d8b2a8560000135838660056040518563ffffffff1660e01b8152600401611d0e9493929190614529565b60006040518083038186803b158015611d2657600080fd5b505af4158015611d3a573d6000803e3d6000fd5b50505050600160008473ffffffffffffffffffffffffffffffffffffffff1673ffffffffffffffffffffffffffffffffffffffff16815260200190815260200160002060008154611d8a9061410a565b919050819055507f000000000000000000000000000000000000000000000000000000000000000073ffffffffffffffffffffffffffffffffffffffff166342842e0e306005600088600001358152602001908152602001600020600085815260200190815260200160002060000160009054906101000a900473ffffffffffffffffffffffffffffffffffffffff1660056000896000013581526020019081526020016000206000868152602001908152602001600020600201546040518463ffffffff1660e01b8152600401611e6493929190614bc1565b600060405180830381600087803b158015611e7e57600080fd5b505af1158015611e92573d6000803e3d6000fd5b5050505060036005600086600001358152602001908152602001600020600083815260200190815260200160002060070160006101000a81548160ff02191690836004811115611ee557611ee46134b6565b5b02179055508084600001358473ffffffffffffffffffffffffffffffffffffffff167fd9cc7312aeed0c2fe657f2d0972f6fde1b32ff59c7abcf319942e84f507e738e600560008960000135815260200190815260200160002060008681526020019081526020016000206006015442604051611f63929190613dfc565b60405180910390a450505050565b611f7a826108fa565b611f83816126e6565b611f8d83836127e2565b505050565b7f000000000000000000000000000000000000000000000000000000000000000081565b6000611fe27f4761169e40d0efb53bf684d47e54c803c1511483244b1a2fca6dbbd91b4508d533610f55565b612021576040517f08c379a000000000000000000000000000000000000000000000000000000000815260040161201890613a07565b60405180910390fd5b73__$9842325bb1826b70c2ef476a1c714a02a7$__634dd689186121537f29be98e70cea08d618dc7e253dea019af07adea87df664c2c3c55cb783cfd3bb86600001358780602001906120749190613a36565b604051612082929190613ac9565b604051809103902088806040019061209a9190613a36565b6040516120a8929190613ac9565b604051809103902089606001358a60800160208101906120c8919061394e565b8b60a00160208101906120db919061394e565b600160008d73ffffffffffffffffffffffffffffffffffffffff1673ffffffffffffffffffffffffffffffffffffffff168152602001908152602001600020548d60e0013560405160200161213899989796959493929190614bf8565b604051602081830303815290604052805190602001206126cc565b84868060c001906121649190613b43565b8860e001358980602001906121799190613a36565b60026040518963ffffffff1660e01b815260040161219e989796959493929190614c85565b60006040518083038186803b1580156121b657600080fd5b505af41580156121ca573d6000803e3d6000fd5b50505050600160008373ffffffffffffffffffffffffffffffffffffffff1673ffffffffffffffffffffffffffffffffffffffff1681526020019081526020016000206000815461221a9061410a565b9190508190555060007f000000000000000000000000000000000000000000000000000000000000000073ffffffffffffffffffffffffffffffffffffffff166316cd4c3a85600001356040518263ffffffff1660e01b8152600401612280919061383c565b6020604051808303816000875af115801561229f573d6000803e3d6000fd5b505050506040513d601f19601f820116820180604052508101906122c391906144fc565b905060007f000000000000000000000000000000000000000000000000000000000000000073ffffffffffffffffffffffffffffffffffffffff16635ff97ebf308780604001906123149190613a36565b896080016020810190612327919061394e565b60006040518663ffffffff1660e01b8152600401612349959493929190614d82565b6020604051808303816000875af1158015612368573d6000803e3d6000fd5b505050506040513d601f19601f8201168201806040525081019061238c91906144fc565b9050600073__$9842325bb1826b70c2ef476a1c714a02a7$__6393e7ae64604051806101000160405280896000013581526020018581526020018980602001906123d69190613a36565b8080601f016020809104026020016040519081016040528093929190818152602001838380828437600081840152601f19601f8201169050808301925050505050505081526020018960600135815260200189608001602081019061243b919061394e565b73ffffffffffffffffffffffffffffffffffffffff1681526020018960a0016020810190612469919061394e565b73ffffffffffffffffffffffffffffffffffffffff1681526020018873ffffffffffffffffffffffffffffffffffffffff16815260200186815250600560026040518463ffffffff1660e01b81526004016124c693929190614e80565b602060405180830381865af41580156124e3573d6000803e3d6000fd5b505050506040513d601f19601f8201168201806040525081019061250791906144fc565b9050828660000135876080016020810190612522919061394e565b73ffffffffffffffffffffffffffffffffffffffff167f27bf9a004cd5f8eb61e6bd7610afc3aeeb4d046a608102a140f1508064d851658442604051612569929190614ebe565b60405180910390a481935050505092915050565b60016020528060005260406000206000915090505481565b61259d612d8d565b6000606073__$9842325bb1826b70c2ef476a1c714a02a7$__633ba0f99186867f000000000000000000000000000000000000000000000000000000000000000060056040518563ffffffff1660e01b81526004016125ff9493929190614529565b600060405180830381865af415801561261c573d6000803e3d6000fd5b505050506040513d6000823e3d601f19601f820116820180604052508101906126459190614400565b9250925092509250925092565b60007f7965db0b000000000000000000000000000000000000000000000000000000007bffffffffffffffffffffffffffffffffffffffffffffffffffffffff1916827bffffffffffffffffffffffffffffffffffffffffffffffffffffffff191614806126c557506126c4826128c3565b5b9050919050565b60006126df6126d961292d565b83612a47565b9050919050565b6126f7816126f26127da565b612a7a565b50565b6127048282610f55565b6127d657600160008084815260200190815260200160002060000160008373ffffffffffffffffffffffffffffffffffffffff1673ffffffffffffffffffffffffffffffffffffffff16815260200190815260200160002060006101000a81548160ff02191690831515021790555061277b6127da565b73ffffffffffffffffffffffffffffffffffffffff168173ffffffffffffffffffffffffffffffffffffffff16837f2f8788117e7eff1d82e926ec794901d17c78024a50270940304540a733656f0d60405160405180910390a45b5050565b600033905090565b6127ec8282610f55565b156128bf57600080600084815260200190815260200160002060000160008373ffffffffffffffffffffffffffffffffffffffff1673ffffffffffffffffffffffffffffffffffffffff16815260200190815260200160002060006101000a81548160ff0219169083151502179055506128646127da565b73ffffffffffffffffffffffffffffffffffffffff168173ffffffffffffffffffffffffffffffffffffffff16837ff6391f5c32d9c69d2a47ea670b442974b53935d1edc7fd64eb21e047a839171b60405160405180910390a45b5050565b60007f01ffc9a7000000000000000000000000000000000000000000000000000000007bffffffffffffffffffffffffffffffffffffffffffffffffffffffff1916827bffffffffffffffffffffffffffffffffffffffffffffffffffffffff1916149050919050565b60007f000000000000000000000000000000000000000000000000000000000000000073ffffffffffffffffffffffffffffffffffffffff163073ffffffffffffffffffffffffffffffffffffffff161480156129a957507f000000000000000000000000000000000000000000000000000000000000000046145b156129d6577f00000000000000000000000000000000000000000000000000000000000000009050612a44565b612a417f00000000000000000000000000000000000000000000000000000000000000007f00000000000000000000000000000000000000000000000000000000000000007f0000000000000000000000000000000000000000000000000000000000000000612b17565b90505b90565b60008282604051602001612a5c929190614f5f565b60405160208183030381529060405280519060200120905092915050565b612a848282610f55565b612b1357612aa98173ffffffffffffffffffffffffffffffffffffffff166014612b51565b612ab78360001c6020612b51565b604051602001612ac892919061505f565b6040516020818303038152906040526040517f08c379a0000000000000000000000000000000000000000000000000000000008152600401612b0a9190615099565b60405180910390fd5b5050565b60008383834630604051602001612b329594939291906150bb565b6040516020818303038152906040528051906020012090509392505050565b606060006002836002612b64919061510e565b612b6e9190615168565b67ffffffffffffffff811115612b8757612b866130a9565b5b6040519080825280601f01601f191660200182016040528015612bb95781602001600182028036833780820191505090505b5090507f300000000000000000000000000000000000000000000000000000000000000081600081518110612bf157612bf0614aad565b5b60200101907effffffffffffffffffffffffffffffffffffffffffffffffffffffffffffff1916908160001a9053507f780000000000000000000000000000000000000000000000000000000000000081600181518110612c5557612c54614aad565b5b60200101907effffffffffffffffffffffffffffffffffffffffffffffffffffffffffffff1916908160001a90535060006001846002612c95919061510e565b612c9f9190615168565b90505b6001811115612d3f577f3031323334353637383961626364656600000000000000000000000000000000600f861660108110612ce157612ce0614aad565b5b1a60f81b828281518110612cf857612cf7614aad565b5b60200101907effffffffffffffffffffffffffffffffffffffffffffffffffffffffffffff1916908160001a905350600485901c945080612d389061519c565b9050612ca2565b5060008414612d83576040517f08c379a0000000000000000000000000000000000000000000000000000000008152600401612d7a90615211565b60405180910390fd5b8091505092915050565b604051806101200160405280600073ffffffffffffffffffffffffffffffffffffffff1681526020016000815260200160008152602001600073ffffffffffffffffffffffffffffffffffffffff16815260200160008152602001600081526020016000801916815260200160006004811115612e0d57612e0c6134b6565b5b8152602001600073ffffffffffffffffffffffffffffffffffffffff1681525090565b6000604051905090565b600080fd5b600080fd5b60007fffffffff0000000000000000000000000000000000000000000000000000000082169050919050565b612e7981612e44565b8114612e8457600080fd5b50565b600081359050612e9681612e70565b92915050565b600060208284031215612eb257612eb1612e3a565b5b6000612ec084828501612e87565b91505092915050565b60008115159050919050565b612ede81612ec9565b82525050565b6000602082019050612ef96000830184612ed5565b92915050565b600080fd5b600060a08284031215612f1a57612f19612eff565b5b81905092915050565b600073ffffffffffffffffffffffffffffffffffffffff82169050919050565b6000612f4e82612f23565b9050919050565b612f5e81612f43565b8114612f6957600080fd5b50565b600081359050612f7b81612f55565b92915050565b60008060408385031215612f9857612f97612e3a565b5b600083013567ffffffffffffffff811115612fb657612fb5612e3f565b5b612fc285828601612f04565b9250506020612fd385828601612f6c565b9150509250929050565b600060408284031215612ff357612ff2612eff565b5b81905092915050565b6000806040838503121561301357613012612e3a565b5b600083013567ffffffffffffffff81111561303157613030612e3f565b5b61303d85828601612fdd565b925050602061304e85828601612f6c565b9150509250929050565b6000819050919050565b61306b81613058565b811461307657600080fd5b50565b60008135905061308881613062565b92915050565b600080fd5b600080fd5b6000601f19601f8301169050919050565b7f4e487b7100000000000000000000000000000000000000000000000000000000600052604160045260246000fd5b6130e182613098565b810181811067ffffffffffffffff82111715613100576130ff6130a9565b5b80604052505050565b6000613113612e30565b905061311f82826130d8565b919050565b600067ffffffffffffffff82111561313f5761313e6130a9565b5b61314882613098565b9050602081019050919050565b82818337600083830152505050565b600061317761317284613124565b613109565b90508281526020810184848401111561319357613192613093565b5b61319e848285613155565b509392505050565b600082601f8301126131bb576131ba61308e565b5b81356131cb848260208601613164565b91505092915050565b600080600080608085870312156131ee576131ed612e3a565b5b60006131fc87828801612f6c565b945050602061320d87828801612f6c565b935050604061321e87828801613079565b925050606085013567ffffffffffffffff81111561323f5761323e612e3f565b5b61324b878288016131a6565b91505092959194509250565b61326081612e44565b82525050565b600060208201905061327b6000830184613257565b92915050565b6000819050919050565b61329481613281565b811461329f57600080fd5b50565b6000813590506132b18161328b565b92915050565b6000602082840312156132cd576132cc612e3a565b5b60006132db848285016132a2565b91505092915050565b6132ed81613281565b82525050565b600060208201905061330860008301846132e4565b92915050565b60006080828403121561332457613323612eff565b5b81905092915050565b6000806040838503121561334457613343612e3a565b5b600083013567ffffffffffffffff81111561336257613361612e3f565b5b61336e8582860161330e565b925050602061337f85828601612f6c565b9150509250929050565b600080604083850312156133a05761339f612e3a565b5b60006133ae858286016132a2565b92505060206133bf85828601612f6c565b9150509250929050565b600080fd5b600080fd5b60008083601f8401126133e9576133e861308e565b5b8235905067ffffffffffffffff811115613406576134056133c9565b5b602083019150836001820283011115613422576134216133ce565b5b9250929050565b60008060006040848603121561344257613441612e3a565b5b600061345086828701613079565b935050602084013567ffffffffffffffff81111561347157613470612e3f565b5b61347d868287016133d3565b92509250509250925092565b61349281612f43565b82525050565b6134a181613058565b82525050565b6134b081613281565b82525050565b7f4e487b7100000000000000000000000000000000000000000000000000000000600052602160045260246000fd5b600581106134f6576134f56134b6565b5b50565b6000819050613507826134e5565b919050565b6000613517826134f9565b9050919050565b6135278161350c565b82525050565b610120820160008201516135446000850182613489565b5060208201516135576020850182613498565b50604082015161356a6040850182613498565b50606082015161357d6060850182613489565b5060808201516135906080850182613498565b5060a08201516135a360a0850182613498565b5060c08201516135b660c08501826134a7565b5060e08201516135c960e085018261351e565b506101008201516135de610100850182613489565b50505050565b6000610120820190506135fa600083018461352d565b92915050565b6000806020838503121561361757613616612e3a565b5b600083013567ffffffffffffffff81111561363557613634612e3f565b5b613641858286016133d3565b92509250509250929050565b61365681613058565b82525050565b600081519050919050565b600082825260208201905092915050565b60005b8381101561369657808201518184015260208101905061367b565b60008484015250505050565b60006136ad8261365c565b6136b78185613667565b93506136c7818560208601613678565b6136d081613098565b840191505092915050565b6000610160820190506136f1600083018661352d565b6136ff61012083018561364d565b81810361014083015261371281846136a2565b9050949350505050565b61372581612f43565b82525050565b6000602082019050613740600083018461371c565b92915050565b600060a0828403121561375c5761375b612eff565b5b81905092915050565b6000806040838503121561377c5761377b612e3a565b5b600083013567ffffffffffffffff81111561379a57613799612e3f565b5b6137a685828601613746565b92505060206137b785828601612f6c565b9150509250929050565b6000608082840312156137d7576137d6612eff565b5b81905092915050565b600080604083850312156137f7576137f6612e3a565b5b600083013567ffffffffffffffff81111561381557613814612e3f565b5b613821858286016137c1565b925050602061383285828601612f6c565b9150509250929050565b6000602082019050613851600083018461364d565b92915050565b60006080828403121561386d5761386c612eff565b5b81905092915050565b6000806040838503121561388d5761388c612e3a565b5b600083013567ffffffffffffffff8111156138ab576138aa612e3f565b5b6138b785828601613857565b92505060206138c885828601612f6c565b9150509250929050565b600061010082840312156138e9576138e8612eff565b5b81905092915050565b6000806040838503121561390957613908612e3a565b5b600083013567ffffffffffffffff81111561392757613926612e3f565b5b613933858286016138d2565b925050602061394485828601612f6c565b9150509250929050565b60006020828403121561396457613963612e3a565b5b600061397284828501612f6c565b91505092915050565b6000806040838503121561399257613991612e3a565b5b60006139a085828601613079565b92505060206139b185828601613079565b9150509250929050565b7f4e6f744875620000000000000000000000000000000000000000000000000000600082015250565b60006139f1600683613667565b91506139fc826139bb565b602082019050919050565b60006020820190508181036000830152613a20816139e4565b9050919050565b600080fd5b600080fd5b600080fd5b60008083356001602003843603038112613a5357613a52613a27565b5b80840192508235915067ffffffffffffffff821115613a7557613a74613a2c565b5b602083019250600182023603831315613a9157613a90613a31565b5b509250929050565b600081905092915050565b6000613ab08385613a99565b9350613abd838584613155565b82840190509392505050565b6000613ad6828486613aa4565b91508190509392505050565b600060c082019050613af760008301896132e4565b613b04602083018861364d565b613b11604083018761364d565b613b1e60608301866132e4565b613b2b608083018561364d565b613b3860a083018461364d565b979650505050505050565b60008083356001602003843603038112613b6057613b5f613a27565b5b80840192508235915067ffffffffffffffff821115613b8257613b81613a2c565b5b602083019250600182023603831315613b9e57613b9d613a31565b5b509250929050565b613baf81613281565b82525050565b613bbe81612f43565b82525050565b600082825260208201905092915050565b6000613be18385613bc4565b9350613bee838584613155565b613bf783613098565b840190509392505050565b613c0b81613058565b82525050565b6000608082019050613c266000830188613ba6565b613c336020830187613bb5565b8181036040830152613c46818587613bd5565b9050613c556060830184613c02565b9695505050505050565b613c6881612ec9565b8114613c7357600080fd5b50565b600081519050613c8581613c5f565b92915050565b600060208284031215613ca157613ca0612e3a565b5b6000613caf84828501613c76565b91505092915050565b600082825260208201905092915050565b6000613cd58385613cb8565b9350613ce2838584613155565b613ceb83613098565b840190509392505050565b8082525050565b8082525050565b8082525050565b600061010082019050613d21600083018c613c02565b613d2e602083018b613c02565b8181036040830152613d4181898b613cc9565b9050613d506060830188613bb5565b613d5d6080830187613cf6565b613d6a60a0830186613cfd565b613d7760c0830185613cfd565b613d8460e0830184613d04565b9a9950505050505050505050565b600081519050613da181612f55565b92915050565b600081519050613db68161328b565b92915050565b60008060408385031215613dd357613dd2612e3a565b5b6000613de185828601613d92565b9250506020613df285828601613da7565b9150509250929050565b6000604082019050613e1160008301856132e4565b613e1e602083018461364d565b9392505050565b60008083356001602003843603038112613e4257613e41613a27565b5b80840192508235915067ffffffffffffffff821115613e6457613e63613a2c565b5b602083019250602082023603831315613e8057613e7f613a31565b5b509250929050565b600081519050919050565b600082825260208201905092915050565b6000819050602082019050919050565b613ebd81613058565b82525050565b6000613ecf8383613eb4565b60208301905092915050565b6000602082019050919050565b6000613ef382613e88565b613efd8185613e93565b9350613f0883613ea4565b8060005b83811015613f39578151613f208882613ec3565b9750613f2b83613edb565b925050600181019050613f0c565b5085935050505092915050565b600082825260208201905092915050565b6000613f628261365c565b613f6c8185613f46565b9350613f7c818560208601613678565b613f8581613098565b840191505092915050565b613f9981612f43565b82525050565b60006060830160008301518482036000860152613fbc8282613ee8565b91505060208301518482036020860152613fd68282613f57565b9150506040830151613feb6040860182613f90565b508091505092915050565b600060608201905081810360008301526140108186613f9f565b905061401f6020830185613cf6565b61402c6040830184613cfd565b949350505050565b600060a08201905061404960008301886132e4565b614056602083018761364d565b614063604083018661364d565b614070606083018561364d565b61407d608083018461364d565b9695505050505050565b61409081612ec9565b82525050565b60006080820190506140ab6000830187613c02565b6140b86020830186613c02565b6140c56040830185614087565b6140d26060830184613cf6565b95945050505050565b7f4e487b7100000000000000000000000000000000000000000000000000000000600052601160045260246000fd5b600061411582613058565b91507fffffffffffffffffffffffffffffffffffffffffffffffffffffffffffffffff8203614147576141466140db565b5b600182019050919050565b7f416363657373436f6e74726f6c3a2063616e206f6e6c792072656e6f756e636560008201527f20726f6c657320666f722073656c660000000000000000000000000000000000602082015250565b60006141ae602f83613667565b91506141b982614152565b604082019050919050565b600060208201905081810360008301526141dd816141a1565b9050919050565b600060a08201905081810360008301526141ff81888a613cc9565b905061420e6020830187613bb5565b61421b6040830186613cf6565b6142286060830185613cfd565b6142356080830184613cfd565b979650505050505050565b600080fd5b60008151905061425481613062565b92915050565b6005811061426757600080fd5b50565b6000815190506142798161425a565b92915050565b6000610120828403121561429657614295614240565b5b6142a1610120613109565b905060006142b184828501613d92565b60008301525060206142c584828501614245565b60208301525060406142d984828501614245565b60408301525060606142ed84828501613d92565b606083015250608061430184828501614245565b60808301525060a061431584828501614245565b60a08301525060c061432984828501613da7565b60c08301525060e061433d8482850161426a565b60e08301525061010061435284828501613d92565b6101008301525092915050565b600067ffffffffffffffff82111561437a576143796130a9565b5b61438382613098565b9050602081019050919050565b60006143a361439e8461435f565b613109565b9050828152602081018484840111156143bf576143be613093565b5b6143ca848285613678565b509392505050565b600082601f8301126143e7576143e661308e565b5b81516143f7848260208601614390565b91505092915050565b6000806000610160848603121561441a57614419612e3a565b5b60006144288682870161427f565b93505061012061443a86828701614245565b92505061014084015167ffffffffffffffff81111561445c5761445b612e3f565b5b614468868287016143d2565b9150509250925092565b600060c08201905061448760008301896132e4565b614494602083018861364d565b6144a160408301876132e4565b6144ae606083018661364d565b6144bb608083018561364d565b6144c860a083018461364d565b979650505050505050565b60006040820190506144e86000830185613ba6565b6144f56020830184613cfd565b9392505050565b60006020828403121561451257614511612e3a565b5b600061452084828501614245565b91505092915050565b600060808201905061453e6000830187613c02565b61454b6020830186613c02565b6145586040830185613bb5565b6145656060830184613cf6565b95945050505050565b600060608201905061458360008301866132e4565b614590602083018561364d565b61459d604083018461364d565b949350505050565b600081905092915050565b600080fd5b82818337505050565b60006145ca83856145a5565b93507f07ffffffffffffffffffffffffffffffffffffffffffffffffffffffffffffff8311156145fd576145fc6145b0565b5b60208302925061460e8385846145b5565b82840190509392505050565b60006146278284866145be565b91508190509392505050565b600060a08201905061464860008301886132e4565b61465560208301876132e4565b61466260408301866132e4565b61466f606083018561364d565b61467c608083018461364d565b9695505050505050565b600060e08201905061469b600083018b613ba6565b6146a8602083018a613bb5565b81810360408301526146bb81888a613bd5565b90506146ca6060830187613c02565b81810360808301526146dc8186613f9f565b90506146eb60a0830185613cf6565b6146f860c0830184613cfd565b9998505050505050505050565b600067ffffffffffffffff8211156147205761471f6130a9565b5b602082029050602081019050919050565b600061474461473f84614705565b613109565b90508083825260208201905060208402830185811115614767576147666133ce565b5b835b81811015614790578061477c8882613d92565b845260208401935050602081019050614769565b5050509392505050565b600082601f8301126147af576147ae61308e565b5b81516147bf848260208601614731565b91505092915050565b600067ffffffffffffffff8211156147e3576147e26130a9565b5b602082029050602081019050919050565b6000614807614802846147c8565b613109565b9050808382526020820190506020840283018581111561482a576148296133ce565b5b835b81811015614853578061483f8882614245565b84526020840193505060208101905061482c565b5050509392505050565b600082601f8301126148725761487161308e565b5b81516148828482602086016147f4565b91505092915050565b6000806000606084860312156148a4576148a3612e3a565b5b600084015167ffffffffffffffff8111156148c2576148c1612e3f565b5b6148ce8682870161479a565b935050602084015167ffffffffffffffff8111156148ef576148ee612e3f565b5b6148fb8682870161485d565b925050604084015167ffffffffffffffff81111561491c5761491b612e3f565b5b6149288682870161485d565b9150509250925092565b600081519050919050565b600082825260208201905092915050565b6000819050602082019050919050565b600061496a8383613489565b60208301905092915050565b6000602082019050919050565b600061498e82614932565b614998818561493d565b93506149a38361494e565b8060005b838110156149d45781516149bb888261495e565b97506149c683614976565b9250506001810190506149a7565b5085935050505092915050565b600082825260208201905092915050565b60006149fe8383613498565b60208301905092915050565b6000614a1582613e88565b614a1f81856149e1565b9350614a2a83613ea4565b8060005b83811015614a5b578151614a4288826149f2565b9750614a4d83613edb565b925050600181019050614a2e565b5085935050505092915050565b6000606082019050614a7d600083018661371c565b8181036020830152614a8f8185614983565b90508181036040830152614aa38184614a0a565b9050949350505050565b7f4e487b7100000000000000000000000000000000000000000000000000000000600052603260045260246000fd5b600060a082019050614af160008301886132e4565b614afe602083018761364d565b614b0b60408301866132e4565b614b18606083018561364d565b614b25608083018461364d565b9695505050505050565b600060a082019050614b44600083018a613ba6565b614b516020830189613bb5565b8181036040830152614b64818789613bd5565b9050614b736060830186613c02565b8181036080830152614b86818486613cc9565b905098975050505050505050565b600060208284031215614baa57614ba9612e3a565b5b6000614bb884828501613da7565b91505092915050565b6000606082019050614bd6600083018661371c565b614be3602083018561371c565b614bf0604083018461364d565b949350505050565b600061012082019050614c0e600083018c6132e4565b614c1b602083018b61364d565b614c28604083018a6132e4565b614c3560608301896132e4565b614c42608083018861364d565b614c4f60a083018761371c565b614c5c60c083018661371c565b614c6960e083018561364d565b614c7761010083018461364d565b9a9950505050505050505050565b600060c082019050614c9a600083018b613ba6565b614ca7602083018a613bb5565b8181036040830152614cba81888a613bd5565b9050614cc96060830187613c02565b8181036080830152614cdc818587613cc9565b9050614ceb60a0830184613cfd565b9998505050505050505050565b6000614d048385613667565b9350614d11838584613155565b614d1a83613098565b840190509392505050565b6000819050919050565b60006bffffffffffffffffffffffff82169050919050565b6000819050919050565b6000614d6c614d67614d6284614d25565b614d47565b614d2f565b9050919050565b614d7c81614d51565b82525050565b6000608082019050614d97600083018861371c565b8181036020830152614daa818688614cf8565b9050614db9604083018561371c565b614dc66060830184614d73565b9695505050505050565b600061010083016000830151614de96000860182613eb4565b506020830151614dfc6020860182613eb4565b5060408301518482036040860152614e148282613f57565b9150506060830151614e296060860182613eb4565b506080830151614e3c6080860182613f90565b5060a0830151614e4f60a0860182613f90565b5060c0830151614e6260c0860182613f90565b5060e0830151614e7560e0860182613eb4565b508091505092915050565b60006060820190508181036000830152614e9a8186614dd0565b9050614ea96020830185613cf6565b614eb66040830184613cfd565b949350505050565b6000604082019050614ed3600083018561364d565b614ee0602083018461364d565b9392505050565b600081905092915050565b7f1901000000000000000000000000000000000000000000000000000000000000600082015250565b6000614f28600283614ee7565b9150614f3382614ef2565b600282019050919050565b6000819050919050565b614f59614f5482613281565b614f3e565b82525050565b6000614f6a82614f1b565b9150614f768285614f48565b602082019150614f868284614f48565b6020820191508190509392505050565b7f416363657373436f6e74726f6c3a206163636f756e7420000000000000000000600082015250565b6000614fcc601783614ee7565b9150614fd782614f96565b601782019050919050565b6000614fed8261365c565b614ff78185614ee7565b9350615007818560208601613678565b80840191505092915050565b7f206973206d697373696e6720726f6c6520000000000000000000000000000000600082015250565b6000615049601183614ee7565b915061505482615013565b601182019050919050565b600061506a82614fbf565b91506150768285614fe2565b91506150818261503c565b915061508d8284614fe2565b91508190509392505050565b600060208201905081810360008301526150b381846136a2565b905092915050565b600060a0820190506150d060008301886132e4565b6150dd60208301876132e4565b6150ea60408301866132e4565b6150f7606083018561364d565b615104608083018461371c565b9695505050505050565b600061511982613058565b915061512483613058565b9250817fffffffffffffffffffffffffffffffffffffffffffffffffffffffffffffffff048311821515161561515d5761515c6140db565b5b828202905092915050565b600061517382613058565b915061517e83613058565b9250828201905080821115615196576151956140db565b5b92915050565b60006151a782613058565b9150600082036151ba576151b96140db565b5b600182039050919050565b7f537472696e67733a20686578206c656e67746820696e73756666696369656e74600082015250565b60006151fb602083613667565b9150615206826151c5565b602082019050919050565b6000602082019050818103600083015261522a816151ee565b905091905056fea26469706673582212204280e9492bccad0c33f8eb2d13c21f78eb66235be0cea6c9a8b627ce00aa088364736f6c63430008100033",
  "libraries": {
    "Logic": "0xAB44eA3d6fcdc99400620fbD30949A302361681B"
  },
  "devdoc": {
    "kind": "dev",
    "methods": {
      "getRoleAdmin(bytes32)": {
        "details": "Returns the admin role that controls `role`. See {grantRole} and {revokeRole}. To change a role's admin, use {_setRoleAdmin}."
      },
      "grantRole(bytes32,address)": {
        "details": "Grants `role` to `account`. If `account` had not been already granted `role`, emits a {RoleGranted} event. Requirements: - the caller must have ``role``'s admin role. May emit a {RoleGranted} event."
      },
      "hasRole(bytes32,address)": {
        "details": "Returns `true` if `account` has been granted `role`."
      },
      "onERC721Received(address,address,uint256,bytes)": {
        "details": "See {IERC721Receiver-onERC721Received}. Always returns `IERC721Receiver.onERC721Received.selector`."
      },
      "renounceRole(bytes32,address)": {
        "details": "Revokes `role` from the calling account. Roles are often managed via {grantRole} and {revokeRole}: this function's purpose is to provide a mechanism for accounts to lose their privileges if they are compromised (such as when a trusted device is misplaced). If the calling account had been revoked `role`, emits a {RoleRevoked} event. Requirements: - the caller must be `account`. May emit a {RoleRevoked} event."
      },
      "revokeRole(bytes32,address)": {
        "details": "Revokes `role` from `account`. If `account` had been granted `role`, emits a {RoleRevoked} event. Requirements: - the caller must have ``role``'s admin role. May emit a {RoleRevoked} event."
      },
      "supportsInterface(bytes4)": {
        "details": "See {IERC165-supportsInterface}."
      }
    },
    "version": 1
  },
  "userdoc": {
    "kind": "user",
    "methods": {},
    "version": 1
  },
  "storageLayout": {
    "storage": [
      {
        "astId": 3435,
        "contract": "contracts/MissionModule.sol:MissionModule",
        "label": "_roles",
        "offset": 0,
        "slot": "0",
        "type": "t_mapping(t_bytes32,t_struct(RoleData)3430_storage)"
      },
      {
        "astId": 5848,
        "contract": "contracts/MissionModule.sol:MissionModule",
        "label": "sigNonces",
        "offset": 0,
        "slot": "1",
        "type": "t_mapping(t_address,t_uint256)"
      },
      {
        "astId": 5852,
        "contract": "contracts/MissionModule.sol:MissionModule",
        "label": "_missionIdBySlugHash",
        "offset": 0,
        "slot": "2",
        "type": "t_mapping(t_bytes32,t_uint256)"
      },
      {
        "astId": 5856,
        "contract": "contracts/MissionModule.sol:MissionModule",
        "label": "_missionIdByChallengeHash",
        "offset": 0,
        "slot": "3",
        "type": "t_mapping(t_bytes32,t_uint256)"
      },
      {
        "astId": 5860,
        "contract": "contracts/MissionModule.sol:MissionModule",
        "label": "_profileIdByChallengeHash",
        "offset": 0,
        "slot": "4",
        "type": "t_mapping(t_bytes32,t_uint256)"
      },
      {
        "astId": 5867,
        "contract": "contracts/MissionModule.sol:MissionModule",
        "label": "_missionByIdByProfile",
        "offset": 0,
        "slot": "5",
        "type": "t_mapping(t_uint256,t_mapping(t_uint256,t_struct(MissionStruct)8480_storage))"
      }
    ],
    "types": {
      "t_address": {
        "encoding": "inplace",
        "label": "address",
        "numberOfBytes": "20"
      },
      "t_bool": {
        "encoding": "inplace",
        "label": "bool",
        "numberOfBytes": "1"
      },
      "t_bytes32": {
        "encoding": "inplace",
        "label": "bytes32",
        "numberOfBytes": "32"
      },
      "t_enum(State)8460": {
        "encoding": "inplace",
        "label": "enum DataTypes.State",
        "numberOfBytes": "1"
      },
      "t_mapping(t_address,t_bool)": {
        "encoding": "mapping",
        "key": "t_address",
        "label": "mapping(address => bool)",
        "numberOfBytes": "32",
        "value": "t_bool"
      },
      "t_mapping(t_address,t_uint256)": {
        "encoding": "mapping",
        "key": "t_address",
        "label": "mapping(address => uint256)",
        "numberOfBytes": "32",
        "value": "t_uint256"
      },
      "t_mapping(t_bytes32,t_struct(RoleData)3430_storage)": {
        "encoding": "mapping",
        "key": "t_bytes32",
        "label": "mapping(bytes32 => struct AccessControl.RoleData)",
        "numberOfBytes": "32",
        "value": "t_struct(RoleData)3430_storage"
      },
      "t_mapping(t_bytes32,t_uint256)": {
        "encoding": "mapping",
        "key": "t_bytes32",
        "label": "mapping(bytes32 => uint256)",
        "numberOfBytes": "32",
        "value": "t_uint256"
      },
      "t_mapping(t_uint256,t_mapping(t_uint256,t_struct(MissionStruct)8480_storage))": {
        "encoding": "mapping",
        "key": "t_uint256",
        "label": "mapping(uint256 => mapping(uint256 => struct DataTypes.MissionStruct))",
        "numberOfBytes": "32",
        "value": "t_mapping(t_uint256,t_struct(MissionStruct)8480_storage)"
      },
      "t_mapping(t_uint256,t_struct(MissionStruct)8480_storage)": {
        "encoding": "mapping",
        "key": "t_uint256",
        "label": "mapping(uint256 => struct DataTypes.MissionStruct)",
        "numberOfBytes": "32",
        "value": "t_struct(MissionStruct)8480_storage"
      },
      "t_struct(MissionStruct)8480_storage": {
        "encoding": "inplace",
        "label": "struct DataTypes.MissionStruct",
        "members": [
          {
            "astId": 8462,
            "contract": "contracts/MissionModule.sol:MissionModule",
            "label": "owner",
            "offset": 0,
            "slot": "0",
            "type": "t_address"
          },
          {
            "astId": 8464,
            "contract": "contracts/MissionModule.sol:MissionModule",
            "label": "profileId",
            "offset": 0,
            "slot": "1",
            "type": "t_uint256"
          },
          {
            "astId": 8466,
            "contract": "contracts/MissionModule.sol:MissionModule",
            "label": "tokenId",
            "offset": 0,
            "slot": "2",
            "type": "t_uint256"
          },
          {
            "astId": 8468,
            "contract": "contracts/MissionModule.sol:MissionModule",
            "label": "verifier",
            "offset": 0,
            "slot": "3",
            "type": "t_address"
          },
          {
            "astId": 8470,
            "contract": "contracts/MissionModule.sol:MissionModule",
            "label": "starttime",
            "offset": 0,
            "slot": "4",
            "type": "t_uint256"
          },
          {
            "astId": 8472,
            "contract": "contracts/MissionModule.sol:MissionModule",
            "label": "endtime",
            "offset": 0,
            "slot": "5",
            "type": "t_uint256"
          },
          {
            "astId": 8474,
            "contract": "contracts/MissionModule.sol:MissionModule",
            "label": "challengeHash",
            "offset": 0,
            "slot": "6",
            "type": "t_bytes32"
          },
          {
            "astId": 8477,
            "contract": "contracts/MissionModule.sol:MissionModule",
            "label": "state",
            "offset": 0,
            "slot": "7",
            "type": "t_enum(State)8460"
          },
          {
            "astId": 8479,
            "contract": "contracts/MissionModule.sol:MissionModule",
            "label": "creator",
            "offset": 1,
            "slot": "7",
            "type": "t_address"
          }
        ],
        "numberOfBytes": "256"
      },
      "t_struct(RoleData)3430_storage": {
        "encoding": "inplace",
        "label": "struct AccessControl.RoleData",
        "members": [
          {
            "astId": 3427,
            "contract": "contracts/MissionModule.sol:MissionModule",
            "label": "members",
            "offset": 0,
            "slot": "0",
            "type": "t_mapping(t_address,t_bool)"
          },
          {
            "astId": 3429,
            "contract": "contracts/MissionModule.sol:MissionModule",
            "label": "adminRole",
            "offset": 0,
            "slot": "1",
            "type": "t_bytes32"
          }
        ],
        "numberOfBytes": "64"
      },
      "t_uint256": {
        "encoding": "inplace",
        "label": "uint256",
        "numberOfBytes": "32"
      }
    }
  }
}