{
  "address": "0xacDDa882DcA19e757b52240369A11342ec94A62c",
  "abi": [
    {
      "inputs": [],
      "name": "ChallengeTaken",
      "type": "error"
    },
    {
      "inputs": [],
      "name": "Claimed",
      "type": "error"
    },
    {
      "inputs": [],
      "name": "ContainsInvalidChars",
      "type": "error"
    },
    {
      "inputs": [],
      "name": "Expired",
      "type": "error"
    },
    {
      "inputs": [],
      "name": "HandleTaken",
      "type": "error"
    },
    {
      "inputs": [],
      "name": "InvalidLength",
      "type": "error"
    },
    {
      "inputs": [],
      "name": "NotFound",
      "type": "error"
    },
    {
      "inputs": [],
      "name": "NotMatched",
      "type": "error"
    },
    {
      "inputs": [],
      "name": "NotOwner",
      "type": "error"
    },
    {
      "inputs": [],
      "name": "NotReady",
      "type": "error"
    },
    {
      "inputs": [],
      "name": "NotVerifiable",
      "type": "error"
    },
    {
      "inputs": [],
      "name": "NotVerifier",
      "type": "error"
    },
    {
      "inputs": [],
      "name": "NotWhitelisted",
      "type": "error"
    },
    {
      "inputs": [],
      "name": "SecurityViolated",
      "type": "error"
    },
    {
      "inputs": [],
      "name": "SignatureExpired",
      "type": "error"
    },
    {
      "inputs": [],
      "name": "SignatureInvalid",
      "type": "error"
    },
    {
      "inputs": [],
      "name": "SlugTaken",
      "type": "error"
    },
    {
      "anonymous": false,
      "inputs": [
        {
          "indexed": true,
          "internalType": "uint256",
          "name": "profileId",
          "type": "uint256"
        },
        {
          "indexed": true,
          "internalType": "uint256",
          "name": "missionId",
          "type": "uint256"
        },
        {
          "indexed": false,
          "internalType": "uint256",
          "name": "timestamp",
          "type": "uint256"
        }
      ],
      "name": "Aborted",
      "type": "event"
    },
    {
      "anonymous": false,
      "inputs": [
        {
          "indexed": true,
          "internalType": "uint256",
          "name": "profileId",
          "type": "uint256"
        },
        {
          "indexed": true,
          "internalType": "uint256",
          "name": "missionId",
          "type": "uint256"
        },
        {
          "indexed": false,
          "internalType": "bytes32",
          "name": "challenge",
          "type": "bytes32"
        },
        {
          "indexed": false,
          "internalType": "uint256",
          "name": "timestamp",
          "type": "uint256"
        }
      ],
      "name": "Completed",
      "type": "event"
    },
    {
      "anonymous": false,
      "inputs": [
        {
          "indexed": true,
          "internalType": "uint256",
          "name": "profileId",
          "type": "uint256"
        },
        {
          "indexed": true,
          "internalType": "uint256",
          "name": "missionId",
          "type": "uint256"
        },
        {
          "indexed": false,
          "internalType": "address",
          "name": "verifier",
          "type": "address"
        },
        {
          "indexed": false,
          "internalType": "string",
          "name": "reason",
          "type": "string"
        },
        {
          "indexed": false,
          "internalType": "uint256",
          "name": "timestamp",
          "type": "uint256"
        }
      ],
      "name": "Failed",
      "type": "event"
    },
    {
      "anonymous": false,
      "inputs": [
        {
          "indexed": true,
          "internalType": "uint256",
          "name": "profileId",
          "type": "uint256"
        },
        {
          "indexed": true,
          "internalType": "address",
          "name": "creator",
          "type": "address"
        },
        {
          "indexed": false,
          "internalType": "string",
          "name": "handle",
          "type": "string"
        },
        {
          "indexed": false,
          "internalType": "uint256",
          "name": "timestamp",
          "type": "uint256"
        }
      ],
      "name": "ProfileCreated",
      "type": "event"
    },
    {
      "anonymous": false,
      "inputs": [
        {
          "indexed": true,
          "internalType": "uint256",
          "name": "profileId",
          "type": "uint256"
        },
        {
          "indexed": true,
          "internalType": "uint256",
          "name": "missionId",
          "type": "uint256"
        },
        {
          "indexed": false,
          "internalType": "string",
          "name": "slug",
          "type": "string"
        },
        {
          "indexed": false,
          "internalType": "uint256",
          "name": "endtime",
          "type": "uint256"
        },
        {
          "indexed": false,
          "internalType": "uint256",
          "name": "timestamp",
          "type": "uint256"
        }
      ],
      "name": "Started",
      "type": "event"
    },
    {
      "anonymous": false,
      "inputs": [
        {
          "indexed": true,
          "internalType": "uint256",
          "name": "profileId",
          "type": "uint256"
        },
        {
          "indexed": true,
          "internalType": "uint256",
          "name": "missionId",
          "type": "uint256"
        },
        {
          "indexed": false,
          "internalType": "address",
          "name": "verifier",
          "type": "address"
        },
        {
          "indexed": false,
          "internalType": "uint256",
          "name": "timestamp",
          "type": "uint256"
        }
      ],
      "name": "Verified",
      "type": "event"
    },
    {
      "inputs": [
        {
          "internalType": "bytes32",
          "name": "digest",
          "type": "bytes32"
        },
        {
          "internalType": "address",
          "name": "expectedAddress",
          "type": "address"
        },
        {
          "internalType": "bytes",
          "name": "signature",
          "type": "bytes"
        },
        {
          "internalType": "uint256",
          "name": "deadline",
          "type": "uint256"
        }
      ],
      "name": "validateSignature",
      "outputs": [
        {
          "internalType": "bool",
          "name": "",
          "type": "bool"
        }
      ],
      "stateMutability": "view",
      "type": "function"
    }
  ],
  "transactionHash": "0xeaf865e35efc475813df7c4925476f6d38c5e5501bee8fecc3c40e4d7fd38b64",
  "args": [],
  "numDeployments": 1,
  "solcInputHash": "82d0e8f6d0c22df9ba3b81861cf62291",
  "bytecode": "0x612d87610053600b82828239805160001a607314610046577f4e487b7100000000000000000000000000000000000000000000000000000000600052600060045260246000fd5b30600052607381538281f3fe73000000000000000000000000000000000000000030146080604052600436106100d95760003560e01c80639a94b38c11610096578063ae4bd6d011610070578063ae4bd6d01461024a578063b408ba4b14610266578063ef0c7fbe1461028f578063f97791e0146102b8576100d9565b80639a94b38c146101d5578063a3cdda13146101fe578063abd9aa951461022e576100d9565b80630dcefa43146100de57806319d9880d1461010757806336c4f02e146101305780636874590314610160578063818a024c146101895780638ed5729b146101b9575b600080fd5b8180156100ea57600080fd5b5061010560048036038101906101009190611e0d565b6102d4565b005b81801561011357600080fd5b5061012e60048036038101906101299190611ee3565b610555565b005b61014a6004803603810190610145919061203f565b610646565b6040516101579190612129565b60405180910390f35b81801561016c57600080fd5b5061018760048036038101906101829190612144565b610752565b005b6101a3600480360381019061019e91906121cc565b6107e7565b6040516101b0919061221b565b60405180910390f35b6101d360048036038101906101ce9190612144565b610844565b005b8180156101e157600080fd5b506101fc60048036038101906101f79190612236565b610a5e565b005b610218600480360381019061021391906122df565b610aeb565b6040516102259190612129565b60405180910390f35b6102486004803603810190610243919061203f565b610c45565b005b610264600480360381019061025f9190612393565b610de7565b005b81801561027257600080fd5b5061028d60048036038101906102889190612236565b610f4f565b005b81801561029b57600080fd5b506102b660048036038101906102b191906123fa565b610fde565b005b6102d260048036038101906102cd91906124a9565b611138565b005b8060008a815260200190815260200160002060000160008154809291906102fa90612538565b91905055508782600089896040516103139291906125c0565b6040518091039020815260200190815260200160002081905550338360008b815260200190815260200160002060008a815260200190815260200160002060000160006101000a81548173ffffffffffffffffffffffffffffffffffffffff021916908373ffffffffffffffffffffffffffffffffffffffff160217905550888360008b815260200190815260200160002060008a815260200190815260200160002060010181905550878360008b815260200190815260200160002060008a815260200190815260200160002060020181905550838360008b815260200190815260200160002060008a815260200190815260200160002060030160006101000a81548173ffffffffffffffffffffffffffffffffffffffff021916908373ffffffffffffffffffffffffffffffffffffffff1602179055506104584260006111a0565b8360008b815260200190815260200160002060008a815260200190815260200160002060040181905550600061048e42876111a0565b9050808460008c815260200190815260200160002060008b81526020019081526020016000206005018190555060008460008c815260200190815260200160002060008b815260200190815260200160002060070160006101000a81548160ff02191690836004811115610505576105046125d9565b5b0217905550888a7f3a7212ba432e988b1b0e8944aee86442a9859b82757b2a60e75742d99d35872e8a8a85426040516105419493929190612666565b60405180910390a350505050505050505050565b600084846040516105679291906125c0565b604051809103902090506002836000898152602001908152602001600020600088815260200190815260200160002060070160006101000a81548160ff021916908360048111156105bb576105ba6125d9565b5b021790555080836000898152602001908152602001600020600088815260200190815260200160002060060181905550858260008381526020019081526020016000208190555085877f06be1852cbea912f3a40b50112b332f366729391180ac9140c1a646ba07e574b83426040516106359291906126b5565b60405180910390a350505050505050565b60008860008973ffffffffffffffffffffffffffffffffffffffff1673ffffffffffffffffffffffffffffffffffffffff16815260200190815260200160002060009054906101000a900460ff1615801561070f575061070e878780806020026020016040519081016040528093929190818152602001838360200280828437600081840152601f19601f82011690508083019250505050505050848a6040516020016106f39190612726565b6040516020818303038152906040528051906020012061120a565b5b801561074457506000826000878760405161072b9291906125c0565b6040518091039020815260200190815260200160002054145b905098975050505050505050565b6004816000878152602001908152602001600020600086815260200190815260200160002060070160006101000a81548160ff0219169083600481111561079c5761079b6125d9565b5b021790555083857f745ca1414075448b3dd8a56e36f854ae56814306202172038dfc149c82a70f93338686426040516107d89493929190612750565b60405180910390a35050505050565b600080826000858152602001908152602001600020549050600081141561083a576040517fc5723b5100000000000000000000000000000000000000000000000000000000815260040160405180910390fd5b8091505092915050565b600081600087815260200190815260200160002060008681526020019081526020016000206004015414156108a5576040517fc5723b5100000000000000000000000000000000000000000000000000000000815260040160405180910390fd5b3373ffffffffffffffffffffffffffffffffffffffff16816000878152602001908152602001600020600086815260200190815260200160002060030160009054906101000a900473ffffffffffffffffffffffffffffffffffffffff1673ffffffffffffffffffffffffffffffffffffffff1614610950576040517f2466355600000000000000000000000000000000000000000000000000000000815260040160405180910390fd5b60026004811115610964576109636125d9565b5b816000878152602001908152602001600020600086815260200190815260200160002060070160009054906101000a900460ff1660048111156109aa576109a96125d9565b5b146109e1576040517fb94aed5c00000000000000000000000000000000000000000000000000000000815260040160405180910390fd5b82826040516109f19291906125c0565b604051809103902081600087815260200190815260200160002060008681526020019081526020016000206006015414610a57576040517f2554246c00000000000000000000000000000000000000000000000000000000815260040160405180910390fd5b5050505050565b6001816000858152602001908152602001600020600084815260200190815260200160002060070160006101000a81548160ff02191690836004811115610aa857610aa76125d9565b5b021790555081837fff3596231ab8e5bb37a9baf7f9355110d118c17f0c60731ec93eb199d37f745742604051610ade9190612790565b60405180910390a3505050565b600042821015610b27576040517f0819bdcd00000000000000000000000000000000000000000000000000000000815260040160405180910390fd5b6000610b778786868080601f016020809104026020016040519081016040528093929190818152602001838380828437600081840152601f19601f82011690508083019250505050505050611221565b90508073ffffffffffffffffffffffffffffffffffffffff168673ffffffffffffffffffffffffffffffffffffffff16141580610c005750610bfe868887878080601f016020809104026020016040519081016040528093929190818152602001838380828437600081840152601f19601f82011690508083019250505050505050611248565b155b15610c37576040517f37e8456b00000000000000000000000000000000000000000000000000000000815260040160405180910390fd5b600191505095945050505050565b8760008873ffffffffffffffffffffffffffffffffffffffff1673ffffffffffffffffffffffffffffffffffffffff16815260200190815260200160002060009054906101000a900460ff1615610cc8576040517fbcb4729800000000000000000000000000000000000000000000000000000000815260040160405180910390fd5b610d3a868680806020026020016040519081016040528093929190818152602001838360200280828437600081840152601f19601f820116905080830192505050505050508389604051602001610d1f9190612726565b6040516020818303038152906040528051906020012061120a565b610d70576040517f584a793800000000000000000000000000000000000000000000000000000000815260040160405180910390fd5b610d7a848461140e565b60008160008686604051610d8f9291906125c0565b604051809103902081526020019081526020016000205414610ddd576040517f902815b900000000000000000000000000000000000000000000000000000000815260040160405180910390fd5b5050505050505050565b60008160008681526020019081526020016000206000858152602001908152602001600020600401541415610e48576040517fc5723b5100000000000000000000000000000000000000000000000000000000815260040160405180910390fd5b60006004811115610e5c57610e5b6125d9565b5b816000868152602001908152602001600020600085815260200190815260200160002060070160009054906101000a900460ff166004811115610ea257610ea16125d9565b5b14610ed9576040517f9488aaa600000000000000000000000000000000000000000000000000000000815260040160405180910390fd5b60011515821515148015610f12575042816000868152602001908152602001600020600085815260200190815260200160002060050154105b15610f49576040517f203d82d800000000000000000000000000000000000000000000000000000000815260040160405180910390fd5b50505050565b6003816000858152602001908152602001600020600084815260200190815260200160002060070160006101000a81548160ff02191690836004811115610f9957610f986125d9565b5b021790555081837fafc46ba4a82015397c73077655a8249525a2de289f9337fd9b53733affb4cf553342604051610fd19291906127ab565b60405180910390a3505050565b828260008787604051610ff29291906125c0565b604051809103902081526020019081526020016000208190555084848260008681526020019081526020016000206001019190611030929190611bc5565b508581600085815260200190815260200160002060020160006101000a81548173ffffffffffffffffffffffffffffffffffffffff021916908373ffffffffffffffffffffffffffffffffffffffff16021790555060018760008873ffffffffffffffffffffffffffffffffffffffff1673ffffffffffffffffffffffffffffffffffffffff16815260200190815260200160002060006101000a81548160ff0219169083151502179055508573ffffffffffffffffffffffffffffffffffffffff16837f2037719db34f16834a5a6a5ab0becf4fc514c4f4980b21ab7518afb4e47784f2878742604051611127939291906127d4565b60405180910390a350505050505050565b6000816000858560405161114d9291906125c0565b60405180910390208152602001908152602001600020541461119b576040517f3eab91b700000000000000000000000000000000000000000000000000000000815260040160405180910390fd5b505050565b60006111ab836117db565b6111ea576040517f08c379a00000000000000000000000000000000000000000000000000000000081526004016111e190612852565b60405180910390fd5b603c826111f79190612872565b8361120291906128cc565b905092915050565b60008261121785846117f9565b1490509392505050565b6000806000611230858561184f565b9150915061123d816118a1565b819250505092915050565b6000806000611257858561184f565b915091506000600481111561126f5761126e6125d9565b5b816004811115611282576112816125d9565b5b1480156112ba57508573ffffffffffffffffffffffffffffffffffffffff168273ffffffffffffffffffffffffffffffffffffffff16145b156112ca57600192505050611407565b6000808773ffffffffffffffffffffffffffffffffffffffff16631626ba7e60e01b88886040516024016112ff9291906129aa565b604051602081830303815290604052907bffffffffffffffffffffffffffffffffffffffffffffffffffffffff19166020820180517bffffffffffffffffffffffffffffffffffffffffffffffffffffffff83818316178352505050506040516113699190612a0b565b600060405180830381855afa9150503d80600081146113a4576040519150601f19603f3d011682016040523d82523d6000602084013e6113a9565b606091505b50915091508180156113bc575060208151145b80156114005750631626ba7e60e01b7bffffffffffffffffffffffffffffffffffffffffffffffffffffffff1916818060200190518101906113fe9190612a37565b145b9450505050505b9392505050565b600082828080601f016020809104026020016040519081016040528093929190818152602001838380828437600081840152601f19601f82011690508083019250505050505050905060008151148061146b5750601f60ff168151115b156114a2576040517f947d5a8400000000000000000000000000000000000000000000000000000000815260040160405180910390fd5b60008151905060005b818110156117d4577f30000000000000000000000000000000000000000000000000000000000000008382815181106114e7576114e6612a64565b5b602001015160f81c60f81b7effffffffffffffffffffffffffffffffffffffffffffffffffffffffffffff1916108061157e57507f7a0000000000000000000000000000000000000000000000000000000000000083828151811061154f5761154e612a64565b5b602001015160f81c60f81b7effffffffffffffffffffffffffffffffffffffffffffffffffffffffffffff1916115b8061165157507f39000000000000000000000000000000000000000000000000000000000000008382815181106115b8576115b7612a64565b5b602001015160f81c60f81b7effffffffffffffffffffffffffffffffffffffffffffffffffffffffffffff191611801561165057507f610000000000000000000000000000000000000000000000000000000000000083828151811061162157611620612a64565b5b602001015160f81c60f81b7effffffffffffffffffffffffffffffffffffffffffffffffffffffffffffff1916105b5b80156116bc57507f2e0000000000000000000000000000000000000000000000000000000000000083828151811061168c5761168b612a64565b5b602001015160f81c60f81b7effffffffffffffffffffffffffffffffffffffffffffffffffffffffffffff191614155b801561172757507f2d000000000000000000000000000000000000000000000000000000000000008382815181106116f7576116f6612a64565b5b602001015160f81c60f81b7effffffffffffffffffffffffffffffffffffffffffffffffffffffffffffff191614155b801561179257507f5f0000000000000000000000000000000000000000000000000000000000000083828151811061176257611761612a64565b5b602001015160f81c60f81b7effffffffffffffffffffffffffffffffffffffffffffffffffffffffffffff191614155b156117c9576040517f9c5e550b00000000000000000000000000000000000000000000000000000000815260040160405180910390fd5b8060010190506114ab565b5050505050565b600062015180620148266117ef9190612872565b8211159050919050565b60008082905060005b84518110156118445761182f8286838151811061182257611821612a64565b5b6020026020010151611a76565b9150808061183c90612538565b915050611802565b508091505092915050565b6000806041835114156118915760008060006020860151925060408601519150606086015160001a905061188587828585611aa1565b9450945050505061189a565b60006002915091505b9250929050565b600060048111156118b5576118b46125d9565b5b8160048111156118c8576118c76125d9565b5b14156118d357611a73565b600160048111156118e7576118e66125d9565b5b8160048111156118fa576118f96125d9565b5b141561193b576040517f08c379a000000000000000000000000000000000000000000000000000000000815260040161193290612adf565b60405180910390fd5b6002600481111561194f5761194e6125d9565b5b816004811115611962576119616125d9565b5b14156119a3576040517f08c379a000000000000000000000000000000000000000000000000000000000815260040161199a90612b4b565b60405180910390fd5b600360048111156119b7576119b66125d9565b5b8160048111156119ca576119c96125d9565b5b1415611a0b576040517f08c379a0000000000000000000000000000000000000000000000000000000008152600401611a0290612bdd565b60405180910390fd5b600480811115611a1e57611a1d6125d9565b5b816004811115611a3157611a306125d9565b5b1415611a72576040517f08c379a0000000000000000000000000000000000000000000000000000000008152600401611a6990612c6f565b60405180910390fd5b5b50565b6000818310611a8e57611a898284611bae565b611a99565b611a988383611bae565b5b905092915050565b6000807f7fffffffffffffffffffffffffffffff5d576e7357a4501ddfe92f46681b20a08360001c1115611adc576000600391509150611ba5565b601b8560ff1614158015611af45750601c8560ff1614155b15611b06576000600491509150611ba5565b600060018787878760405160008152602001604052604051611b2b9493929190612cab565b6020604051602081039080840390855afa158015611b4d573d6000803e3d6000fd5b505050602060405103519050600073ffffffffffffffffffffffffffffffffffffffff168173ffffffffffffffffffffffffffffffffffffffff161415611b9c57600060019250925050611ba5565b80600092509250505b94509492505050565b600082600052816020526040600020905092915050565b828054611bd190612d1f565b90600052602060002090601f016020900481019282611bf35760008555611c3a565b82601f10611c0c57803560ff1916838001178555611c3a565b82800160010185558215611c3a579182015b82811115611c39578235825591602001919060010190611c1e565b5b509050611c479190611c4b565b5090565b5b80821115611c64576000816000905550600101611c4c565b5090565b600080fd5b600080fd5b6000819050919050565b611c8581611c72565b8114611c9057600080fd5b50565b600081359050611ca281611c7c565b92915050565b600080fd5b600080fd5b600080fd5b60008083601f840112611ccd57611ccc611ca8565b5b8235905067ffffffffffffffff811115611cea57611ce9611cad565b5b602083019150836001820283011115611d0657611d05611cb2565b5b9250929050565b600073ffffffffffffffffffffffffffffffffffffffff82169050919050565b6000611d3882611d0d565b9050919050565b611d4881611d2d565b8114611d5357600080fd5b50565b600081359050611d6581611d3f565b92915050565b6000819050919050565b611d7e81611d6b565b8114611d8957600080fd5b50565b600081359050611d9b81611d75565b92915050565b6000819050919050565b611db481611da1565b8114611dbf57600080fd5b50565b600081359050611dd181611dab565b92915050565b6000819050919050565b611dea81611dd7565b8114611df557600080fd5b50565b600081359050611e0781611de1565b92915050565b60008060008060008060008060006101008a8c031215611e3057611e2f611c68565b5b6000611e3e8c828d01611c93565b9950506020611e4f8c828d01611c93565b98505060408a013567ffffffffffffffff811115611e7057611e6f611c6d565b5b611e7c8c828d01611cb7565b97509750506060611e8f8c828d01611c93565b9550506080611ea08c828d01611d56565b94505060a0611eb18c828d01611d8c565b93505060c0611ec28c828d01611dc2565b92505060e0611ed38c828d01611df8565b9150509295985092959850929598565b60008060008060008060a08789031215611f0057611eff611c68565b5b6000611f0e89828a01611c93565b9650506020611f1f89828a01611c93565b955050604087013567ffffffffffffffff811115611f4057611f3f611c6d565b5b611f4c89828a01611cb7565b94509450506060611f5f89828a01611d8c565b9250506080611f7089828a01611dc2565b9150509295509295509295565b6000819050919050565b611f9081611f7d565b8114611f9b57600080fd5b50565b600081359050611fad81611f87565b92915050565b60008083601f840112611fc957611fc8611ca8565b5b8235905067ffffffffffffffff811115611fe657611fe5611cad565b5b60208301915083602082028301111561200257612001611cb2565b5b9250929050565b6000819050919050565b61201c81612009565b811461202757600080fd5b50565b60008135905061203981612013565b92915050565b60008060008060008060008060c0898b03121561205f5761205e611c68565b5b600061206d8b828c01611f9e565b985050602061207e8b828c01611d56565b975050604089013567ffffffffffffffff81111561209f5761209e611c6d565b5b6120ab8b828c01611fb3565b9650965050606089013567ffffffffffffffff8111156120ce576120cd611c6d565b5b6120da8b828c01611cb7565b945094505060806120ed8b828c0161202a565b92505060a06120fe8b828c01611dc2565b9150509295985092959890939650565b60008115159050919050565b6121238161210e565b82525050565b600060208201905061213e600083018461211a565b92915050565b6000806000806000608086880312156121605761215f611c68565b5b600061216e88828901611c93565b955050602061217f88828901611c93565b945050604086013567ffffffffffffffff8111156121a05761219f611c6d565b5b6121ac88828901611cb7565b935093505060606121bf88828901611d8c565b9150509295509295909350565b600080604083850312156121e3576121e2611c68565b5b60006121f18582860161202a565b925050602061220285828601611dc2565b9150509250929050565b61221581611c72565b82525050565b6000602082019050612230600083018461220c565b92915050565b60008060006060848603121561224f5761224e611c68565b5b600061225d86828701611c93565b935050602061226e86828701611c93565b925050604061227f86828701611d8c565b9150509250925092565b60008083601f84011261229f5761229e611ca8565b5b8235905067ffffffffffffffff8111156122bc576122bb611cad565b5b6020830191508360018202830111156122d8576122d7611cb2565b5b9250929050565b6000806000806000608086880312156122fb576122fa611c68565b5b60006123098882890161202a565b955050602061231a88828901611d56565b945050604086013567ffffffffffffffff81111561233b5761233a611c6d565b5b61234788828901612289565b9350935050606061235a88828901611c93565b9150509295509295909350565b6123708161210e565b811461237b57600080fd5b50565b60008135905061238d81612367565b92915050565b600080600080608085870312156123ad576123ac611c68565b5b60006123bb87828801611c93565b94505060206123cc87828801611c93565b93505060406123dd8782880161237e565b92505060606123ee87828801611d8c565b91505092959194509250565b600080600080600080600060c0888a03121561241957612418611c68565b5b60006124278a828b01611f9e565b97505060206124388a828b01611d56565b965050604088013567ffffffffffffffff81111561245957612458611c6d565b5b6124658a828b01611cb7565b955095505060606124788a828b01611c93565b93505060806124898a828b01611dc2565b92505060a061249a8a828b01611df8565b91505092959891949750929550565b6000806000604084860312156124c2576124c1611c68565b5b600084013567ffffffffffffffff8111156124e0576124df611c6d565b5b6124ec86828701611cb7565b935093505060206124ff86828701611dc2565b9150509250925092565b7f4e487b7100000000000000000000000000000000000000000000000000000000600052601160045260246000fd5b600061254382611c72565b91507fffffffffffffffffffffffffffffffffffffffffffffffffffffffffffffffff82141561257657612575612509565b5b600182019050919050565b600081905092915050565b82818337600083830152505050565b60006125a78385612581565b93506125b483858461258c565b82840190509392505050565b60006125cd82848661259b565b91508190509392505050565b7f4e487b7100000000000000000000000000000000000000000000000000000000600052602160045260246000fd5b600082825260208201905092915050565b6000601f19601f8301169050919050565b60006126368385612608565b935061264383858461258c565b61264c83612619565b840190509392505050565b61266081611c72565b82525050565b6000606082019050818103600083015261268181868861262a565b90506126906020830185612657565b61269d6040830184612657565b95945050505050565b6126af81612009565b82525050565b60006040820190506126ca60008301856126a6565b6126d76020830184612657565b9392505050565b60008160601b9050919050565b60006126f6826126de565b9050919050565b6000612708826126eb565b9050919050565b61272061271b82611d2d565b6126fd565b82525050565b6000612732828461270f565b60148201915081905092915050565b61274a81611d2d565b82525050565b60006060820190506127656000830187612741565b818103602083015261277881858761262a565b90506127876040830184612657565b95945050505050565b60006020820190506127a56000830184612657565b92915050565b60006040820190506127c06000830185612741565b6127cd6020830184612657565b9392505050565b600060408201905081810360008301526127ef81858761262a565b90506127fe6020830184612657565b949350505050565b7f4e6f7420612076616c69642074696d657374616d700000000000000000000000600082015250565b600061283c601583612608565b915061284782612806565b602082019050919050565b6000602082019050818103600083015261286b8161282f565b9050919050565b600061287d82611c72565b915061288883611c72565b9250817fffffffffffffffffffffffffffffffffffffffffffffffffffffffffffffffff04831182151516156128c1576128c0612509565b5b828202905092915050565b60006128d782611c72565b91506128e283611c72565b9250827fffffffffffffffffffffffffffffffffffffffffffffffffffffffffffffffff0382111561291757612916612509565b5b828201905092915050565b600081519050919050565b600082825260208201905092915050565b60005b8381101561295c578082015181840152602081019050612941565b8381111561296b576000848401525b50505050565b600061297c82612922565b612986818561292d565b935061299681856020860161293e565b61299f81612619565b840191505092915050565b60006040820190506129bf60008301856126a6565b81810360208301526129d18184612971565b90509392505050565b60006129e582612922565b6129ef8185612581565b93506129ff81856020860161293e565b80840191505092915050565b6000612a1782846129da565b915081905092915050565b600081519050612a3181612013565b92915050565b600060208284031215612a4d57612a4c611c68565b5b6000612a5b84828501612a22565b91505092915050565b7f4e487b7100000000000000000000000000000000000000000000000000000000600052603260045260246000fd5b7f45434453413a20696e76616c6964207369676e61747572650000000000000000600082015250565b6000612ac9601883612608565b9150612ad482612a93565b602082019050919050565b60006020820190508181036000830152612af881612abc565b9050919050565b7f45434453413a20696e76616c6964207369676e6174757265206c656e67746800600082015250565b6000612b35601f83612608565b9150612b4082612aff565b602082019050919050565b60006020820190508181036000830152612b6481612b28565b9050919050565b7f45434453413a20696e76616c6964207369676e6174757265202773272076616c60008201527f7565000000000000000000000000000000000000000000000000000000000000602082015250565b6000612bc7602283612608565b9150612bd282612b6b565b604082019050919050565b60006020820190508181036000830152612bf681612bba565b9050919050565b7f45434453413a20696e76616c6964207369676e6174757265202776272076616c60008201527f7565000000000000000000000000000000000000000000000000000000000000602082015250565b6000612c59602283612608565b9150612c6482612bfd565b604082019050919050565b60006020820190508181036000830152612c8881612c4c565b9050919050565b600060ff82169050919050565b612ca581612c8f565b82525050565b6000608082019050612cc060008301876126a6565b612ccd6020830186612c9c565b612cda60408301856126a6565b612ce760608301846126a6565b95945050505050565b7f4e487b7100000000000000000000000000000000000000000000000000000000600052602260045260246000fd5b60006002820490506001821680612d3757607f821691505b60208210811415612d4b57612d4a612cf0565b5b5091905056fea26469706673582212203190973e6f23837e37990bf140fa6675e3477685cae0c2af1c06110b6d0b42ed64736f6c63430008090033",
  "devdoc": {
    "author": "Pomp Protocol",
    "kind": "dev",
    "methods": {},
    "title": "CoreLogic",
    "version": 1
  },
  "userdoc": {
    "kind": "user",
    "methods": {},
    "notice": "This is the library that contains the logic for profile creation & mission.",
    "version": 1
  },
  "storageLayout": {
    "storage": [],
    "types": null
  }
}