{
  "address": "0xafEC3b28bf567fb768B71586EA72541781Bd3c13",
  "abi": [
    {
      "inputs": [],
      "stateMutability": "nonpayable",
      "type": "constructor"
    },
    {
      "anonymous": false,
      "inputs": [
        {
          "indexed": true,
          "internalType": "address",
          "name": "owner",
          "type": "address"
        },
        {
          "indexed": true,
          "internalType": "address",
          "name": "approved",
          "type": "address"
        },
        {
          "indexed": true,
          "internalType": "uint256",
          "name": "tokenId",
          "type": "uint256"
        }
      ],
      "name": "Approval",
      "type": "event"
    },
    {
      "anonymous": false,
      "inputs": [
        {
          "indexed": true,
          "internalType": "address",
          "name": "owner",
          "type": "address"
        },
        {
          "indexed": true,
          "internalType": "address",
          "name": "operator",
          "type": "address"
        },
        {
          "indexed": false,
          "internalType": "bool",
          "name": "approved",
          "type": "bool"
        }
      ],
      "name": "ApprovalForAll",
      "type": "event"
    },
    {
      "anonymous": false,
      "inputs": [
        {
          "indexed": true,
          "internalType": "bytes32",
          "name": "role",
          "type": "bytes32"
        },
        {
          "indexed": true,
          "internalType": "bytes32",
          "name": "previousAdminRole",
          "type": "bytes32"
        },
        {
          "indexed": true,
          "internalType": "bytes32",
          "name": "newAdminRole",
          "type": "bytes32"
        }
      ],
      "name": "RoleAdminChanged",
      "type": "event"
    },
    {
      "anonymous": false,
      "inputs": [
        {
          "indexed": true,
          "internalType": "bytes32",
          "name": "role",
          "type": "bytes32"
        },
        {
          "indexed": true,
          "internalType": "address",
          "name": "account",
          "type": "address"
        },
        {
          "indexed": true,
          "internalType": "address",
          "name": "sender",
          "type": "address"
        }
      ],
      "name": "RoleGranted",
      "type": "event"
    },
    {
      "anonymous": false,
      "inputs": [
        {
          "indexed": true,
          "internalType": "bytes32",
          "name": "role",
          "type": "bytes32"
        },
        {
          "indexed": true,
          "internalType": "address",
          "name": "account",
          "type": "address"
        },
        {
          "indexed": true,
          "internalType": "address",
          "name": "sender",
          "type": "address"
        }
      ],
      "name": "RoleRevoked",
      "type": "event"
    },
    {
      "anonymous": false,
      "inputs": [
        {
          "indexed": true,
          "internalType": "address",
          "name": "from",
          "type": "address"
        },
        {
          "indexed": true,
          "internalType": "address",
          "name": "to",
          "type": "address"
        },
        {
          "indexed": true,
          "internalType": "uint256",
          "name": "tokenId",
          "type": "uint256"
        }
      ],
      "name": "Transfer",
      "type": "event"
    },
    {
      "inputs": [],
      "name": "DEFAULT_ADMIN_ROLE",
      "outputs": [
        {
          "internalType": "bytes32",
          "name": "",
          "type": "bytes32"
        }
      ],
      "stateMutability": "view",
      "type": "function"
    },
    {
      "inputs": [],
      "name": "MINTER_ROLE",
      "outputs": [
        {
          "internalType": "bytes32",
          "name": "",
          "type": "bytes32"
        }
      ],
      "stateMutability": "view",
      "type": "function"
    },
    {
      "inputs": [
        {
          "internalType": "address",
          "name": "to",
          "type": "address"
        },
        {
          "internalType": "uint256",
          "name": "tokenId",
          "type": "uint256"
        }
      ],
      "name": "approve",
      "outputs": [],
      "stateMutability": "nonpayable",
      "type": "function"
    },
    {
      "inputs": [
        {
          "internalType": "address",
          "name": "owner",
          "type": "address"
        }
      ],
      "name": "balanceOf",
      "outputs": [
        {
          "internalType": "uint256",
          "name": "",
          "type": "uint256"
        }
      ],
      "stateMutability": "view",
      "type": "function"
    },
    {
      "inputs": [
        {
          "internalType": "uint256",
          "name": "tokenId",
          "type": "uint256"
        }
      ],
      "name": "burn",
      "outputs": [],
      "stateMutability": "nonpayable",
      "type": "function"
    },
    {
      "inputs": [
        {
          "internalType": "uint256",
          "name": "tokenId",
          "type": "uint256"
        }
      ],
      "name": "getApproved",
      "outputs": [
        {
          "internalType": "address",
          "name": "",
          "type": "address"
        }
      ],
      "stateMutability": "view",
      "type": "function"
    },
    {
      "inputs": [
        {
          "internalType": "bytes32",
          "name": "role",
          "type": "bytes32"
        }
      ],
      "name": "getRoleAdmin",
      "outputs": [
        {
          "internalType": "bytes32",
          "name": "",
          "type": "bytes32"
        }
      ],
      "stateMutability": "view",
      "type": "function"
    },
    {
      "inputs": [
        {
          "internalType": "bytes32",
          "name": "role",
          "type": "bytes32"
        },
        {
          "internalType": "address",
          "name": "account",
          "type": "address"
        }
      ],
      "name": "grantRole",
      "outputs": [],
      "stateMutability": "nonpayable",
      "type": "function"
    },
    {
      "inputs": [
        {
          "internalType": "bytes32",
          "name": "role",
          "type": "bytes32"
        },
        {
          "internalType": "address",
          "name": "account",
          "type": "address"
        }
      ],
      "name": "hasRole",
      "outputs": [
        {
          "internalType": "bool",
          "name": "",
          "type": "bool"
        }
      ],
      "stateMutability": "view",
      "type": "function"
    },
    {
      "inputs": [
        {
          "internalType": "address",
          "name": "owner",
          "type": "address"
        },
        {
          "internalType": "address",
          "name": "operator",
          "type": "address"
        }
      ],
      "name": "isApprovedForAll",
      "outputs": [
        {
          "internalType": "bool",
          "name": "",
          "type": "bool"
        }
      ],
      "stateMutability": "view",
      "type": "function"
    },
    {
      "inputs": [],
      "name": "name",
      "outputs": [
        {
          "internalType": "string",
          "name": "",
          "type": "string"
        }
      ],
      "stateMutability": "view",
      "type": "function"
    },
    {
      "inputs": [
        {
          "internalType": "address",
          "name": "from",
          "type": "address"
        },
        {
          "internalType": "address[]",
          "name": "toAddresses",
          "type": "address[]"
        },
        {
          "internalType": "uint256[]",
          "name": "tokenIds",
          "type": "uint256[]"
        }
      ],
      "name": "oneToManyTransfer",
      "outputs": [],
      "stateMutability": "nonpayable",
      "type": "function"
    },
    {
      "inputs": [
        {
          "internalType": "uint256",
          "name": "tokenId",
          "type": "uint256"
        }
      ],
      "name": "ownerOf",
      "outputs": [
        {
          "internalType": "address",
          "name": "",
          "type": "address"
        }
      ],
      "stateMutability": "view",
      "type": "function"
    },
    {
      "inputs": [
        {
          "internalType": "bytes32",
          "name": "role",
          "type": "bytes32"
        },
        {
          "internalType": "address",
          "name": "account",
          "type": "address"
        }
      ],
      "name": "renounceRole",
      "outputs": [],
      "stateMutability": "nonpayable",
      "type": "function"
    },
    {
      "inputs": [
        {
          "internalType": "bytes32",
          "name": "role",
          "type": "bytes32"
        },
        {
          "internalType": "address",
          "name": "account",
          "type": "address"
        }
      ],
      "name": "revokeRole",
      "outputs": [],
      "stateMutability": "nonpayable",
      "type": "function"
    },
    {
      "inputs": [
        {
          "internalType": "uint256",
          "name": "_tokenId",
          "type": "uint256"
        },
        {
          "internalType": "uint256",
          "name": "_salePrice",
          "type": "uint256"
        }
      ],
      "name": "royaltyInfo",
      "outputs": [
        {
          "internalType": "address",
          "name": "",
          "type": "address"
        },
        {
          "internalType": "uint256",
          "name": "",
          "type": "uint256"
        }
      ],
      "stateMutability": "view",
      "type": "function"
    },
    {
      "inputs": [
        {
          "internalType": "address",
          "name": "to",
          "type": "address"
        },
        {
          "internalType": "string",
          "name": "uri",
          "type": "string"
        },
        {
          "internalType": "address",
          "name": "royaltyRecipient",
          "type": "address"
        },
        {
          "internalType": "uint96",
          "name": "royaltyValue",
          "type": "uint96"
        }
      ],
      "name": "safeMint",
      "outputs": [
        {
          "internalType": "uint256",
          "name": "",
          "type": "uint256"
        }
      ],
      "stateMutability": "nonpayable",
      "type": "function"
    },
    {
      "inputs": [
        {
          "internalType": "address",
          "name": "from",
          "type": "address"
        },
        {
          "internalType": "address",
          "name": "to",
          "type": "address"
        },
        {
          "internalType": "uint256",
          "name": "tokenId",
          "type": "uint256"
        }
      ],
      "name": "safeTransferFrom",
      "outputs": [],
      "stateMutability": "nonpayable",
      "type": "function"
    },
    {
      "inputs": [
        {
          "internalType": "address",
          "name": "from",
          "type": "address"
        },
        {
          "internalType": "address",
          "name": "to",
          "type": "address"
        },
        {
          "internalType": "uint256",
          "name": "tokenId",
          "type": "uint256"
        },
        {
          "internalType": "bytes",
          "name": "data",
          "type": "bytes"
        }
      ],
      "name": "safeTransferFrom",
      "outputs": [],
      "stateMutability": "nonpayable",
      "type": "function"
    },
    {
      "inputs": [
        {
          "internalType": "address",
          "name": "operator",
          "type": "address"
        },
        {
          "internalType": "bool",
          "name": "approved",
          "type": "bool"
        }
      ],
      "name": "setApprovalForAll",
      "outputs": [],
      "stateMutability": "nonpayable",
      "type": "function"
    },
    {
      "inputs": [
        {
          "internalType": "bytes4",
          "name": "interfaceId",
          "type": "bytes4"
        }
      ],
      "name": "supportsInterface",
      "outputs": [
        {
          "internalType": "bool",
          "name": "",
          "type": "bool"
        }
      ],
      "stateMutability": "view",
      "type": "function"
    },
    {
      "inputs": [],
      "name": "symbol",
      "outputs": [
        {
          "internalType": "string",
          "name": "",
          "type": "string"
        }
      ],
      "stateMutability": "view",
      "type": "function"
    },
    {
      "inputs": [
        {
          "internalType": "uint256",
          "name": "index",
          "type": "uint256"
        }
      ],
      "name": "tokenByIndex",
      "outputs": [
        {
          "internalType": "uint256",
          "name": "",
          "type": "uint256"
        }
      ],
      "stateMutability": "view",
      "type": "function"
    },
    {
      "inputs": [
        {
          "internalType": "address",
          "name": "owner",
          "type": "address"
        },
        {
          "internalType": "uint256",
          "name": "index",
          "type": "uint256"
        }
      ],
      "name": "tokenOfOwnerByIndex",
      "outputs": [
        {
          "internalType": "uint256",
          "name": "",
          "type": "uint256"
        }
      ],
      "stateMutability": "view",
      "type": "function"
    },
    {
      "inputs": [
        {
          "internalType": "uint256",
          "name": "tokenId",
          "type": "uint256"
        }
      ],
      "name": "tokenURI",
      "outputs": [
        {
          "internalType": "string",
          "name": "",
          "type": "string"
        }
      ],
      "stateMutability": "view",
      "type": "function"
    },
    {
      "inputs": [],
      "name": "totalSupply",
      "outputs": [
        {
          "internalType": "uint256",
          "name": "",
          "type": "uint256"
        }
      ],
      "stateMutability": "view",
      "type": "function"
    },
    {
      "inputs": [
        {
          "internalType": "address",
          "name": "from",
          "type": "address"
        },
        {
          "internalType": "address",
          "name": "to",
          "type": "address"
        },
        {
          "internalType": "uint256",
          "name": "tokenId",
          "type": "uint256"
        }
      ],
      "name": "transferFrom",
      "outputs": [],
      "stateMutability": "nonpayable",
      "type": "function"
    }
  ],
  "transactionHash": "0xe3752f26d41909e96719b4f23dffb63b6b85dd6c638cd22f7534fc5c338a51bd",
  "args": [],
  "numDeployments": 2,
  "solcInputHash": "19a55be13ab4e1ab7cf918ba5e992c21",
  "bytecode": "0x6101406040523480156200001257600080fd5b506040518060400160405280600a81526020017f4d697373696f6e4e4654000000000000000000000000000000000000000000008152506040518060400160405280600181526020017f31000000000000000000000000000000000000000000000000000000000000008152506040518060400160405280600a81526020017f4d697373696f6e4e4654000000000000000000000000000000000000000000008152506040518060400160405280600481526020017f4d49535300000000000000000000000000000000000000000000000000000000815250816000908051906020019062000103929190620003ec565b5080600190805190602001906200011c929190620003ec565b50505060008280519060200120905060008280519060200120905060007f8b73c3c69bb8fe3d512ecc4cf759cc79239f7b179b0ffacaa9a75d522b39400f90508260e081815250508161010081815250504660a08181525050620001888184846200023560201b60201c565b608081815250503073ffffffffffffffffffffffffffffffffffffffff1660c08173ffffffffffffffffffffffffffffffffffffffff16815250508061012081815250505050505050620001e66000801b336200027160201b60201c565b620002187f9f2df0fed2c77648de5860a4cc508cd0818c85b8b8a1ab4ceeef8d981c8956a6336200027160201b60201c565b6200022f600e6200036360201b620011431760201c565b620005d9565b600083838346306040516020016200025295949392919062000517565b6040516020818303038152906040528051906020012090509392505050565b6200028382826200037960201b60201c565b6200035f576001600d600084815260200190815260200160002060000160008373ffffffffffffffffffffffffffffffffffffffff1673ffffffffffffffffffffffffffffffffffffffff16815260200190815260200160002060006101000a81548160ff02191690831515021790555062000304620003e460201b60201c565b73ffffffffffffffffffffffffffffffffffffffff168173ffffffffffffffffffffffffffffffffffffffff16837f2f8788117e7eff1d82e926ec794901d17c78024a50270940304540a733656f0d60405160405180910390a45b5050565b6001816000016000828254019250508190555050565b6000600d600084815260200190815260200160002060000160008373ffffffffffffffffffffffffffffffffffffffff1673ffffffffffffffffffffffffffffffffffffffff16815260200190815260200160002060009054906101000a900460ff16905092915050565b600033905090565b828054620003fa90620005a3565b90600052602060002090601f0160209004810192826200041e57600085556200046a565b82601f106200043957805160ff19168380011785556200046a565b828001600101855582156200046a579182015b82811115620004695782518255916020019190600101906200044c565b5b5090506200047991906200047d565b5090565b5b80821115620004985760008160009055506001016200047e565b5090565b6000819050919050565b620004b1816200049c565b82525050565b6000819050919050565b620004cc81620004b7565b82525050565b600073ffffffffffffffffffffffffffffffffffffffff82169050919050565b6000620004ff82620004d2565b9050919050565b6200051181620004f2565b82525050565b600060a0820190506200052e6000830188620004a6565b6200053d6020830187620004a6565b6200054c6040830186620004a6565b6200055b6060830185620004c1565b6200056a608083018462000506565b9695505050505050565b7f4e487b7100000000000000000000000000000000000000000000000000000000600052602260045260246000fd5b60006002820490506001821680620005bc57607f821691505b60208210811415620005d357620005d262000574565b5b50919050565b60805160a05160c05160e0516101005161012051614837620006176000396000505060005050600050506000505060005050600050506148376000f3fe608060405234801561001057600080fd5b50600436106101a95760003560e01c80634f6ccce7116100f9578063a22cb46511610097578063c87b56dd11610071578063c87b56dd14610503578063d539139314610533578063d547741f14610551578063e985e9c51461056d576101a9565b8063a22cb465146104af578063b88d4fde146104cb578063c182178e146104e7576101a9565b806370a08231116100d357806370a082311461041357806391d148541461044357806395d89b4114610473578063a217fddf14610491576101a9565b80634f6ccce7146103835780635ff97ebf146103b35780636352211e146103e3576101a9565b8063248a9ca3116101665780632f745c59116101405780632f745c59146102ff57806336568abe1461032f57806342842e0e1461034b57806342966c6814610367576101a9565b8063248a9ca3146102825780632a55205a146102b25780632f2ff15d146102e3576101a9565b806301ffc9a7146101ae57806306fdde03146101de578063081812fc146101fc578063095ea7b31461022c57806318160ddd1461024857806323b872dd14610266575b600080fd5b6101c860048036038101906101c39190612fab565b61059d565b6040516101d59190612ff3565b60405180910390f35b6101e66105af565b6040516101f391906130a7565b60405180910390f35b610216600480360381019061021191906130ff565b610641565b604051610223919061316d565b60405180910390f35b610246600480360381019061024191906131b4565b610687565b005b61025061079f565b60405161025d9190613203565b60405180910390f35b610280600480360381019061027b919061321e565b6107ac565b005b61029c600480360381019061029791906132a7565b61080c565b6040516102a991906132e3565b60405180910390f35b6102cc60048036038101906102c791906132fe565b61082c565b6040516102da92919061333e565b60405180910390f35b6102fd60048036038101906102f89190613367565b610a17565b005b610319600480360381019061031491906131b4565b610a38565b6040516103269190613203565b60405180910390f35b61034960048036038101906103449190613367565b610add565b005b6103656004803603810190610360919061321e565b610b60565b005b610381600480360381019061037c91906130ff565b610b80565b005b61039d600480360381019061039891906130ff565b610bdc565b6040516103aa9190613203565b60405180910390f35b6103cd60048036038101906103c89190613520565b610c4d565b6040516103da9190613203565b60405180910390f35b6103fd60048036038101906103f891906130ff565b610cd5565b60405161040a919061316d565b60405180910390f35b61042d600480360381019061042891906135a3565b610d87565b60405161043a9190613203565b60405180910390f35b61045d60048036038101906104589190613367565b610e3f565b60405161046a9190612ff3565b60405180910390f35b61047b610eaa565b60405161048891906130a7565b60405180910390f35b610499610f3c565b6040516104a691906132e3565b60405180910390f35b6104c960048036038101906104c491906135fc565b610f43565b005b6104e560048036038101906104e091906136dd565b610f59565b005b61050160048036038101906104fc91906138eb565b610fbb565b005b61051d600480360381019061051891906130ff565b611058565b60405161052a91906130a7565b60405180910390f35b61053b61106a565b60405161054891906132e3565b60405180910390f35b61056b60048036038101906105669190613367565b61108e565b005b61058760048036038101906105829190613976565b6110af565b6040516105949190612ff3565b60405180910390f35b60006105a882611159565b9050919050565b6060600080546105be906139e5565b80601f01602080910402602001604051908101604052809291908181526020018280546105ea906139e5565b80156106375780601f1061060c57610100808354040283529160200191610637565b820191906000526020600020905b81548152906001019060200180831161061a57829003601f168201915b5050505050905090565b600061064c826111d3565b6004600083815260200190815260200160002060009054906101000a900473ffffffffffffffffffffffffffffffffffffffff169050919050565b600061069282610cd5565b90508073ffffffffffffffffffffffffffffffffffffffff168373ffffffffffffffffffffffffffffffffffffffff161415610703576040517f08c379a00000000000000000000000000000000000000000000000000000000081526004016106fa90613a89565b60405180910390fd5b8073ffffffffffffffffffffffffffffffffffffffff1661072261121e565b73ffffffffffffffffffffffffffffffffffffffff16148061075157506107508161074b61121e565b6110af565b5b610790576040517f08c379a000000000000000000000000000000000000000000000000000000000815260040161078790613b1b565b60405180910390fd5b61079a8383611226565b505050565b6000600b80549050905090565b6107bd6107b761121e565b826112df565b6107fc576040517f08c379a00000000000000000000000000000000000000000000000000000000081526004016107f390613bad565b60405180910390fd5b610807838383611374565b505050565b6000600d6000838152602001908152602001600020600101549050919050565b6000806000600760008681526020019081526020016000206040518060400160405290816000820160009054906101000a900473ffffffffffffffffffffffffffffffffffffffff1673ffffffffffffffffffffffffffffffffffffffff1673ffffffffffffffffffffffffffffffffffffffff1681526020016000820160149054906101000a90046bffffffffffffffffffffffff166bffffffffffffffffffffffff166bffffffffffffffffffffffff16815250509050600073ffffffffffffffffffffffffffffffffffffffff16816000015173ffffffffffffffffffffffffffffffffffffffff1614156109c25760066040518060400160405290816000820160009054906101000a900473ffffffffffffffffffffffffffffffffffffffff1673ffffffffffffffffffffffffffffffffffffffff1673ffffffffffffffffffffffffffffffffffffffff1681526020016000820160149054906101000a90046bffffffffffffffffffffffff166bffffffffffffffffffffffff166bffffffffffffffffffffffff168152505090505b60006109cc6115db565b6bffffffffffffffffffffffff1682602001516bffffffffffffffffffffffff16866109f89190613bfc565b610a029190613c85565b90508160000151819350935050509250929050565b610a208261080c565b610a29816115e5565b610a3383836115f9565b505050565b6000610a4383610d87565b8210610a84576040517f08c379a0000000000000000000000000000000000000000000000000000000008152600401610a7b90613d28565b60405180910390fd5b600960008473ffffffffffffffffffffffffffffffffffffffff1673ffffffffffffffffffffffffffffffffffffffff168152602001908152602001600020600083815260200190815260200160002054905092915050565b610ae561121e565b73ffffffffffffffffffffffffffffffffffffffff168173ffffffffffffffffffffffffffffffffffffffff1614610b52576040517f08c379a0000000000000000000000000000000000000000000000000000000008152600401610b4990613dba565b60405180910390fd5b610b5c82826116da565b5050565b610b7b83838360405180602001604052806000815250610f59565b505050565b610b91610b8b61121e565b826112df565b610bd0576040517f08c379a0000000000000000000000000000000000000000000000000000000008152600401610bc790613bad565b60405180910390fd5b610bd9816117bc565b50565b6000610be661079f565b8210610c27576040517f08c379a0000000000000000000000000000000000000000000000000000000008152600401610c1e90613e4c565b60405180910390fd5b600b8281548110610c3b57610c3a613e6c565b5b90600052602060002001549050919050565b60007f9f2df0fed2c77648de5860a4cc508cd0818c85b8b8a1ab4ceeef8d981c8956a6610c79816115e5565b6000610c85600e6117d1565b9050610c91600e611143565b610c9b87826117df565b610ca581876117fd565b6000846bffffffffffffffffffffffff161115610cc857610cc7818686611871565b5b8092505050949350505050565b6000806002600084815260200190815260200160002060009054906101000a900473ffffffffffffffffffffffffffffffffffffffff169050600073ffffffffffffffffffffffffffffffffffffffff168173ffffffffffffffffffffffffffffffffffffffff161415610d7e576040517f08c379a0000000000000000000000000000000000000000000000000000000008152600401610d7590613ee7565b60405180910390fd5b80915050919050565b60008073ffffffffffffffffffffffffffffffffffffffff168273ffffffffffffffffffffffffffffffffffffffff161415610df8576040517f08c379a0000000000000000000000000000000000000000000000000000000008152600401610def90613f79565b60405180910390fd5b600360008373ffffffffffffffffffffffffffffffffffffffff1673ffffffffffffffffffffffffffffffffffffffff168152602001908152602001600020549050919050565b6000600d600084815260200190815260200160002060000160008373ffffffffffffffffffffffffffffffffffffffff1673ffffffffffffffffffffffffffffffffffffffff16815260200190815260200160002060009054906101000a900460ff16905092915050565b606060018054610eb9906139e5565b80601f0160208091040260200160405190810160405280929190818152602001828054610ee5906139e5565b8015610f325780601f10610f0757610100808354040283529160200191610f32565b820191906000526020600020905b815481529060010190602001808311610f1557829003601f168201915b5050505050905090565b6000801b81565b610f55610f4e61121e565b8383611a19565b5050565b610f6a610f6461121e565b836112df565b610fa9576040517f08c379a0000000000000000000000000000000000000000000000000000000008152600401610fa090613bad565b60405180910390fd5b610fb584848484611b86565b50505050565b7f9f2df0fed2c77648de5860a4cc508cd0818c85b8b8a1ab4ceeef8d981c8956a6610fe5816115e5565b60005b8351811015611051576110408585838151811061100857611007613e6c565b5b602002602001015185848151811061102357611022613e6c565b5b602002602001015160405180602001604052806000815250611b86565b8061104a90613f99565b9050610fe8565b5050505050565b606061106382611be2565b9050919050565b7f9f2df0fed2c77648de5860a4cc508cd0818c85b8b8a1ab4ceeef8d981c8956a681565b6110978261080c565b6110a0816115e5565b6110aa83836116da565b505050565b6000600560008473ffffffffffffffffffffffffffffffffffffffff1673ffffffffffffffffffffffffffffffffffffffff16815260200190815260200160002060008373ffffffffffffffffffffffffffffffffffffffff1673ffffffffffffffffffffffffffffffffffffffff16815260200190815260200160002060009054906101000a900460ff16905092915050565b6001816000016000828254019250508190555050565b60007f7965db0b000000000000000000000000000000000000000000000000000000007bffffffffffffffffffffffffffffffffffffffffffffffffffffffff1916827bffffffffffffffffffffffffffffffffffffffffffffffffffffffff191614806111cc57506111cb82611cf5565b5b9050919050565b6111dc81611d6f565b61121b576040517f08c379a000000000000000000000000000000000000000000000000000000000815260040161121290613ee7565b60405180910390fd5b50565b600033905090565b816004600083815260200190815260200160002060006101000a81548173ffffffffffffffffffffffffffffffffffffffff021916908373ffffffffffffffffffffffffffffffffffffffff160217905550808273ffffffffffffffffffffffffffffffffffffffff1661129983610cd5565b73ffffffffffffffffffffffffffffffffffffffff167f8c5be1e5ebec7d5bd14f71427d1e84f3dd0314c0f7b2291e5b200ac8c7c3b92560405160405180910390a45050565b6000806112eb83610cd5565b90508073ffffffffffffffffffffffffffffffffffffffff168473ffffffffffffffffffffffffffffffffffffffff16148061132d575061132c81856110af565b5b8061136b57508373ffffffffffffffffffffffffffffffffffffffff1661135384610641565b73ffffffffffffffffffffffffffffffffffffffff16145b91505092915050565b8273ffffffffffffffffffffffffffffffffffffffff1661139482610cd5565b73ffffffffffffffffffffffffffffffffffffffff16146113ea576040517f08c379a00000000000000000000000000000000000000000000000000000000081526004016113e190614054565b60405180910390fd5b600073ffffffffffffffffffffffffffffffffffffffff168273ffffffffffffffffffffffffffffffffffffffff16141561145a576040517f08c379a0000000000000000000000000000000000000000000000000000000008152600401611451906140e6565b60405180910390fd5b611465838383611ddb565b611470600082611226565b6001600360008573ffffffffffffffffffffffffffffffffffffffff1673ffffffffffffffffffffffffffffffffffffffff16815260200190815260200160002060008282546114c09190614106565b925050819055506001600360008473ffffffffffffffffffffffffffffffffffffffff1673ffffffffffffffffffffffffffffffffffffffff1681526020019081526020016000206000828254611517919061413a565b92505081905550816002600083815260200190815260200160002060006101000a81548173ffffffffffffffffffffffffffffffffffffffff021916908373ffffffffffffffffffffffffffffffffffffffff160217905550808273ffffffffffffffffffffffffffffffffffffffff168473ffffffffffffffffffffffffffffffffffffffff167fddf252ad1be2c89b69c2b068fc378daa952ba7f163c4a11628f55a4df523b3ef60405160405180910390a46115d6838383611deb565b505050565b6000612710905090565b6115f6816115f161121e565b611dfb565b50565b6116038282610e3f565b6116d6576001600d600084815260200190815260200160002060000160008373ffffffffffffffffffffffffffffffffffffffff1673ffffffffffffffffffffffffffffffffffffffff16815260200190815260200160002060006101000a81548160ff02191690831515021790555061167b61121e565b73ffffffffffffffffffffffffffffffffffffffff168173ffffffffffffffffffffffffffffffffffffffff16837f2f8788117e7eff1d82e926ec794901d17c78024a50270940304540a733656f0d60405160405180910390a45b5050565b6116e48282610e3f565b156117b8576000600d600084815260200190815260200160002060000160008373ffffffffffffffffffffffffffffffffffffffff1673ffffffffffffffffffffffffffffffffffffffff16815260200190815260200160002060006101000a81548160ff02191690831515021790555061175d61121e565b73ffffffffffffffffffffffffffffffffffffffff168173ffffffffffffffffffffffffffffffffffffffff16837ff6391f5c32d9c69d2a47ea670b442974b53935d1edc7fd64eb21e047a839171b60405160405180910390a45b5050565b6117c581611e98565b6117ce81611eeb565b50565b600081600001549050919050565b6117f9828260405180602001604052806000815250611f4a565b5050565b61180682611d6f565b611845576040517f08c379a000000000000000000000000000000000000000000000000000000000815260040161183c90614202565b60405180910390fd5b8060086000848152602001908152602001600020908051906020019061186c929190612e5c565b505050565b6118796115db565b6bffffffffffffffffffffffff16816bffffffffffffffffffffffff1611156118d7576040517f08c379a00000000000000000000000000000000000000000000000000000000081526004016118ce90614294565b60405180910390fd5b600073ffffffffffffffffffffffffffffffffffffffff168273ffffffffffffffffffffffffffffffffffffffff161415611947576040517f08c379a000000000000000000000000000000000000000000000000000000000815260040161193e90614300565b60405180910390fd5b60405180604001604052808373ffffffffffffffffffffffffffffffffffffffff168152602001826bffffffffffffffffffffffff168152506007600085815260200190815260200160002060008201518160000160006101000a81548173ffffffffffffffffffffffffffffffffffffffff021916908373ffffffffffffffffffffffffffffffffffffffff16021790555060208201518160000160146101000a8154816bffffffffffffffffffffffff02191690836bffffffffffffffffffffffff160217905550905050505050565b8173ffffffffffffffffffffffffffffffffffffffff168373ffffffffffffffffffffffffffffffffffffffff161415611a88576040517f08c379a0000000000000000000000000000000000000000000000000000000008152600401611a7f9061436c565b60405180910390fd5b80600560008573ffffffffffffffffffffffffffffffffffffffff1673ffffffffffffffffffffffffffffffffffffffff16815260200190815260200160002060008473ffffffffffffffffffffffffffffffffffffffff1673ffffffffffffffffffffffffffffffffffffffff16815260200190815260200160002060006101000a81548160ff0219169083151502179055508173ffffffffffffffffffffffffffffffffffffffff168373ffffffffffffffffffffffffffffffffffffffff167f17307eab39ab6107e8899845ad3d59bd9653f200f220920489ca2b5937696c3183604051611b799190612ff3565b60405180910390a3505050565b611b91848484611374565b611b9d84848484611fa5565b611bdc576040517f08c379a0000000000000000000000000000000000000000000000000000000008152600401611bd3906143fe565b60405180910390fd5b50505050565b6060611bed826111d3565b6000600860008481526020019081526020016000208054611c0d906139e5565b80601f0160208091040260200160405190810160405280929190818152602001828054611c39906139e5565b8015611c865780601f10611c5b57610100808354040283529160200191611c86565b820191906000526020600020905b815481529060010190602001808311611c6957829003601f168201915b505050505090506000611c9761213c565b9050600081511415611cad578192505050611cf0565b600082511115611ce2578082604051602001611cca92919061445a565b60405160208183030381529060405292505050611cf0565b611ceb84612153565b925050505b919050565b60007f780e9d63000000000000000000000000000000000000000000000000000000007bffffffffffffffffffffffffffffffffffffffffffffffffffffffff1916827bffffffffffffffffffffffffffffffffffffffffffffffffffffffff19161480611d685750611d67826121bb565b5b9050919050565b60008073ffffffffffffffffffffffffffffffffffffffff166002600084815260200190815260200160002060009054906101000a900473ffffffffffffffffffffffffffffffffffffffff1673ffffffffffffffffffffffffffffffffffffffff1614159050919050565b611de6838383612235565b505050565b611df6838383612349565b505050565b611e058282610e3f565b611e9457611e2a8173ffffffffffffffffffffffffffffffffffffffff16601461234e565b611e388360001c602061234e565b604051602001611e49929190614516565b6040516020818303038152906040526040517f08c379a0000000000000000000000000000000000000000000000000000000008152600401611e8b91906130a7565b60405180910390fd5b5050565b611ea18161258a565b6000600860008381526020019081526020016000208054611ec1906139e5565b905014611ee857600860008281526020019081526020016000206000611ee79190612ee2565b5b50565b60076000828152602001908152602001600020600080820160006101000a81549073ffffffffffffffffffffffffffffffffffffffff02191690556000820160146101000a8154906bffffffffffffffffffffffff0219169055505050565b611f5483836126a7565b611f616000848484611fa5565b611fa0576040517f08c379a0000000000000000000000000000000000000000000000000000000008152600401611f97906143fe565b60405180910390fd5b505050565b6000611fc68473ffffffffffffffffffffffffffffffffffffffff16612881565b1561212f578373ffffffffffffffffffffffffffffffffffffffff1663150b7a02611fef61121e565b8786866040518563ffffffff1660e01b815260040161201194939291906145a5565b602060405180830381600087803b15801561202b57600080fd5b505af192505050801561205c57506040513d601f19601f820116820180604052508101906120599190614606565b60015b6120df573d806000811461208c576040519150601f19603f3d011682016040523d82523d6000602084013e612091565b606091505b506000815114156120d7576040517f08c379a00000000000000000000000000000000000000000000000000000000081526004016120ce906143fe565b60405180910390fd5b805181602001fd5b63150b7a0260e01b7bffffffffffffffffffffffffffffffffffffffffffffffffffffffff1916817bffffffffffffffffffffffffffffffffffffffffffffffffffffffff191614915050612134565b600190505b949350505050565b606060405180602001604052806000815250905090565b606061215e826111d3565b600061216861213c565b9050600081511161218857604051806020016040528060008152506121b3565b80612192846128a4565b6040516020016121a392919061445a565b6040516020818303038152906040525b915050919050565b60007f2a55205a000000000000000000000000000000000000000000000000000000007bffffffffffffffffffffffffffffffffffffffffffffffffffffffff1916827bffffffffffffffffffffffffffffffffffffffffffffffffffffffff1916148061222e575061222d82612a05565b5b9050919050565b612240838383612ae7565b600073ffffffffffffffffffffffffffffffffffffffff168373ffffffffffffffffffffffffffffffffffffffff1614156122835761227e81612aec565b6122c2565b8173ffffffffffffffffffffffffffffffffffffffff168373ffffffffffffffffffffffffffffffffffffffff16146122c1576122c08382612b35565b5b5b600073ffffffffffffffffffffffffffffffffffffffff168273ffffffffffffffffffffffffffffffffffffffff1614156123055761230081612ca2565b612344565b8273ffffffffffffffffffffffffffffffffffffffff168273ffffffffffffffffffffffffffffffffffffffff1614612343576123428282612d73565b5b5b505050565b505050565b6060600060028360026123619190613bfc565b61236b919061413a565b67ffffffffffffffff811115612384576123836133b1565b5b6040519080825280601f01601f1916602001820160405280156123b65781602001600182028036833780820191505090505b5090507f3000000000000000000000000000000000000000000000000000000000000000816000815181106123ee576123ed613e6c565b5b60200101907effffffffffffffffffffffffffffffffffffffffffffffffffffffffffffff1916908160001a9053507f78000000000000000000000000000000000000000000000000000000000000008160018151811061245257612451613e6c565b5b60200101907effffffffffffffffffffffffffffffffffffffffffffffffffffffffffffff1916908160001a905350600060018460026124929190613bfc565b61249c919061413a565b90505b600181111561253c577f3031323334353637383961626364656600000000000000000000000000000000600f8616601081106124de576124dd613e6c565b5b1a60f81b8282815181106124f5576124f4613e6c565b5b60200101907effffffffffffffffffffffffffffffffffffffffffffffffffffffffffffff1916908160001a905350600485901c94508061253590614633565b905061249f565b5060008414612580576040517f08c379a0000000000000000000000000000000000000000000000000000000008152600401612577906146a9565b60405180910390fd5b8091505092915050565b600061259582610cd5565b90506125a381600084611ddb565b6125ae600083611226565b6001600360008373ffffffffffffffffffffffffffffffffffffffff1673ffffffffffffffffffffffffffffffffffffffff16815260200190815260200160002060008282546125fe9190614106565b925050819055506002600083815260200190815260200160002060006101000a81549073ffffffffffffffffffffffffffffffffffffffff021916905581600073ffffffffffffffffffffffffffffffffffffffff168273ffffffffffffffffffffffffffffffffffffffff167fddf252ad1be2c89b69c2b068fc378daa952ba7f163c4a11628f55a4df523b3ef60405160405180910390a46126a381600084611deb565b5050565b600073ffffffffffffffffffffffffffffffffffffffff168273ffffffffffffffffffffffffffffffffffffffff161415612717576040517f08c379a000000000000000000000000000000000000000000000000000000000815260040161270e90614715565b60405180910390fd5b61272081611d6f565b15612760576040517f08c379a000000000000000000000000000000000000000000000000000000000815260040161275790614781565b60405180910390fd5b61276c60008383611ddb565b6001600360008473ffffffffffffffffffffffffffffffffffffffff1673ffffffffffffffffffffffffffffffffffffffff16815260200190815260200160002060008282546127bc919061413a565b92505081905550816002600083815260200190815260200160002060006101000a81548173ffffffffffffffffffffffffffffffffffffffff021916908373ffffffffffffffffffffffffffffffffffffffff160217905550808273ffffffffffffffffffffffffffffffffffffffff16600073ffffffffffffffffffffffffffffffffffffffff167fddf252ad1be2c89b69c2b068fc378daa952ba7f163c4a11628f55a4df523b3ef60405160405180910390a461287d60008383611deb565b5050565b6000808273ffffffffffffffffffffffffffffffffffffffff163b119050919050565b606060008214156128ec576040518060400160405280600181526020017f30000000000000000000000000000000000000000000000000000000000000008152509050612a00565b600082905060005b6000821461291e57808061290790613f99565b915050600a826129179190613c85565b91506128f4565b60008167ffffffffffffffff81111561293a576129396133b1565b5b6040519080825280601f01601f19166020018201604052801561296c5781602001600182028036833780820191505090505b5090505b600085146129f9576001826129859190614106565b9150600a8561299491906147a1565b60306129a0919061413a565b60f81b8183815181106129b6576129b5613e6c565b5b60200101907effffffffffffffffffffffffffffffffffffffffffffffffffffffffffffff1916908160001a905350600a856129f29190613c85565b9450612970565b8093505050505b919050565b60007f80ac58cd000000000000000000000000000000000000000000000000000000007bffffffffffffffffffffffffffffffffffffffffffffffffffffffff1916827bffffffffffffffffffffffffffffffffffffffffffffffffffffffff19161480612ad057507f5b5e139f000000000000000000000000000000000000000000000000000000007bffffffffffffffffffffffffffffffffffffffffffffffffffffffff1916827bffffffffffffffffffffffffffffffffffffffffffffffffffffffff1916145b80612ae05750612adf82612df2565b5b9050919050565b505050565b600b80549050600c600083815260200190815260200160002081905550600b81908060018154018082558091505060019003906000526020600020016000909190919091505550565b60006001612b4284610d87565b612b4c9190614106565b90506000600a6000848152602001908152602001600020549050818114612c31576000600960008673ffffffffffffffffffffffffffffffffffffffff1673ffffffffffffffffffffffffffffffffffffffff168152602001908152602001600020600084815260200190815260200160002054905080600960008773ffffffffffffffffffffffffffffffffffffffff1673ffffffffffffffffffffffffffffffffffffffff16815260200190815260200160002060008481526020019081526020016000208190555081600a600083815260200190815260200160002081905550505b600a600084815260200190815260200160002060009055600960008573ffffffffffffffffffffffffffffffffffffffff1673ffffffffffffffffffffffffffffffffffffffff16815260200190815260200160002060008381526020019081526020016000206000905550505050565b60006001600b80549050612cb69190614106565b90506000600c60008481526020019081526020016000205490506000600b8381548110612ce657612ce5613e6c565b5b9060005260206000200154905080600b8381548110612d0857612d07613e6c565b5b906000526020600020018190555081600c600083815260200190815260200160002081905550600c600085815260200190815260200160002060009055600b805480612d5757612d566147d2565b5b6001900381819060005260206000200160009055905550505050565b6000612d7e83610d87565b905081600960008573ffffffffffffffffffffffffffffffffffffffff1673ffffffffffffffffffffffffffffffffffffffff16815260200190815260200160002060008381526020019081526020016000208190555080600a600084815260200190815260200160002081905550505050565b60007f01ffc9a7000000000000000000000000000000000000000000000000000000007bffffffffffffffffffffffffffffffffffffffffffffffffffffffff1916827bffffffffffffffffffffffffffffffffffffffffffffffffffffffff1916149050919050565b828054612e68906139e5565b90600052602060002090601f016020900481019282612e8a5760008555612ed1565b82601f10612ea357805160ff1916838001178555612ed1565b82800160010185558215612ed1579182015b82811115612ed0578251825591602001919060010190612eb5565b5b509050612ede9190612f22565b5090565b508054612eee906139e5565b6000825580601f10612f005750612f1f565b601f016020900490600052602060002090810190612f1e9190612f22565b5b50565b5b80821115612f3b576000816000905550600101612f23565b5090565b6000604051905090565b600080fd5b600080fd5b60007fffffffff0000000000000000000000000000000000000000000000000000000082169050919050565b612f8881612f53565b8114612f9357600080fd5b50565b600081359050612fa581612f7f565b92915050565b600060208284031215612fc157612fc0612f49565b5b6000612fcf84828501612f96565b91505092915050565b60008115159050919050565b612fed81612fd8565b82525050565b60006020820190506130086000830184612fe4565b92915050565b600081519050919050565b600082825260208201905092915050565b60005b8381101561304857808201518184015260208101905061302d565b83811115613057576000848401525b50505050565b6000601f19601f8301169050919050565b60006130798261300e565b6130838185613019565b935061309381856020860161302a565b61309c8161305d565b840191505092915050565b600060208201905081810360008301526130c1818461306e565b905092915050565b6000819050919050565b6130dc816130c9565b81146130e757600080fd5b50565b6000813590506130f9816130d3565b92915050565b60006020828403121561311557613114612f49565b5b6000613123848285016130ea565b91505092915050565b600073ffffffffffffffffffffffffffffffffffffffff82169050919050565b60006131578261312c565b9050919050565b6131678161314c565b82525050565b6000602082019050613182600083018461315e565b92915050565b6131918161314c565b811461319c57600080fd5b50565b6000813590506131ae81613188565b92915050565b600080604083850312156131cb576131ca612f49565b5b60006131d98582860161319f565b92505060206131ea858286016130ea565b9150509250929050565b6131fd816130c9565b82525050565b600060208201905061321860008301846131f4565b92915050565b60008060006060848603121561323757613236612f49565b5b60006132458682870161319f565b93505060206132568682870161319f565b9250506040613267868287016130ea565b9150509250925092565b6000819050919050565b61328481613271565b811461328f57600080fd5b50565b6000813590506132a18161327b565b92915050565b6000602082840312156132bd576132bc612f49565b5b60006132cb84828501613292565b91505092915050565b6132dd81613271565b82525050565b60006020820190506132f860008301846132d4565b92915050565b6000806040838503121561331557613314612f49565b5b6000613323858286016130ea565b9250506020613334858286016130ea565b9150509250929050565b6000604082019050613353600083018561315e565b61336060208301846131f4565b9392505050565b6000806040838503121561337e5761337d612f49565b5b600061338c85828601613292565b925050602061339d8582860161319f565b9150509250929050565b600080fd5b600080fd5b7f4e487b7100000000000000000000000000000000000000000000000000000000600052604160045260246000fd5b6133e98261305d565b810181811067ffffffffffffffff82111715613408576134076133b1565b5b80604052505050565b600061341b612f3f565b905061342782826133e0565b919050565b600067ffffffffffffffff821115613447576134466133b1565b5b6134508261305d565b9050602081019050919050565b82818337600083830152505050565b600061347f61347a8461342c565b613411565b90508281526020810184848401111561349b5761349a6133ac565b5b6134a684828561345d565b509392505050565b600082601f8301126134c3576134c26133a7565b5b81356134d384826020860161346c565b91505092915050565b60006bffffffffffffffffffffffff82169050919050565b6134fd816134dc565b811461350857600080fd5b50565b60008135905061351a816134f4565b92915050565b6000806000806080858703121561353a57613539612f49565b5b60006135488782880161319f565b945050602085013567ffffffffffffffff81111561356957613568612f4e565b5b613575878288016134ae565b93505060406135868782880161319f565b92505060606135978782880161350b565b91505092959194509250565b6000602082840312156135b9576135b8612f49565b5b60006135c78482850161319f565b91505092915050565b6135d981612fd8565b81146135e457600080fd5b50565b6000813590506135f6816135d0565b92915050565b6000806040838503121561361357613612612f49565b5b60006136218582860161319f565b9250506020613632858286016135e7565b9150509250929050565b600067ffffffffffffffff821115613657576136566133b1565b5b6136608261305d565b9050602081019050919050565b600061368061367b8461363c565b613411565b90508281526020810184848401111561369c5761369b6133ac565b5b6136a784828561345d565b509392505050565b600082601f8301126136c4576136c36133a7565b5b81356136d484826020860161366d565b91505092915050565b600080600080608085870312156136f7576136f6612f49565b5b60006137058782880161319f565b94505060206137168782880161319f565b9350506040613727878288016130ea565b925050606085013567ffffffffffffffff81111561374857613747612f4e565b5b613754878288016136af565b91505092959194509250565b600067ffffffffffffffff82111561377b5761377a6133b1565b5b602082029050602081019050919050565b600080fd5b60006137a461379f84613760565b613411565b905080838252602082019050602084028301858111156137c7576137c661378c565b5b835b818110156137f057806137dc888261319f565b8452602084019350506020810190506137c9565b5050509392505050565b600082601f83011261380f5761380e6133a7565b5b813561381f848260208601613791565b91505092915050565b600067ffffffffffffffff821115613843576138426133b1565b5b602082029050602081019050919050565b600061386761386284613828565b613411565b9050808382526020820190506020840283018581111561388a5761388961378c565b5b835b818110156138b3578061389f88826130ea565b84526020840193505060208101905061388c565b5050509392505050565b600082601f8301126138d2576138d16133a7565b5b81356138e2848260208601613854565b91505092915050565b60008060006060848603121561390457613903612f49565b5b60006139128682870161319f565b935050602084013567ffffffffffffffff81111561393357613932612f4e565b5b61393f868287016137fa565b925050604084013567ffffffffffffffff8111156139605761395f612f4e565b5b61396c868287016138bd565b9150509250925092565b6000806040838503121561398d5761398c612f49565b5b600061399b8582860161319f565b92505060206139ac8582860161319f565b9150509250929050565b7f4e487b7100000000000000000000000000000000000000000000000000000000600052602260045260246000fd5b600060028204905060018216806139fd57607f821691505b60208210811415613a1157613a106139b6565b5b50919050565b7f4552433732313a20617070726f76616c20746f2063757272656e74206f776e6560008201527f7200000000000000000000000000000000000000000000000000000000000000602082015250565b6000613a73602183613019565b9150613a7e82613a17565b604082019050919050565b60006020820190508181036000830152613aa281613a66565b9050919050565b7f4552433732313a20617070726f76652063616c6c6572206973206e6f7420746f60008201527f6b656e206f776e6572206e6f7220617070726f76656420666f7220616c6c0000602082015250565b6000613b05603e83613019565b9150613b1082613aa9565b604082019050919050565b60006020820190508181036000830152613b3481613af8565b9050919050565b7f4552433732313a2063616c6c6572206973206e6f7420746f6b656e206f776e6560008201527f72206e6f7220617070726f766564000000000000000000000000000000000000602082015250565b6000613b97602e83613019565b9150613ba282613b3b565b604082019050919050565b60006020820190508181036000830152613bc681613b8a565b9050919050565b7f4e487b7100000000000000000000000000000000000000000000000000000000600052601160045260246000fd5b6000613c07826130c9565b9150613c12836130c9565b9250817fffffffffffffffffffffffffffffffffffffffffffffffffffffffffffffffff0483118215151615613c4b57613c4a613bcd565b5b828202905092915050565b7f4e487b7100000000000000000000000000000000000000000000000000000000600052601260045260246000fd5b6000613c90826130c9565b9150613c9b836130c9565b925082613cab57613caa613c56565b5b828204905092915050565b7f455243373231456e756d657261626c653a206f776e657220696e646578206f7560008201527f74206f6620626f756e6473000000000000000000000000000000000000000000602082015250565b6000613d12602b83613019565b9150613d1d82613cb6565b604082019050919050565b60006020820190508181036000830152613d4181613d05565b9050919050565b7f416363657373436f6e74726f6c3a2063616e206f6e6c792072656e6f756e636560008201527f20726f6c657320666f722073656c660000000000000000000000000000000000602082015250565b6000613da4602f83613019565b9150613daf82613d48565b604082019050919050565b60006020820190508181036000830152613dd381613d97565b9050919050565b7f455243373231456e756d657261626c653a20676c6f62616c20696e646578206f60008201527f7574206f6620626f756e64730000000000000000000000000000000000000000602082015250565b6000613e36602c83613019565b9150613e4182613dda565b604082019050919050565b60006020820190508181036000830152613e6581613e29565b9050919050565b7f4e487b7100000000000000000000000000000000000000000000000000000000600052603260045260246000fd5b7f4552433732313a20696e76616c696420746f6b656e2049440000000000000000600082015250565b6000613ed1601883613019565b9150613edc82613e9b565b602082019050919050565b60006020820190508181036000830152613f0081613ec4565b9050919050565b7f4552433732313a2061646472657373207a65726f206973206e6f74206120766160008201527f6c6964206f776e65720000000000000000000000000000000000000000000000602082015250565b6000613f63602983613019565b9150613f6e82613f07565b604082019050919050565b60006020820190508181036000830152613f9281613f56565b9050919050565b6000613fa4826130c9565b91507fffffffffffffffffffffffffffffffffffffffffffffffffffffffffffffffff821415613fd757613fd6613bcd565b5b600182019050919050565b7f4552433732313a207472616e736665722066726f6d20696e636f72726563742060008201527f6f776e6572000000000000000000000000000000000000000000000000000000602082015250565b600061403e602583613019565b915061404982613fe2565b604082019050919050565b6000602082019050818103600083015261406d81614031565b9050919050565b7f4552433732313a207472616e7366657220746f20746865207a65726f2061646460008201527f7265737300000000000000000000000000000000000000000000000000000000602082015250565b60006140d0602483613019565b91506140db82614074565b604082019050919050565b600060208201905081810360008301526140ff816140c3565b9050919050565b6000614111826130c9565b915061411c836130c9565b92508282101561412f5761412e613bcd565b5b828203905092915050565b6000614145826130c9565b9150614150836130c9565b9250827fffffffffffffffffffffffffffffffffffffffffffffffffffffffffffffffff0382111561418557614184613bcd565b5b828201905092915050565b7f45524337323155524953746f726167653a2055524920736574206f66206e6f6e60008201527f6578697374656e7420746f6b656e000000000000000000000000000000000000602082015250565b60006141ec602e83613019565b91506141f782614190565b604082019050919050565b6000602082019050818103600083015261421b816141df565b9050919050565b7f455243323938313a20726f79616c7479206665652077696c6c2065786365656460008201527f2073616c65507269636500000000000000000000000000000000000000000000602082015250565b600061427e602a83613019565b915061428982614222565b604082019050919050565b600060208201905081810360008301526142ad81614271565b9050919050565b7f455243323938313a20496e76616c696420706172616d65746572730000000000600082015250565b60006142ea601b83613019565b91506142f5826142b4565b602082019050919050565b60006020820190508181036000830152614319816142dd565b9050919050565b7f4552433732313a20617070726f766520746f2063616c6c657200000000000000600082015250565b6000614356601983613019565b915061436182614320565b602082019050919050565b6000602082019050818103600083015261438581614349565b9050919050565b7f4552433732313a207472616e7366657220746f206e6f6e20455243373231526560008201527f63656976657220696d706c656d656e7465720000000000000000000000000000602082015250565b60006143e8603283613019565b91506143f38261438c565b604082019050919050565b60006020820190508181036000830152614417816143db565b9050919050565b600081905092915050565b60006144348261300e565b61443e818561441e565b935061444e81856020860161302a565b80840191505092915050565b60006144668285614429565b91506144728284614429565b91508190509392505050565b7f416363657373436f6e74726f6c3a206163636f756e7420000000000000000000600082015250565b60006144b460178361441e565b91506144bf8261447e565b601782019050919050565b7f206973206d697373696e6720726f6c6520000000000000000000000000000000600082015250565b600061450060118361441e565b915061450b826144ca565b601182019050919050565b6000614521826144a7565b915061452d8285614429565b9150614538826144f3565b91506145448284614429565b91508190509392505050565b600081519050919050565b600082825260208201905092915050565b600061457782614550565b614581818561455b565b935061459181856020860161302a565b61459a8161305d565b840191505092915050565b60006080820190506145ba600083018761315e565b6145c7602083018661315e565b6145d460408301856131f4565b81810360608301526145e6818461456c565b905095945050505050565b60008151905061460081612f7f565b92915050565b60006020828403121561461c5761461b612f49565b5b600061462a848285016145f1565b91505092915050565b600061463e826130c9565b9150600082141561465257614651613bcd565b5b600182039050919050565b7f537472696e67733a20686578206c656e67746820696e73756666696369656e74600082015250565b6000614693602083613019565b915061469e8261465d565b602082019050919050565b600060208201905081810360008301526146c281614686565b9050919050565b7f4552433732313a206d696e7420746f20746865207a65726f2061646472657373600082015250565b60006146ff602083613019565b915061470a826146c9565b602082019050919050565b6000602082019050818103600083015261472e816146f2565b9050919050565b7f4552433732313a20746f6b656e20616c7265616479206d696e74656400000000600082015250565b600061476b601c83613019565b915061477682614735565b602082019050919050565b6000602082019050818103600083015261479a8161475e565b9050919050565b60006147ac826130c9565b91506147b7836130c9565b9250826147c7576147c6613c56565b5b828206905092915050565b7f4e487b7100000000000000000000000000000000000000000000000000000000600052603160045260246000fdfea26469706673582212201ed397493b33bacade0704d6dda544df722302dc9600352290c2d25ca624802d64736f6c63430008090033",
  "devdoc": {
    "kind": "dev",
    "methods": {
      "approve(address,uint256)": {
        "details": "See {IERC721-approve}."
      },
      "balanceOf(address)": {
        "details": "See {IERC721-balanceOf}."
      },
      "getApproved(uint256)": {
        "details": "See {IERC721-getApproved}."
      },
      "getRoleAdmin(bytes32)": {
        "details": "Returns the admin role that controls `role`. See {grantRole} and {revokeRole}. To change a role's admin, use {_setRoleAdmin}."
      },
      "grantRole(bytes32,address)": {
        "details": "Grants `role` to `account`. If `account` had not been already granted `role`, emits a {RoleGranted} event. Requirements: - the caller must have ``role``'s admin role. May emit a {RoleGranted} event."
      },
      "hasRole(bytes32,address)": {
        "details": "Returns `true` if `account` has been granted `role`."
      },
      "isApprovedForAll(address,address)": {
        "details": "See {IERC721-isApprovedForAll}."
      },
      "name()": {
        "details": "See {IERC721Metadata-name}."
      },
      "ownerOf(uint256)": {
        "details": "See {IERC721-ownerOf}."
      },
      "renounceRole(bytes32,address)": {
        "details": "Revokes `role` from the calling account. Roles are often managed via {grantRole} and {revokeRole}: this function's purpose is to provide a mechanism for accounts to lose their privileges if they are compromised (such as when a trusted device is misplaced). If the calling account had been revoked `role`, emits a {RoleRevoked} event. Requirements: - the caller must be `account`. May emit a {RoleRevoked} event."
      },
      "revokeRole(bytes32,address)": {
        "details": "Revokes `role` from `account`. If `account` had been granted `role`, emits a {RoleRevoked} event. Requirements: - the caller must have ``role``'s admin role. May emit a {RoleRevoked} event."
      },
      "royaltyInfo(uint256,uint256)": {
        "details": "Returns how much royalty is owed and to whom, based on a sale price that may be denominated in any unit of exchange. The royalty amount is denominated and should be paid in that same unit of exchange."
      },
      "safeTransferFrom(address,address,uint256)": {
        "details": "See {IERC721-safeTransferFrom}."
      },
      "safeTransferFrom(address,address,uint256,bytes)": {
        "details": "See {IERC721-safeTransferFrom}."
      },
      "setApprovalForAll(address,bool)": {
        "details": "See {IERC721-setApprovalForAll}."
      },
      "symbol()": {
        "details": "See {IERC721Metadata-symbol}."
      },
      "tokenByIndex(uint256)": {
        "details": "See {IERC721Enumerable-tokenByIndex}."
      },
      "tokenOfOwnerByIndex(address,uint256)": {
        "details": "See {IERC721Enumerable-tokenOfOwnerByIndex}."
      },
      "totalSupply()": {
        "details": "See {IERC721Enumerable-totalSupply}."
      },
      "transferFrom(address,address,uint256)": {
        "details": "See {IERC721-transferFrom}."
      }
    },
    "version": 1
  },
  "userdoc": {
    "kind": "user",
    "methods": {},
    "version": 1
  },
  "storageLayout": {
    "storage": [
      {
        "astId": 1735,
        "contract": "contracts/MissionNFT.sol:MissionNFT",
        "label": "_name",
        "offset": 0,
        "slot": "0",
        "type": "t_string_storage"
      },
      {
        "astId": 1737,
        "contract": "contracts/MissionNFT.sol:MissionNFT",
        "label": "_symbol",
        "offset": 0,
        "slot": "1",
        "type": "t_string_storage"
      },
      {
        "astId": 1741,
        "contract": "contracts/MissionNFT.sol:MissionNFT",
        "label": "_owners",
        "offset": 0,
        "slot": "2",
        "type": "t_mapping(t_uint256,t_address)"
      },
      {
        "astId": 1745,
        "contract": "contracts/MissionNFT.sol:MissionNFT",
        "label": "_balances",
        "offset": 0,
        "slot": "3",
        "type": "t_mapping(t_address,t_uint256)"
      },
      {
        "astId": 1749,
        "contract": "contracts/MissionNFT.sol:MissionNFT",
        "label": "_tokenApprovals",
        "offset": 0,
        "slot": "4",
        "type": "t_mapping(t_uint256,t_address)"
      },
      {
        "astId": 1755,
        "contract": "contracts/MissionNFT.sol:MissionNFT",
        "label": "_operatorApprovals",
        "offset": 0,
        "slot": "5",
        "type": "t_mapping(t_address,t_mapping(t_address,t_bool))"
      },
      {
        "astId": 3275,
        "contract": "contracts/MissionNFT.sol:MissionNFT",
        "label": "_defaultRoyaltyInfo",
        "offset": 0,
        "slot": "6",
        "type": "t_struct(RoyaltyInfo)3272_storage"
      },
      {
        "astId": 3280,
        "contract": "contracts/MissionNFT.sol:MissionNFT",
        "label": "_tokenRoyaltyInfo",
        "offset": 0,
        "slot": "7",
        "type": "t_mapping(t_uint256,t_struct(RoyaltyInfo)3272_storage)"
      },
      {
        "astId": 3061,
        "contract": "contracts/MissionNFT.sol:MissionNFT",
        "label": "_tokenURIs",
        "offset": 0,
        "slot": "8",
        "type": "t_mapping(t_uint256,t_string_storage)"
      },
      {
        "astId": 2725,
        "contract": "contracts/MissionNFT.sol:MissionNFT",
        "label": "_ownedTokens",
        "offset": 0,
        "slot": "9",
        "type": "t_mapping(t_address,t_mapping(t_uint256,t_uint256))"
      },
      {
        "astId": 2729,
        "contract": "contracts/MissionNFT.sol:MissionNFT",
        "label": "_ownedTokensIndex",
        "offset": 0,
        "slot": "10",
        "type": "t_mapping(t_uint256,t_uint256)"
      },
      {
        "astId": 2732,
        "contract": "contracts/MissionNFT.sol:MissionNFT",
        "label": "_allTokens",
        "offset": 0,
        "slot": "11",
        "type": "t_array(t_uint256)dyn_storage"
      },
      {
        "astId": 2736,
        "contract": "contracts/MissionNFT.sol:MissionNFT",
        "label": "_allTokensIndex",
        "offset": 0,
        "slot": "12",
        "type": "t_mapping(t_uint256,t_uint256)"
      },
      {
        "astId": 1308,
        "contract": "contracts/MissionNFT.sol:MissionNFT",
        "label": "_roles",
        "offset": 0,
        "slot": "13",
        "type": "t_mapping(t_bytes32,t_struct(RoleData)1303_storage)"
      },
      {
        "astId": 6305,
        "contract": "contracts/MissionNFT.sol:MissionNFT",
        "label": "_tokenIdCounter",
        "offset": 0,
        "slot": "14",
        "type": "t_struct(Counter)3779_storage"
      }
    ],
    "types": {
      "t_address": {
        "encoding": "inplace",
        "label": "address",
        "numberOfBytes": "20"
      },
      "t_array(t_uint256)dyn_storage": {
        "base": "t_uint256",
        "encoding": "dynamic_array",
        "label": "uint256[]",
        "numberOfBytes": "32"
      },
      "t_bool": {
        "encoding": "inplace",
        "label": "bool",
        "numberOfBytes": "1"
      },
      "t_bytes32": {
        "encoding": "inplace",
        "label": "bytes32",
        "numberOfBytes": "32"
      },
      "t_mapping(t_address,t_bool)": {
        "encoding": "mapping",
        "key": "t_address",
        "label": "mapping(address => bool)",
        "numberOfBytes": "32",
        "value": "t_bool"
      },
      "t_mapping(t_address,t_mapping(t_address,t_bool))": {
        "encoding": "mapping",
        "key": "t_address",
        "label": "mapping(address => mapping(address => bool))",
        "numberOfBytes": "32",
        "value": "t_mapping(t_address,t_bool)"
      },
      "t_mapping(t_address,t_mapping(t_uint256,t_uint256))": {
        "encoding": "mapping",
        "key": "t_address",
        "label": "mapping(address => mapping(uint256 => uint256))",
        "numberOfBytes": "32",
        "value": "t_mapping(t_uint256,t_uint256)"
      },
      "t_mapping(t_address,t_uint256)": {
        "encoding": "mapping",
        "key": "t_address",
        "label": "mapping(address => uint256)",
        "numberOfBytes": "32",
        "value": "t_uint256"
      },
      "t_mapping(t_bytes32,t_struct(RoleData)1303_storage)": {
        "encoding": "mapping",
        "key": "t_bytes32",
        "label": "mapping(bytes32 => struct AccessControl.RoleData)",
        "numberOfBytes": "32",
        "value": "t_struct(RoleData)1303_storage"
      },
      "t_mapping(t_uint256,t_address)": {
        "encoding": "mapping",
        "key": "t_uint256",
        "label": "mapping(uint256 => address)",
        "numberOfBytes": "32",
        "value": "t_address"
      },
      "t_mapping(t_uint256,t_string_storage)": {
        "encoding": "mapping",
        "key": "t_uint256",
        "label": "mapping(uint256 => string)",
        "numberOfBytes": "32",
        "value": "t_string_storage"
      },
      "t_mapping(t_uint256,t_struct(RoyaltyInfo)3272_storage)": {
        "encoding": "mapping",
        "key": "t_uint256",
        "label": "mapping(uint256 => struct ERC2981.RoyaltyInfo)",
        "numberOfBytes": "32",
        "value": "t_struct(RoyaltyInfo)3272_storage"
      },
      "t_mapping(t_uint256,t_uint256)": {
        "encoding": "mapping",
        "key": "t_uint256",
        "label": "mapping(uint256 => uint256)",
        "numberOfBytes": "32",
        "value": "t_uint256"
      },
      "t_string_storage": {
        "encoding": "bytes",
        "label": "string",
        "numberOfBytes": "32"
      },
      "t_struct(Counter)3779_storage": {
        "encoding": "inplace",
        "label": "struct Counters.Counter",
        "members": [
          {
            "astId": 3778,
            "contract": "contracts/MissionNFT.sol:MissionNFT",
            "label": "_value",
            "offset": 0,
            "slot": "0",
            "type": "t_uint256"
          }
        ],
        "numberOfBytes": "32"
      },
      "t_struct(RoleData)1303_storage": {
        "encoding": "inplace",
        "label": "struct AccessControl.RoleData",
        "members": [
          {
            "astId": 1300,
            "contract": "contracts/MissionNFT.sol:MissionNFT",
            "label": "members",
            "offset": 0,
            "slot": "0",
            "type": "t_mapping(t_address,t_bool)"
          },
          {
            "astId": 1302,
            "contract": "contracts/MissionNFT.sol:MissionNFT",
            "label": "adminRole",
            "offset": 0,
            "slot": "1",
            "type": "t_bytes32"
          }
        ],
        "numberOfBytes": "64"
      },
      "t_struct(RoyaltyInfo)3272_storage": {
        "encoding": "inplace",
        "label": "struct ERC2981.RoyaltyInfo",
        "members": [
          {
            "astId": 3269,
            "contract": "contracts/MissionNFT.sol:MissionNFT",
            "label": "receiver",
            "offset": 0,
            "slot": "0",
            "type": "t_address"
          },
          {
            "astId": 3271,
            "contract": "contracts/MissionNFT.sol:MissionNFT",
            "label": "royaltyFraction",
            "offset": 20,
            "slot": "0",
            "type": "t_uint96"
          }
        ],
        "numberOfBytes": "32"
      },
      "t_uint256": {
        "encoding": "inplace",
        "label": "uint256",
        "numberOfBytes": "32"
      },
      "t_uint96": {
        "encoding": "inplace",
        "label": "uint96",
        "numberOfBytes": "12"
      }
    }
  }
}