{
  "address": "0x78D9281b576a1e0c5C78D211c77B167982665785",
  "abi": [
    {
      "inputs": [
        {
          "internalType": "address",
          "name": "_pompHub",
          "type": "address"
        },
        {
          "internalType": "address",
          "name": "_missionNFT",
          "type": "address"
        }
      ],
      "stateMutability": "nonpayable",
      "type": "constructor"
    },
    {
      "anonymous": false,
      "inputs": [
        {
          "indexed": true,
          "internalType": "uint256",
          "name": "profileId",
          "type": "uint256"
        },
        {
          "indexed": true,
          "internalType": "uint256",
          "name": "missionId",
          "type": "uint256"
        },
        {
          "indexed": false,
          "internalType": "uint256",
          "name": "timestamp",
          "type": "uint256"
        }
      ],
      "name": "Aborted",
      "type": "event"
    },
    {
      "anonymous": false,
      "inputs": [
        {
          "indexed": true,
          "internalType": "address",
          "name": "verifier",
          "type": "address"
        },
        {
          "indexed": true,
          "internalType": "uint256",
          "name": "count",
          "type": "uint256"
        },
        {
          "indexed": false,
          "internalType": "uint256",
          "name": "timestamp",
          "type": "uint256"
        }
      ],
      "name": "BatchVerified",
      "type": "event"
    },
    {
      "anonymous": false,
      "inputs": [
        {
          "indexed": true,
          "internalType": "address",
          "name": "verifier",
          "type": "address"
        },
        {
          "indexed": true,
          "internalType": "uint256",
          "name": "profileId",
          "type": "uint256"
        },
        {
          "indexed": true,
          "internalType": "uint256",
          "name": "missionId",
          "type": "uint256"
        },
        {
          "indexed": false,
          "internalType": "bytes32",
          "name": "challenge",
          "type": "bytes32"
        },
        {
          "indexed": false,
          "internalType": "uint256",
          "name": "timestamp",
          "type": "uint256"
        }
      ],
      "name": "Completed",
      "type": "event"
    },
    {
      "anonymous": false,
      "inputs": [
        {
          "indexed": true,
          "internalType": "address",
          "name": "verifier",
          "type": "address"
        },
        {
          "indexed": true,
          "internalType": "uint256",
          "name": "profileId",
          "type": "uint256"
        },
        {
          "indexed": true,
          "internalType": "uint256",
          "name": "missionId",
          "type": "uint256"
        },
        {
          "indexed": false,
          "internalType": "bytes32",
          "name": "challenge",
          "type": "bytes32"
        },
        {
          "indexed": false,
          "internalType": "uint256",
          "name": "reason",
          "type": "uint256"
        },
        {
          "indexed": false,
          "internalType": "uint256",
          "name": "timestamp",
          "type": "uint256"
        }
      ],
      "name": "Failed",
      "type": "event"
    },
    {
      "anonymous": false,
      "inputs": [
        {
          "indexed": true,
          "internalType": "bytes32",
          "name": "role",
          "type": "bytes32"
        },
        {
          "indexed": true,
          "internalType": "bytes32",
          "name": "previousAdminRole",
          "type": "bytes32"
        },
        {
          "indexed": true,
          "internalType": "bytes32",
          "name": "newAdminRole",
          "type": "bytes32"
        }
      ],
      "name": "RoleAdminChanged",
      "type": "event"
    },
    {
      "anonymous": false,
      "inputs": [
        {
          "indexed": true,
          "internalType": "bytes32",
          "name": "role",
          "type": "bytes32"
        },
        {
          "indexed": true,
          "internalType": "address",
          "name": "account",
          "type": "address"
        },
        {
          "indexed": true,
          "internalType": "address",
          "name": "sender",
          "type": "address"
        }
      ],
      "name": "RoleGranted",
      "type": "event"
    },
    {
      "anonymous": false,
      "inputs": [
        {
          "indexed": true,
          "internalType": "bytes32",
          "name": "role",
          "type": "bytes32"
        },
        {
          "indexed": true,
          "internalType": "address",
          "name": "account",
          "type": "address"
        },
        {
          "indexed": true,
          "internalType": "address",
          "name": "sender",
          "type": "address"
        }
      ],
      "name": "RoleRevoked",
      "type": "event"
    },
    {
      "anonymous": false,
      "inputs": [
        {
          "indexed": true,
          "internalType": "address",
          "name": "creator",
          "type": "address"
        },
        {
          "indexed": true,
          "internalType": "uint256",
          "name": "profileId",
          "type": "uint256"
        },
        {
          "indexed": true,
          "internalType": "uint256",
          "name": "missionId",
          "type": "uint256"
        },
        {
          "indexed": false,
          "internalType": "uint256",
          "name": "endtime",
          "type": "uint256"
        },
        {
          "indexed": false,
          "internalType": "uint256",
          "name": "timestamp",
          "type": "uint256"
        }
      ],
      "name": "Started",
      "type": "event"
    },
    {
      "anonymous": false,
      "inputs": [
        {
          "indexed": true,
          "internalType": "address",
          "name": "verifier",
          "type": "address"
        },
        {
          "indexed": true,
          "internalType": "uint256",
          "name": "profileId",
          "type": "uint256"
        },
        {
          "indexed": true,
          "internalType": "uint256",
          "name": "missionId",
          "type": "uint256"
        },
        {
          "indexed": false,
          "internalType": "bytes32",
          "name": "challenge",
          "type": "bytes32"
        },
        {
          "indexed": false,
          "internalType": "uint256",
          "name": "timestamp",
          "type": "uint256"
        }
      ],
      "name": "Verified",
      "type": "event"
    },
    {
      "inputs": [],
      "name": "DEFAULT_ADMIN_ROLE",
      "outputs": [
        {
          "internalType": "bytes32",
          "name": "",
          "type": "bytes32"
        }
      ],
      "stateMutability": "view",
      "type": "function"
    },
    {
      "inputs": [],
      "name": "HUB_ROLE",
      "outputs": [
        {
          "internalType": "bytes32",
          "name": "",
          "type": "bytes32"
        }
      ],
      "stateMutability": "view",
      "type": "function"
    },
    {
      "inputs": [
        {
          "components": [
            {
              "internalType": "uint256",
              "name": "profileId",
              "type": "uint256"
            },
            {
              "internalType": "uint256",
              "name": "missionId",
              "type": "uint256"
            },
            {
              "internalType": "bytes",
              "name": "signature",
              "type": "bytes"
            },
            {
              "internalType": "uint256",
              "name": "deadline",
              "type": "uint256"
            }
          ],
          "internalType": "struct DataTypes.AbortWithSigData",
          "name": "vars",
          "type": "tuple"
        },
        {
          "internalType": "address",
          "name": "owner",
          "type": "address"
        }
      ],
      "name": "abortWithSig",
      "outputs": [],
      "stateMutability": "nonpayable",
      "type": "function"
    },
    {
      "inputs": [
        {
          "components": [
            {
              "internalType": "uint256[]",
              "name": "profileIds",
              "type": "uint256[]"
            },
            {
              "internalType": "string",
              "name": "challenges",
              "type": "string"
            },
            {
              "internalType": "bytes",
              "name": "signature",
              "type": "bytes"
            },
            {
              "internalType": "uint256",
              "name": "deadline",
              "type": "uint256"
            }
          ],
          "internalType": "struct DataTypes.BatchVerifyWithSigData",
          "name": "vars",
          "type": "tuple"
        },
        {
          "internalType": "address",
          "name": "sender",
          "type": "address"
        }
      ],
      "name": "batchVerifyWithSig",
      "outputs": [],
      "stateMutability": "nonpayable",
      "type": "function"
    },
    {
      "inputs": [
        {
          "components": [
            {
              "internalType": "uint256[]",
              "name": "profileIds",
              "type": "uint256[]"
            },
            {
              "internalType": "string",
              "name": "challenges",
              "type": "string"
            }
          ],
          "internalType": "struct DataTypes.CanBatchVerifyData",
          "name": "vars",
          "type": "tuple"
        },
        {
          "internalType": "address",
          "name": "sender",
          "type": "address"
        }
      ],
      "name": "canBatchVerify",
      "outputs": [
        {
          "internalType": "bool",
          "name": "",
          "type": "bool"
        }
      ],
      "stateMutability": "view",
      "type": "function"
    },
    {
      "inputs": [
        {
          "components": [
            {
              "internalType": "uint256",
              "name": "profileId",
              "type": "uint256"
            },
            {
              "internalType": "uint256",
              "name": "missionId",
              "type": "uint256"
            },
            {
              "internalType": "string",
              "name": "challenge",
              "type": "string"
            },
            {
              "internalType": "bytes",
              "name": "signature",
              "type": "bytes"
            },
            {
              "internalType": "uint256",
              "name": "deadline",
              "type": "uint256"
            }
          ],
          "internalType": "struct DataTypes.CompleteWithSigData",
          "name": "vars",
          "type": "tuple"
        },
        {
          "internalType": "address",
          "name": "owner",
          "type": "address"
        }
      ],
      "name": "completeWithSig",
      "outputs": [],
      "stateMutability": "nonpayable",
      "type": "function"
    },
    {
      "inputs": [
        {
          "components": [
            {
              "internalType": "uint256",
              "name": "profileId",
              "type": "uint256"
            },
            {
              "internalType": "string",
              "name": "challenge",
              "type": "string"
            },
            {
              "internalType": "uint256",
              "name": "reason",
              "type": "uint256"
            },
            {
              "internalType": "bytes",
              "name": "signature",
              "type": "bytes"
            },
            {
              "internalType": "uint256",
              "name": "deadline",
              "type": "uint256"
            }
          ],
          "internalType": "struct DataTypes.FailWithSigData",
          "name": "vars",
          "type": "tuple"
        },
        {
          "internalType": "address",
          "name": "sender",
          "type": "address"
        }
      ],
      "name": "failWithSig",
      "outputs": [],
      "stateMutability": "nonpayable",
      "type": "function"
    },
    {
      "inputs": [
        {
          "internalType": "bytes32",
          "name": "role",
          "type": "bytes32"
        }
      ],
      "name": "getRoleAdmin",
      "outputs": [
        {
          "internalType": "bytes32",
          "name": "",
          "type": "bytes32"
        }
      ],
      "stateMutability": "view",
      "type": "function"
    },
    {
      "inputs": [
        {
          "internalType": "bytes32",
          "name": "role",
          "type": "bytes32"
        },
        {
          "internalType": "address",
          "name": "account",
          "type": "address"
        }
      ],
      "name": "grantRole",
      "outputs": [],
      "stateMutability": "nonpayable",
      "type": "function"
    },
    {
      "inputs": [
        {
          "internalType": "bytes32",
          "name": "role",
          "type": "bytes32"
        },
        {
          "internalType": "address",
          "name": "account",
          "type": "address"
        }
      ],
      "name": "hasRole",
      "outputs": [
        {
          "internalType": "bool",
          "name": "",
          "type": "bool"
        }
      ],
      "stateMutability": "view",
      "type": "function"
    },
    {
      "inputs": [
        {
          "internalType": "string",
          "name": "challenge",
          "type": "string"
        }
      ],
      "name": "missionByChallenge",
      "outputs": [
        {
          "components": [
            {
              "internalType": "address",
              "name": "owner",
              "type": "address"
            },
            {
              "internalType": "uint256",
              "name": "profileId",
              "type": "uint256"
            },
            {
              "internalType": "uint256",
              "name": "tokenId",
              "type": "uint256"
            },
            {
              "internalType": "address",
              "name": "verifier",
              "type": "address"
            },
            {
              "internalType": "uint256",
              "name": "starttime",
              "type": "uint256"
            },
            {
              "internalType": "uint256",
              "name": "endtime",
              "type": "uint256"
            },
            {
              "internalType": "bytes32",
              "name": "challengeHash",
              "type": "bytes32"
            },
            {
              "internalType": "enum DataTypes.State",
              "name": "state",
              "type": "uint8"
            },
            {
              "internalType": "address",
              "name": "creator",
              "type": "address"
            }
          ],
          "internalType": "struct DataTypes.MissionStruct",
          "name": "",
          "type": "tuple"
        },
        {
          "internalType": "uint256",
          "name": "",
          "type": "uint256"
        },
        {
          "internalType": "string",
          "name": "",
          "type": "string"
        }
      ],
      "stateMutability": "view",
      "type": "function"
    },
    {
      "inputs": [
        {
          "internalType": "uint256",
          "name": "profileId",
          "type": "uint256"
        },
        {
          "internalType": "uint256",
          "name": "missionId",
          "type": "uint256"
        }
      ],
      "name": "missionById",
      "outputs": [
        {
          "components": [
            {
              "internalType": "address",
              "name": "owner",
              "type": "address"
            },
            {
              "internalType": "uint256",
              "name": "profileId",
              "type": "uint256"
            },
            {
              "internalType": "uint256",
              "name": "tokenId",
              "type": "uint256"
            },
            {
              "internalType": "address",
              "name": "verifier",
              "type": "address"
            },
            {
              "internalType": "uint256",
              "name": "starttime",
              "type": "uint256"
            },
            {
              "internalType": "uint256",
              "name": "endtime",
              "type": "uint256"
            },
            {
              "internalType": "bytes32",
              "name": "challengeHash",
              "type": "bytes32"
            },
            {
              "internalType": "enum DataTypes.State",
              "name": "state",
              "type": "uint8"
            },
            {
              "internalType": "address",
              "name": "creator",
              "type": "address"
            }
          ],
          "internalType": "struct DataTypes.MissionStruct",
          "name": "",
          "type": "tuple"
        },
        {
          "internalType": "uint256",
          "name": "",
          "type": "uint256"
        },
        {
          "internalType": "string",
          "name": "",
          "type": "string"
        }
      ],
      "stateMutability": "view",
      "type": "function"
    },
    {
      "inputs": [
        {
          "internalType": "uint256",
          "name": "profileId",
          "type": "uint256"
        },
        {
          "internalType": "string",
          "name": "slug",
          "type": "string"
        }
      ],
      "name": "missionBySlug",
      "outputs": [
        {
          "components": [
            {
              "internalType": "address",
              "name": "owner",
              "type": "address"
            },
            {
              "internalType": "uint256",
              "name": "profileId",
              "type": "uint256"
            },
            {
              "internalType": "uint256",
              "name": "tokenId",
              "type": "uint256"
            },
            {
              "internalType": "address",
              "name": "verifier",
              "type": "address"
            },
            {
              "internalType": "uint256",
              "name": "starttime",
              "type": "uint256"
            },
            {
              "internalType": "uint256",
              "name": "endtime",
              "type": "uint256"
            },
            {
              "internalType": "bytes32",
              "name": "challengeHash",
              "type": "bytes32"
            },
            {
              "internalType": "enum DataTypes.State",
              "name": "state",
              "type": "uint8"
            },
            {
              "internalType": "address",
              "name": "creator",
              "type": "address"
            }
          ],
          "internalType": "struct DataTypes.MissionStruct",
          "name": "",
          "type": "tuple"
        }
      ],
      "stateMutability": "view",
      "type": "function"
    },
    {
      "inputs": [
        {
          "internalType": "string",
          "name": "slug",
          "type": "string"
        }
      ],
      "name": "missionIdBySlug",
      "outputs": [
        {
          "internalType": "uint256",
          "name": "",
          "type": "uint256"
        }
      ],
      "stateMutability": "view",
      "type": "function"
    },
    {
      "inputs": [],
      "name": "missionNFT",
      "outputs": [
        {
          "internalType": "address",
          "name": "",
          "type": "address"
        }
      ],
      "stateMutability": "view",
      "type": "function"
    },
    {
      "inputs": [
        {
          "internalType": "address",
          "name": "",
          "type": "address"
        },
        {
          "internalType": "address",
          "name": "",
          "type": "address"
        },
        {
          "internalType": "uint256",
          "name": "",
          "type": "uint256"
        },
        {
          "internalType": "bytes",
          "name": "",
          "type": "bytes"
        }
      ],
      "name": "onERC721Received",
      "outputs": [
        {
          "internalType": "bytes4",
          "name": "",
          "type": "bytes4"
        }
      ],
      "stateMutability": "nonpayable",
      "type": "function"
    },
    {
      "inputs": [],
      "name": "pompHub",
      "outputs": [
        {
          "internalType": "address",
          "name": "",
          "type": "address"
        }
      ],
      "stateMutability": "view",
      "type": "function"
    },
    {
      "inputs": [
        {
          "internalType": "bytes32",
          "name": "role",
          "type": "bytes32"
        },
        {
          "internalType": "address",
          "name": "account",
          "type": "address"
        }
      ],
      "name": "renounceRole",
      "outputs": [],
      "stateMutability": "nonpayable",
      "type": "function"
    },
    {
      "inputs": [
        {
          "internalType": "bytes32",
          "name": "role",
          "type": "bytes32"
        },
        {
          "internalType": "address",
          "name": "account",
          "type": "address"
        }
      ],
      "name": "revokeRole",
      "outputs": [],
      "stateMutability": "nonpayable",
      "type": "function"
    },
    {
      "inputs": [
        {
          "internalType": "address",
          "name": "",
          "type": "address"
        }
      ],
      "name": "sigNonces",
      "outputs": [
        {
          "internalType": "uint256",
          "name": "",
          "type": "uint256"
        }
      ],
      "stateMutability": "view",
      "type": "function"
    },
    {
      "inputs": [
        {
          "components": [
            {
              "internalType": "uint256",
              "name": "profileId",
              "type": "uint256"
            },
            {
              "internalType": "string",
              "name": "slug",
              "type": "string"
            },
            {
              "internalType": "string",
              "name": "contentURI",
              "type": "string"
            },
            {
              "internalType": "uint256",
              "name": "minutesToExpire",
              "type": "uint256"
            },
            {
              "internalType": "address",
              "name": "creator",
              "type": "address"
            },
            {
              "internalType": "address",
              "name": "verifier",
              "type": "address"
            },
            {
              "internalType": "bytes",
              "name": "signature",
              "type": "bytes"
            },
            {
              "internalType": "uint256",
              "name": "deadline",
              "type": "uint256"
            }
          ],
          "internalType": "struct DataTypes.StartWithSigData",
          "name": "vars",
          "type": "tuple"
        },
        {
          "internalType": "address",
          "name": "owner",
          "type": "address"
        }
      ],
      "name": "startWithSig",
      "outputs": [
        {
          "internalType": "uint256",
          "name": "",
          "type": "uint256"
        }
      ],
      "stateMutability": "nonpayable",
      "type": "function"
    },
    {
      "inputs": [
        {
          "internalType": "bytes4",
          "name": "interfaceId",
          "type": "bytes4"
        }
      ],
      "name": "supportsInterface",
      "outputs": [
        {
          "internalType": "bool",
          "name": "",
          "type": "bool"
        }
      ],
      "stateMutability": "view",
      "type": "function"
    },
    {
      "inputs": [
        {
          "components": [
            {
              "internalType": "uint256",
              "name": "profileId",
              "type": "uint256"
            },
            {
              "internalType": "string",
              "name": "challenge",
              "type": "string"
            },
            {
              "internalType": "bytes",
              "name": "signature",
              "type": "bytes"
            },
            {
              "internalType": "uint256",
              "name": "deadline",
              "type": "uint256"
            }
          ],
          "internalType": "struct DataTypes.VerifyWithSigData",
          "name": "vars",
          "type": "tuple"
        },
        {
          "internalType": "address",
          "name": "sender",
          "type": "address"
        }
      ],
      "name": "verifyWithSig",
      "outputs": [],
      "stateMutability": "nonpayable",
      "type": "function"
    }
  ],
  "transactionHash": "0x5334a245e93716454b9cd42cd3ee42bcf9f7cc3e2263d26256211de577f9bfa4",
  "args": [
    "0xb2f669cca65ca0c3e70364a07c311aa86fc030a5",
    "0xafEC3b28bf567fb768B71586EA72541781Bd3c13"
  ],
  "numDeployments": 1,
  "solcInputHash": "a8a00f00559ae78872c380c4531d99e2",
  "bytecode": "0x6101806040523480156200001257600080fd5b50604051620058ef380380620058ef833981810160405281019062000038919062000418565b6040518060400160405280600481526020017f506f6d70000000000000000000000000000000000000000000000000000000008152506040518060400160405280600181526020017f310000000000000000000000000000000000000000000000000000000000000081525060008280519060200120905060008280519060200120905060007f8b73c3c69bb8fe3d512ecc4cf759cc79239f7b179b0ffacaa9a75d522b39400f90508260e081815250508161010081815250504660a081815250506200010d8184846200020f60201b60201c565b608081815250503073ffffffffffffffffffffffffffffffffffffffff1660c08173ffffffffffffffffffffffffffffffffffffffff168152505080610120818152505050505050506200016b6000801b336200024b60201b60201c565b6200019d7f4761169e40d0efb53bf684d47e54c803c1511483244b1a2fca6dbbd91b4508d5836200024b60201b60201c565b8173ffffffffffffffffffffffffffffffffffffffff166101408173ffffffffffffffffffffffffffffffffffffffff16815250508073ffffffffffffffffffffffffffffffffffffffff166101608173ffffffffffffffffffffffffffffffffffffffff1681525050505062000503565b600083838346306040516020016200022c959493929190620004a6565b6040516020818303038152906040528051906020012090509392505050565b6200025d82826200033c60201b60201c565b6200033857600160008084815260200190815260200160002060000160008373ffffffffffffffffffffffffffffffffffffffff1673ffffffffffffffffffffffffffffffffffffffff16815260200190815260200160002060006101000a81548160ff021916908315150217905550620002dd620003a660201b60201c565b73ffffffffffffffffffffffffffffffffffffffff168173ffffffffffffffffffffffffffffffffffffffff16837f2f8788117e7eff1d82e926ec794901d17c78024a50270940304540a733656f0d60405160405180910390a45b5050565b600080600084815260200190815260200160002060000160008373ffffffffffffffffffffffffffffffffffffffff1673ffffffffffffffffffffffffffffffffffffffff16815260200190815260200160002060009054906101000a900460ff16905092915050565b600033905090565b600080fd5b600073ffffffffffffffffffffffffffffffffffffffff82169050919050565b6000620003e082620003b3565b9050919050565b620003f281620003d3565b8114620003fe57600080fd5b50565b6000815190506200041281620003e7565b92915050565b60008060408385031215620004325762000431620003ae565b5b6000620004428582860162000401565b9250506020620004558582860162000401565b9150509250929050565b6000819050919050565b62000474816200045f565b82525050565b6000819050919050565b6200048f816200047a565b82525050565b620004a081620003d3565b82525050565b600060a082019050620004bd600083018862000469565b620004cc602083018762000469565b620004db604083018662000469565b620004ea606083018562000484565b620004f9608083018462000495565b9695505050505050565b60805160a05160c05160e0516101005161012051610140516101605161534e620005a160003960008181610baf01528181611041015281816110eb0152818161143a0152818161190b01528181611e1a0152818161235f015261267301526000818161201b01526122ac01526000612a9e01526000612ae001526000612abf015260006129f401526000612a4a01526000612a73015261534e6000f3fe608060405234801561001057600080fd5b506004361061014d5760003560e01c8063a217fddf116100c3578063cb3c0a1e1161007c578063cb3c0a1e146103d6578063d547741f146103f2578063e5d9ce0b1461040e578063ed23bab91461042c578063f990ccd71461045c578063f9ea0daa1461048c5761014d565b8063a217fddf14610300578063a61e4f761461031e578063b51de50e14610350578063c171e3891461036e578063c263beaa1461038a578063c483dc3e146103a65761014d565b80632a1d5955116101155780632a1d59551461022e5780632f2ff15d1461024a57806336568abe1461026657806347119c5f1461028257806391d14854146102b257806399dac981146102e25761014d565b806301ffc9a7146101525780630c426988146101825780630dd0a9961461019e578063150b7a02146101ce578063248a9ca3146101fe575b600080fd5b61016c60048036038101906101679190612f5f565b6104be565b6040516101799190612fa7565b60405180910390f35b61019c60048036038101906101979190613044565b6104d0565b005b6101b860048036038101906101b391906130bf565b6107ba565b6040516101c59190612fa7565b60405180910390f35b6101e860048036038101906101e39190613297565b610904565b6040516101f59190613329565b60405180910390f35b6102186004803603810190610213919061337a565b610918565b60405161022591906133b6565b60405180910390f35b610248600480360381019061024391906133f0565b610937565b005b610264600480360381019061025f919061344c565b610d04565b005b610280600480360381019061027b919061344c565b610d25565b005b61029c600480360381019061029791906134ec565b610da8565b6040516102a991906136a7565b60405180910390f35b6102cc60048036038101906102c7919061344c565b610f82565b6040516102d99190612fa7565b60405180910390f35b6102ea610fec565b6040516102f791906133b6565b60405180910390f35b610308611010565b60405161031591906133b6565b60405180910390f35b610338600480360381019061033391906136c3565b611017565b604051610347939291906137a7565b60405180910390f35b6103586110e9565b60405161036591906137f7565b60405180910390f35b61038860048036038101906103839190613831565b61110d565b005b6103a4600480360381019061039f91906138ac565b6115cf565b005b6103c060048036038101906103bb91906136c3565b611aae565b6040516103cd9190613908565b60405180910390f35b6103f060048036038101906103eb9190613942565b611ae3565b005b61040c6004803603810190610407919061344c565b611ff8565b005b610416612019565b60405161042391906137f7565b60405180910390f35b610446600480360381019061044191906139be565b61203d565b6040516104539190613908565b60405180910390f35b61047660048036038101906104719190613a1a565b612631565b6040516104839190613908565b60405180910390f35b6104a660048036038101906104a19190613a47565b612649565b6040516104b5939291906137a7565b60405180910390f35b60006104c982612715565b9050919050565b6104fa7f4761169e40d0efb53bf684d47e54c803c1511483244b1a2fca6dbbd91b4508d533610f82565b610539576040517f08c379a000000000000000000000000000000000000000000000000000000000815260040161053090613ad3565b60405180910390fd5b7360011d26C3c1C4b7f5d9B7c1ad7fd9448Ba4150b63a3cdda1361061c7fd4f619864f63edbc545c29cb83475e9806d540c2177352618fabef4fcac34e14856000013586602001358780604001906105919190613b02565b60405161059f929190613b95565b6040518091039020600160008973ffffffffffffffffffffffffffffffffffffffff1673ffffffffffffffffffffffffffffffffffffffff16815260200190815260200160002054896080013560405160200161060196959493929190613bae565b6040516020818303038152906040528051906020012061278f565b8385806060019061062d9190613c0f565b87608001356040518663ffffffff1660e01b8152600401610652959493929190613cdd565b60206040518083038186803b15801561066a57600080fd5b505af415801561067e573d6000803e3d6000fd5b505050506040513d601f19601f820116820180604052508101906106a29190613d57565b506000807360011d26C3c1C4b7f5d9B7c1ad7fd9448Ba4150b63b032ea0c856000013586602001358780604001906106da9190613b02565b8860056003600460016040518a63ffffffff1660e01b815260040161070799989796959493929190613dd7565b604080518083038186803b15801561071e57600080fd5b505af4158015610732573d6000803e3d6000fd5b505050506040513d601f19601f820116820180604052508101906107569190613e88565b91509150836020013584600001358373ffffffffffffffffffffffffffffffffffffffff167fcca46c76156e4bf43e5edc1745b6c45eac7cfc0fda52475fa0f81cdcb42a5c6284426040516107ac929190613ec8565b60405180910390a450505050565b60007360011d26C3c1C4b7f5d9B7c1ad7fd9448Ba4150b63952c277860405180606001604052808680600001906107f19190613ef1565b80806020026020016040519081016040528093929190818152602001838360200280828437600081840152601f19601f8201169050808301925050505050505081526020018680602001906108469190613b02565b8080601f016020809104026020016040519081016040528093929190818152602001838380828437600081840152601f19601f8201169050808301925050505050505081526020018573ffffffffffffffffffffffffffffffffffffffff16815250600560036040518463ffffffff1660e01b81526004016108ca939291906140c2565b60006040518083038186803b1580156108e257600080fd5b505af41580156108f6573d6000803e3d6000fd5b505050506001905092915050565b600063150b7a0260e01b9050949350505050565b6000806000838152602001908152602001600020600101549050919050565b6109617f4761169e40d0efb53bf684d47e54c803c1511483244b1a2fca6dbbd91b4508d533610f82565b6109a0576040517f08c379a000000000000000000000000000000000000000000000000000000000815260040161099790613ad3565b60405180910390fd5b7360011d26C3c1C4b7f5d9B7c1ad7fd9448Ba4150b63a3cdda13610a5c7f76193c8d609e139a018adf57bae0c3c4c7a2d0eb05701223b06bd8c01adc48c885600001358660200135600160008873ffffffffffffffffffffffffffffffffffffffff1673ffffffffffffffffffffffffffffffffffffffff168152602001908152602001600020548860600135604051602001610a41959493929190614100565b6040516020818303038152906040528051906020012061278f565b83858060400190610a6d9190613c0f565b87606001356040518663ffffffff1660e01b8152600401610a92959493929190613cdd565b60206040518083038186803b158015610aaa57600080fd5b505af4158015610abe573d6000803e3d6000fd5b505050506040513d601f19601f82011682018060405250810190610ae29190613d57565b507360011d26C3c1C4b7f5d9B7c1ad7fd9448Ba4150b63ae4bd6d083600001358460200135600060056040518563ffffffff1660e01b8152600401610b2a9493929190614162565b60006040518083038186803b158015610b4257600080fd5b505af4158015610b56573d6000803e3d6000fd5b50505050600160008273ffffffffffffffffffffffffffffffffffffffff1673ffffffffffffffffffffffffffffffffffffffff16815260200190815260200160002060008154610ba6906141d6565b919050819055507f000000000000000000000000000000000000000000000000000000000000000073ffffffffffffffffffffffffffffffffffffffff166342966c686005600085600001358152602001908152602001600020600085602001358152602001908152602001600020600201546040518263ffffffff1660e01b8152600401610c359190613908565b600060405180830381600087803b158015610c4f57600080fd5b505af1158015610c63573d6000803e3d6000fd5b505050506001600560008460000135815260200190815260200160002060008460200135815260200190815260200160002060070160006101000a81548160ff02191690836004811115610cba57610cb9613579565b5b0217905550816020013582600001357fff3596231ab8e5bb37a9baf7f9355110d118c17f0c60731ec93eb199d37f745742604051610cf89190613908565b60405180910390a35050565b610d0d82610918565b610d16816127a9565b610d2083836127bd565b505050565b610d2d61289d565b73ffffffffffffffffffffffffffffffffffffffff168173ffffffffffffffffffffffffffffffffffffffff1614610d9a576040517f08c379a0000000000000000000000000000000000000000000000000000000008152600401610d9190614291565b60405180910390fd5b610da482826128a5565b5050565b610db0612e50565b600560008581526020019081526020016000206000600260008686604051610dd9929190613b95565b60405180910390208152602001908152602001600020548152602001908152602001600020604051806101200160405290816000820160009054906101000a900473ffffffffffffffffffffffffffffffffffffffff1673ffffffffffffffffffffffffffffffffffffffff1673ffffffffffffffffffffffffffffffffffffffff16815260200160018201548152602001600282015481526020016003820160009054906101000a900473ffffffffffffffffffffffffffffffffffffffff1673ffffffffffffffffffffffffffffffffffffffff1673ffffffffffffffffffffffffffffffffffffffff1681526020016004820154815260200160058201548152602001600682015481526020016007820160009054906101000a900460ff166004811115610f0d57610f0c613579565b5b6004811115610f1f57610f1e613579565b5b81526020016007820160019054906101000a900473ffffffffffffffffffffffffffffffffffffffff1673ffffffffffffffffffffffffffffffffffffffff1673ffffffffffffffffffffffffffffffffffffffff168152505090509392505050565b600080600084815260200190815260200160002060000160008373ffffffffffffffffffffffffffffffffffffffff1673ffffffffffffffffffffffffffffffffffffffff16815260200190815260200160002060009054906101000a900460ff16905092915050565b7f4761169e40d0efb53bf684d47e54c803c1511483244b1a2fca6dbbd91b4508d581565b6000801b81565b61101f612e50565b600060607360011d26C3c1C4b7f5d9B7c1ad7fd9448Ba4150b63b4d61add86867f00000000000000000000000000000000000000000000000000000000000000006005600360046040518763ffffffff1660e01b8152600401611087969594939291906142b1565b60006040518083038186803b15801561109f57600080fd5b505af41580156110b3573d6000803e3d6000fd5b505050506040513d6000823e3d601f19601f820116820180604052508101906110dc91906144cd565b9250925092509250925092565b7f000000000000000000000000000000000000000000000000000000000000000081565b6111377f4761169e40d0efb53bf684d47e54c803c1511483244b1a2fca6dbbd91b4508d533610f82565b611176576040517f08c379a000000000000000000000000000000000000000000000000000000000815260040161116d90613ad3565b60405180910390fd5b60008280602001906111889190613b02565b604051611196929190613b95565b604051809103902090507360011d26C3c1C4b7f5d9B7c1ad7fd9448Ba4150b63a3cdda1361125e7f9cc3774350162d9de873401b80ebde33ff0f4f4a6bc7ee58dda6ef202b2d860f8660000135858860400135600160008a73ffffffffffffffffffffffffffffffffffffffff1673ffffffffffffffffffffffffffffffffffffffff168152602001908152602001600020548a608001356040516020016112439695949392919061453f565b6040516020818303038152906040528051906020012061278f565b8486806060019061126f9190613c0f565b88608001356040518663ffffffff1660e01b8152600401611294959493929190613cdd565b60206040518083038186803b1580156112ac57600080fd5b505af41580156112c0573d6000803e3d6000fd5b505050506040513d601f19601f820116820180604052508101906112e49190613d57565b5060007360011d26C3c1C4b7f5d9B7c1ad7fd9448Ba4150b63818a024c8360036040518363ffffffff1660e01b81526004016113219291906145a0565b60206040518083038186803b15801561133957600080fd5b505af415801561134d573d6000803e3d6000fd5b505050506040513d601f19601f8201168201806040525081019061137191906145c9565b90507360011d26C3c1C4b7f5d9B7c1ad7fd9448Ba4150b63735d8b2a8560000135838660056040518563ffffffff1660e01b81526004016113b594939291906145f6565b60006040518083038186803b1580156113cd57600080fd5b505af41580156113e1573d6000803e3d6000fd5b50505050600160008473ffffffffffffffffffffffffffffffffffffffff1673ffffffffffffffffffffffffffffffffffffffff16815260200190815260200160002060008154611431906141d6565b919050819055507f000000000000000000000000000000000000000000000000000000000000000073ffffffffffffffffffffffffffffffffffffffff166342966c6860056000876000013581526020019081526020016000206000848152602001908152602001600020600201546040518263ffffffff1660e01b81526004016114bc9190613908565b600060405180830381600087803b1580156114d657600080fd5b505af11580156114ea573d6000803e3d6000fd5b5050505060046005600086600001358152602001908152602001600020600083815260200190815260200160002060070160006101000a81548160ff0219169083600481111561153d5761153c613579565b5b02179055508084600001358473ffffffffffffffffffffffffffffffffffffffff167f707b8ad08e58bc5a2367c8c45625ddb87d54731363b778f5722d10a345254dec60056000896000013581526020019081526020016000206000868152602001908152602001600020600601548860400135426040516115c19392919061463b565b60405180910390a450505050565b6115f97f4761169e40d0efb53bf684d47e54c803c1511483244b1a2fca6dbbd91b4508d533610f82565b611638576040517f08c379a000000000000000000000000000000000000000000000000000000000815260040161162f90613ad3565b60405180910390fd5b60008060007360011d26C3c1C4b7f5d9B7c1ad7fd9448Ba4150b63d8a6271061174c7f4ec37a5398d88f8f6568620d918107772e8b3aa8ee69e4329a3daeeb0a6a357288806000019061168b9190613ef1565b60405160200161169c9291906146de565b604051602081830303815290604052805190602001208980602001906116c29190613b02565b6040516116d0929190613b95565b6040518091039020600160008b73ffffffffffffffffffffffffffffffffffffffff1673ffffffffffffffffffffffffffffffffffffffff168152602001908152602001600020548b606001356040516020016117319594939291906146f7565b6040516020818303038152906040528051906020012061278f565b8688806040019061175d9190613c0f565b8a6060013560405180606001604052808d806000019061177d9190613ef1565b80806020026020016040519081016040528093929190818152602001838360200280828437600081840152601f19601f8201169050808301925050505050505081526020018d80602001906117d29190613b02565b8080601f016020809104026020016040519081016040528093929190818152602001838380828437600081840152601f19601f8201169050808301925050505050505081526020018c73ffffffffffffffffffffffffffffffffffffffff16815250600560036040518963ffffffff1660e01b815260040161185b98979695949392919061474a565b60006040518083038186803b15801561187357600080fd5b505af4158015611887573d6000803e3d6000fd5b505050506040513d6000823e3d601f19601f820116820180604052508101906118b0919061494f565b925092509250600160008573ffffffffffffffffffffffffffffffffffffffff1673ffffffffffffffffffffffffffffffffffffffff16815260200190815260200160002060008154611902906141d6565b919050819055507f000000000000000000000000000000000000000000000000000000000000000073ffffffffffffffffffffffffffffffffffffffff1663c182178e3085856040518463ffffffff1660e01b815260040161196693929190614b2c565b600060405180830381600087803b15801561198057600080fd5b505af1158015611994573d6000803e3d6000fd5b5050505060005b8580600001906119ab9190613ef1565b9050811015611a56576003600560008880600001906119ca9190613ef1565b858181106119db576119da614b71565b5b9050602002013581526020019081526020016000206000848481518110611a0557611a04614b71565b5b6020026020010151815260200190815260200160002060070160006101000a81548160ff02191690836004811115611a4057611a3f613579565b5b021790555080611a4f906141d6565b905061199b565b5082518473ffffffffffffffffffffffffffffffffffffffff167f4f1c4c01ed0bb6c3c7eab533380dc1f5a1688f9dca14f664f51a8052002a882942604051611a9f9190613908565b60405180910390a35050505050565b6000600260008484604051611ac4929190613b95565b6040518091039020815260200190815260200160002054905092915050565b611b0d7f4761169e40d0efb53bf684d47e54c803c1511483244b1a2fca6dbbd91b4508d533610f82565b611b4c576040517f08c379a0000000000000000000000000000000000000000000000000000000008152600401611b4390613ad3565b60405180910390fd5b60007360011d26C3c1C4b7f5d9B7c1ad7fd9448Ba4150b637da7cda0611c2b7fa40842dfb38adb5c9b877f026d498df2a82043c9a0f6e3f83bb60ac349e14b498660000135878060200190611ba19190613b02565b604051611baf929190613b95565b6040518091039020600160008973ffffffffffffffffffffffffffffffffffffffff1673ffffffffffffffffffffffffffffffffffffffff168152602001908152602001600020548960600135604051602001611c10959493929190614ba0565b6040516020818303038152906040528051906020012061278f565b84868060400190611c3c9190613c0f565b8860600135898060200190611c519190613b02565b6040518863ffffffff1660e01b8152600401611c739796959493929190614bf3565b60206040518083038186803b158015611c8b57600080fd5b505af4158015611c9f573d6000803e3d6000fd5b505050506040513d601f19601f82011682018060405250810190611cc39190614c58565b905060007360011d26C3c1C4b7f5d9B7c1ad7fd9448Ba4150b63818a024c8360036040518363ffffffff1660e01b8152600401611d019291906145a0565b60206040518083038186803b158015611d1957600080fd5b505af4158015611d2d573d6000803e3d6000fd5b505050506040513d601f19601f82011682018060405250810190611d5191906145c9565b90507360011d26C3c1C4b7f5d9B7c1ad7fd9448Ba4150b63735d8b2a8560000135838660056040518563ffffffff1660e01b8152600401611d9594939291906145f6565b60006040518083038186803b158015611dad57600080fd5b505af4158015611dc1573d6000803e3d6000fd5b50505050600160008473ffffffffffffffffffffffffffffffffffffffff1673ffffffffffffffffffffffffffffffffffffffff16815260200190815260200160002060008154611e11906141d6565b919050819055507f000000000000000000000000000000000000000000000000000000000000000073ffffffffffffffffffffffffffffffffffffffff166342842e0e306005600088600001358152602001908152602001600020600085815260200190815260200160002060000160009054906101000a900473ffffffffffffffffffffffffffffffffffffffff1660056000896000013581526020019081526020016000206000868152602001908152602001600020600201546040518463ffffffff1660e01b8152600401611eeb93929190614c85565b600060405180830381600087803b158015611f0557600080fd5b505af1158015611f19573d6000803e3d6000fd5b5050505060036005600086600001358152602001908152602001600020600083815260200190815260200160002060070160006101000a81548160ff02191690836004811115611f6c57611f6b613579565b5b02179055508084600001358473ffffffffffffffffffffffffffffffffffffffff167fd9cc7312aeed0c2fe657f2d0972f6fde1b32ff59c7abcf319942e84f507e738e600560008960000135815260200190815260200160002060008681526020019081526020016000206006015442604051611fea929190613ec8565b60405180910390a450505050565b61200182610918565b61200a816127a9565b61201483836128a5565b505050565b7f000000000000000000000000000000000000000000000000000000000000000081565b60006120697f4761169e40d0efb53bf684d47e54c803c1511483244b1a2fca6dbbd91b4508d533610f82565b6120a8576040517f08c379a000000000000000000000000000000000000000000000000000000000815260040161209f90613ad3565b60405180910390fd5b7360011d26C3c1C4b7f5d9B7c1ad7fd9448Ba4150b634dd689186121da7f29be98e70cea08d618dc7e253dea019af07adea87df664c2c3c55cb783cfd3bb86600001358780602001906120fb9190613b02565b604051612109929190613b95565b60405180910390208880604001906121219190613b02565b60405161212f929190613b95565b604051809103902089606001358a608001602081019061214f9190613a1a565b8b60a00160208101906121629190613a1a565b600160008d73ffffffffffffffffffffffffffffffffffffffff1673ffffffffffffffffffffffffffffffffffffffff168152602001908152602001600020548d60e001356040516020016121bf99989796959493929190614cbc565b6040516020818303038152906040528051906020012061278f565b84868060c001906121eb9190613c0f565b8860e001358980602001906122009190613b02565b60026040518963ffffffff1660e01b8152600401612225989796959493929190614d49565b60006040518083038186803b15801561223d57600080fd5b505af4158015612251573d6000803e3d6000fd5b50505050600160008373ffffffffffffffffffffffffffffffffffffffff1673ffffffffffffffffffffffffffffffffffffffff168152602001908152602001600020600081546122a1906141d6565b9190508190555060007f000000000000000000000000000000000000000000000000000000000000000073ffffffffffffffffffffffffffffffffffffffff166316cd4c3a85600001356040518263ffffffff1660e01b81526004016123079190613908565b602060405180830381600087803b15801561232157600080fd5b505af1158015612335573d6000803e3d6000fd5b505050506040513d601f19601f8201168201806040525081019061235991906145c9565b905060007f000000000000000000000000000000000000000000000000000000000000000073ffffffffffffffffffffffffffffffffffffffff16635ff97ebf308780604001906123aa9190613b02565b8960800160208101906123bd9190613a1a565b60006040518663ffffffff1660e01b81526004016123df959493929190614e46565b602060405180830381600087803b1580156123f957600080fd5b505af115801561240d573d6000803e3d6000fd5b505050506040513d601f19601f8201168201806040525081019061243191906145c9565b905060007360011d26C3c1C4b7f5d9B7c1ad7fd9448Ba4150b6393e7ae646040518061010001604052808960000135815260200185815260200189806020019061247b9190613b02565b8080601f016020809104026020016040519081016040528093929190818152602001838380828437600081840152601f19601f820116905080830192505050505050508152602001896060013581526020018960800160208101906124e09190613a1a565b73ffffffffffffffffffffffffffffffffffffffff1681526020018960a001602081019061250e9190613a1a565b73ffffffffffffffffffffffffffffffffffffffff1681526020018873ffffffffffffffffffffffffffffffffffffffff16815260200186815250600560026040518463ffffffff1660e01b815260040161256b93929190614f44565b60206040518083038186803b15801561258357600080fd5b505af4158015612597573d6000803e3d6000fd5b505050506040513d601f19601f820116820180604052508101906125bb91906145c9565b90508286600001358760800160208101906125d69190613a1a565b73ffffffffffffffffffffffffffffffffffffffff167f27bf9a004cd5f8eb61e6bd7610afc3aeeb4d046a608102a140f1508064d85165844260405161261d929190614f82565b60405180910390a481935050505092915050565b60016020528060005260406000206000915090505481565b612651612e50565b600060607360011d26C3c1C4b7f5d9B7c1ad7fd9448Ba4150b633ba0f99186867f000000000000000000000000000000000000000000000000000000000000000060056040518563ffffffff1660e01b81526004016126b394939291906145f6565b60006040518083038186803b1580156126cb57600080fd5b505af41580156126df573d6000803e3d6000fd5b505050506040513d6000823e3d601f19601f8201168201806040525081019061270891906144cd565b9250925092509250925092565b60007f7965db0b000000000000000000000000000000000000000000000000000000007bffffffffffffffffffffffffffffffffffffffffffffffffffffffff1916827bffffffffffffffffffffffffffffffffffffffffffffffffffffffff19161480612788575061278782612986565b5b9050919050565b60006127a261279c6129f0565b83612b0a565b9050919050565b6127ba816127b561289d565b612b3d565b50565b6127c78282610f82565b61289957600160008084815260200190815260200160002060000160008373ffffffffffffffffffffffffffffffffffffffff1673ffffffffffffffffffffffffffffffffffffffff16815260200190815260200160002060006101000a81548160ff02191690831515021790555061283e61289d565b73ffffffffffffffffffffffffffffffffffffffff168173ffffffffffffffffffffffffffffffffffffffff16837f2f8788117e7eff1d82e926ec794901d17c78024a50270940304540a733656f0d60405160405180910390a45b5050565b600033905090565b6128af8282610f82565b1561298257600080600084815260200190815260200160002060000160008373ffffffffffffffffffffffffffffffffffffffff1673ffffffffffffffffffffffffffffffffffffffff16815260200190815260200160002060006101000a81548160ff02191690831515021790555061292761289d565b73ffffffffffffffffffffffffffffffffffffffff168173ffffffffffffffffffffffffffffffffffffffff16837ff6391f5c32d9c69d2a47ea670b442974b53935d1edc7fd64eb21e047a839171b60405160405180910390a45b5050565b60007f01ffc9a7000000000000000000000000000000000000000000000000000000007bffffffffffffffffffffffffffffffffffffffffffffffffffffffff1916827bffffffffffffffffffffffffffffffffffffffffffffffffffffffff1916149050919050565b60007f000000000000000000000000000000000000000000000000000000000000000073ffffffffffffffffffffffffffffffffffffffff163073ffffffffffffffffffffffffffffffffffffffff16148015612a6c57507f000000000000000000000000000000000000000000000000000000000000000046145b15612a99577f00000000000000000000000000000000000000000000000000000000000000009050612b07565b612b047f00000000000000000000000000000000000000000000000000000000000000007f00000000000000000000000000000000000000000000000000000000000000007f0000000000000000000000000000000000000000000000000000000000000000612bda565b90505b90565b60008282604051602001612b1f929190615023565b60405160208183030381529060405280519060200120905092915050565b612b478282610f82565b612bd657612b6c8173ffffffffffffffffffffffffffffffffffffffff166014612c14565b612b7a8360001c6020612c14565b604051602001612b8b929190615123565b6040516020818303038152906040526040517f08c379a0000000000000000000000000000000000000000000000000000000008152600401612bcd919061515d565b60405180910390fd5b5050565b60008383834630604051602001612bf595949392919061517f565b6040516020818303038152906040528051906020012090509392505050565b606060006002836002612c2791906151d2565b612c31919061522c565b67ffffffffffffffff811115612c4a57612c4961316c565b5b6040519080825280601f01601f191660200182016040528015612c7c5781602001600182028036833780820191505090505b5090507f300000000000000000000000000000000000000000000000000000000000000081600081518110612cb457612cb3614b71565b5b60200101907effffffffffffffffffffffffffffffffffffffffffffffffffffffffffffff1916908160001a9053507f780000000000000000000000000000000000000000000000000000000000000081600181518110612d1857612d17614b71565b5b60200101907effffffffffffffffffffffffffffffffffffffffffffffffffffffffffffff1916908160001a90535060006001846002612d5891906151d2565b612d62919061522c565b90505b6001811115612e02577f3031323334353637383961626364656600000000000000000000000000000000600f861660108110612da457612da3614b71565b5b1a60f81b828281518110612dbb57612dba614b71565b5b60200101907effffffffffffffffffffffffffffffffffffffffffffffffffffffffffffff1916908160001a905350600485901c945080612dfb90615282565b9050612d65565b5060008414612e46576040517f08c379a0000000000000000000000000000000000000000000000000000000008152600401612e3d906152f8565b60405180910390fd5b8091505092915050565b604051806101200160405280600073ffffffffffffffffffffffffffffffffffffffff1681526020016000815260200160008152602001600073ffffffffffffffffffffffffffffffffffffffff16815260200160008152602001600081526020016000801916815260200160006004811115612ed057612ecf613579565b5b8152602001600073ffffffffffffffffffffffffffffffffffffffff1681525090565b6000604051905090565b600080fd5b600080fd5b60007fffffffff0000000000000000000000000000000000000000000000000000000082169050919050565b612f3c81612f07565b8114612f4757600080fd5b50565b600081359050612f5981612f33565b92915050565b600060208284031215612f7557612f74612efd565b5b6000612f8384828501612f4a565b91505092915050565b60008115159050919050565b612fa181612f8c565b82525050565b6000602082019050612fbc6000830184612f98565b92915050565b600080fd5b600060a08284031215612fdd57612fdc612fc2565b5b81905092915050565b600073ffffffffffffffffffffffffffffffffffffffff82169050919050565b600061301182612fe6565b9050919050565b61302181613006565b811461302c57600080fd5b50565b60008135905061303e81613018565b92915050565b6000806040838503121561305b5761305a612efd565b5b600083013567ffffffffffffffff81111561307957613078612f02565b5b61308585828601612fc7565b92505060206130968582860161302f565b9150509250929050565b6000604082840312156130b6576130b5612fc2565b5b81905092915050565b600080604083850312156130d6576130d5612efd565b5b600083013567ffffffffffffffff8111156130f4576130f3612f02565b5b613100858286016130a0565b92505060206131118582860161302f565b9150509250929050565b6000819050919050565b61312e8161311b565b811461313957600080fd5b50565b60008135905061314b81613125565b92915050565b600080fd5b600080fd5b6000601f19601f8301169050919050565b7f4e487b7100000000000000000000000000000000000000000000000000000000600052604160045260246000fd5b6131a48261315b565b810181811067ffffffffffffffff821117156131c3576131c261316c565b5b80604052505050565b60006131d6612ef3565b90506131e2828261319b565b919050565b600067ffffffffffffffff8211156132025761320161316c565b5b61320b8261315b565b9050602081019050919050565b82818337600083830152505050565b600061323a613235846131e7565b6131cc565b90508281526020810184848401111561325657613255613156565b5b613261848285613218565b509392505050565b600082601f83011261327e5761327d613151565b5b813561328e848260208601613227565b91505092915050565b600080600080608085870312156132b1576132b0612efd565b5b60006132bf8782880161302f565b94505060206132d08782880161302f565b93505060406132e18782880161313c565b925050606085013567ffffffffffffffff81111561330257613301612f02565b5b61330e87828801613269565b91505092959194509250565b61332381612f07565b82525050565b600060208201905061333e600083018461331a565b92915050565b6000819050919050565b61335781613344565b811461336257600080fd5b50565b6000813590506133748161334e565b92915050565b6000602082840312156133905761338f612efd565b5b600061339e84828501613365565b91505092915050565b6133b081613344565b82525050565b60006020820190506133cb60008301846133a7565b92915050565b6000608082840312156133e7576133e6612fc2565b5b81905092915050565b6000806040838503121561340757613406612efd565b5b600083013567ffffffffffffffff81111561342557613424612f02565b5b613431858286016133d1565b92505060206134428582860161302f565b9150509250929050565b6000806040838503121561346357613462612efd565b5b600061347185828601613365565b92505060206134828582860161302f565b9150509250929050565b600080fd5b600080fd5b60008083601f8401126134ac576134ab613151565b5b8235905067ffffffffffffffff8111156134c9576134c861348c565b5b6020830191508360018202830111156134e5576134e4613491565b5b9250929050565b60008060006040848603121561350557613504612efd565b5b60006135138682870161313c565b935050602084013567ffffffffffffffff81111561353457613533612f02565b5b61354086828701613496565b92509250509250925092565b61355581613006565b82525050565b6135648161311b565b82525050565b61357381613344565b82525050565b7f4e487b7100000000000000000000000000000000000000000000000000000000600052602160045260246000fd5b600581106135b9576135b8613579565b5b50565b60008190506135ca826135a8565b919050565b60006135da826135bc565b9050919050565b6135ea816135cf565b82525050565b61012082016000820151613607600085018261354c565b50602082015161361a602085018261355b565b50604082015161362d604085018261355b565b506060820151613640606085018261354c565b506080820151613653608085018261355b565b5060a082015161366660a085018261355b565b5060c082015161367960c085018261356a565b5060e082015161368c60e08501826135e1565b506101008201516136a161010085018261354c565b50505050565b6000610120820190506136bd60008301846135f0565b92915050565b600080602083850312156136da576136d9612efd565b5b600083013567ffffffffffffffff8111156136f8576136f7612f02565b5b61370485828601613496565b92509250509250929050565b6137198161311b565b82525050565b600081519050919050565b600082825260208201905092915050565b60005b8381101561375957808201518184015260208101905061373e565b83811115613768576000848401525b50505050565b60006137798261371f565b613783818561372a565b935061379381856020860161373b565b61379c8161315b565b840191505092915050565b6000610160820190506137bd60008301866135f0565b6137cb610120830185613710565b8181036101408301526137de818461376e565b9050949350505050565b6137f181613006565b82525050565b600060208201905061380c60008301846137e8565b92915050565b600060a0828403121561382857613827612fc2565b5b81905092915050565b6000806040838503121561384857613847612efd565b5b600083013567ffffffffffffffff81111561386657613865612f02565b5b61387285828601613812565b92505060206138838582860161302f565b9150509250929050565b6000608082840312156138a3576138a2612fc2565b5b81905092915050565b600080604083850312156138c3576138c2612efd565b5b600083013567ffffffffffffffff8111156138e1576138e0612f02565b5b6138ed8582860161388d565b92505060206138fe8582860161302f565b9150509250929050565b600060208201905061391d6000830184613710565b92915050565b60006080828403121561393957613938612fc2565b5b81905092915050565b6000806040838503121561395957613958612efd565b5b600083013567ffffffffffffffff81111561397757613976612f02565b5b61398385828601613923565b92505060206139948582860161302f565b9150509250929050565b600061010082840312156139b5576139b4612fc2565b5b81905092915050565b600080604083850312156139d5576139d4612efd565b5b600083013567ffffffffffffffff8111156139f3576139f2612f02565b5b6139ff8582860161399e565b9250506020613a108582860161302f565b9150509250929050565b600060208284031215613a3057613a2f612efd565b5b6000613a3e8482850161302f565b91505092915050565b60008060408385031215613a5e57613a5d612efd565b5b6000613a6c8582860161313c565b9250506020613a7d8582860161313c565b9150509250929050565b7f4e6f744875620000000000000000000000000000000000000000000000000000600082015250565b6000613abd60068361372a565b9150613ac882613a87565b602082019050919050565b60006020820190508181036000830152613aec81613ab0565b9050919050565b600080fd5b600080fd5b600080fd5b60008083356001602003843603038112613b1f57613b1e613af3565b5b80840192508235915067ffffffffffffffff821115613b4157613b40613af8565b5b602083019250600182023603831315613b5d57613b5c613afd565b5b509250929050565b600081905092915050565b6000613b7c8385613b65565b9350613b89838584613218565b82840190509392505050565b6000613ba2828486613b70565b91508190509392505050565b600060c082019050613bc360008301896133a7565b613bd06020830188613710565b613bdd6040830187613710565b613bea60608301866133a7565b613bf76080830185613710565b613c0460a0830184613710565b979650505050505050565b60008083356001602003843603038112613c2c57613c2b613af3565b5b80840192508235915067ffffffffffffffff821115613c4e57613c4d613af8565b5b602083019250600182023603831315613c6a57613c69613afd565b5b509250929050565b613c7b81613344565b82525050565b613c8a81613006565b82525050565b600082825260208201905092915050565b6000613cad8385613c90565b9350613cba838584613218565b613cc38361315b565b840190509392505050565b613cd78161311b565b82525050565b6000608082019050613cf26000830188613c72565b613cff6020830187613c81565b8181036040830152613d12818587613ca1565b9050613d216060830184613cce565b9695505050505050565b613d3481612f8c565b8114613d3f57600080fd5b50565b600081519050613d5181613d2b565b92915050565b600060208284031215613d6d57613d6c612efd565b5b6000613d7b84828501613d42565b91505092915050565b600082825260208201905092915050565b6000613da18385613d84565b9350613dae838584613218565b613db78361315b565b840190509392505050565b8082525050565b8082525050565b8082525050565b600061010082019050613ded600083018c613cce565b613dfa602083018b613cce565b8181036040830152613e0d81898b613d95565b9050613e1c6060830188613c81565b613e296080830187613dc2565b613e3660a0830186613dc9565b613e4360c0830185613dc9565b613e5060e0830184613dd0565b9a9950505050505050505050565b600081519050613e6d81613018565b92915050565b600081519050613e828161334e565b92915050565b60008060408385031215613e9f57613e9e612efd565b5b6000613ead85828601613e5e565b9250506020613ebe85828601613e73565b9150509250929050565b6000604082019050613edd60008301856133a7565b613eea6020830184613710565b9392505050565b60008083356001602003843603038112613f0e57613f0d613af3565b5b80840192508235915067ffffffffffffffff821115613f3057613f2f613af8565b5b602083019250602082023603831315613f4c57613f4b613afd565b5b509250929050565b600081519050919050565b600082825260208201905092915050565b6000819050602082019050919050565b613f898161311b565b82525050565b6000613f9b8383613f80565b60208301905092915050565b6000602082019050919050565b6000613fbf82613f54565b613fc98185613f5f565b9350613fd483613f70565b8060005b83811015614005578151613fec8882613f8f565b9750613ff783613fa7565b925050600181019050613fd8565b5085935050505092915050565b600082825260208201905092915050565b600061402e8261371f565b6140388185614012565b935061404881856020860161373b565b6140518161315b565b840191505092915050565b61406581613006565b82525050565b600060608301600083015184820360008601526140888282613fb4565b915050602083015184820360208601526140a28282614023565b91505060408301516140b7604086018261405c565b508091505092915050565b600060608201905081810360008301526140dc818661406b565b90506140eb6020830185613dc2565b6140f86040830184613dc9565b949350505050565b600060a08201905061411560008301886133a7565b6141226020830187613710565b61412f6040830186613710565b61413c6060830185613710565b6141496080830184613710565b9695505050505050565b61415c81612f8c565b82525050565b60006080820190506141776000830187613cce565b6141846020830186613cce565b6141916040830185614153565b61419e6060830184613dc2565b95945050505050565b7f4e487b7100000000000000000000000000000000000000000000000000000000600052601160045260246000fd5b60006141e18261311b565b91507fffffffffffffffffffffffffffffffffffffffffffffffffffffffffffffffff821415614214576142136141a7565b5b600182019050919050565b7f416363657373436f6e74726f6c3a2063616e206f6e6c792072656e6f756e636560008201527f20726f6c657320666f722073656c660000000000000000000000000000000000602082015250565b600061427b602f8361372a565b91506142868261421f565b604082019050919050565b600060208201905081810360008301526142aa8161426e565b9050919050565b600060a08201905081810360008301526142cc81888a613d95565b90506142db6020830187613c81565b6142e86040830186613dc2565b6142f56060830185613dc9565b6143026080830184613dc9565b979650505050505050565b600080fd5b60008151905061432181613125565b92915050565b6005811061433457600080fd5b50565b60008151905061434681614327565b92915050565b600061012082840312156143635761436261430d565b5b61436e6101206131cc565b9050600061437e84828501613e5e565b600083015250602061439284828501614312565b60208301525060406143a684828501614312565b60408301525060606143ba84828501613e5e565b60608301525060806143ce84828501614312565b60808301525060a06143e284828501614312565b60a08301525060c06143f684828501613e73565b60c08301525060e061440a84828501614337565b60e08301525061010061441f84828501613e5e565b6101008301525092915050565b600067ffffffffffffffff8211156144475761444661316c565b5b6144508261315b565b9050602081019050919050565b600061447061446b8461442c565b6131cc565b90508281526020810184848401111561448c5761448b613156565b5b61449784828561373b565b509392505050565b600082601f8301126144b4576144b3613151565b5b81516144c484826020860161445d565b91505092915050565b600080600061016084860312156144e7576144e6612efd565b5b60006144f58682870161434c565b93505061012061450786828701614312565b92505061014084015167ffffffffffffffff81111561452957614528612f02565b5b6145358682870161449f565b9150509250925092565b600060c08201905061455460008301896133a7565b6145616020830188613710565b61456e60408301876133a7565b61457b6060830186613710565b6145886080830185613710565b61459560a0830184613710565b979650505050505050565b60006040820190506145b56000830185613c72565b6145c26020830184613dc9565b9392505050565b6000602082840312156145df576145de612efd565b5b60006145ed84828501614312565b91505092915050565b600060808201905061460b6000830187613cce565b6146186020830186613cce565b6146256040830185613c81565b6146326060830184613dc2565b95945050505050565b600060608201905061465060008301866133a7565b61465d6020830185613710565b61466a6040830184613710565b949350505050565b600081905092915050565b600080fd5b600061468e8385614672565b93507f07ffffffffffffffffffffffffffffffffffffffffffffffffffffffffffffff8311156146c1576146c061467d565b5b6020830292506146d2838584613218565b82840190509392505050565b60006146eb828486614682565b91508190509392505050565b600060a08201905061470c60008301886133a7565b61471960208301876133a7565b61472660408301866133a7565b6147336060830185613710565b6147406080830184613710565b9695505050505050565b600060e08201905061475f600083018b613c72565b61476c602083018a613c81565b818103604083015261477f81888a613ca1565b905061478e6060830187613cce565b81810360808301526147a0818661406b565b90506147af60a0830185613dc2565b6147bc60c0830184613dc9565b9998505050505050505050565b600067ffffffffffffffff8211156147e4576147e361316c565b5b602082029050602081019050919050565b6000614808614803846147c9565b6131cc565b9050808382526020820190506020840283018581111561482b5761482a613491565b5b835b8181101561485457806148408882613e5e565b84526020840193505060208101905061482d565b5050509392505050565b600082601f83011261487357614872613151565b5b81516148838482602086016147f5565b91505092915050565b600067ffffffffffffffff8211156148a7576148a661316c565b5b602082029050602081019050919050565b60006148cb6148c68461488c565b6131cc565b905080838252602082019050602084028301858111156148ee576148ed613491565b5b835b8181101561491757806149038882614312565b8452602084019350506020810190506148f0565b5050509392505050565b600082601f83011261493657614935613151565b5b81516149468482602086016148b8565b91505092915050565b60008060006060848603121561496857614967612efd565b5b600084015167ffffffffffffffff81111561498657614985612f02565b5b6149928682870161485e565b935050602084015167ffffffffffffffff8111156149b3576149b2612f02565b5b6149bf86828701614921565b925050604084015167ffffffffffffffff8111156149e0576149df612f02565b5b6149ec86828701614921565b9150509250925092565b600081519050919050565b600082825260208201905092915050565b6000819050602082019050919050565b6000614a2e838361354c565b60208301905092915050565b6000602082019050919050565b6000614a52826149f6565b614a5c8185614a01565b9350614a6783614a12565b8060005b83811015614a98578151614a7f8882614a22565b9750614a8a83614a3a565b925050600181019050614a6b565b5085935050505092915050565b600082825260208201905092915050565b6000614ac2838361355b565b60208301905092915050565b6000614ad982613f54565b614ae38185614aa5565b9350614aee83613f70565b8060005b83811015614b1f578151614b068882614ab6565b9750614b1183613fa7565b925050600181019050614af2565b5085935050505092915050565b6000606082019050614b4160008301866137e8565b8181036020830152614b538185614a47565b90508181036040830152614b678184614ace565b9050949350505050565b7f4e487b7100000000000000000000000000000000000000000000000000000000600052603260045260246000fd5b600060a082019050614bb560008301886133a7565b614bc26020830187613710565b614bcf60408301866133a7565b614bdc6060830185613710565b614be96080830184613710565b9695505050505050565b600060a082019050614c08600083018a613c72565b614c156020830189613c81565b8181036040830152614c28818789613ca1565b9050614c376060830186613cce565b8181036080830152614c4a818486613d95565b905098975050505050505050565b600060208284031215614c6e57614c6d612efd565b5b6000614c7c84828501613e73565b91505092915050565b6000606082019050614c9a60008301866137e8565b614ca760208301856137e8565b614cb46040830184613710565b949350505050565b600061012082019050614cd2600083018c6133a7565b614cdf602083018b613710565b614cec604083018a6133a7565b614cf960608301896133a7565b614d066080830188613710565b614d1360a08301876137e8565b614d2060c08301866137e8565b614d2d60e0830185613710565b614d3b610100830184613710565b9a9950505050505050505050565b600060c082019050614d5e600083018b613c72565b614d6b602083018a613c81565b8181036040830152614d7e81888a613ca1565b9050614d8d6060830187613cce565b8181036080830152614da0818587613d95565b9050614daf60a0830184613dc9565b9998505050505050505050565b6000614dc8838561372a565b9350614dd5838584613218565b614dde8361315b565b840190509392505050565b6000819050919050565b60006bffffffffffffffffffffffff82169050919050565b6000819050919050565b6000614e30614e2b614e2684614de9565b614e0b565b614df3565b9050919050565b614e4081614e15565b82525050565b6000608082019050614e5b60008301886137e8565b8181036020830152614e6e818688614dbc565b9050614e7d60408301856137e8565b614e8a6060830184614e37565b9695505050505050565b600061010083016000830151614ead6000860182613f80565b506020830151614ec06020860182613f80565b5060408301518482036040860152614ed88282614023565b9150506060830151614eed6060860182613f80565b506080830151614f00608086018261405c565b5060a0830151614f1360a086018261405c565b5060c0830151614f2660c086018261405c565b5060e0830151614f3960e0860182613f80565b508091505092915050565b60006060820190508181036000830152614f5e8186614e94565b9050614f6d6020830185613dc2565b614f7a6040830184613dc9565b949350505050565b6000604082019050614f976000830185613710565b614fa46020830184613710565b9392505050565b600081905092915050565b7f1901000000000000000000000000000000000000000000000000000000000000600082015250565b6000614fec600283614fab565b9150614ff782614fb6565b600282019050919050565b6000819050919050565b61501d61501882613344565b615002565b82525050565b600061502e82614fdf565b915061503a828561500c565b60208201915061504a828461500c565b6020820191508190509392505050565b7f416363657373436f6e74726f6c3a206163636f756e7420000000000000000000600082015250565b6000615090601783614fab565b915061509b8261505a565b601782019050919050565b60006150b18261371f565b6150bb8185614fab565b93506150cb81856020860161373b565b80840191505092915050565b7f206973206d697373696e6720726f6c6520000000000000000000000000000000600082015250565b600061510d601183614fab565b9150615118826150d7565b601182019050919050565b600061512e82615083565b915061513a82856150a6565b915061514582615100565b915061515182846150a6565b91508190509392505050565b60006020820190508181036000830152615177818461376e565b905092915050565b600060a08201905061519460008301886133a7565b6151a160208301876133a7565b6151ae60408301866133a7565b6151bb6060830185613710565b6151c860808301846137e8565b9695505050505050565b60006151dd8261311b565b91506151e88361311b565b9250817fffffffffffffffffffffffffffffffffffffffffffffffffffffffffffffffff0483118215151615615221576152206141a7565b5b828202905092915050565b60006152378261311b565b91506152428361311b565b9250827fffffffffffffffffffffffffffffffffffffffffffffffffffffffffffffffff03821115615277576152766141a7565b5b828201905092915050565b600061528d8261311b565b915060008214156152a1576152a06141a7565b5b600182039050919050565b7f537472696e67733a20686578206c656e67746820696e73756666696369656e74600082015250565b60006152e260208361372a565b91506152ed826152ac565b602082019050919050565b60006020820190508181036000830152615311816152d5565b905091905056fea264697066735822122074be4707c907bedaa60c3a4fbf21be5af5b74734758fbc584864feda3da1ca3a64736f6c63430008090033",
  "deployedBytecode": "0x608060405234801561001057600080fd5b506004361061014d5760003560e01c8063a217fddf116100c3578063cb3c0a1e1161007c578063cb3c0a1e146103d6578063d547741f146103f2578063e5d9ce0b1461040e578063ed23bab91461042c578063f990ccd71461045c578063f9ea0daa1461048c5761014d565b8063a217fddf14610300578063a61e4f761461031e578063b51de50e14610350578063c171e3891461036e578063c263beaa1461038a578063c483dc3e146103a65761014d565b80632a1d5955116101155780632a1d59551461022e5780632f2ff15d1461024a57806336568abe1461026657806347119c5f1461028257806391d14854146102b257806399dac981146102e25761014d565b806301ffc9a7146101525780630c426988146101825780630dd0a9961461019e578063150b7a02146101ce578063248a9ca3146101fe575b600080fd5b61016c60048036038101906101679190612f5f565b6104be565b6040516101799190612fa7565b60405180910390f35b61019c60048036038101906101979190613044565b6104d0565b005b6101b860048036038101906101b391906130bf565b6107ba565b6040516101c59190612fa7565b60405180910390f35b6101e860048036038101906101e39190613297565b610904565b6040516101f59190613329565b60405180910390f35b6102186004803603810190610213919061337a565b610918565b60405161022591906133b6565b60405180910390f35b610248600480360381019061024391906133f0565b610937565b005b610264600480360381019061025f919061344c565b610d04565b005b610280600480360381019061027b919061344c565b610d25565b005b61029c600480360381019061029791906134ec565b610da8565b6040516102a991906136a7565b60405180910390f35b6102cc60048036038101906102c7919061344c565b610f82565b6040516102d99190612fa7565b60405180910390f35b6102ea610fec565b6040516102f791906133b6565b60405180910390f35b610308611010565b60405161031591906133b6565b60405180910390f35b610338600480360381019061033391906136c3565b611017565b604051610347939291906137a7565b60405180910390f35b6103586110e9565b60405161036591906137f7565b60405180910390f35b61038860048036038101906103839190613831565b61110d565b005b6103a4600480360381019061039f91906138ac565b6115cf565b005b6103c060048036038101906103bb91906136c3565b611aae565b6040516103cd9190613908565b60405180910390f35b6103f060048036038101906103eb9190613942565b611ae3565b005b61040c6004803603810190610407919061344c565b611ff8565b005b610416612019565b60405161042391906137f7565b60405180910390f35b610446600480360381019061044191906139be565b61203d565b6040516104539190613908565b60405180910390f35b61047660048036038101906104719190613a1a565b612631565b6040516104839190613908565b60405180910390f35b6104a660048036038101906104a19190613a47565b612649565b6040516104b5939291906137a7565b60405180910390f35b60006104c982612715565b9050919050565b6104fa7f4761169e40d0efb53bf684d47e54c803c1511483244b1a2fca6dbbd91b4508d533610f82565b610539576040517f08c379a000000000000000000000000000000000000000000000000000000000815260040161053090613ad3565b60405180910390fd5b73__$9842325bb1826b70c2ef476a1c714a02a7$__63a3cdda1361061c7fd4f619864f63edbc545c29cb83475e9806d540c2177352618fabef4fcac34e14856000013586602001358780604001906105919190613b02565b60405161059f929190613b95565b6040518091039020600160008973ffffffffffffffffffffffffffffffffffffffff1673ffffffffffffffffffffffffffffffffffffffff16815260200190815260200160002054896080013560405160200161060196959493929190613bae565b6040516020818303038152906040528051906020012061278f565b8385806060019061062d9190613c0f565b87608001356040518663ffffffff1660e01b8152600401610652959493929190613cdd565b60206040518083038186803b15801561066a57600080fd5b505af415801561067e573d6000803e3d6000fd5b505050506040513d601f19601f820116820180604052508101906106a29190613d57565b5060008073__$9842325bb1826b70c2ef476a1c714a02a7$__63b032ea0c856000013586602001358780604001906106da9190613b02565b8860056003600460016040518a63ffffffff1660e01b815260040161070799989796959493929190613dd7565b604080518083038186803b15801561071e57600080fd5b505af4158015610732573d6000803e3d6000fd5b505050506040513d601f19601f820116820180604052508101906107569190613e88565b91509150836020013584600001358373ffffffffffffffffffffffffffffffffffffffff167fcca46c76156e4bf43e5edc1745b6c45eac7cfc0fda52475fa0f81cdcb42a5c6284426040516107ac929190613ec8565b60405180910390a450505050565b600073__$9842325bb1826b70c2ef476a1c714a02a7$__63952c277860405180606001604052808680600001906107f19190613ef1565b80806020026020016040519081016040528093929190818152602001838360200280828437600081840152601f19601f8201169050808301925050505050505081526020018680602001906108469190613b02565b8080601f016020809104026020016040519081016040528093929190818152602001838380828437600081840152601f19601f8201169050808301925050505050505081526020018573ffffffffffffffffffffffffffffffffffffffff16815250600560036040518463ffffffff1660e01b81526004016108ca939291906140c2565b60006040518083038186803b1580156108e257600080fd5b505af41580156108f6573d6000803e3d6000fd5b505050506001905092915050565b600063150b7a0260e01b9050949350505050565b6000806000838152602001908152602001600020600101549050919050565b6109617f4761169e40d0efb53bf684d47e54c803c1511483244b1a2fca6dbbd91b4508d533610f82565b6109a0576040517f08c379a000000000000000000000000000000000000000000000000000000000815260040161099790613ad3565b60405180910390fd5b73__$9842325bb1826b70c2ef476a1c714a02a7$__63a3cdda13610a5c7f76193c8d609e139a018adf57bae0c3c4c7a2d0eb05701223b06bd8c01adc48c885600001358660200135600160008873ffffffffffffffffffffffffffffffffffffffff1673ffffffffffffffffffffffffffffffffffffffff168152602001908152602001600020548860600135604051602001610a41959493929190614100565b6040516020818303038152906040528051906020012061278f565b83858060400190610a6d9190613c0f565b87606001356040518663ffffffff1660e01b8152600401610a92959493929190613cdd565b60206040518083038186803b158015610aaa57600080fd5b505af4158015610abe573d6000803e3d6000fd5b505050506040513d601f19601f82011682018060405250810190610ae29190613d57565b5073__$9842325bb1826b70c2ef476a1c714a02a7$__63ae4bd6d083600001358460200135600060056040518563ffffffff1660e01b8152600401610b2a9493929190614162565b60006040518083038186803b158015610b4257600080fd5b505af4158015610b56573d6000803e3d6000fd5b50505050600160008273ffffffffffffffffffffffffffffffffffffffff1673ffffffffffffffffffffffffffffffffffffffff16815260200190815260200160002060008154610ba6906141d6565b919050819055507f000000000000000000000000000000000000000000000000000000000000000073ffffffffffffffffffffffffffffffffffffffff166342966c686005600085600001358152602001908152602001600020600085602001358152602001908152602001600020600201546040518263ffffffff1660e01b8152600401610c359190613908565b600060405180830381600087803b158015610c4f57600080fd5b505af1158015610c63573d6000803e3d6000fd5b505050506001600560008460000135815260200190815260200160002060008460200135815260200190815260200160002060070160006101000a81548160ff02191690836004811115610cba57610cb9613579565b5b0217905550816020013582600001357fff3596231ab8e5bb37a9baf7f9355110d118c17f0c60731ec93eb199d37f745742604051610cf89190613908565b60405180910390a35050565b610d0d82610918565b610d16816127a9565b610d2083836127bd565b505050565b610d2d61289d565b73ffffffffffffffffffffffffffffffffffffffff168173ffffffffffffffffffffffffffffffffffffffff1614610d9a576040517f08c379a0000000000000000000000000000000000000000000000000000000008152600401610d9190614291565b60405180910390fd5b610da482826128a5565b5050565b610db0612e50565b600560008581526020019081526020016000206000600260008686604051610dd9929190613b95565b60405180910390208152602001908152602001600020548152602001908152602001600020604051806101200160405290816000820160009054906101000a900473ffffffffffffffffffffffffffffffffffffffff1673ffffffffffffffffffffffffffffffffffffffff1673ffffffffffffffffffffffffffffffffffffffff16815260200160018201548152602001600282015481526020016003820160009054906101000a900473ffffffffffffffffffffffffffffffffffffffff1673ffffffffffffffffffffffffffffffffffffffff1673ffffffffffffffffffffffffffffffffffffffff1681526020016004820154815260200160058201548152602001600682015481526020016007820160009054906101000a900460ff166004811115610f0d57610f0c613579565b5b6004811115610f1f57610f1e613579565b5b81526020016007820160019054906101000a900473ffffffffffffffffffffffffffffffffffffffff1673ffffffffffffffffffffffffffffffffffffffff1673ffffffffffffffffffffffffffffffffffffffff168152505090509392505050565b600080600084815260200190815260200160002060000160008373ffffffffffffffffffffffffffffffffffffffff1673ffffffffffffffffffffffffffffffffffffffff16815260200190815260200160002060009054906101000a900460ff16905092915050565b7f4761169e40d0efb53bf684d47e54c803c1511483244b1a2fca6dbbd91b4508d581565b6000801b81565b61101f612e50565b6000606073__$9842325bb1826b70c2ef476a1c714a02a7$__63b4d61add86867f00000000000000000000000000000000000000000000000000000000000000006005600360046040518763ffffffff1660e01b8152600401611087969594939291906142b1565b60006040518083038186803b15801561109f57600080fd5b505af41580156110b3573d6000803e3d6000fd5b505050506040513d6000823e3d601f19601f820116820180604052508101906110dc91906144cd565b9250925092509250925092565b7f000000000000000000000000000000000000000000000000000000000000000081565b6111377f4761169e40d0efb53bf684d47e54c803c1511483244b1a2fca6dbbd91b4508d533610f82565b611176576040517f08c379a000000000000000000000000000000000000000000000000000000000815260040161116d90613ad3565b60405180910390fd5b60008280602001906111889190613b02565b604051611196929190613b95565b6040518091039020905073__$9842325bb1826b70c2ef476a1c714a02a7$__63a3cdda1361125e7f9cc3774350162d9de873401b80ebde33ff0f4f4a6bc7ee58dda6ef202b2d860f8660000135858860400135600160008a73ffffffffffffffffffffffffffffffffffffffff1673ffffffffffffffffffffffffffffffffffffffff168152602001908152602001600020548a608001356040516020016112439695949392919061453f565b6040516020818303038152906040528051906020012061278f565b8486806060019061126f9190613c0f565b88608001356040518663ffffffff1660e01b8152600401611294959493929190613cdd565b60206040518083038186803b1580156112ac57600080fd5b505af41580156112c0573d6000803e3d6000fd5b505050506040513d601f19601f820116820180604052508101906112e49190613d57565b50600073__$9842325bb1826b70c2ef476a1c714a02a7$__63818a024c8360036040518363ffffffff1660e01b81526004016113219291906145a0565b60206040518083038186803b15801561133957600080fd5b505af415801561134d573d6000803e3d6000fd5b505050506040513d601f19601f8201168201806040525081019061137191906145c9565b905073__$9842325bb1826b70c2ef476a1c714a02a7$__63735d8b2a8560000135838660056040518563ffffffff1660e01b81526004016113b594939291906145f6565b60006040518083038186803b1580156113cd57600080fd5b505af41580156113e1573d6000803e3d6000fd5b50505050600160008473ffffffffffffffffffffffffffffffffffffffff1673ffffffffffffffffffffffffffffffffffffffff16815260200190815260200160002060008154611431906141d6565b919050819055507f000000000000000000000000000000000000000000000000000000000000000073ffffffffffffffffffffffffffffffffffffffff166342966c6860056000876000013581526020019081526020016000206000848152602001908152602001600020600201546040518263ffffffff1660e01b81526004016114bc9190613908565b600060405180830381600087803b1580156114d657600080fd5b505af11580156114ea573d6000803e3d6000fd5b5050505060046005600086600001358152602001908152602001600020600083815260200190815260200160002060070160006101000a81548160ff0219169083600481111561153d5761153c613579565b5b02179055508084600001358473ffffffffffffffffffffffffffffffffffffffff167f707b8ad08e58bc5a2367c8c45625ddb87d54731363b778f5722d10a345254dec60056000896000013581526020019081526020016000206000868152602001908152602001600020600601548860400135426040516115c19392919061463b565b60405180910390a450505050565b6115f97f4761169e40d0efb53bf684d47e54c803c1511483244b1a2fca6dbbd91b4508d533610f82565b611638576040517f08c379a000000000000000000000000000000000000000000000000000000000815260040161162f90613ad3565b60405180910390fd5b600080600073__$9842325bb1826b70c2ef476a1c714a02a7$__63d8a6271061174c7f4ec37a5398d88f8f6568620d918107772e8b3aa8ee69e4329a3daeeb0a6a357288806000019061168b9190613ef1565b60405160200161169c9291906146de565b604051602081830303815290604052805190602001208980602001906116c29190613b02565b6040516116d0929190613b95565b6040518091039020600160008b73ffffffffffffffffffffffffffffffffffffffff1673ffffffffffffffffffffffffffffffffffffffff168152602001908152602001600020548b606001356040516020016117319594939291906146f7565b6040516020818303038152906040528051906020012061278f565b8688806040019061175d9190613c0f565b8a6060013560405180606001604052808d806000019061177d9190613ef1565b80806020026020016040519081016040528093929190818152602001838360200280828437600081840152601f19601f8201169050808301925050505050505081526020018d80602001906117d29190613b02565b8080601f016020809104026020016040519081016040528093929190818152602001838380828437600081840152601f19601f8201169050808301925050505050505081526020018c73ffffffffffffffffffffffffffffffffffffffff16815250600560036040518963ffffffff1660e01b815260040161185b98979695949392919061474a565b60006040518083038186803b15801561187357600080fd5b505af4158015611887573d6000803e3d6000fd5b505050506040513d6000823e3d601f19601f820116820180604052508101906118b0919061494f565b925092509250600160008573ffffffffffffffffffffffffffffffffffffffff1673ffffffffffffffffffffffffffffffffffffffff16815260200190815260200160002060008154611902906141d6565b919050819055507f000000000000000000000000000000000000000000000000000000000000000073ffffffffffffffffffffffffffffffffffffffff1663c182178e3085856040518463ffffffff1660e01b815260040161196693929190614b2c565b600060405180830381600087803b15801561198057600080fd5b505af1158015611994573d6000803e3d6000fd5b5050505060005b8580600001906119ab9190613ef1565b9050811015611a56576003600560008880600001906119ca9190613ef1565b858181106119db576119da614b71565b5b9050602002013581526020019081526020016000206000848481518110611a0557611a04614b71565b5b6020026020010151815260200190815260200160002060070160006101000a81548160ff02191690836004811115611a4057611a3f613579565b5b021790555080611a4f906141d6565b905061199b565b5082518473ffffffffffffffffffffffffffffffffffffffff167f4f1c4c01ed0bb6c3c7eab533380dc1f5a1688f9dca14f664f51a8052002a882942604051611a9f9190613908565b60405180910390a35050505050565b6000600260008484604051611ac4929190613b95565b6040518091039020815260200190815260200160002054905092915050565b611b0d7f4761169e40d0efb53bf684d47e54c803c1511483244b1a2fca6dbbd91b4508d533610f82565b611b4c576040517f08c379a0000000000000000000000000000000000000000000000000000000008152600401611b4390613ad3565b60405180910390fd5b600073__$9842325bb1826b70c2ef476a1c714a02a7$__637da7cda0611c2b7fa40842dfb38adb5c9b877f026d498df2a82043c9a0f6e3f83bb60ac349e14b498660000135878060200190611ba19190613b02565b604051611baf929190613b95565b6040518091039020600160008973ffffffffffffffffffffffffffffffffffffffff1673ffffffffffffffffffffffffffffffffffffffff168152602001908152602001600020548960600135604051602001611c10959493929190614ba0565b6040516020818303038152906040528051906020012061278f565b84868060400190611c3c9190613c0f565b8860600135898060200190611c519190613b02565b6040518863ffffffff1660e01b8152600401611c739796959493929190614bf3565b60206040518083038186803b158015611c8b57600080fd5b505af4158015611c9f573d6000803e3d6000fd5b505050506040513d601f19601f82011682018060405250810190611cc39190614c58565b9050600073__$9842325bb1826b70c2ef476a1c714a02a7$__63818a024c8360036040518363ffffffff1660e01b8152600401611d019291906145a0565b60206040518083038186803b158015611d1957600080fd5b505af4158015611d2d573d6000803e3d6000fd5b505050506040513d601f19601f82011682018060405250810190611d5191906145c9565b905073__$9842325bb1826b70c2ef476a1c714a02a7$__63735d8b2a8560000135838660056040518563ffffffff1660e01b8152600401611d9594939291906145f6565b60006040518083038186803b158015611dad57600080fd5b505af4158015611dc1573d6000803e3d6000fd5b50505050600160008473ffffffffffffffffffffffffffffffffffffffff1673ffffffffffffffffffffffffffffffffffffffff16815260200190815260200160002060008154611e11906141d6565b919050819055507f000000000000000000000000000000000000000000000000000000000000000073ffffffffffffffffffffffffffffffffffffffff166342842e0e306005600088600001358152602001908152602001600020600085815260200190815260200160002060000160009054906101000a900473ffffffffffffffffffffffffffffffffffffffff1660056000896000013581526020019081526020016000206000868152602001908152602001600020600201546040518463ffffffff1660e01b8152600401611eeb93929190614c85565b600060405180830381600087803b158015611f0557600080fd5b505af1158015611f19573d6000803e3d6000fd5b5050505060036005600086600001358152602001908152602001600020600083815260200190815260200160002060070160006101000a81548160ff02191690836004811115611f6c57611f6b613579565b5b02179055508084600001358473ffffffffffffffffffffffffffffffffffffffff167fd9cc7312aeed0c2fe657f2d0972f6fde1b32ff59c7abcf319942e84f507e738e600560008960000135815260200190815260200160002060008681526020019081526020016000206006015442604051611fea929190613ec8565b60405180910390a450505050565b61200182610918565b61200a816127a9565b61201483836128a5565b505050565b7f000000000000000000000000000000000000000000000000000000000000000081565b60006120697f4761169e40d0efb53bf684d47e54c803c1511483244b1a2fca6dbbd91b4508d533610f82565b6120a8576040517f08c379a000000000000000000000000000000000000000000000000000000000815260040161209f90613ad3565b60405180910390fd5b73__$9842325bb1826b70c2ef476a1c714a02a7$__634dd689186121da7f29be98e70cea08d618dc7e253dea019af07adea87df664c2c3c55cb783cfd3bb86600001358780602001906120fb9190613b02565b604051612109929190613b95565b60405180910390208880604001906121219190613b02565b60405161212f929190613b95565b604051809103902089606001358a608001602081019061214f9190613a1a565b8b60a00160208101906121629190613a1a565b600160008d73ffffffffffffffffffffffffffffffffffffffff1673ffffffffffffffffffffffffffffffffffffffff168152602001908152602001600020548d60e001356040516020016121bf99989796959493929190614cbc565b6040516020818303038152906040528051906020012061278f565b84868060c001906121eb9190613c0f565b8860e001358980602001906122009190613b02565b60026040518963ffffffff1660e01b8152600401612225989796959493929190614d49565b60006040518083038186803b15801561223d57600080fd5b505af4158015612251573d6000803e3d6000fd5b50505050600160008373ffffffffffffffffffffffffffffffffffffffff1673ffffffffffffffffffffffffffffffffffffffff168152602001908152602001600020600081546122a1906141d6565b9190508190555060007f000000000000000000000000000000000000000000000000000000000000000073ffffffffffffffffffffffffffffffffffffffff166316cd4c3a85600001356040518263ffffffff1660e01b81526004016123079190613908565b602060405180830381600087803b15801561232157600080fd5b505af1158015612335573d6000803e3d6000fd5b505050506040513d601f19601f8201168201806040525081019061235991906145c9565b905060007f000000000000000000000000000000000000000000000000000000000000000073ffffffffffffffffffffffffffffffffffffffff16635ff97ebf308780604001906123aa9190613b02565b8960800160208101906123bd9190613a1a565b60006040518663ffffffff1660e01b81526004016123df959493929190614e46565b602060405180830381600087803b1580156123f957600080fd5b505af115801561240d573d6000803e3d6000fd5b505050506040513d601f19601f8201168201806040525081019061243191906145c9565b9050600073__$9842325bb1826b70c2ef476a1c714a02a7$__6393e7ae646040518061010001604052808960000135815260200185815260200189806020019061247b9190613b02565b8080601f016020809104026020016040519081016040528093929190818152602001838380828437600081840152601f19601f820116905080830192505050505050508152602001896060013581526020018960800160208101906124e09190613a1a565b73ffffffffffffffffffffffffffffffffffffffff1681526020018960a001602081019061250e9190613a1a565b73ffffffffffffffffffffffffffffffffffffffff1681526020018873ffffffffffffffffffffffffffffffffffffffff16815260200186815250600560026040518463ffffffff1660e01b815260040161256b93929190614f44565b60206040518083038186803b15801561258357600080fd5b505af4158015612597573d6000803e3d6000fd5b505050506040513d601f19601f820116820180604052508101906125bb91906145c9565b90508286600001358760800160208101906125d69190613a1a565b73ffffffffffffffffffffffffffffffffffffffff167f27bf9a004cd5f8eb61e6bd7610afc3aeeb4d046a608102a140f1508064d85165844260405161261d929190614f82565b60405180910390a481935050505092915050565b60016020528060005260406000206000915090505481565b612651612e50565b6000606073__$9842325bb1826b70c2ef476a1c714a02a7$__633ba0f99186867f000000000000000000000000000000000000000000000000000000000000000060056040518563ffffffff1660e01b81526004016126b394939291906145f6565b60006040518083038186803b1580156126cb57600080fd5b505af41580156126df573d6000803e3d6000fd5b505050506040513d6000823e3d601f19601f8201168201806040525081019061270891906144cd565b9250925092509250925092565b60007f7965db0b000000000000000000000000000000000000000000000000000000007bffffffffffffffffffffffffffffffffffffffffffffffffffffffff1916827bffffffffffffffffffffffffffffffffffffffffffffffffffffffff19161480612788575061278782612986565b5b9050919050565b60006127a261279c6129f0565b83612b0a565b9050919050565b6127ba816127b561289d565b612b3d565b50565b6127c78282610f82565b61289957600160008084815260200190815260200160002060000160008373ffffffffffffffffffffffffffffffffffffffff1673ffffffffffffffffffffffffffffffffffffffff16815260200190815260200160002060006101000a81548160ff02191690831515021790555061283e61289d565b73ffffffffffffffffffffffffffffffffffffffff168173ffffffffffffffffffffffffffffffffffffffff16837f2f8788117e7eff1d82e926ec794901d17c78024a50270940304540a733656f0d60405160405180910390a45b5050565b600033905090565b6128af8282610f82565b1561298257600080600084815260200190815260200160002060000160008373ffffffffffffffffffffffffffffffffffffffff1673ffffffffffffffffffffffffffffffffffffffff16815260200190815260200160002060006101000a81548160ff02191690831515021790555061292761289d565b73ffffffffffffffffffffffffffffffffffffffff168173ffffffffffffffffffffffffffffffffffffffff16837ff6391f5c32d9c69d2a47ea670b442974b53935d1edc7fd64eb21e047a839171b60405160405180910390a45b5050565b60007f01ffc9a7000000000000000000000000000000000000000000000000000000007bffffffffffffffffffffffffffffffffffffffffffffffffffffffff1916827bffffffffffffffffffffffffffffffffffffffffffffffffffffffff1916149050919050565b60007f000000000000000000000000000000000000000000000000000000000000000073ffffffffffffffffffffffffffffffffffffffff163073ffffffffffffffffffffffffffffffffffffffff16148015612a6c57507f000000000000000000000000000000000000000000000000000000000000000046145b15612a99577f00000000000000000000000000000000000000000000000000000000000000009050612b07565b612b047f00000000000000000000000000000000000000000000000000000000000000007f00000000000000000000000000000000000000000000000000000000000000007f0000000000000000000000000000000000000000000000000000000000000000612bda565b90505b90565b60008282604051602001612b1f929190615023565b60405160208183030381529060405280519060200120905092915050565b612b478282610f82565b612bd657612b6c8173ffffffffffffffffffffffffffffffffffffffff166014612c14565b612b7a8360001c6020612c14565b604051602001612b8b929190615123565b6040516020818303038152906040526040517f08c379a0000000000000000000000000000000000000000000000000000000008152600401612bcd919061515d565b60405180910390fd5b5050565b60008383834630604051602001612bf595949392919061517f565b6040516020818303038152906040528051906020012090509392505050565b606060006002836002612c2791906151d2565b612c31919061522c565b67ffffffffffffffff811115612c4a57612c4961316c565b5b6040519080825280601f01601f191660200182016040528015612c7c5781602001600182028036833780820191505090505b5090507f300000000000000000000000000000000000000000000000000000000000000081600081518110612cb457612cb3614b71565b5b60200101907effffffffffffffffffffffffffffffffffffffffffffffffffffffffffffff1916908160001a9053507f780000000000000000000000000000000000000000000000000000000000000081600181518110612d1857612d17614b71565b5b60200101907effffffffffffffffffffffffffffffffffffffffffffffffffffffffffffff1916908160001a90535060006001846002612d5891906151d2565b612d62919061522c565b90505b6001811115612e02577f3031323334353637383961626364656600000000000000000000000000000000600f861660108110612da457612da3614b71565b5b1a60f81b828281518110612dbb57612dba614b71565b5b60200101907effffffffffffffffffffffffffffffffffffffffffffffffffffffffffffff1916908160001a905350600485901c945080612dfb90615282565b9050612d65565b5060008414612e46576040517f08c379a0000000000000000000000000000000000000000000000000000000008152600401612e3d906152f8565b60405180910390fd5b8091505092915050565b604051806101200160405280600073ffffffffffffffffffffffffffffffffffffffff1681526020016000815260200160008152602001600073ffffffffffffffffffffffffffffffffffffffff16815260200160008152602001600081526020016000801916815260200160006004811115612ed057612ecf613579565b5b8152602001600073ffffffffffffffffffffffffffffffffffffffff1681525090565b6000604051905090565b600080fd5b600080fd5b60007fffffffff0000000000000000000000000000000000000000000000000000000082169050919050565b612f3c81612f07565b8114612f4757600080fd5b50565b600081359050612f5981612f33565b92915050565b600060208284031215612f7557612f74612efd565b5b6000612f8384828501612f4a565b91505092915050565b60008115159050919050565b612fa181612f8c565b82525050565b6000602082019050612fbc6000830184612f98565b92915050565b600080fd5b600060a08284031215612fdd57612fdc612fc2565b5b81905092915050565b600073ffffffffffffffffffffffffffffffffffffffff82169050919050565b600061301182612fe6565b9050919050565b61302181613006565b811461302c57600080fd5b50565b60008135905061303e81613018565b92915050565b6000806040838503121561305b5761305a612efd565b5b600083013567ffffffffffffffff81111561307957613078612f02565b5b61308585828601612fc7565b92505060206130968582860161302f565b9150509250929050565b6000604082840312156130b6576130b5612fc2565b5b81905092915050565b600080604083850312156130d6576130d5612efd565b5b600083013567ffffffffffffffff8111156130f4576130f3612f02565b5b613100858286016130a0565b92505060206131118582860161302f565b9150509250929050565b6000819050919050565b61312e8161311b565b811461313957600080fd5b50565b60008135905061314b81613125565b92915050565b600080fd5b600080fd5b6000601f19601f8301169050919050565b7f4e487b7100000000000000000000000000000000000000000000000000000000600052604160045260246000fd5b6131a48261315b565b810181811067ffffffffffffffff821117156131c3576131c261316c565b5b80604052505050565b60006131d6612ef3565b90506131e2828261319b565b919050565b600067ffffffffffffffff8211156132025761320161316c565b5b61320b8261315b565b9050602081019050919050565b82818337600083830152505050565b600061323a613235846131e7565b6131cc565b90508281526020810184848401111561325657613255613156565b5b613261848285613218565b509392505050565b600082601f83011261327e5761327d613151565b5b813561328e848260208601613227565b91505092915050565b600080600080608085870312156132b1576132b0612efd565b5b60006132bf8782880161302f565b94505060206132d08782880161302f565b93505060406132e18782880161313c565b925050606085013567ffffffffffffffff81111561330257613301612f02565b5b61330e87828801613269565b91505092959194509250565b61332381612f07565b82525050565b600060208201905061333e600083018461331a565b92915050565b6000819050919050565b61335781613344565b811461336257600080fd5b50565b6000813590506133748161334e565b92915050565b6000602082840312156133905761338f612efd565b5b600061339e84828501613365565b91505092915050565b6133b081613344565b82525050565b60006020820190506133cb60008301846133a7565b92915050565b6000608082840312156133e7576133e6612fc2565b5b81905092915050565b6000806040838503121561340757613406612efd565b5b600083013567ffffffffffffffff81111561342557613424612f02565b5b613431858286016133d1565b92505060206134428582860161302f565b9150509250929050565b6000806040838503121561346357613462612efd565b5b600061347185828601613365565b92505060206134828582860161302f565b9150509250929050565b600080fd5b600080fd5b60008083601f8401126134ac576134ab613151565b5b8235905067ffffffffffffffff8111156134c9576134c861348c565b5b6020830191508360018202830111156134e5576134e4613491565b5b9250929050565b60008060006040848603121561350557613504612efd565b5b60006135138682870161313c565b935050602084013567ffffffffffffffff81111561353457613533612f02565b5b61354086828701613496565b92509250509250925092565b61355581613006565b82525050565b6135648161311b565b82525050565b61357381613344565b82525050565b7f4e487b7100000000000000000000000000000000000000000000000000000000600052602160045260246000fd5b600581106135b9576135b8613579565b5b50565b60008190506135ca826135a8565b919050565b60006135da826135bc565b9050919050565b6135ea816135cf565b82525050565b61012082016000820151613607600085018261354c565b50602082015161361a602085018261355b565b50604082015161362d604085018261355b565b506060820151613640606085018261354c565b506080820151613653608085018261355b565b5060a082015161366660a085018261355b565b5060c082015161367960c085018261356a565b5060e082015161368c60e08501826135e1565b506101008201516136a161010085018261354c565b50505050565b6000610120820190506136bd60008301846135f0565b92915050565b600080602083850312156136da576136d9612efd565b5b600083013567ffffffffffffffff8111156136f8576136f7612f02565b5b61370485828601613496565b92509250509250929050565b6137198161311b565b82525050565b600081519050919050565b600082825260208201905092915050565b60005b8381101561375957808201518184015260208101905061373e565b83811115613768576000848401525b50505050565b60006137798261371f565b613783818561372a565b935061379381856020860161373b565b61379c8161315b565b840191505092915050565b6000610160820190506137bd60008301866135f0565b6137cb610120830185613710565b8181036101408301526137de818461376e565b9050949350505050565b6137f181613006565b82525050565b600060208201905061380c60008301846137e8565b92915050565b600060a0828403121561382857613827612fc2565b5b81905092915050565b6000806040838503121561384857613847612efd565b5b600083013567ffffffffffffffff81111561386657613865612f02565b5b61387285828601613812565b92505060206138838582860161302f565b9150509250929050565b6000608082840312156138a3576138a2612fc2565b5b81905092915050565b600080604083850312156138c3576138c2612efd565b5b600083013567ffffffffffffffff8111156138e1576138e0612f02565b5b6138ed8582860161388d565b92505060206138fe8582860161302f565b9150509250929050565b600060208201905061391d6000830184613710565b92915050565b60006080828403121561393957613938612fc2565b5b81905092915050565b6000806040838503121561395957613958612efd565b5b600083013567ffffffffffffffff81111561397757613976612f02565b5b61398385828601613923565b92505060206139948582860161302f565b9150509250929050565b600061010082840312156139b5576139b4612fc2565b5b81905092915050565b600080604083850312156139d5576139d4612efd565b5b600083013567ffffffffffffffff8111156139f3576139f2612f02565b5b6139ff8582860161399e565b9250506020613a108582860161302f565b9150509250929050565b600060208284031215613a3057613a2f612efd565b5b6000613a3e8482850161302f565b91505092915050565b60008060408385031215613a5e57613a5d612efd565b5b6000613a6c8582860161313c565b9250506020613a7d8582860161313c565b9150509250929050565b7f4e6f744875620000000000000000000000000000000000000000000000000000600082015250565b6000613abd60068361372a565b9150613ac882613a87565b602082019050919050565b60006020820190508181036000830152613aec81613ab0565b9050919050565b600080fd5b600080fd5b600080fd5b60008083356001602003843603038112613b1f57613b1e613af3565b5b80840192508235915067ffffffffffffffff821115613b4157613b40613af8565b5b602083019250600182023603831315613b5d57613b5c613afd565b5b509250929050565b600081905092915050565b6000613b7c8385613b65565b9350613b89838584613218565b82840190509392505050565b6000613ba2828486613b70565b91508190509392505050565b600060c082019050613bc360008301896133a7565b613bd06020830188613710565b613bdd6040830187613710565b613bea60608301866133a7565b613bf76080830185613710565b613c0460a0830184613710565b979650505050505050565b60008083356001602003843603038112613c2c57613c2b613af3565b5b80840192508235915067ffffffffffffffff821115613c4e57613c4d613af8565b5b602083019250600182023603831315613c6a57613c69613afd565b5b509250929050565b613c7b81613344565b82525050565b613c8a81613006565b82525050565b600082825260208201905092915050565b6000613cad8385613c90565b9350613cba838584613218565b613cc38361315b565b840190509392505050565b613cd78161311b565b82525050565b6000608082019050613cf26000830188613c72565b613cff6020830187613c81565b8181036040830152613d12818587613ca1565b9050613d216060830184613cce565b9695505050505050565b613d3481612f8c565b8114613d3f57600080fd5b50565b600081519050613d5181613d2b565b92915050565b600060208284031215613d6d57613d6c612efd565b5b6000613d7b84828501613d42565b91505092915050565b600082825260208201905092915050565b6000613da18385613d84565b9350613dae838584613218565b613db78361315b565b840190509392505050565b8082525050565b8082525050565b8082525050565b600061010082019050613ded600083018c613cce565b613dfa602083018b613cce565b8181036040830152613e0d81898b613d95565b9050613e1c6060830188613c81565b613e296080830187613dc2565b613e3660a0830186613dc9565b613e4360c0830185613dc9565b613e5060e0830184613dd0565b9a9950505050505050505050565b600081519050613e6d81613018565b92915050565b600081519050613e828161334e565b92915050565b60008060408385031215613e9f57613e9e612efd565b5b6000613ead85828601613e5e565b9250506020613ebe85828601613e73565b9150509250929050565b6000604082019050613edd60008301856133a7565b613eea6020830184613710565b9392505050565b60008083356001602003843603038112613f0e57613f0d613af3565b5b80840192508235915067ffffffffffffffff821115613f3057613f2f613af8565b5b602083019250602082023603831315613f4c57613f4b613afd565b5b509250929050565b600081519050919050565b600082825260208201905092915050565b6000819050602082019050919050565b613f898161311b565b82525050565b6000613f9b8383613f80565b60208301905092915050565b6000602082019050919050565b6000613fbf82613f54565b613fc98185613f5f565b9350613fd483613f70565b8060005b83811015614005578151613fec8882613f8f565b9750613ff783613fa7565b925050600181019050613fd8565b5085935050505092915050565b600082825260208201905092915050565b600061402e8261371f565b6140388185614012565b935061404881856020860161373b565b6140518161315b565b840191505092915050565b61406581613006565b82525050565b600060608301600083015184820360008601526140888282613fb4565b915050602083015184820360208601526140a28282614023565b91505060408301516140b7604086018261405c565b508091505092915050565b600060608201905081810360008301526140dc818661406b565b90506140eb6020830185613dc2565b6140f86040830184613dc9565b949350505050565b600060a08201905061411560008301886133a7565b6141226020830187613710565b61412f6040830186613710565b61413c6060830185613710565b6141496080830184613710565b9695505050505050565b61415c81612f8c565b82525050565b60006080820190506141776000830187613cce565b6141846020830186613cce565b6141916040830185614153565b61419e6060830184613dc2565b95945050505050565b7f4e487b7100000000000000000000000000000000000000000000000000000000600052601160045260246000fd5b60006141e18261311b565b91507fffffffffffffffffffffffffffffffffffffffffffffffffffffffffffffffff821415614214576142136141a7565b5b600182019050919050565b7f416363657373436f6e74726f6c3a2063616e206f6e6c792072656e6f756e636560008201527f20726f6c657320666f722073656c660000000000000000000000000000000000602082015250565b600061427b602f8361372a565b91506142868261421f565b604082019050919050565b600060208201905081810360008301526142aa8161426e565b9050919050565b600060a08201905081810360008301526142cc81888a613d95565b90506142db6020830187613c81565b6142e86040830186613dc2565b6142f56060830185613dc9565b6143026080830184613dc9565b979650505050505050565b600080fd5b60008151905061432181613125565b92915050565b6005811061433457600080fd5b50565b60008151905061434681614327565b92915050565b600061012082840312156143635761436261430d565b5b61436e6101206131cc565b9050600061437e84828501613e5e565b600083015250602061439284828501614312565b60208301525060406143a684828501614312565b60408301525060606143ba84828501613e5e565b60608301525060806143ce84828501614312565b60808301525060a06143e284828501614312565b60a08301525060c06143f684828501613e73565b60c08301525060e061440a84828501614337565b60e08301525061010061441f84828501613e5e565b6101008301525092915050565b600067ffffffffffffffff8211156144475761444661316c565b5b6144508261315b565b9050602081019050919050565b600061447061446b8461442c565b6131cc565b90508281526020810184848401111561448c5761448b613156565b5b61449784828561373b565b509392505050565b600082601f8301126144b4576144b3613151565b5b81516144c484826020860161445d565b91505092915050565b600080600061016084860312156144e7576144e6612efd565b5b60006144f58682870161434c565b93505061012061450786828701614312565b92505061014084015167ffffffffffffffff81111561452957614528612f02565b5b6145358682870161449f565b9150509250925092565b600060c08201905061455460008301896133a7565b6145616020830188613710565b61456e60408301876133a7565b61457b6060830186613710565b6145886080830185613710565b61459560a0830184613710565b979650505050505050565b60006040820190506145b56000830185613c72565b6145c26020830184613dc9565b9392505050565b6000602082840312156145df576145de612efd565b5b60006145ed84828501614312565b91505092915050565b600060808201905061460b6000830187613cce565b6146186020830186613cce565b6146256040830185613c81565b6146326060830184613dc2565b95945050505050565b600060608201905061465060008301866133a7565b61465d6020830185613710565b61466a6040830184613710565b949350505050565b600081905092915050565b600080fd5b600061468e8385614672565b93507f07ffffffffffffffffffffffffffffffffffffffffffffffffffffffffffffff8311156146c1576146c061467d565b5b6020830292506146d2838584613218565b82840190509392505050565b60006146eb828486614682565b91508190509392505050565b600060a08201905061470c60008301886133a7565b61471960208301876133a7565b61472660408301866133a7565b6147336060830185613710565b6147406080830184613710565b9695505050505050565b600060e08201905061475f600083018b613c72565b61476c602083018a613c81565b818103604083015261477f81888a613ca1565b905061478e6060830187613cce565b81810360808301526147a0818661406b565b90506147af60a0830185613dc2565b6147bc60c0830184613dc9565b9998505050505050505050565b600067ffffffffffffffff8211156147e4576147e361316c565b5b602082029050602081019050919050565b6000614808614803846147c9565b6131cc565b9050808382526020820190506020840283018581111561482b5761482a613491565b5b835b8181101561485457806148408882613e5e565b84526020840193505060208101905061482d565b5050509392505050565b600082601f83011261487357614872613151565b5b81516148838482602086016147f5565b91505092915050565b600067ffffffffffffffff8211156148a7576148a661316c565b5b602082029050602081019050919050565b60006148cb6148c68461488c565b6131cc565b905080838252602082019050602084028301858111156148ee576148ed613491565b5b835b8181101561491757806149038882614312565b8452602084019350506020810190506148f0565b5050509392505050565b600082601f83011261493657614935613151565b5b81516149468482602086016148b8565b91505092915050565b60008060006060848603121561496857614967612efd565b5b600084015167ffffffffffffffff81111561498657614985612f02565b5b6149928682870161485e565b935050602084015167ffffffffffffffff8111156149b3576149b2612f02565b5b6149bf86828701614921565b925050604084015167ffffffffffffffff8111156149e0576149df612f02565b5b6149ec86828701614921565b9150509250925092565b600081519050919050565b600082825260208201905092915050565b6000819050602082019050919050565b6000614a2e838361354c565b60208301905092915050565b6000602082019050919050565b6000614a52826149f6565b614a5c8185614a01565b9350614a6783614a12565b8060005b83811015614a98578151614a7f8882614a22565b9750614a8a83614a3a565b925050600181019050614a6b565b5085935050505092915050565b600082825260208201905092915050565b6000614ac2838361355b565b60208301905092915050565b6000614ad982613f54565b614ae38185614aa5565b9350614aee83613f70565b8060005b83811015614b1f578151614b068882614ab6565b9750614b1183613fa7565b925050600181019050614af2565b5085935050505092915050565b6000606082019050614b4160008301866137e8565b8181036020830152614b538185614a47565b90508181036040830152614b678184614ace565b9050949350505050565b7f4e487b7100000000000000000000000000000000000000000000000000000000600052603260045260246000fd5b600060a082019050614bb560008301886133a7565b614bc26020830187613710565b614bcf60408301866133a7565b614bdc6060830185613710565b614be96080830184613710565b9695505050505050565b600060a082019050614c08600083018a613c72565b614c156020830189613c81565b8181036040830152614c28818789613ca1565b9050614c376060830186613cce565b8181036080830152614c4a818486613d95565b905098975050505050505050565b600060208284031215614c6e57614c6d612efd565b5b6000614c7c84828501613e73565b91505092915050565b6000606082019050614c9a60008301866137e8565b614ca760208301856137e8565b614cb46040830184613710565b949350505050565b600061012082019050614cd2600083018c6133a7565b614cdf602083018b613710565b614cec604083018a6133a7565b614cf960608301896133a7565b614d066080830188613710565b614d1360a08301876137e8565b614d2060c08301866137e8565b614d2d60e0830185613710565b614d3b610100830184613710565b9a9950505050505050505050565b600060c082019050614d5e600083018b613c72565b614d6b602083018a613c81565b8181036040830152614d7e81888a613ca1565b9050614d8d6060830187613cce565b8181036080830152614da0818587613d95565b9050614daf60a0830184613dc9565b9998505050505050505050565b6000614dc8838561372a565b9350614dd5838584613218565b614dde8361315b565b840190509392505050565b6000819050919050565b60006bffffffffffffffffffffffff82169050919050565b6000819050919050565b6000614e30614e2b614e2684614de9565b614e0b565b614df3565b9050919050565b614e4081614e15565b82525050565b6000608082019050614e5b60008301886137e8565b8181036020830152614e6e818688614dbc565b9050614e7d60408301856137e8565b614e8a6060830184614e37565b9695505050505050565b600061010083016000830151614ead6000860182613f80565b506020830151614ec06020860182613f80565b5060408301518482036040860152614ed88282614023565b9150506060830151614eed6060860182613f80565b506080830151614f00608086018261405c565b5060a0830151614f1360a086018261405c565b5060c0830151614f2660c086018261405c565b5060e0830151614f3960e0860182613f80565b508091505092915050565b60006060820190508181036000830152614f5e8186614e94565b9050614f6d6020830185613dc2565b614f7a6040830184613dc9565b949350505050565b6000604082019050614f976000830185613710565b614fa46020830184613710565b9392505050565b600081905092915050565b7f1901000000000000000000000000000000000000000000000000000000000000600082015250565b6000614fec600283614fab565b9150614ff782614fb6565b600282019050919050565b6000819050919050565b61501d61501882613344565b615002565b82525050565b600061502e82614fdf565b915061503a828561500c565b60208201915061504a828461500c565b6020820191508190509392505050565b7f416363657373436f6e74726f6c3a206163636f756e7420000000000000000000600082015250565b6000615090601783614fab565b915061509b8261505a565b601782019050919050565b60006150b18261371f565b6150bb8185614fab565b93506150cb81856020860161373b565b80840191505092915050565b7f206973206d697373696e6720726f6c6520000000000000000000000000000000600082015250565b600061510d601183614fab565b9150615118826150d7565b601182019050919050565b600061512e82615083565b915061513a82856150a6565b915061514582615100565b915061515182846150a6565b91508190509392505050565b60006020820190508181036000830152615177818461376e565b905092915050565b600060a08201905061519460008301886133a7565b6151a160208301876133a7565b6151ae60408301866133a7565b6151bb6060830185613710565b6151c860808301846137e8565b9695505050505050565b60006151dd8261311b565b91506151e88361311b565b9250817fffffffffffffffffffffffffffffffffffffffffffffffffffffffffffffffff0483118215151615615221576152206141a7565b5b828202905092915050565b60006152378261311b565b91506152428361311b565b9250827fffffffffffffffffffffffffffffffffffffffffffffffffffffffffffffffff03821115615277576152766141a7565b5b828201905092915050565b600061528d8261311b565b915060008214156152a1576152a06141a7565b5b600182039050919050565b7f537472696e67733a20686578206c656e67746820696e73756666696369656e74600082015250565b60006152e260208361372a565b91506152ed826152ac565b602082019050919050565b60006020820190508181036000830152615311816152d5565b905091905056fea264697066735822122074be4707c907bedaa60c3a4fbf21be5af5b74734758fbc584864feda3da1ca3a64736f6c63430008090033",
  "libraries": {
    "Logic": "0x60011d26C3c1C4b7f5d9B7c1ad7fd9448Ba4150b"
  },
  "devdoc": {
    "kind": "dev",
    "methods": {
      "getRoleAdmin(bytes32)": {
        "details": "Returns the admin role that controls `role`. See {grantRole} and {revokeRole}. To change a role's admin, use {_setRoleAdmin}."
      },
      "grantRole(bytes32,address)": {
        "details": "Grants `role` to `account`. If `account` had not been already granted `role`, emits a {RoleGranted} event. Requirements: - the caller must have ``role``'s admin role. May emit a {RoleGranted} event."
      },
      "hasRole(bytes32,address)": {
        "details": "Returns `true` if `account` has been granted `role`."
      },
      "onERC721Received(address,address,uint256,bytes)": {
        "details": "See {IERC721Receiver-onERC721Received}. Always returns `IERC721Receiver.onERC721Received.selector`."
      },
      "renounceRole(bytes32,address)": {
        "details": "Revokes `role` from the calling account. Roles are often managed via {grantRole} and {revokeRole}: this function's purpose is to provide a mechanism for accounts to lose their privileges if they are compromised (such as when a trusted device is misplaced). If the calling account had been revoked `role`, emits a {RoleRevoked} event. Requirements: - the caller must be `account`. May emit a {RoleRevoked} event."
      },
      "revokeRole(bytes32,address)": {
        "details": "Revokes `role` from `account`. If `account` had been granted `role`, emits a {RoleRevoked} event. Requirements: - the caller must have ``role``'s admin role. May emit a {RoleRevoked} event."
      },
      "supportsInterface(bytes4)": {
        "details": "See {IERC165-supportsInterface}."
      }
    },
    "version": 1
  },
  "userdoc": {
    "kind": "user",
    "methods": {},
    "version": 1
  },
  "storageLayout": {
    "storage": [
      {
        "astId": 1308,
        "contract": "contracts/MissionModule.sol:MissionModule",
        "label": "_roles",
        "offset": 0,
        "slot": "0",
        "type": "t_mapping(t_bytes32,t_struct(RoleData)1303_storage)"
      },
      {
        "astId": 3721,
        "contract": "contracts/MissionModule.sol:MissionModule",
        "label": "sigNonces",
        "offset": 0,
        "slot": "1",
        "type": "t_mapping(t_address,t_uint256)"
      },
      {
        "astId": 3725,
        "contract": "contracts/MissionModule.sol:MissionModule",
        "label": "_missionIdBySlugHash",
        "offset": 0,
        "slot": "2",
        "type": "t_mapping(t_bytes32,t_uint256)"
      },
      {
        "astId": 3729,
        "contract": "contracts/MissionModule.sol:MissionModule",
        "label": "_missionIdByChallengeHash",
        "offset": 0,
        "slot": "3",
        "type": "t_mapping(t_bytes32,t_uint256)"
      },
      {
        "astId": 3733,
        "contract": "contracts/MissionModule.sol:MissionModule",
        "label": "_profileIdByChallengeHash",
        "offset": 0,
        "slot": "4",
        "type": "t_mapping(t_bytes32,t_uint256)"
      },
      {
        "astId": 3740,
        "contract": "contracts/MissionModule.sol:MissionModule",
        "label": "_missionByIdByProfile",
        "offset": 0,
        "slot": "5",
        "type": "t_mapping(t_uint256,t_mapping(t_uint256,t_struct(MissionStruct)5586_storage))"
      }
    ],
    "types": {
      "t_address": {
        "encoding": "inplace",
        "label": "address",
        "numberOfBytes": "20"
      },
      "t_bool": {
        "encoding": "inplace",
        "label": "bool",
        "numberOfBytes": "1"
      },
      "t_bytes32": {
        "encoding": "inplace",
        "label": "bytes32",
        "numberOfBytes": "32"
      },
      "t_enum(State)5566": {
        "encoding": "inplace",
        "label": "enum DataTypes.State",
        "numberOfBytes": "1"
      },
      "t_mapping(t_address,t_bool)": {
        "encoding": "mapping",
        "key": "t_address",
        "label": "mapping(address => bool)",
        "numberOfBytes": "32",
        "value": "t_bool"
      },
      "t_mapping(t_address,t_uint256)": {
        "encoding": "mapping",
        "key": "t_address",
        "label": "mapping(address => uint256)",
        "numberOfBytes": "32",
        "value": "t_uint256"
      },
      "t_mapping(t_bytes32,t_struct(RoleData)1303_storage)": {
        "encoding": "mapping",
        "key": "t_bytes32",
        "label": "mapping(bytes32 => struct AccessControl.RoleData)",
        "numberOfBytes": "32",
        "value": "t_struct(RoleData)1303_storage"
      },
      "t_mapping(t_bytes32,t_uint256)": {
        "encoding": "mapping",
        "key": "t_bytes32",
        "label": "mapping(bytes32 => uint256)",
        "numberOfBytes": "32",
        "value": "t_uint256"
      },
      "t_mapping(t_uint256,t_mapping(t_uint256,t_struct(MissionStruct)5586_storage))": {
        "encoding": "mapping",
        "key": "t_uint256",
        "label": "mapping(uint256 => mapping(uint256 => struct DataTypes.MissionStruct))",
        "numberOfBytes": "32",
        "value": "t_mapping(t_uint256,t_struct(MissionStruct)5586_storage)"
      },
      "t_mapping(t_uint256,t_struct(MissionStruct)5586_storage)": {
        "encoding": "mapping",
        "key": "t_uint256",
        "label": "mapping(uint256 => struct DataTypes.MissionStruct)",
        "numberOfBytes": "32",
        "value": "t_struct(MissionStruct)5586_storage"
      },
      "t_struct(MissionStruct)5586_storage": {
        "encoding": "inplace",
        "label": "struct DataTypes.MissionStruct",
        "members": [
          {
            "astId": 5568,
            "contract": "contracts/MissionModule.sol:MissionModule",
            "label": "owner",
            "offset": 0,
            "slot": "0",
            "type": "t_address"
          },
          {
            "astId": 5570,
            "contract": "contracts/MissionModule.sol:MissionModule",
            "label": "profileId",
            "offset": 0,
            "slot": "1",
            "type": "t_uint256"
          },
          {
            "astId": 5572,
            "contract": "contracts/MissionModule.sol:MissionModule",
            "label": "tokenId",
            "offset": 0,
            "slot": "2",
            "type": "t_uint256"
          },
          {
            "astId": 5574,
            "contract": "contracts/MissionModule.sol:MissionModule",
            "label": "verifier",
            "offset": 0,
            "slot": "3",
            "type": "t_address"
          },
          {
            "astId": 5576,
            "contract": "contracts/MissionModule.sol:MissionModule",
            "label": "starttime",
            "offset": 0,
            "slot": "4",
            "type": "t_uint256"
          },
          {
            "astId": 5578,
            "contract": "contracts/MissionModule.sol:MissionModule",
            "label": "endtime",
            "offset": 0,
            "slot": "5",
            "type": "t_uint256"
          },
          {
            "astId": 5580,
            "contract": "contracts/MissionModule.sol:MissionModule",
            "label": "challengeHash",
            "offset": 0,
            "slot": "6",
            "type": "t_bytes32"
          },
          {
            "astId": 5583,
            "contract": "contracts/MissionModule.sol:MissionModule",
            "label": "state",
            "offset": 0,
            "slot": "7",
            "type": "t_enum(State)5566"
          },
          {
            "astId": 5585,
            "contract": "contracts/MissionModule.sol:MissionModule",
            "label": "creator",
            "offset": 1,
            "slot": "7",
            "type": "t_address"
          }
        ],
        "numberOfBytes": "256"
      },
      "t_struct(RoleData)1303_storage": {
        "encoding": "inplace",
        "label": "struct AccessControl.RoleData",
        "members": [
          {
            "astId": 1300,
            "contract": "contracts/MissionModule.sol:MissionModule",
            "label": "members",
            "offset": 0,
            "slot": "0",
            "type": "t_mapping(t_address,t_bool)"
          },
          {
            "astId": 1302,
            "contract": "contracts/MissionModule.sol:MissionModule",
            "label": "adminRole",
            "offset": 0,
            "slot": "1",
            "type": "t_bytes32"
          }
        ],
        "numberOfBytes": "64"
      },
      "t_uint256": {
        "encoding": "inplace",
        "label": "uint256",
        "numberOfBytes": "32"
      }
    }
  }
}