{
  "address": "0xF8510760447CB066E8cBa08E9D7031DeccDc809D",
  "abi": [
    {
      "inputs": [
        {
          "internalType": "address",
          "name": "_missionNFT",
          "type": "address"
        },
        {
          "internalType": "bytes32",
          "name": "_root",
          "type": "bytes32"
        }
      ],
      "stateMutability": "nonpayable",
      "type": "constructor"
    },
    {
      "inputs": [],
      "name": "ContainsInvalidChars",
      "type": "error"
    },
    {
      "inputs": [],
      "name": "InvalidLength",
      "type": "error"
    },
    {
      "inputs": [],
      "name": "NotOwner",
      "type": "error"
    },
    {
      "inputs": [],
      "name": "SlugTaken",
      "type": "error"
    },
    {
      "anonymous": false,
      "inputs": [
        {
          "indexed": true,
          "internalType": "uint256",
          "name": "profileId",
          "type": "uint256"
        },
        {
          "indexed": true,
          "internalType": "uint256",
          "name": "missionId",
          "type": "uint256"
        },
        {
          "indexed": false,
          "internalType": "uint256",
          "name": "timestamp",
          "type": "uint256"
        }
      ],
      "name": "Aborted",
      "type": "event"
    },
    {
      "anonymous": false,
      "inputs": [
        {
          "indexed": true,
          "internalType": "uint256",
          "name": "profileId",
          "type": "uint256"
        },
        {
          "indexed": true,
          "internalType": "uint256",
          "name": "missionId",
          "type": "uint256"
        },
        {
          "indexed": false,
          "internalType": "bytes32",
          "name": "challenge",
          "type": "bytes32"
        },
        {
          "indexed": false,
          "internalType": "uint256",
          "name": "timestamp",
          "type": "uint256"
        }
      ],
      "name": "Completed",
      "type": "event"
    },
    {
      "anonymous": false,
      "inputs": [
        {
          "indexed": true,
          "internalType": "uint256",
          "name": "profileId",
          "type": "uint256"
        },
        {
          "indexed": true,
          "internalType": "uint256",
          "name": "missionId",
          "type": "uint256"
        },
        {
          "indexed": false,
          "internalType": "address",
          "name": "verifier",
          "type": "address"
        },
        {
          "indexed": false,
          "internalType": "string",
          "name": "reason",
          "type": "string"
        },
        {
          "indexed": false,
          "internalType": "uint256",
          "name": "timestamp",
          "type": "uint256"
        }
      ],
      "name": "Failed",
      "type": "event"
    },
    {
      "anonymous": false,
      "inputs": [
        {
          "indexed": false,
          "internalType": "address",
          "name": "account",
          "type": "address"
        }
      ],
      "name": "Paused",
      "type": "event"
    },
    {
      "anonymous": false,
      "inputs": [
        {
          "indexed": true,
          "internalType": "uint256",
          "name": "profileId",
          "type": "uint256"
        },
        {
          "indexed": true,
          "internalType": "address",
          "name": "creator",
          "type": "address"
        },
        {
          "indexed": false,
          "internalType": "string",
          "name": "handle",
          "type": "string"
        },
        {
          "indexed": false,
          "internalType": "uint256",
          "name": "timestamp",
          "type": "uint256"
        }
      ],
      "name": "ProfileCreated",
      "type": "event"
    },
    {
      "anonymous": false,
      "inputs": [
        {
          "indexed": true,
          "internalType": "bytes32",
          "name": "role",
          "type": "bytes32"
        },
        {
          "indexed": true,
          "internalType": "bytes32",
          "name": "previousAdminRole",
          "type": "bytes32"
        },
        {
          "indexed": true,
          "internalType": "bytes32",
          "name": "newAdminRole",
          "type": "bytes32"
        }
      ],
      "name": "RoleAdminChanged",
      "type": "event"
    },
    {
      "anonymous": false,
      "inputs": [
        {
          "indexed": true,
          "internalType": "bytes32",
          "name": "role",
          "type": "bytes32"
        },
        {
          "indexed": true,
          "internalType": "address",
          "name": "account",
          "type": "address"
        },
        {
          "indexed": true,
          "internalType": "address",
          "name": "sender",
          "type": "address"
        }
      ],
      "name": "RoleGranted",
      "type": "event"
    },
    {
      "anonymous": false,
      "inputs": [
        {
          "indexed": true,
          "internalType": "bytes32",
          "name": "role",
          "type": "bytes32"
        },
        {
          "indexed": true,
          "internalType": "address",
          "name": "account",
          "type": "address"
        },
        {
          "indexed": true,
          "internalType": "address",
          "name": "sender",
          "type": "address"
        }
      ],
      "name": "RoleRevoked",
      "type": "event"
    },
    {
      "anonymous": false,
      "inputs": [
        {
          "indexed": true,
          "internalType": "uint256",
          "name": "profileId",
          "type": "uint256"
        },
        {
          "indexed": true,
          "internalType": "uint256",
          "name": "missionId",
          "type": "uint256"
        },
        {
          "indexed": false,
          "internalType": "string",
          "name": "slug",
          "type": "string"
        },
        {
          "indexed": false,
          "internalType": "uint256",
          "name": "endtime",
          "type": "uint256"
        },
        {
          "indexed": false,
          "internalType": "uint256",
          "name": "timestamp",
          "type": "uint256"
        }
      ],
      "name": "Started",
      "type": "event"
    },
    {
      "anonymous": false,
      "inputs": [
        {
          "indexed": false,
          "internalType": "address",
          "name": "account",
          "type": "address"
        }
      ],
      "name": "Unpaused",
      "type": "event"
    },
    {
      "anonymous": false,
      "inputs": [
        {
          "indexed": true,
          "internalType": "uint256",
          "name": "profileId",
          "type": "uint256"
        },
        {
          "indexed": true,
          "internalType": "uint256",
          "name": "missionId",
          "type": "uint256"
        },
        {
          "indexed": false,
          "internalType": "address",
          "name": "verifier",
          "type": "address"
        },
        {
          "indexed": false,
          "internalType": "uint256",
          "name": "timestamp",
          "type": "uint256"
        }
      ],
      "name": "Verified",
      "type": "event"
    },
    {
      "inputs": [],
      "name": "DEFAULT_ADMIN_ROLE",
      "outputs": [
        {
          "internalType": "bytes32",
          "name": "",
          "type": "bytes32"
        }
      ],
      "stateMutability": "view",
      "type": "function"
    },
    {
      "inputs": [],
      "name": "PAUSER_ROLE",
      "outputs": [
        {
          "internalType": "bytes32",
          "name": "",
          "type": "bytes32"
        }
      ],
      "stateMutability": "view",
      "type": "function"
    },
    {
      "inputs": [
        {
          "components": [
            {
              "internalType": "uint256",
              "name": "profileId",
              "type": "uint256"
            },
            {
              "internalType": "uint256",
              "name": "missionId",
              "type": "uint256"
            },
            {
              "internalType": "bytes",
              "name": "signature",
              "type": "bytes"
            },
            {
              "internalType": "uint256",
              "name": "deadline",
              "type": "uint256"
            }
          ],
          "internalType": "struct DataTypes.AbortWithSigData",
          "name": "vars",
          "type": "tuple"
        }
      ],
      "name": "abortWithSig",
      "outputs": [],
      "stateMutability": "nonpayable",
      "type": "function"
    },
    {
      "inputs": [
        {
          "internalType": "address",
          "name": "claimer",
          "type": "address"
        },
        {
          "internalType": "string",
          "name": "handle",
          "type": "string"
        },
        {
          "internalType": "bytes32[]",
          "name": "proof",
          "type": "bytes32[]"
        }
      ],
      "name": "canClaim",
      "outputs": [
        {
          "internalType": "bool",
          "name": "",
          "type": "bool"
        }
      ],
      "stateMutability": "view",
      "type": "function"
    },
    {
      "inputs": [
        {
          "internalType": "address",
          "name": "",
          "type": "address"
        }
      ],
      "name": "claimed",
      "outputs": [
        {
          "internalType": "bool",
          "name": "",
          "type": "bool"
        }
      ],
      "stateMutability": "view",
      "type": "function"
    },
    {
      "inputs": [
        {
          "components": [
            {
              "internalType": "uint256",
              "name": "profileId",
              "type": "uint256"
            },
            {
              "internalType": "uint256",
              "name": "missionId",
              "type": "uint256"
            },
            {
              "internalType": "string",
              "name": "challenge",
              "type": "string"
            },
            {
              "internalType": "bytes",
              "name": "signature",
              "type": "bytes"
            },
            {
              "internalType": "uint256",
              "name": "deadline",
              "type": "uint256"
            }
          ],
          "internalType": "struct DataTypes.CompleteWithSigData",
          "name": "vars",
          "type": "tuple"
        }
      ],
      "name": "completeWithSig",
      "outputs": [],
      "stateMutability": "nonpayable",
      "type": "function"
    },
    {
      "inputs": [
        {
          "internalType": "string",
          "name": "handle",
          "type": "string"
        },
        {
          "internalType": "bytes32[]",
          "name": "proof",
          "type": "bytes32[]"
        }
      ],
      "name": "createProfile",
      "outputs": [
        {
          "internalType": "uint256",
          "name": "",
          "type": "uint256"
        }
      ],
      "stateMutability": "nonpayable",
      "type": "function"
    },
    {
      "inputs": [
        {
          "components": [
            {
              "internalType": "uint256",
              "name": "profileId",
              "type": "uint256"
            },
            {
              "internalType": "string",
              "name": "challenge",
              "type": "string"
            },
            {
              "internalType": "string",
              "name": "reason",
              "type": "string"
            },
            {
              "internalType": "bytes",
              "name": "signature",
              "type": "bytes"
            },
            {
              "internalType": "uint256",
              "name": "deadline",
              "type": "uint256"
            }
          ],
          "internalType": "struct DataTypes.FailWithSigData",
          "name": "vars",
          "type": "tuple"
        }
      ],
      "name": "failWithSig",
      "outputs": [],
      "stateMutability": "nonpayable",
      "type": "function"
    },
    {
      "inputs": [],
      "name": "getDomainSeparator",
      "outputs": [
        {
          "internalType": "bytes32",
          "name": "",
          "type": "bytes32"
        }
      ],
      "stateMutability": "view",
      "type": "function"
    },
    {
      "inputs": [
        {
          "internalType": "uint256",
          "name": "profileId",
          "type": "uint256"
        }
      ],
      "name": "getHandle",
      "outputs": [
        {
          "internalType": "string",
          "name": "",
          "type": "string"
        }
      ],
      "stateMutability": "view",
      "type": "function"
    },
    {
      "inputs": [
        {
          "internalType": "bytes32",
          "name": "role",
          "type": "bytes32"
        }
      ],
      "name": "getRoleAdmin",
      "outputs": [
        {
          "internalType": "bytes32",
          "name": "",
          "type": "bytes32"
        }
      ],
      "stateMutability": "view",
      "type": "function"
    },
    {
      "inputs": [
        {
          "internalType": "bytes32",
          "name": "role",
          "type": "bytes32"
        },
        {
          "internalType": "address",
          "name": "account",
          "type": "address"
        }
      ],
      "name": "grantRole",
      "outputs": [],
      "stateMutability": "nonpayable",
      "type": "function"
    },
    {
      "inputs": [
        {
          "internalType": "bytes32",
          "name": "role",
          "type": "bytes32"
        },
        {
          "internalType": "address",
          "name": "account",
          "type": "address"
        }
      ],
      "name": "hasRole",
      "outputs": [
        {
          "internalType": "bool",
          "name": "",
          "type": "bool"
        }
      ],
      "stateMutability": "view",
      "type": "function"
    },
    {
      "inputs": [
        {
          "internalType": "uint256",
          "name": "profileId",
          "type": "uint256"
        },
        {
          "internalType": "uint256",
          "name": "missionId",
          "type": "uint256"
        }
      ],
      "name": "missionById",
      "outputs": [
        {
          "components": [
            {
              "internalType": "address",
              "name": "owner",
              "type": "address"
            },
            {
              "internalType": "uint256",
              "name": "profileId",
              "type": "uint256"
            },
            {
              "internalType": "uint256",
              "name": "missionId",
              "type": "uint256"
            },
            {
              "internalType": "address",
              "name": "verifier",
              "type": "address"
            },
            {
              "internalType": "uint256",
              "name": "starttime",
              "type": "uint256"
            },
            {
              "internalType": "uint256",
              "name": "endtime",
              "type": "uint256"
            },
            {
              "internalType": "bytes32",
              "name": "challengeHash",
              "type": "bytes32"
            },
            {
              "internalType": "enum DataTypes.State",
              "name": "state",
              "type": "uint8"
            }
          ],
          "internalType": "struct DataTypes.MissionStruct",
          "name": "",
          "type": "tuple"
        }
      ],
      "stateMutability": "view",
      "type": "function"
    },
    {
      "inputs": [
        {
          "internalType": "uint256",
          "name": "profileId",
          "type": "uint256"
        },
        {
          "internalType": "string",
          "name": "slug",
          "type": "string"
        }
      ],
      "name": "missionBySlug",
      "outputs": [
        {
          "components": [
            {
              "internalType": "address",
              "name": "owner",
              "type": "address"
            },
            {
              "internalType": "uint256",
              "name": "profileId",
              "type": "uint256"
            },
            {
              "internalType": "uint256",
              "name": "missionId",
              "type": "uint256"
            },
            {
              "internalType": "address",
              "name": "verifier",
              "type": "address"
            },
            {
              "internalType": "uint256",
              "name": "starttime",
              "type": "uint256"
            },
            {
              "internalType": "uint256",
              "name": "endtime",
              "type": "uint256"
            },
            {
              "internalType": "bytes32",
              "name": "challengeHash",
              "type": "bytes32"
            },
            {
              "internalType": "enum DataTypes.State",
              "name": "state",
              "type": "uint8"
            }
          ],
          "internalType": "struct DataTypes.MissionStruct",
          "name": "",
          "type": "tuple"
        }
      ],
      "stateMutability": "view",
      "type": "function"
    },
    {
      "inputs": [
        {
          "internalType": "uint256",
          "name": "profileId",
          "type": "uint256"
        }
      ],
      "name": "missionCount",
      "outputs": [
        {
          "internalType": "uint256",
          "name": "",
          "type": "uint256"
        }
      ],
      "stateMutability": "view",
      "type": "function"
    },
    {
      "inputs": [],
      "name": "missionNFT",
      "outputs": [
        {
          "internalType": "address",
          "name": "",
          "type": "address"
        }
      ],
      "stateMutability": "view",
      "type": "function"
    },
    {
      "inputs": [
        {
          "internalType": "address",
          "name": "",
          "type": "address"
        },
        {
          "internalType": "address",
          "name": "",
          "type": "address"
        },
        {
          "internalType": "uint256",
          "name": "",
          "type": "uint256"
        },
        {
          "internalType": "bytes",
          "name": "",
          "type": "bytes"
        }
      ],
      "name": "onERC721Received",
      "outputs": [
        {
          "internalType": "bytes4",
          "name": "",
          "type": "bytes4"
        }
      ],
      "stateMutability": "nonpayable",
      "type": "function"
    },
    {
      "inputs": [],
      "name": "pause",
      "outputs": [],
      "stateMutability": "nonpayable",
      "type": "function"
    },
    {
      "inputs": [],
      "name": "paused",
      "outputs": [
        {
          "internalType": "bool",
          "name": "",
          "type": "bool"
        }
      ],
      "stateMutability": "view",
      "type": "function"
    },
    {
      "inputs": [
        {
          "internalType": "string",
          "name": "handle",
          "type": "string"
        }
      ],
      "name": "profileByHandle",
      "outputs": [
        {
          "components": [
            {
              "internalType": "uint256",
              "name": "missionCount",
              "type": "uint256"
            },
            {
              "internalType": "string",
              "name": "handle",
              "type": "string"
            },
            {
              "internalType": "address",
              "name": "owner",
              "type": "address"
            }
          ],
          "internalType": "struct DataTypes.ProfileStruct",
          "name": "",
          "type": "tuple"
        }
      ],
      "stateMutability": "view",
      "type": "function"
    },
    {
      "inputs": [
        {
          "internalType": "uint256",
          "name": "profileId",
          "type": "uint256"
        }
      ],
      "name": "profileById",
      "outputs": [
        {
          "components": [
            {
              "internalType": "uint256",
              "name": "missionCount",
              "type": "uint256"
            },
            {
              "internalType": "string",
              "name": "handle",
              "type": "string"
            },
            {
              "internalType": "address",
              "name": "owner",
              "type": "address"
            }
          ],
          "internalType": "struct DataTypes.ProfileStruct",
          "name": "",
          "type": "tuple"
        }
      ],
      "stateMutability": "view",
      "type": "function"
    },
    {
      "inputs": [
        {
          "internalType": "string",
          "name": "handle",
          "type": "string"
        }
      ],
      "name": "profileIdByHandle",
      "outputs": [
        {
          "internalType": "uint256",
          "name": "",
          "type": "uint256"
        }
      ],
      "stateMutability": "view",
      "type": "function"
    },
    {
      "inputs": [
        {
          "internalType": "bytes32",
          "name": "role",
          "type": "bytes32"
        },
        {
          "internalType": "address",
          "name": "account",
          "type": "address"
        }
      ],
      "name": "renounceRole",
      "outputs": [],
      "stateMutability": "nonpayable",
      "type": "function"
    },
    {
      "inputs": [
        {
          "internalType": "bytes32",
          "name": "role",
          "type": "bytes32"
        },
        {
          "internalType": "address",
          "name": "account",
          "type": "address"
        }
      ],
      "name": "revokeRole",
      "outputs": [],
      "stateMutability": "nonpayable",
      "type": "function"
    },
    {
      "inputs": [
        {
          "internalType": "bytes32",
          "name": "root",
          "type": "bytes32"
        }
      ],
      "name": "setMerklerootForProfiles",
      "outputs": [],
      "stateMutability": "nonpayable",
      "type": "function"
    },
    {
      "inputs": [
        {
          "internalType": "address",
          "name": "",
          "type": "address"
        }
      ],
      "name": "sigNonces",
      "outputs": [
        {
          "internalType": "uint256",
          "name": "",
          "type": "uint256"
        }
      ],
      "stateMutability": "view",
      "type": "function"
    },
    {
      "inputs": [
        {
          "components": [
            {
              "internalType": "uint256",
              "name": "profileId",
              "type": "uint256"
            },
            {
              "internalType": "string",
              "name": "slug",
              "type": "string"
            },
            {
              "internalType": "string",
              "name": "contentURI",
              "type": "string"
            },
            {
              "internalType": "uint256",
              "name": "minutesToExpire",
              "type": "uint256"
            },
            {
              "internalType": "address",
              "name": "verifier",
              "type": "address"
            },
            {
              "internalType": "bytes",
              "name": "signature",
              "type": "bytes"
            },
            {
              "internalType": "uint256",
              "name": "deadline",
              "type": "uint256"
            }
          ],
          "internalType": "struct DataTypes.StartWithSigData",
          "name": "vars",
          "type": "tuple"
        }
      ],
      "name": "startWithSig",
      "outputs": [
        {
          "internalType": "uint256",
          "name": "",
          "type": "uint256"
        }
      ],
      "stateMutability": "nonpayable",
      "type": "function"
    },
    {
      "inputs": [
        {
          "internalType": "bytes4",
          "name": "interfaceId",
          "type": "bytes4"
        }
      ],
      "name": "supportsInterface",
      "outputs": [
        {
          "internalType": "bool",
          "name": "",
          "type": "bool"
        }
      ],
      "stateMutability": "view",
      "type": "function"
    },
    {
      "inputs": [],
      "name": "unpause",
      "outputs": [],
      "stateMutability": "nonpayable",
      "type": "function"
    },
    {
      "inputs": [
        {
          "components": [
            {
              "internalType": "uint256",
              "name": "profileId",
              "type": "uint256"
            },
            {
              "internalType": "string",
              "name": "challenge",
              "type": "string"
            },
            {
              "internalType": "bytes",
              "name": "signature",
              "type": "bytes"
            },
            {
              "internalType": "uint256",
              "name": "deadline",
              "type": "uint256"
            }
          ],
          "internalType": "struct DataTypes.VerifyWithSigData",
          "name": "vars",
          "type": "tuple"
        }
      ],
      "name": "verifyWithSig",
      "outputs": [],
      "stateMutability": "nonpayable",
      "type": "function"
    }
  ],
  "transactionHash": "0xe2e01bb0cfe33ed542e90877ffdb327f3c836ead4798d97969b569e1c49d0b15",
  "args": [
    "0x200a8fE53A4ecD0ce73D1f9da8f9FE8571b98b37",
    "0xda6bf7e7f92668a96182c1efaa7bfd0a0c665c7b2c52e327ab597a2bc3f5a0d4"
  ],
  "numDeployments": 1,
  "solcInputHash": "82d0e8f6d0c22df9ba3b81861cf62291",
  "bytecode": "0x6101606040523480156200001257600080fd5b50604051620053133803806200531383398181016040528101906200003891906200046d565b6040518060400160405280600481526020017f506f6d70000000000000000000000000000000000000000000000000000000008152506040518060400160405280600181526020017f310000000000000000000000000000000000000000000000000000000000000081525060008060006101000a81548160ff02191690831515021790555060008280519060200120905060008280519060200120905060007f8b73c3c69bb8fe3d512ecc4cf759cc79239f7b179b0ffacaa9a75d522b39400f90508260e081815250508161010081815250504660a08181525050620001278184846200021260201b60201c565b608081815250503073ffffffffffffffffffffffffffffffffffffffff1660c08173ffffffffffffffffffffffffffffffffffffffff16815250508061012081815250505050505050620001856000801b336200024e60201b60201c565b620001b77f65d7a28e3265b37a6474929f336521b332c1681b933f6cb9f3376673440d862a336200024e60201b60201c565b806009819055508173ffffffffffffffffffffffffffffffffffffffff166101408173ffffffffffffffffffffffffffffffffffffffff16815250506200020a600a6200033f60201b6200243d1760201c565b50506200054e565b600083838346306040516020016200022f959493929190620004f1565b6040516020818303038152906040528051906020012090509392505050565b6200026082826200035560201b60201c565b6200033b57600180600084815260200190815260200160002060000160008373ffffffffffffffffffffffffffffffffffffffff1673ffffffffffffffffffffffffffffffffffffffff16815260200190815260200160002060006101000a81548160ff021916908315150217905550620002e0620003c060201b60201c565b73ffffffffffffffffffffffffffffffffffffffff168173ffffffffffffffffffffffffffffffffffffffff16837f2f8788117e7eff1d82e926ec794901d17c78024a50270940304540a733656f0d60405160405180910390a45b5050565b6001816000016000828254019250508190555050565b60006001600084815260200190815260200160002060000160008373ffffffffffffffffffffffffffffffffffffffff1673ffffffffffffffffffffffffffffffffffffffff16815260200190815260200160002060009054906101000a900460ff16905092915050565b600033905090565b600080fd5b600073ffffffffffffffffffffffffffffffffffffffff82169050919050565b6000620003fa82620003cd565b9050919050565b6200040c81620003ed565b81146200041857600080fd5b50565b6000815190506200042c8162000401565b92915050565b6000819050919050565b620004478162000432565b81146200045357600080fd5b50565b60008151905062000467816200043c565b92915050565b60008060408385031215620004875762000486620003c8565b5b600062000497858286016200041b565b9250506020620004aa8582860162000456565b9150509250929050565b620004bf8162000432565b82525050565b6000819050919050565b620004da81620004c5565b82525050565b620004eb81620003ed565b82525050565b600060a082019050620005086000830188620004b4565b620005176020830187620004b4565b620005266040830186620004b4565b620005356060830185620004cf565b620005446080830184620004e0565b9695505050505050565b60805160a05160c05160e051610100516101205161014051614d4e620005c5600039600081816108fb01528181610d7b0152818161134001528181611d540152611ed801526000612d2c01526000612d6e01526000612d4d01526000612c8201526000612cd801526000612d010152614d4e6000f3fe608060405234801561001057600080fd5b50600436106101e55760003560e01c80638ed8d3ea1161010f578063e63ab1e9116100a2578063f2d1dde311610071578063f2d1dde3146105b4578063f990ccd7146105e4578063f9ea0daa14610614578063fae6ba4b14610644576101e5565b8063e63ab1e91461052c578063eaae07361461054a578063ec81d19414610566578063ed24911d14610596576101e5565b8063c884ef83116100de578063c884ef8314610480578063d547741f146104b0578063d99b0522146104cc578063dc8f5696146104fc576101e5565b80638ed8d3ea146103f857806391d1485414610414578063a217fddf14610444578063b51de50e14610462576101e5565b806342019425116101875780635c975abb116101565780635c975abb146103845780638456cb59146103a257806386e0c118146103ac5780638e24ad37146103c8576101e5565b806342019425146102d857806347119c5f146103085780634e445466146103385780635b79912414610354576101e5565b8063248a9ca3116101c3578063248a9ca3146102665780632f2ff15d1461029657806336568abe146102b25780633f4ba83a146102ce576101e5565b806301ffc9a7146101ea578063150b7a021461021a578063247b55d21461024a575b600080fd5b61020460048036038101906101ff91906132ba565b610674565b6040516102119190613302565b60405180910390f35b610234600480360381019061022f91906134f7565b610686565b6040516102419190613589565b60405180910390f35b610264600480360381019061025f91906135c8565b61069a565b005b610280600480360381019061027b9190613647565b610a00565b60405161028d9190613683565b60405180910390f35b6102b060048036038101906102ab919061369e565b610a20565b005b6102cc60048036038101906102c7919061369e565b610a41565b005b6102d6610ac4565b005b6102f260048036038101906102ed91906136fd565b610af9565b6040516102ff9190613755565b60405180910390f35b610322600480360381019061031d91906137d0565b610ee4565b60405161032f9190613976565b60405180910390f35b610352600480360381019061034d91906139b1565b611068565b005b61036e600480360381019061036991906139fa565b61148d565b60405161037b9190613b1f565b60405180910390f35b61038c6115d7565b6040516103999190613302565b60405180910390f35b6103aa6115ed565b005b6103c660048036038101906103c19190613b60565b611622565b005b6103e260048036038101906103dd9190613bff565b6119af565b6040516103ef9190613302565b60405180910390f35b610412600480360381019061040d9190613cb3565b611a55565b005b61042e6004803603810190610429919061369e565b611e64565b60405161043b9190613302565b60405180910390f35b61044c611ecf565b6040516104599190613683565b60405180910390f35b61046a611ed6565b6040516104779190613d0b565b60405180910390f35b61049a60048036038101906104959190613d26565b611efa565b6040516104a79190613302565b60405180910390f35b6104ca60048036038101906104c5919061369e565b611f1a565b005b6104e660048036038101906104e19190613d53565b611f3b565b6040516104f39190613755565b60405180910390f35b61051660048036038101906105119190613d80565b611f5b565b6040516105239190613755565b60405180910390f35b610534612078565b6040516105419190613683565b60405180910390f35b610564600480360381019061055f9190613647565b61209c565b005b610580600480360381019061057b9190613d53565b6120bc565b60405161058d9190613e4b565b60405180910390f35b61059e612164565b6040516105ab9190613683565b60405180910390f35b6105ce60048036038101906105c99190613d53565b612173565b6040516105db9190613b1f565b60405180910390f35b6105fe60048036038101906105f99190613d26565b612292565b60405161060b9190613755565b60405180910390f35b61062e60048036038101906106299190613e6d565b6122aa565b60405161063b9190613976565b60405180910390f35b61065e600480360381019061065991906139fa565b612403565b60405161066b9190613755565b60405180910390f35b600061067f82612453565b9050919050565b600063150b7a0260e01b9050949350505050565b6106a26124cd565b6000600660008360000135815260200190815260200160002060020160009054906101000a900473ffffffffffffffffffffffffffffffffffffffff1690506106ea81612517565b73acDDa882DcA19e757b52240369A11342ec94A62c63a3cdda136107a67f76193c8d609e139a018adf57bae0c3c4c7a2d0eb05701223b06bd8c01adc48c885600001358660200135600860008873ffffffffffffffffffffffffffffffffffffffff1673ffffffffffffffffffffffffffffffffffffffff16815260200190815260200160002054886060013560405160200161078b959493929190613ead565b6040516020818303038152906040528051906020012061257f565b838580604001906107b79190613f0f565b87606001356040518663ffffffff1660e01b81526004016107dc959493929190613fdd565b60206040518083038186803b1580156107f457600080fd5b505af4158015610808573d6000803e3d6000fd5b505050506040513d601f19601f8201168201806040525081019061082c9190614057565b5073acDDa882DcA19e757b52240369A11342ec94A62c63ae4bd6d083600001358460200135600060076040518563ffffffff1660e01b8152600401610874949392919061409a565b60006040518083038186803b15801561088c57600080fd5b505af41580156108a0573d6000803e3d6000fd5b50505050600860008273ffffffffffffffffffffffffffffffffffffffff1673ffffffffffffffffffffffffffffffffffffffff16815260200190815260200160002060008154809291906108f49061410e565b91905055507f000000000000000000000000000000000000000000000000000000000000000073ffffffffffffffffffffffffffffffffffffffff166342966c6883602001356040518263ffffffff1660e01b81526004016109569190613755565b600060405180830381600087803b15801561097057600080fd5b505af1158015610984573d6000803e3d6000fd5b5050505073acDDa882DcA19e757b52240369A11342ec94A62c639a94b38c8360000135846020013560076040518463ffffffff1660e01b81526004016109cc93929190614157565b60006040518083038186803b1580156109e457600080fd5b505af41580156109f8573d6000803e3d6000fd5b505050505050565b600060016000838152602001908152602001600020600101549050919050565b610a2982610a00565b610a3281612599565b610a3c83836125ad565b505050565b610a4961268d565b73ffffffffffffffffffffffffffffffffffffffff168173ffffffffffffffffffffffffffffffffffffffff1614610ab6576040517f08c379a0000000000000000000000000000000000000000000000000000000008152600401610aad90614200565b60405180910390fd5b610ac08282612695565b5050565b7f65d7a28e3265b37a6474929f336521b332c1681b933f6cb9f3376673440d862a610aee81612599565b610af6612777565b50565b6000610b036124cd565b6000600660008460000135815260200190815260200160002060020160009054906101000a900473ffffffffffffffffffffffffffffffffffffffff169050610b4b81612517565b73acDDa882DcA19e757b52240369A11342ec94A62c63a3cdda13610c697f750386dd03062323a6191551ee466c0f87614c1ff8c0adbc17e291f7952c1d1b8660000135878060200190610b9e9190614220565b604051610bac9291906142b3565b6040518091039020888060400190610bc49190614220565b604051610bd29291906142b3565b604051809103902089606001358a6080016020810190610bf29190613d26565b600860008b73ffffffffffffffffffffffffffffffffffffffff1673ffffffffffffffffffffffffffffffffffffffff168152602001908152602001600020548c60c00135604051602001610c4e9897969594939291906142cc565b6040516020818303038152906040528051906020012061257f565b83868060a00190610c7a9190613f0f565b8860c001356040518663ffffffff1660e01b8152600401610c9f959493929190613fdd565b60206040518083038186803b158015610cb757600080fd5b505af4158015610ccb573d6000803e3d6000fd5b505050506040513d601f19601f82011682018060405250810190610cef9190614057565b50610d08838060200190610d039190614220565b6127d9565b610d22838060200190610d1b9190614220565b6004612ba6565b600860008273ffffffffffffffffffffffffffffffffffffffff1673ffffffffffffffffffffffffffffffffffffffff1681526020019081526020016000206000815480929190610d729061410e565b919050555060007f000000000000000000000000000000000000000000000000000000000000000073ffffffffffffffffffffffffffffffffffffffff1663d204c45e30868060400190610dc69190614220565b6040518463ffffffff1660e01b8152600401610de493929190614377565b602060405180830381600087803b158015610dfe57600080fd5b505af1158015610e12573d6000803e3d6000fd5b505050506040513d601f19601f82011682018060405250810190610e3691906143be565b905073acDDa882DcA19e757b52240369A11342ec94A62c630dcefa43856000013583878060200190610e689190614220565b89606001358a6080016020810190610e809190613d26565b6007600460066040518a63ffffffff1660e01b8152600401610eaa99989796959493929190614437565b60006040518083038186803b158015610ec257600080fd5b505af4158015610ed6573d6000803e3d6000fd5b505050508092505050919050565b610eec613191565b600760008581526020019081526020016000206000600460008686604051610f159291906142b3565b60405180910390208152602001908152602001600020548152602001908152602001600020604051806101000160405290816000820160009054906101000a900473ffffffffffffffffffffffffffffffffffffffff1673ffffffffffffffffffffffffffffffffffffffff1673ffffffffffffffffffffffffffffffffffffffff16815260200160018201548152602001600282015481526020016003820160009054906101000a900473ffffffffffffffffffffffffffffffffffffffff1673ffffffffffffffffffffffffffffffffffffffff1673ffffffffffffffffffffffffffffffffffffffff1681526020016004820154815260200160058201548152602001600682015481526020016007820160009054906101000a900460ff1660048111156110495761104861385d565b5b600481111561105b5761105a61385d565b5b8152505090509392505050565b6110706124cd565b60008180602001906110829190614220565b6040516110909291906142b3565b6040518091039020905073acDDa882DcA19e757b52240369A11342ec94A62c63a3cdda136111527fa40842dfb38adb5c9b877f026d498df2a82043c9a0f6e3f83bb60ac349e14b49856000013585600860003373ffffffffffffffffffffffffffffffffffffffff1673ffffffffffffffffffffffffffffffffffffffff1681526020019081526020016000205488606001356040516020016111379594939291906144be565b6040516020818303038152906040528051906020012061257f565b338580604001906111639190613f0f565b87606001356040518663ffffffff1660e01b8152600401611188959493929190613fdd565b60206040518083038186803b1580156111a057600080fd5b505af41580156111b4573d6000803e3d6000fd5b505050506040513d601f19601f820116820180604052508101906111d89190614057565b50600073acDDa882DcA19e757b52240369A11342ec94A62c63818a024c8360056040518363ffffffff1660e01b8152600401611215929190614511565b60206040518083038186803b15801561122d57600080fd5b505af4158015611241573d6000803e3d6000fd5b505050506040513d601f19601f8201168201806040525081019061126591906143be565b905073acDDa882DcA19e757b52240369A11342ec94A62c638ed5729b8460000135838680602001906112979190614220565b60076040518663ffffffff1660e01b81526004016112b995949392919061453a565b60006040518083038186803b1580156112d157600080fd5b505af41580156112e5573d6000803e3d6000fd5b50505050600860003373ffffffffffffffffffffffffffffffffffffffff1673ffffffffffffffffffffffffffffffffffffffff16815260200190815260200160002060008154809291906113399061410e565b91905055507f000000000000000000000000000000000000000000000000000000000000000073ffffffffffffffffffffffffffffffffffffffff166342842e0e306007600087600001358152602001908152602001600020600085815260200190815260200160002060000160009054906101000a900473ffffffffffffffffffffffffffffffffffffffff16846040518463ffffffff1660e01b81526004016113e693929190614588565b600060405180830381600087803b15801561140057600080fd5b505af1158015611414573d6000803e3d6000fd5b5050505073acDDa882DcA19e757b52240369A11342ec94A62c63b408ba4b84600001358360076040518463ffffffff1660e01b815260040161145893929190614157565b60006040518083038186803b15801561147057600080fd5b505af4158015611484573d6000803e3d6000fd5b50505050505050565b611495613217565b600660006003600086866040516114ad9291906142b3565b60405180910390208152602001908152602001600020548152602001908152602001600020604051806060016040529081600082015481526020016001820180546114f7906145ee565b80601f0160208091040260200160405190810160405280929190818152602001828054611523906145ee565b80156115705780601f1061154557610100808354040283529160200191611570565b820191906000526020600020905b81548152906001019060200180831161155357829003601f168201915b505050505081526020016002820160009054906101000a900473ffffffffffffffffffffffffffffffffffffffff1673ffffffffffffffffffffffffffffffffffffffff1673ffffffffffffffffffffffffffffffffffffffff1681525050905092915050565b60008060009054906101000a900460ff16905090565b7f65d7a28e3265b37a6474929f336521b332c1681b933f6cb9f3376673440d862a61161781612599565b61161f612c0e565b50565b61162a6124cd565b6000600660008360000135815260200190815260200160002060020160009054906101000a900473ffffffffffffffffffffffffffffffffffffffff16905061167281612517565b73acDDa882DcA19e757b52240369A11342ec94A62c63a3cdda136117557fd4f619864f63edbc545c29cb83475e9806d540c2177352618fabef4fcac34e14856000013586602001358780604001906116ca9190614220565b6040516116d89291906142b3565b6040518091039020600860008973ffffffffffffffffffffffffffffffffffffffff1673ffffffffffffffffffffffffffffffffffffffff16815260200190815260200160002054896080013560405160200161173a96959493929190614620565b6040516020818303038152906040528051906020012061257f565b838580606001906117669190613f0f565b87608001356040518663ffffffff1660e01b815260040161178b959493929190613fdd565b60206040518083038186803b1580156117a357600080fd5b505af41580156117b7573d6000803e3d6000fd5b505050506040513d601f19601f820116820180604052508101906117db9190614057565b5073acDDa882DcA19e757b52240369A11342ec94A62c63ae4bd6d083600001358460200135600160076040518563ffffffff1660e01b8152600401611823949392919061409a565b60006040518083038186803b15801561183b57600080fd5b505af415801561184f573d6000803e3d6000fd5b5050505073acDDa882DcA19e757b52240369A11342ec94A62c63f97791e083806040019061187d9190614220565b60056040518463ffffffff1660e01b815260040161189d93929190614681565b60006040518083038186803b1580156118b557600080fd5b505af41580156118c9573d6000803e3d6000fd5b50505050600860008273ffffffffffffffffffffffffffffffffffffffff1673ffffffffffffffffffffffffffffffffffffffff168152602001908152602001600020600081548092919061191d9061410e565b919050555073acDDa882DcA19e757b52240369A11342ec94A62c6319d9880d836000013584602001358580604001906119569190614220565b600760056040518763ffffffff1660e01b815260040161197b969594939291906146b3565b60006040518083038186803b15801561199357600080fd5b505af41580156119a7573d6000803e3d6000fd5b505050505050565b600073acDDa882DcA19e757b52240369A11342ec94A62c6336c4f02e60028886868a8a60095460036040518963ffffffff1660e01b81526004016119fa989796959493929190614788565b60206040518083038186803b158015611a1257600080fd5b505af4158015611a26573d6000803e3d6000fd5b505050506040513d601f19601f82011682018060405250810190611a4a9190614057565b905095945050505050565b611a5d6124cd565b6000818060200190611a6f9190614220565b604051611a7d9291906142b3565b6040518091039020905073acDDa882DcA19e757b52240369A11342ec94A62c63a3cdda13611b667f795775751370b64240b5d27ebeb7146102ab684377e1d5a66670fc725d16c785856000013585878060400190611adb9190614220565b604051611ae99291906142b3565b6040518091039020600860003373ffffffffffffffffffffffffffffffffffffffff1673ffffffffffffffffffffffffffffffffffffffff168152602001908152602001600020548960800135604051602001611b4b969594939291906147fb565b6040516020818303038152906040528051906020012061257f565b33858060600190611b779190613f0f565b87608001356040518663ffffffff1660e01b8152600401611b9c959493929190613fdd565b60206040518083038186803b158015611bb457600080fd5b505af4158015611bc8573d6000803e3d6000fd5b505050506040513d601f19601f82011682018060405250810190611bec9190614057565b50600073acDDa882DcA19e757b52240369A11342ec94A62c63818a024c8360056040518363ffffffff1660e01b8152600401611c29929190614511565b60206040518083038186803b158015611c4157600080fd5b505af4158015611c55573d6000803e3d6000fd5b505050506040513d601f19601f82011682018060405250810190611c7991906143be565b905073acDDa882DcA19e757b52240369A11342ec94A62c638ed5729b846000013583868060200190611cab9190614220565b60076040518663ffffffff1660e01b8152600401611ccd95949392919061453a565b60006040518083038186803b158015611ce557600080fd5b505af4158015611cf9573d6000803e3d6000fd5b50505050600860003373ffffffffffffffffffffffffffffffffffffffff1673ffffffffffffffffffffffffffffffffffffffff1681526020019081526020016000206000815480929190611d4d9061410e565b91905055507f000000000000000000000000000000000000000000000000000000000000000073ffffffffffffffffffffffffffffffffffffffff166342966c68826040518263ffffffff1660e01b8152600401611dab9190613755565b600060405180830381600087803b158015611dc557600080fd5b505af1158015611dd9573d6000803e3d6000fd5b5050505073acDDa882DcA19e757b52240369A11342ec94A62c6368745903846000013583868060400190611e0d9190614220565b60076040518663ffffffff1660e01b8152600401611e2f95949392919061453a565b60006040518083038186803b158015611e4757600080fd5b505af4158015611e5b573d6000803e3d6000fd5b50505050505050565b60006001600084815260200190815260200160002060000160008373ffffffffffffffffffffffffffffffffffffffff1673ffffffffffffffffffffffffffffffffffffffff16815260200190815260200160002060009054906101000a900460ff16905092915050565b6000801b81565b7f000000000000000000000000000000000000000000000000000000000000000081565b60026020528060005260406000206000915054906101000a900460ff1681565b611f2382610a00565b611f2c81612599565b611f368383612695565b505050565b600060066000838152602001908152602001600020600001549050919050565b6000611f656124cd565b73acDDa882DcA19e757b52240369A11342ec94A62c63abd9aa9560023386868a8a60095460036040518963ffffffff1660e01b8152600401611fae989796959493929190614788565b60006040518083038186803b158015611fc657600080fd5b505af4158015611fda573d6000803e3d6000fd5b505050506000611fea600a612c70565b9050611ff6600a61243d565b73acDDa882DcA19e757b52240369A11342ec94A62c63ef0c7fbe600233898986600360066040518863ffffffff1660e01b815260040161203c979695949392919061485c565b60006040518083038186803b15801561205457600080fd5b505af4158015612068573d6000803e3d6000fd5b5050505080915050949350505050565b7f65d7a28e3265b37a6474929f336521b332c1681b933f6cb9f3376673440d862a81565b6120a46124cd565b6000801b6120b181612599565b816009819055505050565b60606006600083815260200190815260200160002060010180546120df906145ee565b80601f016020809104026020016040519081016040528092919081815260200182805461210b906145ee565b80156121585780601f1061212d57610100808354040283529160200191612158565b820191906000526020600020905b81548152906001019060200180831161213b57829003601f168201915b50505050509050919050565b600061216e612c7e565b905090565b61217b613217565b60066000838152602001908152602001600020604051806060016040529081600082015481526020016001820180546121b3906145ee565b80601f01602080910402602001604051908101604052809291908181526020018280546121df906145ee565b801561222c5780601f106122015761010080835404028352916020019161222c565b820191906000526020600020905b81548152906001019060200180831161220f57829003601f168201915b505050505081526020016002820160009054906101000a900473ffffffffffffffffffffffffffffffffffffffff1673ffffffffffffffffffffffffffffffffffffffff1673ffffffffffffffffffffffffffffffffffffffff16815250509050919050565b60086020528060005260406000206000915090505481565b6122b2613191565b600760008481526020019081526020016000206000838152602001908152602001600020604051806101000160405290816000820160009054906101000a900473ffffffffffffffffffffffffffffffffffffffff1673ffffffffffffffffffffffffffffffffffffffff1673ffffffffffffffffffffffffffffffffffffffff16815260200160018201548152602001600282015481526020016003820160009054906101000a900473ffffffffffffffffffffffffffffffffffffffff1673ffffffffffffffffffffffffffffffffffffffff1673ffffffffffffffffffffffffffffffffffffffff1681526020016004820154815260200160058201548152602001600682015481526020016007820160009054906101000a900460ff1660048111156123e5576123e461385d565b5b60048111156123f7576123f661385d565b5b81525050905092915050565b60008083836040516124169291906142b3565b60405180910390209050600360008281526020019081526020016000205491505092915050565b6001816000016000828254019250508190555050565b60007f7965db0b000000000000000000000000000000000000000000000000000000007bffffffffffffffffffffffffffffffffffffffffffffffffffffffff1916827bffffffffffffffffffffffffffffffffffffffffffffffffffffffff191614806124c657506124c582612d98565b5b9050919050565b6124d56115d7565b15612515576040517f08c379a000000000000000000000000000000000000000000000000000000000815260040161250c90614912565b60405180910390fd5b565b3373ffffffffffffffffffffffffffffffffffffffff168173ffffffffffffffffffffffffffffffffffffffff161461257c576040517f30cd747100000000000000000000000000000000000000000000000000000000815260040160405180910390fd5b50565b600061259261258c612c7e565b83612e02565b9050919050565b6125aa816125a561268d565b612e35565b50565b6125b78282611e64565b61268957600180600084815260200190815260200160002060000160008373ffffffffffffffffffffffffffffffffffffffff1673ffffffffffffffffffffffffffffffffffffffff16815260200190815260200160002060006101000a81548160ff02191690831515021790555061262e61268d565b73ffffffffffffffffffffffffffffffffffffffff168173ffffffffffffffffffffffffffffffffffffffff16837f2f8788117e7eff1d82e926ec794901d17c78024a50270940304540a733656f0d60405160405180910390a45b5050565b600033905090565b61269f8282611e64565b156127735760006001600084815260200190815260200160002060000160008373ffffffffffffffffffffffffffffffffffffffff1673ffffffffffffffffffffffffffffffffffffffff16815260200190815260200160002060006101000a81548160ff02191690831515021790555061271861268d565b73ffffffffffffffffffffffffffffffffffffffff168173ffffffffffffffffffffffffffffffffffffffff16837ff6391f5c32d9c69d2a47ea670b442974b53935d1edc7fd64eb21e047a839171b60405160405180910390a45b5050565b61277f612ed2565b60008060006101000a81548160ff0219169083151502179055507f5db9ee0a495bf2e6ff9c91a7834c1ba4fdd244a5e8aa4e537bd38aeae4b073aa6127c261268d565b6040516127cf9190613d0b565b60405180910390a1565b600082828080601f016020809104026020016040519081016040528093929190818152602001838380828437600081840152601f19601f8201169050808301925050505050505090506000815114806128365750601f60ff168151115b1561286d576040517f947d5a8400000000000000000000000000000000000000000000000000000000815260040160405180910390fd5b60008151905060005b81811015612b9f577f30000000000000000000000000000000000000000000000000000000000000008382815181106128b2576128b1614932565b5b602001015160f81c60f81b7effffffffffffffffffffffffffffffffffffffffffffffffffffffffffffff1916108061294957507f7a0000000000000000000000000000000000000000000000000000000000000083828151811061291a57612919614932565b5b602001015160f81c60f81b7effffffffffffffffffffffffffffffffffffffffffffffffffffffffffffff1916115b80612a1c57507f390000000000000000000000000000000000000000000000000000000000000083828151811061298357612982614932565b5b602001015160f81c60f81b7effffffffffffffffffffffffffffffffffffffffffffffffffffffffffffff1916118015612a1b57507f61000000000000000000000000000000000000000000000000000000000000008382815181106129ec576129eb614932565b5b602001015160f81c60f81b7effffffffffffffffffffffffffffffffffffffffffffffffffffffffffffff1916105b5b8015612a8757507f2e00000000000000000000000000000000000000000000000000000000000000838281518110612a5757612a56614932565b5b602001015160f81c60f81b7effffffffffffffffffffffffffffffffffffffffffffffffffffffffffffff191614155b8015612af257507f2d00000000000000000000000000000000000000000000000000000000000000838281518110612ac257612ac1614932565b5b602001015160f81c60f81b7effffffffffffffffffffffffffffffffffffffffffffffffffffffffffffff191614155b8015612b5d57507f5f00000000000000000000000000000000000000000000000000000000000000838281518110612b2d57612b2c614932565b5b602001015160f81c60f81b7effffffffffffffffffffffffffffffffffffffffffffffffffffffffffffff191614155b15612b94576040517f9c5e550b00000000000000000000000000000000000000000000000000000000815260040160405180910390fd5b806001019050612876565b5050505050565b60008160008585604051612bbb9291906142b3565b604051809103902081526020019081526020016000205414612c09576040517f903f87db00000000000000000000000000000000000000000000000000000000815260040160405180910390fd5b505050565b612c166124cd565b60016000806101000a81548160ff0219169083151502179055507f62e78cea01bee320cd4e420270b5ea74000d11b0c9f74754ebdbfc544b05a258612c5961268d565b604051612c669190613d0b565b60405180910390a1565b600081600001549050919050565b60007f000000000000000000000000000000000000000000000000000000000000000073ffffffffffffffffffffffffffffffffffffffff163073ffffffffffffffffffffffffffffffffffffffff16148015612cfa57507f000000000000000000000000000000000000000000000000000000000000000046145b15612d27577f00000000000000000000000000000000000000000000000000000000000000009050612d95565b612d927f00000000000000000000000000000000000000000000000000000000000000007f00000000000000000000000000000000000000000000000000000000000000007f0000000000000000000000000000000000000000000000000000000000000000612f1b565b90505b90565b60007f01ffc9a7000000000000000000000000000000000000000000000000000000007bffffffffffffffffffffffffffffffffffffffffffffffffffffffff1916827bffffffffffffffffffffffffffffffffffffffffffffffffffffffff1916149050919050565b60008282604051602001612e179291906149d9565b60405160208183030381529060405280519060200120905092915050565b612e3f8282611e64565b612ece57612e648173ffffffffffffffffffffffffffffffffffffffff166014612f55565b612e728360001c6020612f55565b604051602001612e83929190614ad9565b6040516020818303038152906040526040517f08c379a0000000000000000000000000000000000000000000000000000000008152600401612ec59190613e4b565b60405180910390fd5b5050565b612eda6115d7565b612f19576040517f08c379a0000000000000000000000000000000000000000000000000000000008152600401612f1090614b5f565b60405180910390fd5b565b60008383834630604051602001612f36959493929190614b7f565b6040516020818303038152906040528051906020012090509392505050565b606060006002836002612f689190614bd2565b612f729190614c2c565b67ffffffffffffffff811115612f8b57612f8a6133cc565b5b6040519080825280601f01601f191660200182016040528015612fbd5781602001600182028036833780820191505090505b5090507f300000000000000000000000000000000000000000000000000000000000000081600081518110612ff557612ff4614932565b5b60200101907effffffffffffffffffffffffffffffffffffffffffffffffffffffffffffff1916908160001a9053507f78000000000000000000000000000000000000000000000000000000000000008160018151811061305957613058614932565b5b60200101907effffffffffffffffffffffffffffffffffffffffffffffffffffffffffffff1916908160001a905350600060018460026130999190614bd2565b6130a39190614c2c565b90505b6001811115613143577f3031323334353637383961626364656600000000000000000000000000000000600f8616601081106130e5576130e4614932565b5b1a60f81b8282815181106130fc576130fb614932565b5b60200101907effffffffffffffffffffffffffffffffffffffffffffffffffffffffffffff1916908160001a905350600485901c94508061313c90614c82565b90506130a6565b5060008414613187576040517f08c379a000000000000000000000000000000000000000000000000000000000815260040161317e90614cf8565b60405180910390fd5b8091505092915050565b604051806101000160405280600073ffffffffffffffffffffffffffffffffffffffff1681526020016000815260200160008152602001600073ffffffffffffffffffffffffffffffffffffffff168152602001600081526020016000815260200160008019168152602001600060048111156132115761321061385d565b5b81525090565b60405180606001604052806000815260200160608152602001600073ffffffffffffffffffffffffffffffffffffffff1681525090565b6000604051905090565b600080fd5b600080fd5b60007fffffffff0000000000000000000000000000000000000000000000000000000082169050919050565b61329781613262565b81146132a257600080fd5b50565b6000813590506132b48161328e565b92915050565b6000602082840312156132d0576132cf613258565b5b60006132de848285016132a5565b91505092915050565b60008115159050919050565b6132fc816132e7565b82525050565b600060208201905061331760008301846132f3565b92915050565b600073ffffffffffffffffffffffffffffffffffffffff82169050919050565b60006133488261331d565b9050919050565b6133588161333d565b811461336357600080fd5b50565b6000813590506133758161334f565b92915050565b6000819050919050565b61338e8161337b565b811461339957600080fd5b50565b6000813590506133ab81613385565b92915050565b600080fd5b600080fd5b6000601f19601f8301169050919050565b7f4e487b7100000000000000000000000000000000000000000000000000000000600052604160045260246000fd5b613404826133bb565b810181811067ffffffffffffffff82111715613423576134226133cc565b5b80604052505050565b600061343661324e565b905061344282826133fb565b919050565b600067ffffffffffffffff821115613462576134616133cc565b5b61346b826133bb565b9050602081019050919050565b82818337600083830152505050565b600061349a61349584613447565b61342c565b9050828152602081018484840111156134b6576134b56133b6565b5b6134c1848285613478565b509392505050565b600082601f8301126134de576134dd6133b1565b5b81356134ee848260208601613487565b91505092915050565b6000806000806080858703121561351157613510613258565b5b600061351f87828801613366565b945050602061353087828801613366565b93505060406135418782880161339c565b925050606085013567ffffffffffffffff8111156135625761356161325d565b5b61356e878288016134c9565b91505092959194509250565b61358381613262565b82525050565b600060208201905061359e600083018461357a565b92915050565b600080fd5b6000608082840312156135bf576135be6135a4565b5b81905092915050565b6000602082840312156135de576135dd613258565b5b600082013567ffffffffffffffff8111156135fc576135fb61325d565b5b613608848285016135a9565b91505092915050565b6000819050919050565b61362481613611565b811461362f57600080fd5b50565b6000813590506136418161361b565b92915050565b60006020828403121561365d5761365c613258565b5b600061366b84828501613632565b91505092915050565b61367d81613611565b82525050565b60006020820190506136986000830184613674565b92915050565b600080604083850312156136b5576136b4613258565b5b60006136c385828601613632565b92505060206136d485828601613366565b9150509250929050565b600060e082840312156136f4576136f36135a4565b5b81905092915050565b60006020828403121561371357613712613258565b5b600082013567ffffffffffffffff8111156137315761373061325d565b5b61373d848285016136de565b91505092915050565b61374f8161337b565b82525050565b600060208201905061376a6000830184613746565b92915050565b600080fd5b600080fd5b60008083601f8401126137905761378f6133b1565b5b8235905067ffffffffffffffff8111156137ad576137ac613770565b5b6020830191508360018202830111156137c9576137c8613775565b5b9250929050565b6000806000604084860312156137e9576137e8613258565b5b60006137f78682870161339c565b935050602084013567ffffffffffffffff8111156138185761381761325d565b5b6138248682870161377a565b92509250509250925092565b6138398161333d565b82525050565b6138488161337b565b82525050565b61385781613611565b82525050565b7f4e487b7100000000000000000000000000000000000000000000000000000000600052602160045260246000fd5b6005811061389d5761389c61385d565b5b50565b60008190506138ae8261388c565b919050565b60006138be826138a0565b9050919050565b6138ce816138b3565b82525050565b610100820160008201516138eb6000850182613830565b5060208201516138fe602085018261383f565b506040820151613911604085018261383f565b5060608201516139246060850182613830565b506080820151613937608085018261383f565b5060a082015161394a60a085018261383f565b5060c082015161395d60c085018261384e565b5060e082015161397060e08501826138c5565b50505050565b60006101008201905061398c60008301846138d4565b92915050565b6000608082840312156139a8576139a76135a4565b5b81905092915050565b6000602082840312156139c7576139c6613258565b5b600082013567ffffffffffffffff8111156139e5576139e461325d565b5b6139f184828501613992565b91505092915050565b60008060208385031215613a1157613a10613258565b5b600083013567ffffffffffffffff811115613a2f57613a2e61325d565b5b613a3b8582860161377a565b92509250509250929050565b600081519050919050565b600082825260208201905092915050565b60005b83811015613a81578082015181840152602081019050613a66565b83811115613a90576000848401525b50505050565b6000613aa182613a47565b613aab8185613a52565b9350613abb818560208601613a63565b613ac4816133bb565b840191505092915050565b6000606083016000830151613ae7600086018261383f565b5060208301518482036020860152613aff8282613a96565b9150506040830151613b146040860182613830565b508091505092915050565b60006020820190508181036000830152613b398184613acf565b905092915050565b600060a08284031215613b5757613b566135a4565b5b81905092915050565b600060208284031215613b7657613b75613258565b5b600082013567ffffffffffffffff811115613b9457613b9361325d565b5b613ba084828501613b41565b91505092915050565b60008083601f840112613bbf57613bbe6133b1565b5b8235905067ffffffffffffffff811115613bdc57613bdb613770565b5b602083019150836020820283011115613bf857613bf7613775565b5b9250929050565b600080600080600060608688031215613c1b57613c1a613258565b5b6000613c2988828901613366565b955050602086013567ffffffffffffffff811115613c4a57613c4961325d565b5b613c568882890161377a565b9450945050604086013567ffffffffffffffff811115613c7957613c7861325d565b5b613c8588828901613ba9565b92509250509295509295909350565b600060a08284031215613caa57613ca96135a4565b5b81905092915050565b600060208284031215613cc957613cc8613258565b5b600082013567ffffffffffffffff811115613ce757613ce661325d565b5b613cf384828501613c94565b91505092915050565b613d058161333d565b82525050565b6000602082019050613d206000830184613cfc565b92915050565b600060208284031215613d3c57613d3b613258565b5b6000613d4a84828501613366565b91505092915050565b600060208284031215613d6957613d68613258565b5b6000613d778482850161339c565b91505092915050565b60008060008060408587031215613d9a57613d99613258565b5b600085013567ffffffffffffffff811115613db857613db761325d565b5b613dc48782880161377a565b9450945050602085013567ffffffffffffffff811115613de757613de661325d565b5b613df387828801613ba9565b925092505092959194509250565b600082825260208201905092915050565b6000613e1d82613a47565b613e278185613e01565b9350613e37818560208601613a63565b613e40816133bb565b840191505092915050565b60006020820190508181036000830152613e658184613e12565b905092915050565b60008060408385031215613e8457613e83613258565b5b6000613e928582860161339c565b9250506020613ea38582860161339c565b9150509250929050565b600060a082019050613ec26000830188613674565b613ecf6020830187613746565b613edc6040830186613746565b613ee96060830185613746565b613ef66080830184613746565b9695505050505050565b600080fd5b600080fd5b600080fd5b60008083356001602003843603038112613f2c57613f2b613f00565b5b80840192508235915067ffffffffffffffff821115613f4e57613f4d613f05565b5b602083019250600182023603831315613f6a57613f69613f0a565b5b509250929050565b613f7b81613611565b82525050565b613f8a8161333d565b82525050565b600082825260208201905092915050565b6000613fad8385613f90565b9350613fba838584613478565b613fc3836133bb565b840190509392505050565b613fd78161337b565b82525050565b6000608082019050613ff26000830188613f72565b613fff6020830187613f81565b8181036040830152614012818587613fa1565b90506140216060830184613fce565b9695505050505050565b614034816132e7565b811461403f57600080fd5b50565b6000815190506140518161402b565b92915050565b60006020828403121561406d5761406c613258565b5b600061407b84828501614042565b91505092915050565b61408d816132e7565b82525050565b8082525050565b60006080820190506140af6000830187613fce565b6140bc6020830186613fce565b6140c96040830185614084565b6140d66060830184614093565b95945050505050565b7f4e487b7100000000000000000000000000000000000000000000000000000000600052601160045260246000fd5b60006141198261337b565b91507fffffffffffffffffffffffffffffffffffffffffffffffffffffffffffffffff82141561414c5761414b6140df565b5b600182019050919050565b600060608201905061416c6000830186613fce565b6141796020830185613fce565b6141866040830184614093565b949350505050565b7f416363657373436f6e74726f6c3a2063616e206f6e6c792072656e6f756e636560008201527f20726f6c657320666f722073656c660000000000000000000000000000000000602082015250565b60006141ea602f83613e01565b91506141f58261418e565b604082019050919050565b60006020820190508181036000830152614219816141dd565b9050919050565b6000808335600160200384360303811261423d5761423c613f00565b5b80840192508235915067ffffffffffffffff82111561425f5761425e613f05565b5b60208301925060018202360383131561427b5761427a613f0a565b5b509250929050565b600081905092915050565b600061429a8385614283565b93506142a7838584613478565b82840190509392505050565b60006142c082848661428e565b91508190509392505050565b6000610100820190506142e2600083018b613674565b6142ef602083018a613746565b6142fc6040830189613674565b6143096060830188613674565b6143166080830187613746565b61432360a0830186613cfc565b61433060c0830185613746565b61433d60e0830184613746565b9998505050505050505050565b60006143568385613e01565b9350614363838584613478565b61436c836133bb565b840190509392505050565b600060408201905061438c6000830186613cfc565b818103602083015261439f81848661434a565b9050949350505050565b6000815190506143b881613385565b92915050565b6000602082840312156143d4576143d3613258565b5b60006143e2848285016143a9565b91505092915050565b600082825260208201905092915050565b600061440883856143eb565b9350614415838584613478565b61441e836133bb565b840190509392505050565b8082525050565b8082525050565b60006101008201905061444d600083018c613fce565b61445a602083018b613fce565b818103604083015261446d81898b6143fc565b905061447c6060830188613fce565b6144896080830187613f81565b61449660a0830186614093565b6144a360c0830185614429565b6144b060e0830184614430565b9a9950505050505050505050565b600060a0820190506144d36000830188613674565b6144e06020830187613746565b6144ed6040830186613674565b6144fa6060830185613746565b6145076080830184613746565b9695505050505050565b60006040820190506145266000830185613f72565b6145336020830184614429565b9392505050565b600060808201905061454f6000830188613fce565b61455c6020830187613fce565b818103604083015261456f8185876143fc565b905061457e6060830184614093565b9695505050505050565b600060608201905061459d6000830186613cfc565b6145aa6020830185613cfc565b6145b76040830184613746565b949350505050565b7f4e487b7100000000000000000000000000000000000000000000000000000000600052602260045260246000fd5b6000600282049050600182168061460657607f821691505b6020821081141561461a576146196145bf565b5b50919050565b600060c0820190506146356000830189613674565b6146426020830188613746565b61464f6040830187613746565b61465c6060830186613674565b6146696080830185613746565b61467660a0830184613746565b979650505050505050565b6000604082019050818103600083015261469c8185876143fc565b90506146ab6020830184614429565b949350505050565b600060a0820190506146c86000830189613fce565b6146d56020830188613fce565b81810360408301526146e88186886143fc565b90506146f76060830185614093565b6147046080830184614429565b979650505050505050565b8082525050565b600082825260208201905092915050565b600080fd5b60006147388385614716565b93507f07ffffffffffffffffffffffffffffffffffffffffffffffffffffffffffffff83111561476b5761476a614727565b5b60208302925061477c838584613478565b82840190509392505050565b600060c08201905061479d600083018b61470f565b6147aa602083018a613f81565b81810360408301526147bd81888a61472c565b905081810360608301526147d28186886143fc565b90506147e16080830185613f72565b6147ee60a0830184614429565b9998505050505050505050565b600060c0820190506148106000830189613674565b61481d6020830188613746565b61482a6040830187613674565b6148376060830186613674565b6148446080830185613746565b61485160a0830184613746565b979650505050505050565b600060c082019050614871600083018a61470f565b61487e6020830189613f81565b81810360408301526148918187896143fc565b90506148a06060830186613fce565b6148ad6080830185614429565b6148ba60a0830184614430565b98975050505050505050565b7f5061757361626c653a2070617573656400000000000000000000000000000000600082015250565b60006148fc601083613e01565b9150614907826148c6565b602082019050919050565b6000602082019050818103600083015261492b816148ef565b9050919050565b7f4e487b7100000000000000000000000000000000000000000000000000000000600052603260045260246000fd5b600081905092915050565b7f1901000000000000000000000000000000000000000000000000000000000000600082015250565b60006149a2600283614961565b91506149ad8261496c565b600282019050919050565b6000819050919050565b6149d36149ce82613611565b6149b8565b82525050565b60006149e482614995565b91506149f082856149c2565b602082019150614a0082846149c2565b6020820191508190509392505050565b7f416363657373436f6e74726f6c3a206163636f756e7420000000000000000000600082015250565b6000614a46601783614961565b9150614a5182614a10565b601782019050919050565b6000614a6782613a47565b614a718185614961565b9350614a81818560208601613a63565b80840191505092915050565b7f206973206d697373696e6720726f6c6520000000000000000000000000000000600082015250565b6000614ac3601183614961565b9150614ace82614a8d565b601182019050919050565b6000614ae482614a39565b9150614af08285614a5c565b9150614afb82614ab6565b9150614b078284614a5c565b91508190509392505050565b7f5061757361626c653a206e6f7420706175736564000000000000000000000000600082015250565b6000614b49601483613e01565b9150614b5482614b13565b602082019050919050565b60006020820190508181036000830152614b7881614b3c565b9050919050565b600060a082019050614b946000830188613674565b614ba16020830187613674565b614bae6040830186613674565b614bbb6060830185613746565b614bc86080830184613cfc565b9695505050505050565b6000614bdd8261337b565b9150614be88361337b565b9250817fffffffffffffffffffffffffffffffffffffffffffffffffffffffffffffffff0483118215151615614c2157614c206140df565b5b828202905092915050565b6000614c378261337b565b9150614c428361337b565b9250827fffffffffffffffffffffffffffffffffffffffffffffffffffffffffffffffff03821115614c7757614c766140df565b5b828201905092915050565b6000614c8d8261337b565b91506000821415614ca157614ca06140df565b5b600182039050919050565b7f537472696e67733a20686578206c656e67746820696e73756666696369656e74600082015250565b6000614ce2602083613e01565b9150614ced82614cac565b602082019050919050565b60006020820190508181036000830152614d1181614cd5565b905091905056fea2646970667358221220896bb4ab8d3f3727ef478b783bca13eac60c825cab665beed2e24e6ae3512efe64736f6c63430008090033",
  "deployedBytecode": "0x608060405234801561001057600080fd5b50600436106101e55760003560e01c80638ed8d3ea1161010f578063e63ab1e9116100a2578063f2d1dde311610071578063f2d1dde3146105b4578063f990ccd7146105e4578063f9ea0daa14610614578063fae6ba4b14610644576101e5565b8063e63ab1e91461052c578063eaae07361461054a578063ec81d19414610566578063ed24911d14610596576101e5565b8063c884ef83116100de578063c884ef8314610480578063d547741f146104b0578063d99b0522146104cc578063dc8f5696146104fc576101e5565b80638ed8d3ea146103f857806391d1485414610414578063a217fddf14610444578063b51de50e14610462576101e5565b806342019425116101875780635c975abb116101565780635c975abb146103845780638456cb59146103a257806386e0c118146103ac5780638e24ad37146103c8576101e5565b806342019425146102d857806347119c5f146103085780634e445466146103385780635b79912414610354576101e5565b8063248a9ca3116101c3578063248a9ca3146102665780632f2ff15d1461029657806336568abe146102b25780633f4ba83a146102ce576101e5565b806301ffc9a7146101ea578063150b7a021461021a578063247b55d21461024a575b600080fd5b61020460048036038101906101ff91906132ba565b610674565b6040516102119190613302565b60405180910390f35b610234600480360381019061022f91906134f7565b610686565b6040516102419190613589565b60405180910390f35b610264600480360381019061025f91906135c8565b61069a565b005b610280600480360381019061027b9190613647565b610a00565b60405161028d9190613683565b60405180910390f35b6102b060048036038101906102ab919061369e565b610a20565b005b6102cc60048036038101906102c7919061369e565b610a41565b005b6102d6610ac4565b005b6102f260048036038101906102ed91906136fd565b610af9565b6040516102ff9190613755565b60405180910390f35b610322600480360381019061031d91906137d0565b610ee4565b60405161032f9190613976565b60405180910390f35b610352600480360381019061034d91906139b1565b611068565b005b61036e600480360381019061036991906139fa565b61148d565b60405161037b9190613b1f565b60405180910390f35b61038c6115d7565b6040516103999190613302565b60405180910390f35b6103aa6115ed565b005b6103c660048036038101906103c19190613b60565b611622565b005b6103e260048036038101906103dd9190613bff565b6119af565b6040516103ef9190613302565b60405180910390f35b610412600480360381019061040d9190613cb3565b611a55565b005b61042e6004803603810190610429919061369e565b611e64565b60405161043b9190613302565b60405180910390f35b61044c611ecf565b6040516104599190613683565b60405180910390f35b61046a611ed6565b6040516104779190613d0b565b60405180910390f35b61049a60048036038101906104959190613d26565b611efa565b6040516104a79190613302565b60405180910390f35b6104ca60048036038101906104c5919061369e565b611f1a565b005b6104e660048036038101906104e19190613d53565b611f3b565b6040516104f39190613755565b60405180910390f35b61051660048036038101906105119190613d80565b611f5b565b6040516105239190613755565b60405180910390f35b610534612078565b6040516105419190613683565b60405180910390f35b610564600480360381019061055f9190613647565b61209c565b005b610580600480360381019061057b9190613d53565b6120bc565b60405161058d9190613e4b565b60405180910390f35b61059e612164565b6040516105ab9190613683565b60405180910390f35b6105ce60048036038101906105c99190613d53565b612173565b6040516105db9190613b1f565b60405180910390f35b6105fe60048036038101906105f99190613d26565b612292565b60405161060b9190613755565b60405180910390f35b61062e60048036038101906106299190613e6d565b6122aa565b60405161063b9190613976565b60405180910390f35b61065e600480360381019061065991906139fa565b612403565b60405161066b9190613755565b60405180910390f35b600061067f82612453565b9050919050565b600063150b7a0260e01b9050949350505050565b6106a26124cd565b6000600660008360000135815260200190815260200160002060020160009054906101000a900473ffffffffffffffffffffffffffffffffffffffff1690506106ea81612517565b73__$24390118481576942fae61c8ff2285eea7$__63a3cdda136107a67f76193c8d609e139a018adf57bae0c3c4c7a2d0eb05701223b06bd8c01adc48c885600001358660200135600860008873ffffffffffffffffffffffffffffffffffffffff1673ffffffffffffffffffffffffffffffffffffffff16815260200190815260200160002054886060013560405160200161078b959493929190613ead565b6040516020818303038152906040528051906020012061257f565b838580604001906107b79190613f0f565b87606001356040518663ffffffff1660e01b81526004016107dc959493929190613fdd565b60206040518083038186803b1580156107f457600080fd5b505af4158015610808573d6000803e3d6000fd5b505050506040513d601f19601f8201168201806040525081019061082c9190614057565b5073__$24390118481576942fae61c8ff2285eea7$__63ae4bd6d083600001358460200135600060076040518563ffffffff1660e01b8152600401610874949392919061409a565b60006040518083038186803b15801561088c57600080fd5b505af41580156108a0573d6000803e3d6000fd5b50505050600860008273ffffffffffffffffffffffffffffffffffffffff1673ffffffffffffffffffffffffffffffffffffffff16815260200190815260200160002060008154809291906108f49061410e565b91905055507f000000000000000000000000000000000000000000000000000000000000000073ffffffffffffffffffffffffffffffffffffffff166342966c6883602001356040518263ffffffff1660e01b81526004016109569190613755565b600060405180830381600087803b15801561097057600080fd5b505af1158015610984573d6000803e3d6000fd5b5050505073__$24390118481576942fae61c8ff2285eea7$__639a94b38c8360000135846020013560076040518463ffffffff1660e01b81526004016109cc93929190614157565b60006040518083038186803b1580156109e457600080fd5b505af41580156109f8573d6000803e3d6000fd5b505050505050565b600060016000838152602001908152602001600020600101549050919050565b610a2982610a00565b610a3281612599565b610a3c83836125ad565b505050565b610a4961268d565b73ffffffffffffffffffffffffffffffffffffffff168173ffffffffffffffffffffffffffffffffffffffff1614610ab6576040517f08c379a0000000000000000000000000000000000000000000000000000000008152600401610aad90614200565b60405180910390fd5b610ac08282612695565b5050565b7f65d7a28e3265b37a6474929f336521b332c1681b933f6cb9f3376673440d862a610aee81612599565b610af6612777565b50565b6000610b036124cd565b6000600660008460000135815260200190815260200160002060020160009054906101000a900473ffffffffffffffffffffffffffffffffffffffff169050610b4b81612517565b73__$24390118481576942fae61c8ff2285eea7$__63a3cdda13610c697f750386dd03062323a6191551ee466c0f87614c1ff8c0adbc17e291f7952c1d1b8660000135878060200190610b9e9190614220565b604051610bac9291906142b3565b6040518091039020888060400190610bc49190614220565b604051610bd29291906142b3565b604051809103902089606001358a6080016020810190610bf29190613d26565b600860008b73ffffffffffffffffffffffffffffffffffffffff1673ffffffffffffffffffffffffffffffffffffffff168152602001908152602001600020548c60c00135604051602001610c4e9897969594939291906142cc565b6040516020818303038152906040528051906020012061257f565b83868060a00190610c7a9190613f0f565b8860c001356040518663ffffffff1660e01b8152600401610c9f959493929190613fdd565b60206040518083038186803b158015610cb757600080fd5b505af4158015610ccb573d6000803e3d6000fd5b505050506040513d601f19601f82011682018060405250810190610cef9190614057565b50610d08838060200190610d039190614220565b6127d9565b610d22838060200190610d1b9190614220565b6004612ba6565b600860008273ffffffffffffffffffffffffffffffffffffffff1673ffffffffffffffffffffffffffffffffffffffff1681526020019081526020016000206000815480929190610d729061410e565b919050555060007f000000000000000000000000000000000000000000000000000000000000000073ffffffffffffffffffffffffffffffffffffffff1663d204c45e30868060400190610dc69190614220565b6040518463ffffffff1660e01b8152600401610de493929190614377565b602060405180830381600087803b158015610dfe57600080fd5b505af1158015610e12573d6000803e3d6000fd5b505050506040513d601f19601f82011682018060405250810190610e3691906143be565b905073__$24390118481576942fae61c8ff2285eea7$__630dcefa43856000013583878060200190610e689190614220565b89606001358a6080016020810190610e809190613d26565b6007600460066040518a63ffffffff1660e01b8152600401610eaa99989796959493929190614437565b60006040518083038186803b158015610ec257600080fd5b505af4158015610ed6573d6000803e3d6000fd5b505050508092505050919050565b610eec613191565b600760008581526020019081526020016000206000600460008686604051610f159291906142b3565b60405180910390208152602001908152602001600020548152602001908152602001600020604051806101000160405290816000820160009054906101000a900473ffffffffffffffffffffffffffffffffffffffff1673ffffffffffffffffffffffffffffffffffffffff1673ffffffffffffffffffffffffffffffffffffffff16815260200160018201548152602001600282015481526020016003820160009054906101000a900473ffffffffffffffffffffffffffffffffffffffff1673ffffffffffffffffffffffffffffffffffffffff1673ffffffffffffffffffffffffffffffffffffffff1681526020016004820154815260200160058201548152602001600682015481526020016007820160009054906101000a900460ff1660048111156110495761104861385d565b5b600481111561105b5761105a61385d565b5b8152505090509392505050565b6110706124cd565b60008180602001906110829190614220565b6040516110909291906142b3565b6040518091039020905073__$24390118481576942fae61c8ff2285eea7$__63a3cdda136111527fa40842dfb38adb5c9b877f026d498df2a82043c9a0f6e3f83bb60ac349e14b49856000013585600860003373ffffffffffffffffffffffffffffffffffffffff1673ffffffffffffffffffffffffffffffffffffffff1681526020019081526020016000205488606001356040516020016111379594939291906144be565b6040516020818303038152906040528051906020012061257f565b338580604001906111639190613f0f565b87606001356040518663ffffffff1660e01b8152600401611188959493929190613fdd565b60206040518083038186803b1580156111a057600080fd5b505af41580156111b4573d6000803e3d6000fd5b505050506040513d601f19601f820116820180604052508101906111d89190614057565b50600073__$24390118481576942fae61c8ff2285eea7$__63818a024c8360056040518363ffffffff1660e01b8152600401611215929190614511565b60206040518083038186803b15801561122d57600080fd5b505af4158015611241573d6000803e3d6000fd5b505050506040513d601f19601f8201168201806040525081019061126591906143be565b905073__$24390118481576942fae61c8ff2285eea7$__638ed5729b8460000135838680602001906112979190614220565b60076040518663ffffffff1660e01b81526004016112b995949392919061453a565b60006040518083038186803b1580156112d157600080fd5b505af41580156112e5573d6000803e3d6000fd5b50505050600860003373ffffffffffffffffffffffffffffffffffffffff1673ffffffffffffffffffffffffffffffffffffffff16815260200190815260200160002060008154809291906113399061410e565b91905055507f000000000000000000000000000000000000000000000000000000000000000073ffffffffffffffffffffffffffffffffffffffff166342842e0e306007600087600001358152602001908152602001600020600085815260200190815260200160002060000160009054906101000a900473ffffffffffffffffffffffffffffffffffffffff16846040518463ffffffff1660e01b81526004016113e693929190614588565b600060405180830381600087803b15801561140057600080fd5b505af1158015611414573d6000803e3d6000fd5b5050505073__$24390118481576942fae61c8ff2285eea7$__63b408ba4b84600001358360076040518463ffffffff1660e01b815260040161145893929190614157565b60006040518083038186803b15801561147057600080fd5b505af4158015611484573d6000803e3d6000fd5b50505050505050565b611495613217565b600660006003600086866040516114ad9291906142b3565b60405180910390208152602001908152602001600020548152602001908152602001600020604051806060016040529081600082015481526020016001820180546114f7906145ee565b80601f0160208091040260200160405190810160405280929190818152602001828054611523906145ee565b80156115705780601f1061154557610100808354040283529160200191611570565b820191906000526020600020905b81548152906001019060200180831161155357829003601f168201915b505050505081526020016002820160009054906101000a900473ffffffffffffffffffffffffffffffffffffffff1673ffffffffffffffffffffffffffffffffffffffff1673ffffffffffffffffffffffffffffffffffffffff1681525050905092915050565b60008060009054906101000a900460ff16905090565b7f65d7a28e3265b37a6474929f336521b332c1681b933f6cb9f3376673440d862a61161781612599565b61161f612c0e565b50565b61162a6124cd565b6000600660008360000135815260200190815260200160002060020160009054906101000a900473ffffffffffffffffffffffffffffffffffffffff16905061167281612517565b73__$24390118481576942fae61c8ff2285eea7$__63a3cdda136117557fd4f619864f63edbc545c29cb83475e9806d540c2177352618fabef4fcac34e14856000013586602001358780604001906116ca9190614220565b6040516116d89291906142b3565b6040518091039020600860008973ffffffffffffffffffffffffffffffffffffffff1673ffffffffffffffffffffffffffffffffffffffff16815260200190815260200160002054896080013560405160200161173a96959493929190614620565b6040516020818303038152906040528051906020012061257f565b838580606001906117669190613f0f565b87608001356040518663ffffffff1660e01b815260040161178b959493929190613fdd565b60206040518083038186803b1580156117a357600080fd5b505af41580156117b7573d6000803e3d6000fd5b505050506040513d601f19601f820116820180604052508101906117db9190614057565b5073__$24390118481576942fae61c8ff2285eea7$__63ae4bd6d083600001358460200135600160076040518563ffffffff1660e01b8152600401611823949392919061409a565b60006040518083038186803b15801561183b57600080fd5b505af415801561184f573d6000803e3d6000fd5b5050505073__$24390118481576942fae61c8ff2285eea7$__63f97791e083806040019061187d9190614220565b60056040518463ffffffff1660e01b815260040161189d93929190614681565b60006040518083038186803b1580156118b557600080fd5b505af41580156118c9573d6000803e3d6000fd5b50505050600860008273ffffffffffffffffffffffffffffffffffffffff1673ffffffffffffffffffffffffffffffffffffffff168152602001908152602001600020600081548092919061191d9061410e565b919050555073__$24390118481576942fae61c8ff2285eea7$__6319d9880d836000013584602001358580604001906119569190614220565b600760056040518763ffffffff1660e01b815260040161197b969594939291906146b3565b60006040518083038186803b15801561199357600080fd5b505af41580156119a7573d6000803e3d6000fd5b505050505050565b600073__$24390118481576942fae61c8ff2285eea7$__6336c4f02e60028886868a8a60095460036040518963ffffffff1660e01b81526004016119fa989796959493929190614788565b60206040518083038186803b158015611a1257600080fd5b505af4158015611a26573d6000803e3d6000fd5b505050506040513d601f19601f82011682018060405250810190611a4a9190614057565b905095945050505050565b611a5d6124cd565b6000818060200190611a6f9190614220565b604051611a7d9291906142b3565b6040518091039020905073__$24390118481576942fae61c8ff2285eea7$__63a3cdda13611b667f795775751370b64240b5d27ebeb7146102ab684377e1d5a66670fc725d16c785856000013585878060400190611adb9190614220565b604051611ae99291906142b3565b6040518091039020600860003373ffffffffffffffffffffffffffffffffffffffff1673ffffffffffffffffffffffffffffffffffffffff168152602001908152602001600020548960800135604051602001611b4b969594939291906147fb565b6040516020818303038152906040528051906020012061257f565b33858060600190611b779190613f0f565b87608001356040518663ffffffff1660e01b8152600401611b9c959493929190613fdd565b60206040518083038186803b158015611bb457600080fd5b505af4158015611bc8573d6000803e3d6000fd5b505050506040513d601f19601f82011682018060405250810190611bec9190614057565b50600073__$24390118481576942fae61c8ff2285eea7$__63818a024c8360056040518363ffffffff1660e01b8152600401611c29929190614511565b60206040518083038186803b158015611c4157600080fd5b505af4158015611c55573d6000803e3d6000fd5b505050506040513d601f19601f82011682018060405250810190611c7991906143be565b905073__$24390118481576942fae61c8ff2285eea7$__638ed5729b846000013583868060200190611cab9190614220565b60076040518663ffffffff1660e01b8152600401611ccd95949392919061453a565b60006040518083038186803b158015611ce557600080fd5b505af4158015611cf9573d6000803e3d6000fd5b50505050600860003373ffffffffffffffffffffffffffffffffffffffff1673ffffffffffffffffffffffffffffffffffffffff1681526020019081526020016000206000815480929190611d4d9061410e565b91905055507f000000000000000000000000000000000000000000000000000000000000000073ffffffffffffffffffffffffffffffffffffffff166342966c68826040518263ffffffff1660e01b8152600401611dab9190613755565b600060405180830381600087803b158015611dc557600080fd5b505af1158015611dd9573d6000803e3d6000fd5b5050505073__$24390118481576942fae61c8ff2285eea7$__6368745903846000013583868060400190611e0d9190614220565b60076040518663ffffffff1660e01b8152600401611e2f95949392919061453a565b60006040518083038186803b158015611e4757600080fd5b505af4158015611e5b573d6000803e3d6000fd5b50505050505050565b60006001600084815260200190815260200160002060000160008373ffffffffffffffffffffffffffffffffffffffff1673ffffffffffffffffffffffffffffffffffffffff16815260200190815260200160002060009054906101000a900460ff16905092915050565b6000801b81565b7f000000000000000000000000000000000000000000000000000000000000000081565b60026020528060005260406000206000915054906101000a900460ff1681565b611f2382610a00565b611f2c81612599565b611f368383612695565b505050565b600060066000838152602001908152602001600020600001549050919050565b6000611f656124cd565b73__$24390118481576942fae61c8ff2285eea7$__63abd9aa9560023386868a8a60095460036040518963ffffffff1660e01b8152600401611fae989796959493929190614788565b60006040518083038186803b158015611fc657600080fd5b505af4158015611fda573d6000803e3d6000fd5b505050506000611fea600a612c70565b9050611ff6600a61243d565b73__$24390118481576942fae61c8ff2285eea7$__63ef0c7fbe600233898986600360066040518863ffffffff1660e01b815260040161203c979695949392919061485c565b60006040518083038186803b15801561205457600080fd5b505af4158015612068573d6000803e3d6000fd5b5050505080915050949350505050565b7f65d7a28e3265b37a6474929f336521b332c1681b933f6cb9f3376673440d862a81565b6120a46124cd565b6000801b6120b181612599565b816009819055505050565b60606006600083815260200190815260200160002060010180546120df906145ee565b80601f016020809104026020016040519081016040528092919081815260200182805461210b906145ee565b80156121585780601f1061212d57610100808354040283529160200191612158565b820191906000526020600020905b81548152906001019060200180831161213b57829003601f168201915b50505050509050919050565b600061216e612c7e565b905090565b61217b613217565b60066000838152602001908152602001600020604051806060016040529081600082015481526020016001820180546121b3906145ee565b80601f01602080910402602001604051908101604052809291908181526020018280546121df906145ee565b801561222c5780601f106122015761010080835404028352916020019161222c565b820191906000526020600020905b81548152906001019060200180831161220f57829003601f168201915b505050505081526020016002820160009054906101000a900473ffffffffffffffffffffffffffffffffffffffff1673ffffffffffffffffffffffffffffffffffffffff1673ffffffffffffffffffffffffffffffffffffffff16815250509050919050565b60086020528060005260406000206000915090505481565b6122b2613191565b600760008481526020019081526020016000206000838152602001908152602001600020604051806101000160405290816000820160009054906101000a900473ffffffffffffffffffffffffffffffffffffffff1673ffffffffffffffffffffffffffffffffffffffff1673ffffffffffffffffffffffffffffffffffffffff16815260200160018201548152602001600282015481526020016003820160009054906101000a900473ffffffffffffffffffffffffffffffffffffffff1673ffffffffffffffffffffffffffffffffffffffff1673ffffffffffffffffffffffffffffffffffffffff1681526020016004820154815260200160058201548152602001600682015481526020016007820160009054906101000a900460ff1660048111156123e5576123e461385d565b5b60048111156123f7576123f661385d565b5b81525050905092915050565b60008083836040516124169291906142b3565b60405180910390209050600360008281526020019081526020016000205491505092915050565b6001816000016000828254019250508190555050565b60007f7965db0b000000000000000000000000000000000000000000000000000000007bffffffffffffffffffffffffffffffffffffffffffffffffffffffff1916827bffffffffffffffffffffffffffffffffffffffffffffffffffffffff191614806124c657506124c582612d98565b5b9050919050565b6124d56115d7565b15612515576040517f08c379a000000000000000000000000000000000000000000000000000000000815260040161250c90614912565b60405180910390fd5b565b3373ffffffffffffffffffffffffffffffffffffffff168173ffffffffffffffffffffffffffffffffffffffff161461257c576040517f30cd747100000000000000000000000000000000000000000000000000000000815260040160405180910390fd5b50565b600061259261258c612c7e565b83612e02565b9050919050565b6125aa816125a561268d565b612e35565b50565b6125b78282611e64565b61268957600180600084815260200190815260200160002060000160008373ffffffffffffffffffffffffffffffffffffffff1673ffffffffffffffffffffffffffffffffffffffff16815260200190815260200160002060006101000a81548160ff02191690831515021790555061262e61268d565b73ffffffffffffffffffffffffffffffffffffffff168173ffffffffffffffffffffffffffffffffffffffff16837f2f8788117e7eff1d82e926ec794901d17c78024a50270940304540a733656f0d60405160405180910390a45b5050565b600033905090565b61269f8282611e64565b156127735760006001600084815260200190815260200160002060000160008373ffffffffffffffffffffffffffffffffffffffff1673ffffffffffffffffffffffffffffffffffffffff16815260200190815260200160002060006101000a81548160ff02191690831515021790555061271861268d565b73ffffffffffffffffffffffffffffffffffffffff168173ffffffffffffffffffffffffffffffffffffffff16837ff6391f5c32d9c69d2a47ea670b442974b53935d1edc7fd64eb21e047a839171b60405160405180910390a45b5050565b61277f612ed2565b60008060006101000a81548160ff0219169083151502179055507f5db9ee0a495bf2e6ff9c91a7834c1ba4fdd244a5e8aa4e537bd38aeae4b073aa6127c261268d565b6040516127cf9190613d0b565b60405180910390a1565b600082828080601f016020809104026020016040519081016040528093929190818152602001838380828437600081840152601f19601f8201169050808301925050505050505090506000815114806128365750601f60ff168151115b1561286d576040517f947d5a8400000000000000000000000000000000000000000000000000000000815260040160405180910390fd5b60008151905060005b81811015612b9f577f30000000000000000000000000000000000000000000000000000000000000008382815181106128b2576128b1614932565b5b602001015160f81c60f81b7effffffffffffffffffffffffffffffffffffffffffffffffffffffffffffff1916108061294957507f7a0000000000000000000000000000000000000000000000000000000000000083828151811061291a57612919614932565b5b602001015160f81c60f81b7effffffffffffffffffffffffffffffffffffffffffffffffffffffffffffff1916115b80612a1c57507f390000000000000000000000000000000000000000000000000000000000000083828151811061298357612982614932565b5b602001015160f81c60f81b7effffffffffffffffffffffffffffffffffffffffffffffffffffffffffffff1916118015612a1b57507f61000000000000000000000000000000000000000000000000000000000000008382815181106129ec576129eb614932565b5b602001015160f81c60f81b7effffffffffffffffffffffffffffffffffffffffffffffffffffffffffffff1916105b5b8015612a8757507f2e00000000000000000000000000000000000000000000000000000000000000838281518110612a5757612a56614932565b5b602001015160f81c60f81b7effffffffffffffffffffffffffffffffffffffffffffffffffffffffffffff191614155b8015612af257507f2d00000000000000000000000000000000000000000000000000000000000000838281518110612ac257612ac1614932565b5b602001015160f81c60f81b7effffffffffffffffffffffffffffffffffffffffffffffffffffffffffffff191614155b8015612b5d57507f5f00000000000000000000000000000000000000000000000000000000000000838281518110612b2d57612b2c614932565b5b602001015160f81c60f81b7effffffffffffffffffffffffffffffffffffffffffffffffffffffffffffff191614155b15612b94576040517f9c5e550b00000000000000000000000000000000000000000000000000000000815260040160405180910390fd5b806001019050612876565b5050505050565b60008160008585604051612bbb9291906142b3565b604051809103902081526020019081526020016000205414612c09576040517f903f87db00000000000000000000000000000000000000000000000000000000815260040160405180910390fd5b505050565b612c166124cd565b60016000806101000a81548160ff0219169083151502179055507f62e78cea01bee320cd4e420270b5ea74000d11b0c9f74754ebdbfc544b05a258612c5961268d565b604051612c669190613d0b565b60405180910390a1565b600081600001549050919050565b60007f000000000000000000000000000000000000000000000000000000000000000073ffffffffffffffffffffffffffffffffffffffff163073ffffffffffffffffffffffffffffffffffffffff16148015612cfa57507f000000000000000000000000000000000000000000000000000000000000000046145b15612d27577f00000000000000000000000000000000000000000000000000000000000000009050612d95565b612d927f00000000000000000000000000000000000000000000000000000000000000007f00000000000000000000000000000000000000000000000000000000000000007f0000000000000000000000000000000000000000000000000000000000000000612f1b565b90505b90565b60007f01ffc9a7000000000000000000000000000000000000000000000000000000007bffffffffffffffffffffffffffffffffffffffffffffffffffffffff1916827bffffffffffffffffffffffffffffffffffffffffffffffffffffffff1916149050919050565b60008282604051602001612e179291906149d9565b60405160208183030381529060405280519060200120905092915050565b612e3f8282611e64565b612ece57612e648173ffffffffffffffffffffffffffffffffffffffff166014612f55565b612e728360001c6020612f55565b604051602001612e83929190614ad9565b6040516020818303038152906040526040517f08c379a0000000000000000000000000000000000000000000000000000000008152600401612ec59190613e4b565b60405180910390fd5b5050565b612eda6115d7565b612f19576040517f08c379a0000000000000000000000000000000000000000000000000000000008152600401612f1090614b5f565b60405180910390fd5b565b60008383834630604051602001612f36959493929190614b7f565b6040516020818303038152906040528051906020012090509392505050565b606060006002836002612f689190614bd2565b612f729190614c2c565b67ffffffffffffffff811115612f8b57612f8a6133cc565b5b6040519080825280601f01601f191660200182016040528015612fbd5781602001600182028036833780820191505090505b5090507f300000000000000000000000000000000000000000000000000000000000000081600081518110612ff557612ff4614932565b5b60200101907effffffffffffffffffffffffffffffffffffffffffffffffffffffffffffff1916908160001a9053507f78000000000000000000000000000000000000000000000000000000000000008160018151811061305957613058614932565b5b60200101907effffffffffffffffffffffffffffffffffffffffffffffffffffffffffffff1916908160001a905350600060018460026130999190614bd2565b6130a39190614c2c565b90505b6001811115613143577f3031323334353637383961626364656600000000000000000000000000000000600f8616601081106130e5576130e4614932565b5b1a60f81b8282815181106130fc576130fb614932565b5b60200101907effffffffffffffffffffffffffffffffffffffffffffffffffffffffffffff1916908160001a905350600485901c94508061313c90614c82565b90506130a6565b5060008414613187576040517f08c379a000000000000000000000000000000000000000000000000000000000815260040161317e90614cf8565b60405180910390fd5b8091505092915050565b604051806101000160405280600073ffffffffffffffffffffffffffffffffffffffff1681526020016000815260200160008152602001600073ffffffffffffffffffffffffffffffffffffffff168152602001600081526020016000815260200160008019168152602001600060048111156132115761321061385d565b5b81525090565b60405180606001604052806000815260200160608152602001600073ffffffffffffffffffffffffffffffffffffffff1681525090565b6000604051905090565b600080fd5b600080fd5b60007fffffffff0000000000000000000000000000000000000000000000000000000082169050919050565b61329781613262565b81146132a257600080fd5b50565b6000813590506132b48161328e565b92915050565b6000602082840312156132d0576132cf613258565b5b60006132de848285016132a5565b91505092915050565b60008115159050919050565b6132fc816132e7565b82525050565b600060208201905061331760008301846132f3565b92915050565b600073ffffffffffffffffffffffffffffffffffffffff82169050919050565b60006133488261331d565b9050919050565b6133588161333d565b811461336357600080fd5b50565b6000813590506133758161334f565b92915050565b6000819050919050565b61338e8161337b565b811461339957600080fd5b50565b6000813590506133ab81613385565b92915050565b600080fd5b600080fd5b6000601f19601f8301169050919050565b7f4e487b7100000000000000000000000000000000000000000000000000000000600052604160045260246000fd5b613404826133bb565b810181811067ffffffffffffffff82111715613423576134226133cc565b5b80604052505050565b600061343661324e565b905061344282826133fb565b919050565b600067ffffffffffffffff821115613462576134616133cc565b5b61346b826133bb565b9050602081019050919050565b82818337600083830152505050565b600061349a61349584613447565b61342c565b9050828152602081018484840111156134b6576134b56133b6565b5b6134c1848285613478565b509392505050565b600082601f8301126134de576134dd6133b1565b5b81356134ee848260208601613487565b91505092915050565b6000806000806080858703121561351157613510613258565b5b600061351f87828801613366565b945050602061353087828801613366565b93505060406135418782880161339c565b925050606085013567ffffffffffffffff8111156135625761356161325d565b5b61356e878288016134c9565b91505092959194509250565b61358381613262565b82525050565b600060208201905061359e600083018461357a565b92915050565b600080fd5b6000608082840312156135bf576135be6135a4565b5b81905092915050565b6000602082840312156135de576135dd613258565b5b600082013567ffffffffffffffff8111156135fc576135fb61325d565b5b613608848285016135a9565b91505092915050565b6000819050919050565b61362481613611565b811461362f57600080fd5b50565b6000813590506136418161361b565b92915050565b60006020828403121561365d5761365c613258565b5b600061366b84828501613632565b91505092915050565b61367d81613611565b82525050565b60006020820190506136986000830184613674565b92915050565b600080604083850312156136b5576136b4613258565b5b60006136c385828601613632565b92505060206136d485828601613366565b9150509250929050565b600060e082840312156136f4576136f36135a4565b5b81905092915050565b60006020828403121561371357613712613258565b5b600082013567ffffffffffffffff8111156137315761373061325d565b5b61373d848285016136de565b91505092915050565b61374f8161337b565b82525050565b600060208201905061376a6000830184613746565b92915050565b600080fd5b600080fd5b60008083601f8401126137905761378f6133b1565b5b8235905067ffffffffffffffff8111156137ad576137ac613770565b5b6020830191508360018202830111156137c9576137c8613775565b5b9250929050565b6000806000604084860312156137e9576137e8613258565b5b60006137f78682870161339c565b935050602084013567ffffffffffffffff8111156138185761381761325d565b5b6138248682870161377a565b92509250509250925092565b6138398161333d565b82525050565b6138488161337b565b82525050565b61385781613611565b82525050565b7f4e487b7100000000000000000000000000000000000000000000000000000000600052602160045260246000fd5b6005811061389d5761389c61385d565b5b50565b60008190506138ae8261388c565b919050565b60006138be826138a0565b9050919050565b6138ce816138b3565b82525050565b610100820160008201516138eb6000850182613830565b5060208201516138fe602085018261383f565b506040820151613911604085018261383f565b5060608201516139246060850182613830565b506080820151613937608085018261383f565b5060a082015161394a60a085018261383f565b5060c082015161395d60c085018261384e565b5060e082015161397060e08501826138c5565b50505050565b60006101008201905061398c60008301846138d4565b92915050565b6000608082840312156139a8576139a76135a4565b5b81905092915050565b6000602082840312156139c7576139c6613258565b5b600082013567ffffffffffffffff8111156139e5576139e461325d565b5b6139f184828501613992565b91505092915050565b60008060208385031215613a1157613a10613258565b5b600083013567ffffffffffffffff811115613a2f57613a2e61325d565b5b613a3b8582860161377a565b92509250509250929050565b600081519050919050565b600082825260208201905092915050565b60005b83811015613a81578082015181840152602081019050613a66565b83811115613a90576000848401525b50505050565b6000613aa182613a47565b613aab8185613a52565b9350613abb818560208601613a63565b613ac4816133bb565b840191505092915050565b6000606083016000830151613ae7600086018261383f565b5060208301518482036020860152613aff8282613a96565b9150506040830151613b146040860182613830565b508091505092915050565b60006020820190508181036000830152613b398184613acf565b905092915050565b600060a08284031215613b5757613b566135a4565b5b81905092915050565b600060208284031215613b7657613b75613258565b5b600082013567ffffffffffffffff811115613b9457613b9361325d565b5b613ba084828501613b41565b91505092915050565b60008083601f840112613bbf57613bbe6133b1565b5b8235905067ffffffffffffffff811115613bdc57613bdb613770565b5b602083019150836020820283011115613bf857613bf7613775565b5b9250929050565b600080600080600060608688031215613c1b57613c1a613258565b5b6000613c2988828901613366565b955050602086013567ffffffffffffffff811115613c4a57613c4961325d565b5b613c568882890161377a565b9450945050604086013567ffffffffffffffff811115613c7957613c7861325d565b5b613c8588828901613ba9565b92509250509295509295909350565b600060a08284031215613caa57613ca96135a4565b5b81905092915050565b600060208284031215613cc957613cc8613258565b5b600082013567ffffffffffffffff811115613ce757613ce661325d565b5b613cf384828501613c94565b91505092915050565b613d058161333d565b82525050565b6000602082019050613d206000830184613cfc565b92915050565b600060208284031215613d3c57613d3b613258565b5b6000613d4a84828501613366565b91505092915050565b600060208284031215613d6957613d68613258565b5b6000613d778482850161339c565b91505092915050565b60008060008060408587031215613d9a57613d99613258565b5b600085013567ffffffffffffffff811115613db857613db761325d565b5b613dc48782880161377a565b9450945050602085013567ffffffffffffffff811115613de757613de661325d565b5b613df387828801613ba9565b925092505092959194509250565b600082825260208201905092915050565b6000613e1d82613a47565b613e278185613e01565b9350613e37818560208601613a63565b613e40816133bb565b840191505092915050565b60006020820190508181036000830152613e658184613e12565b905092915050565b60008060408385031215613e8457613e83613258565b5b6000613e928582860161339c565b9250506020613ea38582860161339c565b9150509250929050565b600060a082019050613ec26000830188613674565b613ecf6020830187613746565b613edc6040830186613746565b613ee96060830185613746565b613ef66080830184613746565b9695505050505050565b600080fd5b600080fd5b600080fd5b60008083356001602003843603038112613f2c57613f2b613f00565b5b80840192508235915067ffffffffffffffff821115613f4e57613f4d613f05565b5b602083019250600182023603831315613f6a57613f69613f0a565b5b509250929050565b613f7b81613611565b82525050565b613f8a8161333d565b82525050565b600082825260208201905092915050565b6000613fad8385613f90565b9350613fba838584613478565b613fc3836133bb565b840190509392505050565b613fd78161337b565b82525050565b6000608082019050613ff26000830188613f72565b613fff6020830187613f81565b8181036040830152614012818587613fa1565b90506140216060830184613fce565b9695505050505050565b614034816132e7565b811461403f57600080fd5b50565b6000815190506140518161402b565b92915050565b60006020828403121561406d5761406c613258565b5b600061407b84828501614042565b91505092915050565b61408d816132e7565b82525050565b8082525050565b60006080820190506140af6000830187613fce565b6140bc6020830186613fce565b6140c96040830185614084565b6140d66060830184614093565b95945050505050565b7f4e487b7100000000000000000000000000000000000000000000000000000000600052601160045260246000fd5b60006141198261337b565b91507fffffffffffffffffffffffffffffffffffffffffffffffffffffffffffffffff82141561414c5761414b6140df565b5b600182019050919050565b600060608201905061416c6000830186613fce565b6141796020830185613fce565b6141866040830184614093565b949350505050565b7f416363657373436f6e74726f6c3a2063616e206f6e6c792072656e6f756e636560008201527f20726f6c657320666f722073656c660000000000000000000000000000000000602082015250565b60006141ea602f83613e01565b91506141f58261418e565b604082019050919050565b60006020820190508181036000830152614219816141dd565b9050919050565b6000808335600160200384360303811261423d5761423c613f00565b5b80840192508235915067ffffffffffffffff82111561425f5761425e613f05565b5b60208301925060018202360383131561427b5761427a613f0a565b5b509250929050565b600081905092915050565b600061429a8385614283565b93506142a7838584613478565b82840190509392505050565b60006142c082848661428e565b91508190509392505050565b6000610100820190506142e2600083018b613674565b6142ef602083018a613746565b6142fc6040830189613674565b6143096060830188613674565b6143166080830187613746565b61432360a0830186613cfc565b61433060c0830185613746565b61433d60e0830184613746565b9998505050505050505050565b60006143568385613e01565b9350614363838584613478565b61436c836133bb565b840190509392505050565b600060408201905061438c6000830186613cfc565b818103602083015261439f81848661434a565b9050949350505050565b6000815190506143b881613385565b92915050565b6000602082840312156143d4576143d3613258565b5b60006143e2848285016143a9565b91505092915050565b600082825260208201905092915050565b600061440883856143eb565b9350614415838584613478565b61441e836133bb565b840190509392505050565b8082525050565b8082525050565b60006101008201905061444d600083018c613fce565b61445a602083018b613fce565b818103604083015261446d81898b6143fc565b905061447c6060830188613fce565b6144896080830187613f81565b61449660a0830186614093565b6144a360c0830185614429565b6144b060e0830184614430565b9a9950505050505050505050565b600060a0820190506144d36000830188613674565b6144e06020830187613746565b6144ed6040830186613674565b6144fa6060830185613746565b6145076080830184613746565b9695505050505050565b60006040820190506145266000830185613f72565b6145336020830184614429565b9392505050565b600060808201905061454f6000830188613fce565b61455c6020830187613fce565b818103604083015261456f8185876143fc565b905061457e6060830184614093565b9695505050505050565b600060608201905061459d6000830186613cfc565b6145aa6020830185613cfc565b6145b76040830184613746565b949350505050565b7f4e487b7100000000000000000000000000000000000000000000000000000000600052602260045260246000fd5b6000600282049050600182168061460657607f821691505b6020821081141561461a576146196145bf565b5b50919050565b600060c0820190506146356000830189613674565b6146426020830188613746565b61464f6040830187613746565b61465c6060830186613674565b6146696080830185613746565b61467660a0830184613746565b979650505050505050565b6000604082019050818103600083015261469c8185876143fc565b90506146ab6020830184614429565b949350505050565b600060a0820190506146c86000830189613fce565b6146d56020830188613fce565b81810360408301526146e88186886143fc565b90506146f76060830185614093565b6147046080830184614429565b979650505050505050565b8082525050565b600082825260208201905092915050565b600080fd5b60006147388385614716565b93507f07ffffffffffffffffffffffffffffffffffffffffffffffffffffffffffffff83111561476b5761476a614727565b5b60208302925061477c838584613478565b82840190509392505050565b600060c08201905061479d600083018b61470f565b6147aa602083018a613f81565b81810360408301526147bd81888a61472c565b905081810360608301526147d28186886143fc565b90506147e16080830185613f72565b6147ee60a0830184614429565b9998505050505050505050565b600060c0820190506148106000830189613674565b61481d6020830188613746565b61482a6040830187613674565b6148376060830186613674565b6148446080830185613746565b61485160a0830184613746565b979650505050505050565b600060c082019050614871600083018a61470f565b61487e6020830189613f81565b81810360408301526148918187896143fc565b90506148a06060830186613fce565b6148ad6080830185614429565b6148ba60a0830184614430565b98975050505050505050565b7f5061757361626c653a2070617573656400000000000000000000000000000000600082015250565b60006148fc601083613e01565b9150614907826148c6565b602082019050919050565b6000602082019050818103600083015261492b816148ef565b9050919050565b7f4e487b7100000000000000000000000000000000000000000000000000000000600052603260045260246000fd5b600081905092915050565b7f1901000000000000000000000000000000000000000000000000000000000000600082015250565b60006149a2600283614961565b91506149ad8261496c565b600282019050919050565b6000819050919050565b6149d36149ce82613611565b6149b8565b82525050565b60006149e482614995565b91506149f082856149c2565b602082019150614a0082846149c2565b6020820191508190509392505050565b7f416363657373436f6e74726f6c3a206163636f756e7420000000000000000000600082015250565b6000614a46601783614961565b9150614a5182614a10565b601782019050919050565b6000614a6782613a47565b614a718185614961565b9350614a81818560208601613a63565b80840191505092915050565b7f206973206d697373696e6720726f6c6520000000000000000000000000000000600082015250565b6000614ac3601183614961565b9150614ace82614a8d565b601182019050919050565b6000614ae482614a39565b9150614af08285614a5c565b9150614afb82614ab6565b9150614b078284614a5c565b91508190509392505050565b7f5061757361626c653a206e6f7420706175736564000000000000000000000000600082015250565b6000614b49601483613e01565b9150614b5482614b13565b602082019050919050565b60006020820190508181036000830152614b7881614b3c565b9050919050565b600060a082019050614b946000830188613674565b614ba16020830187613674565b614bae6040830186613674565b614bbb6060830185613746565b614bc86080830184613cfc565b9695505050505050565b6000614bdd8261337b565b9150614be88361337b565b9250817fffffffffffffffffffffffffffffffffffffffffffffffffffffffffffffffff0483118215151615614c2157614c206140df565b5b828202905092915050565b6000614c378261337b565b9150614c428361337b565b9250827fffffffffffffffffffffffffffffffffffffffffffffffffffffffffffffffff03821115614c7757614c766140df565b5b828201905092915050565b6000614c8d8261337b565b91506000821415614ca157614ca06140df565b5b600182039050919050565b7f537472696e67733a20686578206c656e67746820696e73756666696369656e74600082015250565b6000614ce2602083613e01565b9150614ced82614cac565b602082019050919050565b60006020820190508181036000830152614d1181614cd5565b905091905056fea2646970667358221220896bb4ab8d3f3727ef478b783bca13eac60c825cab665beed2e24e6ae3512efe64736f6c63430008090033",
  "libraries": {
    "CoreLogic": "0xacDDa882DcA19e757b52240369A11342ec94A62c"
  },
  "devdoc": {
    "kind": "dev",
    "methods": {
      "getDomainSeparator()": {
        "returns": {
          "_0": "bytes32 The domain separator."
        }
      },
      "getHandle(uint256)": {
        "params": {
          "profileId": "The token ID of the profile to query the handle for."
        },
        "returns": {
          "_0": "string The handle associated with the profile."
        }
      },
      "getRoleAdmin(bytes32)": {
        "details": "Returns the admin role that controls `role`. See {grantRole} and {revokeRole}. To change a role's admin, use {_setRoleAdmin}."
      },
      "grantRole(bytes32,address)": {
        "details": "Grants `role` to `account`. If `account` had not been already granted `role`, emits a {RoleGranted} event. Requirements: - the caller must have ``role``'s admin role. May emit a {RoleGranted} event."
      },
      "hasRole(bytes32,address)": {
        "details": "Returns `true` if `account` has been granted `role`."
      },
      "onERC721Received(address,address,uint256,bytes)": {
        "details": "See {IERC721Receiver-onERC721Received}. Always returns `IERC721Receiver.onERC721Received.selector`."
      },
      "paused()": {
        "details": "Returns true if the contract is paused, and false otherwise."
      },
      "renounceRole(bytes32,address)": {
        "details": "Revokes `role` from the calling account. Roles are often managed via {grantRole} and {revokeRole}: this function's purpose is to provide a mechanism for accounts to lose their privileges if they are compromised (such as when a trusted device is misplaced). If the calling account had been revoked `role`, emits a {RoleRevoked} event. Requirements: - the caller must be `account`. May emit a {RoleRevoked} event."
      },
      "revokeRole(bytes32,address)": {
        "details": "Revokes `role` from `account`. If `account` had been granted `role`, emits a {RoleRevoked} event. Requirements: - the caller must have ``role``'s admin role. May emit a {RoleRevoked} event."
      },
      "supportsInterface(bytes4)": {
        "details": "See {IERC165-supportsInterface}."
      }
    },
    "version": 1
  },
  "userdoc": {
    "kind": "user",
    "methods": {
      "abortWithSig((uint256,uint256,bytes,uint256))": {
        "notice": "*********************** ***WRITE FUNCTIONS*** ***********************"
      },
      "canClaim(address,string,bytes32[])": {
        "notice": "*********************** ***VIEW FUNCTIONS*** ***********************"
      },
      "getDomainSeparator()": {
        "notice": "Returns the domain separator for this NFT contract."
      },
      "getHandle(uint256)": {
        "notice": "Returns the handle associated with a profile."
      }
    },
    "version": 1
  },
  "storageLayout": {
    "storage": [
      {
        "astId": 1708,
        "contract": "contracts/Pomp.sol:Pomp",
        "label": "_paused",
        "offset": 0,
        "slot": "0",
        "type": "t_bool"
      },
      {
        "astId": 1308,
        "contract": "contracts/Pomp.sol:Pomp",
        "label": "_roles",
        "offset": 0,
        "slot": "1",
        "type": "t_mapping(t_bytes32,t_struct(RoleData)1303_storage)"
      },
      {
        "astId": 6820,
        "contract": "contracts/Pomp.sol:Pomp",
        "label": "claimed",
        "offset": 0,
        "slot": "2",
        "type": "t_mapping(t_address,t_bool)"
      },
      {
        "astId": 6824,
        "contract": "contracts/Pomp.sol:Pomp",
        "label": "_profileIdByHandleHash",
        "offset": 0,
        "slot": "3",
        "type": "t_mapping(t_bytes32,t_uint256)"
      },
      {
        "astId": 6828,
        "contract": "contracts/Pomp.sol:Pomp",
        "label": "_missionIdBySlugHash",
        "offset": 0,
        "slot": "4",
        "type": "t_mapping(t_bytes32,t_uint256)"
      },
      {
        "astId": 6832,
        "contract": "contracts/Pomp.sol:Pomp",
        "label": "_missionIdByChallengeHash",
        "offset": 0,
        "slot": "5",
        "type": "t_mapping(t_bytes32,t_uint256)"
      },
      {
        "astId": 6837,
        "contract": "contracts/Pomp.sol:Pomp",
        "label": "_profileById",
        "offset": 0,
        "slot": "6",
        "type": "t_mapping(t_uint256,t_struct(ProfileStruct)6719_storage)"
      },
      {
        "astId": 6844,
        "contract": "contracts/Pomp.sol:Pomp",
        "label": "_missionByIdByProfile",
        "offset": 0,
        "slot": "7",
        "type": "t_mapping(t_uint256,t_mapping(t_uint256,t_struct(MissionStruct)6712_storage))"
      },
      {
        "astId": 6848,
        "contract": "contracts/Pomp.sol:Pomp",
        "label": "sigNonces",
        "offset": 0,
        "slot": "8",
        "type": "t_mapping(t_address,t_uint256)"
      },
      {
        "astId": 6850,
        "contract": "contracts/Pomp.sol:Pomp",
        "label": "_merklerootForProfiles",
        "offset": 0,
        "slot": "9",
        "type": "t_bytes32"
      },
      {
        "astId": 4700,
        "contract": "contracts/Pomp.sol:Pomp",
        "label": "_profileIdCounter",
        "offset": 0,
        "slot": "10",
        "type": "t_struct(Counter)3206_storage"
      }
    ],
    "types": {
      "t_address": {
        "encoding": "inplace",
        "label": "address",
        "numberOfBytes": "20"
      },
      "t_bool": {
        "encoding": "inplace",
        "label": "bool",
        "numberOfBytes": "1"
      },
      "t_bytes32": {
        "encoding": "inplace",
        "label": "bytes32",
        "numberOfBytes": "32"
      },
      "t_enum(State)6694": {
        "encoding": "inplace",
        "label": "enum DataTypes.State",
        "numberOfBytes": "1"
      },
      "t_mapping(t_address,t_bool)": {
        "encoding": "mapping",
        "key": "t_address",
        "label": "mapping(address => bool)",
        "numberOfBytes": "32",
        "value": "t_bool"
      },
      "t_mapping(t_address,t_uint256)": {
        "encoding": "mapping",
        "key": "t_address",
        "label": "mapping(address => uint256)",
        "numberOfBytes": "32",
        "value": "t_uint256"
      },
      "t_mapping(t_bytes32,t_struct(RoleData)1303_storage)": {
        "encoding": "mapping",
        "key": "t_bytes32",
        "label": "mapping(bytes32 => struct AccessControl.RoleData)",
        "numberOfBytes": "32",
        "value": "t_struct(RoleData)1303_storage"
      },
      "t_mapping(t_bytes32,t_uint256)": {
        "encoding": "mapping",
        "key": "t_bytes32",
        "label": "mapping(bytes32 => uint256)",
        "numberOfBytes": "32",
        "value": "t_uint256"
      },
      "t_mapping(t_uint256,t_mapping(t_uint256,t_struct(MissionStruct)6712_storage))": {
        "encoding": "mapping",
        "key": "t_uint256",
        "label": "mapping(uint256 => mapping(uint256 => struct DataTypes.MissionStruct))",
        "numberOfBytes": "32",
        "value": "t_mapping(t_uint256,t_struct(MissionStruct)6712_storage)"
      },
      "t_mapping(t_uint256,t_struct(MissionStruct)6712_storage)": {
        "encoding": "mapping",
        "key": "t_uint256",
        "label": "mapping(uint256 => struct DataTypes.MissionStruct)",
        "numberOfBytes": "32",
        "value": "t_struct(MissionStruct)6712_storage"
      },
      "t_mapping(t_uint256,t_struct(ProfileStruct)6719_storage)": {
        "encoding": "mapping",
        "key": "t_uint256",
        "label": "mapping(uint256 => struct DataTypes.ProfileStruct)",
        "numberOfBytes": "32",
        "value": "t_struct(ProfileStruct)6719_storage"
      },
      "t_string_storage": {
        "encoding": "bytes",
        "label": "string",
        "numberOfBytes": "32"
      },
      "t_struct(Counter)3206_storage": {
        "encoding": "inplace",
        "label": "struct Counters.Counter",
        "members": [
          {
            "astId": 3205,
            "contract": "contracts/Pomp.sol:Pomp",
            "label": "_value",
            "offset": 0,
            "slot": "0",
            "type": "t_uint256"
          }
        ],
        "numberOfBytes": "32"
      },
      "t_struct(MissionStruct)6712_storage": {
        "encoding": "inplace",
        "label": "struct DataTypes.MissionStruct",
        "members": [
          {
            "astId": 6696,
            "contract": "contracts/Pomp.sol:Pomp",
            "label": "owner",
            "offset": 0,
            "slot": "0",
            "type": "t_address"
          },
          {
            "astId": 6698,
            "contract": "contracts/Pomp.sol:Pomp",
            "label": "profileId",
            "offset": 0,
            "slot": "1",
            "type": "t_uint256"
          },
          {
            "astId": 6700,
            "contract": "contracts/Pomp.sol:Pomp",
            "label": "missionId",
            "offset": 0,
            "slot": "2",
            "type": "t_uint256"
          },
          {
            "astId": 6702,
            "contract": "contracts/Pomp.sol:Pomp",
            "label": "verifier",
            "offset": 0,
            "slot": "3",
            "type": "t_address"
          },
          {
            "astId": 6704,
            "contract": "contracts/Pomp.sol:Pomp",
            "label": "starttime",
            "offset": 0,
            "slot": "4",
            "type": "t_uint256"
          },
          {
            "astId": 6706,
            "contract": "contracts/Pomp.sol:Pomp",
            "label": "endtime",
            "offset": 0,
            "slot": "5",
            "type": "t_uint256"
          },
          {
            "astId": 6708,
            "contract": "contracts/Pomp.sol:Pomp",
            "label": "challengeHash",
            "offset": 0,
            "slot": "6",
            "type": "t_bytes32"
          },
          {
            "astId": 6711,
            "contract": "contracts/Pomp.sol:Pomp",
            "label": "state",
            "offset": 0,
            "slot": "7",
            "type": "t_enum(State)6694"
          }
        ],
        "numberOfBytes": "256"
      },
      "t_struct(ProfileStruct)6719_storage": {
        "encoding": "inplace",
        "label": "struct DataTypes.ProfileStruct",
        "members": [
          {
            "astId": 6714,
            "contract": "contracts/Pomp.sol:Pomp",
            "label": "missionCount",
            "offset": 0,
            "slot": "0",
            "type": "t_uint256"
          },
          {
            "astId": 6716,
            "contract": "contracts/Pomp.sol:Pomp",
            "label": "handle",
            "offset": 0,
            "slot": "1",
            "type": "t_string_storage"
          },
          {
            "astId": 6718,
            "contract": "contracts/Pomp.sol:Pomp",
            "label": "owner",
            "offset": 0,
            "slot": "2",
            "type": "t_address"
          }
        ],
        "numberOfBytes": "96"
      },
      "t_struct(RoleData)1303_storage": {
        "encoding": "inplace",
        "label": "struct AccessControl.RoleData",
        "members": [
          {
            "astId": 1300,
            "contract": "contracts/Pomp.sol:Pomp",
            "label": "members",
            "offset": 0,
            "slot": "0",
            "type": "t_mapping(t_address,t_bool)"
          },
          {
            "astId": 1302,
            "contract": "contracts/Pomp.sol:Pomp",
            "label": "adminRole",
            "offset": 0,
            "slot": "1",
            "type": "t_bytes32"
          }
        ],
        "numberOfBytes": "64"
      },
      "t_uint256": {
        "encoding": "inplace",
        "label": "uint256",
        "numberOfBytes": "32"
      }
    }
  }
}